{
	"contracts/funciones_avanzadas/2_funciones avanzadas.sol": {
		"Hamburguer": {
			"abi": [
				{
					"inputs": [],
					"stateMutability": "nonpayable",
					"type": "constructor"
				},
				{
					"inputs": [
						{
							"internalType": "string",
							"name": "_ingredientes",
							"type": "string"
						},
						{
							"internalType": "uint256",
							"name": "_uints",
							"type": "uint256"
						}
					],
					"name": "doHamburguer",
					"outputs": [],
					"stateMutability": "nonpayable",
					"type": "function"
				},
				{
					"inputs": [
						{
							"internalType": "uint256",
							"name": "_number",
							"type": "uint256"
						}
					],
					"name": "hashPrivateNumber",
					"outputs": [
						{
							"internalType": "bytes32",
							"name": "",
							"type": "bytes32"
						}
					],
					"stateMutability": "view",
					"type": "function"
				},
				{
					"inputs": [],
					"name": "owner",
					"outputs": [
						{
							"internalType": "address",
							"name": "",
							"type": "address"
						}
					],
					"stateMutability": "view",
					"type": "function"
				}
			],
			"devdoc": {
				"kind": "dev",
				"methods": {},
				"version": 1
			},
			"evm": {
				"assembly": "    /* \"contracts/funciones_avanzadas/2_funciones avanzadas.sol\":426:1232  contract Hamburguer is Food {\r... */\n  mstore(0x40, 0x80)\n    /* \"contracts/funciones_avanzadas/2_funciones avanzadas.sol\":492:544  constructor ( ){\r... */\n  callvalue\n  dup1\n  iszero\n  tag_1\n  jumpi\n  0x00\n  dup1\n  revert\ntag_1:\n  pop\n    /* \"contracts/funciones_avanzadas/2_funciones avanzadas.sol\":526:536  msg.sender */\n  caller\n    /* \"contracts/funciones_avanzadas/2_funciones avanzadas.sol\":518:523  owner */\n  0x01\n  0x00\n    /* \"contracts/funciones_avanzadas/2_funciones avanzadas.sol\":518:536  owner = msg.sender */\n  0x0100\n  exp\n  dup2\n  sload\n  dup2\n  0xffffffffffffffffffffffffffffffffffffffff\n  mul\n  not\n  and\n  swap1\n  dup4\n  0xffffffffffffffffffffffffffffffffffffffff\n  and\n  mul\n  or\n  swap1\n  sstore\n  pop\n    /* \"contracts/funciones_avanzadas/2_funciones avanzadas.sol\":426:1232  contract Hamburguer is Food {\r... */\n  dataSize(sub_0)\n  dup1\n  dataOffset(sub_0)\n  0x00\n  codecopy\n  0x00\n  return\nstop\n\nsub_0: assembly {\n        /* \"contracts/funciones_avanzadas/2_funciones avanzadas.sol\":426:1232  contract Hamburguer is Food {\r... */\n      mstore(0x40, 0x80)\n      callvalue\n      dup1\n      iszero\n      tag_1\n      jumpi\n      0x00\n      dup1\n      revert\n    tag_1:\n      pop\n      jumpi(tag_2, lt(calldatasize, 0x04))\n      shr(0xe0, calldataload(0x00))\n      dup1\n      0x8da5cb5b\n      eq\n      tag_3\n      jumpi\n      dup1\n      0xbda02842\n      eq\n      tag_4\n      jumpi\n      dup1\n      0xdd595ee4\n      eq\n      tag_5\n      jumpi\n    tag_2:\n      0x00\n      dup1\n      revert\n        /* \"contracts/funciones_avanzadas/2_funciones avanzadas.sol\":463:483  address public owner */\n    tag_3:\n      tag_6\n      tag_7\n      jump\t// in\n    tag_6:\n      mload(0x40)\n      tag_8\n      swap2\n      swap1\n      tag_9\n      jump\t// in\n    tag_8:\n      mload(0x40)\n      dup1\n      swap2\n      sub\n      swap1\n      return\n        /* \"contracts/funciones_avanzadas/2_funciones avanzadas.sol\":1085:1227  function hashPrivateNumber(uint _number) public view onlyOwner returns (bytes32){\r... */\n    tag_4:\n      tag_10\n      0x04\n      dup1\n      calldatasize\n      sub\n      dup2\n      add\n      swap1\n      tag_11\n      swap2\n      swap1\n      tag_12\n      jump\t// in\n    tag_11:\n      tag_13\n      jump\t// in\n    tag_10:\n      mload(0x40)\n      tag_14\n      swap2\n      swap1\n      tag_15\n      jump\t// in\n    tag_14:\n      mload(0x40)\n      dup1\n      swap2\n      sub\n      swap1\n      return\n        /* \"contracts/funciones_avanzadas/2_funciones avanzadas.sol\":608:809  function doHamburguer(string memory _ingredientes, uint _uints) external {\r... */\n    tag_5:\n      tag_16\n      0x04\n      dup1\n      calldatasize\n      sub\n      dup2\n      add\n      swap1\n      tag_17\n      swap2\n      swap1\n      tag_18\n      jump\t// in\n    tag_17:\n      tag_19\n      jump\t// in\n    tag_16:\n      stop\n        /* \"contracts/funciones_avanzadas/2_funciones avanzadas.sol\":463:483  address public owner */\n    tag_7:\n      0x01\n      0x00\n      swap1\n      sload\n      swap1\n      0x0100\n      exp\n      swap1\n      div\n      0xffffffffffffffffffffffffffffffffffffffff\n      and\n      dup2\n      jump\t// out\n        /* \"contracts/funciones_avanzadas/2_funciones avanzadas.sol\":1085:1227  function hashPrivateNumber(uint _number) public view onlyOwner returns (bytes32){\r... */\n    tag_13:\n        /* \"contracts/funciones_avanzadas/2_funciones avanzadas.sol\":1157:1164  bytes32 */\n      0x00\n        /* \"contracts/funciones_avanzadas/2_funciones avanzadas.sol\":938:948  msg.sender */\n      caller\n        /* \"contracts/funciones_avanzadas/2_funciones avanzadas.sol\":929:948  owner == msg.sender */\n      0xffffffffffffffffffffffffffffffffffffffff\n      and\n        /* \"contracts/funciones_avanzadas/2_funciones avanzadas.sol\":929:934  owner */\n      0x01\n      0x00\n      swap1\n      sload\n      swap1\n      0x0100\n      exp\n      swap1\n      div\n      0xffffffffffffffffffffffffffffffffffffffff\n      and\n        /* \"contracts/funciones_avanzadas/2_funciones avanzadas.sol\":929:948  owner == msg.sender */\n      0xffffffffffffffffffffffffffffffffffffffff\n      and\n      eq\n        /* \"contracts/funciones_avanzadas/2_funciones avanzadas.sol\":921:998  require(owner == msg.sender, \"No tienen permisos para ejecutar esta funcion\") */\n      tag_21\n      jumpi\n      mload(0x40)\n      0x08c379a000000000000000000000000000000000000000000000000000000000\n      dup2\n      mstore\n      0x04\n      add\n      tag_22\n      swap1\n      tag_23\n      jump\t// in\n    tag_22:\n      mload(0x40)\n      dup1\n      swap2\n      sub\n      swap1\n      revert\n    tag_21:\n        /* \"contracts/funciones_avanzadas/2_funciones avanzadas.sol\":1210:1217  _number */\n      dup2\n        /* \"contracts/funciones_avanzadas/2_funciones avanzadas.sol\":1193:1218  abi.encodePacked(_number) */\n      add(0x20, mload(0x40))\n      tag_25\n      swap2\n      swap1\n      tag_26\n      jump\t// in\n    tag_25:\n      mload(0x40)\n      0x20\n      dup2\n      dup4\n      sub\n      sub\n      dup2\n      mstore\n      swap1\n      0x40\n      mstore\n        /* \"contracts/funciones_avanzadas/2_funciones avanzadas.sol\":1183:1219  keccak256(abi.encodePacked(_number)) */\n      dup1\n      mload\n      swap1\n      0x20\n      add\n      keccak256\n        /* \"contracts/funciones_avanzadas/2_funciones avanzadas.sol\":1176:1219  return keccak256(abi.encodePacked(_number)) */\n      swap1\n      pop\n        /* \"contracts/funciones_avanzadas/2_funciones avanzadas.sol\":1085:1227  function hashPrivateNumber(uint _number) public view onlyOwner returns (bytes32){\r... */\n      swap2\n      swap1\n      pop\n      jump\t// out\n        /* \"contracts/funciones_avanzadas/2_funciones avanzadas.sol\":608:809  function doHamburguer(string memory _ingredientes, uint _uints) external {\r... */\n    tag_19:\n        /* \"contracts/funciones_avanzadas/2_funciones avanzadas.sol\":711:712  5 */\n      0x05\n        /* \"contracts/funciones_avanzadas/2_funciones avanzadas.sol\":701:707  _uints */\n      dup2\n        /* \"contracts/funciones_avanzadas/2_funciones avanzadas.sol\":701:712  _uints <= 5 */\n      gt\n      iszero\n        /* \"contracts/funciones_avanzadas/2_funciones avanzadas.sol\":692:754  require (_uints <= 5, \"No puedes pedir mas de 5 hamburguesas\") */\n      tag_28\n      jumpi\n      mload(0x40)\n      0x08c379a000000000000000000000000000000000000000000000000000000000\n      dup2\n      mstore\n      0x04\n      add\n      tag_29\n      swap1\n      tag_30\n      jump\t// in\n    tag_29:\n      mload(0x40)\n      dup1\n      swap2\n      sub\n      swap1\n      revert\n    tag_28:\n        /* \"contracts/funciones_avanzadas/2_funciones avanzadas.sol\":765:801  newMenu(\"Hamburguer\", _ingredientes) */\n      tag_31\n      mload(0x40)\n      dup1\n      0x40\n      add\n      0x40\n      mstore\n      dup1\n      0x0a\n      dup2\n      mstore\n      0x20\n      add\n      0x48616d6275726775657200000000000000000000000000000000000000000000\n      dup2\n      mstore\n      pop\n        /* \"contracts/funciones_avanzadas/2_funciones avanzadas.sol\":787:800  _ingredientes */\n      dup4\n        /* \"contracts/funciones_avanzadas/2_funciones avanzadas.sol\":765:772  newMenu */\n      tag_32\n        /* \"contracts/funciones_avanzadas/2_funciones avanzadas.sol\":765:801  newMenu(\"Hamburguer\", _ingredientes) */\n      jump\t// in\n    tag_31:\n        /* \"contracts/funciones_avanzadas/2_funciones avanzadas.sol\":608:809  function doHamburguer(string memory _ingredientes, uint _uints) external {\r... */\n      pop\n      pop\n      jump\t// out\n        /* \"contracts/funciones_avanzadas/2_funciones avanzadas.sol\":280:419  function newMenu(string memory _name, string memory _ingredientes) internal {\r... */\n    tag_32:\n        /* \"contracts/funciones_avanzadas/2_funciones avanzadas.sol\":367:371  menu */\n      0x00\n        /* \"contracts/funciones_avanzadas/2_funciones avanzadas.sol\":377:410  dinnerPlate(_name, _ingredientes) */\n      mload(0x40)\n      dup1\n      0x40\n      add\n      0x40\n      mstore\n      dup1\n        /* \"contracts/funciones_avanzadas/2_funciones avanzadas.sol\":389:394  _name */\n      dup5\n        /* \"contracts/funciones_avanzadas/2_funciones avanzadas.sol\":377:410  dinnerPlate(_name, _ingredientes) */\n      dup2\n      mstore\n      0x20\n      add\n        /* \"contracts/funciones_avanzadas/2_funciones avanzadas.sol\":396:409  _ingredientes */\n      dup4\n        /* \"contracts/funciones_avanzadas/2_funciones avanzadas.sol\":377:410  dinnerPlate(_name, _ingredientes) */\n      dup2\n      mstore\n      pop\n        /* \"contracts/funciones_avanzadas/2_funciones avanzadas.sol\":367:411  menu.push(dinnerPlate(_name, _ingredientes)) */\n      swap1\n      dup1\n      0x01\n      dup2\n      sload\n      add\n      dup1\n      dup3\n      sstore\n      dup1\n      swap2\n      pop\n      pop\n      0x01\n      swap1\n      sub\n      swap1\n      0x00\n      mstore\n      keccak256(0x00, 0x20)\n      swap1\n      0x02\n      mul\n      add\n      0x00\n      swap1\n      swap2\n      swap1\n      swap2\n      swap1\n      swap2\n      pop\n      0x00\n      dup3\n      add\n      mload\n      dup2\n      0x00\n      add\n      swap1\n      dup1\n      mload\n      swap1\n      0x20\n      add\n      swap1\n      tag_35\n      swap3\n      swap2\n      swap1\n      tag_36\n      jump\t// in\n    tag_35:\n      pop\n      0x20\n      dup3\n      add\n      mload\n      dup2\n      0x01\n      add\n      swap1\n      dup1\n      mload\n      swap1\n      0x20\n      add\n      swap1\n      tag_37\n      swap3\n      swap2\n      swap1\n      tag_36\n      jump\t// in\n    tag_37:\n      pop\n      pop\n      pop\n        /* \"contracts/funciones_avanzadas/2_funciones avanzadas.sol\":280:419  function newMenu(string memory _name, string memory _ingredientes) internal {\r... */\n      pop\n      pop\n      jump\t// out\n    tag_36:\n      dup3\n      dup1\n      sload\n      tag_38\n      swap1\n      tag_39\n      jump\t// in\n    tag_38:\n      swap1\n      0x00\n      mstore\n      keccak256(0x00, 0x20)\n      swap1\n      0x1f\n      add\n      0x20\n      swap1\n      div\n      dup2\n      add\n      swap3\n      dup3\n      tag_41\n      jumpi\n      0x00\n      dup6\n      sstore\n      jump(tag_40)\n    tag_41:\n      dup3\n      0x1f\n      lt\n      tag_42\n      jumpi\n      dup1\n      mload\n      not(0xff)\n      and\n      dup4\n      dup1\n      add\n      or\n      dup6\n      sstore\n      jump(tag_40)\n    tag_42:\n      dup3\n      dup1\n      add\n      0x01\n      add\n      dup6\n      sstore\n      dup3\n      iszero\n      tag_40\n      jumpi\n      swap2\n      dup3\n      add\n    tag_43:\n      dup3\n      dup2\n      gt\n      iszero\n      tag_44\n      jumpi\n      dup3\n      mload\n      dup3\n      sstore\n      swap2\n      0x20\n      add\n      swap2\n      swap1\n      0x01\n      add\n      swap1\n      jump(tag_43)\n    tag_44:\n    tag_40:\n      pop\n      swap1\n      pop\n      tag_45\n      swap2\n      swap1\n      tag_46\n      jump\t// in\n    tag_45:\n      pop\n      swap1\n      jump\t// out\n    tag_46:\n    tag_47:\n      dup1\n      dup3\n      gt\n      iszero\n      tag_48\n      jumpi\n      0x00\n      dup2\n      0x00\n      swap1\n      sstore\n      pop\n      0x01\n      add\n      jump(tag_47)\n    tag_48:\n      pop\n      swap1\n      jump\t// out\n        /* \"#utility.yul\":7:419   */\n    tag_50:\n        /* \"#utility.yul\":85:90   */\n      0x00\n        /* \"#utility.yul\":110:176   */\n      tag_52\n        /* \"#utility.yul\":126:175   */\n      tag_53\n        /* \"#utility.yul\":168:174   */\n      dup5\n        /* \"#utility.yul\":126:175   */\n      tag_54\n      jump\t// in\n    tag_53:\n        /* \"#utility.yul\":110:176   */\n      tag_55\n      jump\t// in\n    tag_52:\n        /* \"#utility.yul\":101:176   */\n      swap1\n      pop\n        /* \"#utility.yul\":199:205   */\n      dup3\n        /* \"#utility.yul\":192:197   */\n      dup2\n        /* \"#utility.yul\":185:206   */\n      mstore\n        /* \"#utility.yul\":237:241   */\n      0x20\n        /* \"#utility.yul\":230:235   */\n      dup2\n        /* \"#utility.yul\":226:242   */\n      add\n        /* \"#utility.yul\":275:278   */\n      dup5\n        /* \"#utility.yul\":266:272   */\n      dup5\n        /* \"#utility.yul\":261:264   */\n      dup5\n        /* \"#utility.yul\":257:273   */\n      add\n        /* \"#utility.yul\":254:279   */\n      gt\n        /* \"#utility.yul\":251:363   */\n      iszero\n      tag_56\n      jumpi\n        /* \"#utility.yul\":282:361   */\n      tag_57\n      tag_58\n      jump\t// in\n    tag_57:\n        /* \"#utility.yul\":251:363   */\n    tag_56:\n        /* \"#utility.yul\":372:413   */\n      tag_59\n        /* \"#utility.yul\":406:412   */\n      dup5\n        /* \"#utility.yul\":401:404   */\n      dup3\n        /* \"#utility.yul\":396:399   */\n      dup6\n        /* \"#utility.yul\":372:413   */\n      tag_60\n      jump\t// in\n    tag_59:\n        /* \"#utility.yul\":91:419   */\n      pop\n        /* \"#utility.yul\":7:419   */\n      swap4\n      swap3\n      pop\n      pop\n      pop\n      jump\t// out\n        /* \"#utility.yul\":439:779   */\n    tag_61:\n        /* \"#utility.yul\":495:500   */\n      0x00\n        /* \"#utility.yul\":544:547   */\n      dup3\n        /* \"#utility.yul\":537:541   */\n      0x1f\n        /* \"#utility.yul\":529:535   */\n      dup4\n        /* \"#utility.yul\":525:542   */\n      add\n        /* \"#utility.yul\":521:548   */\n      slt\n        /* \"#utility.yul\":511:633   */\n      tag_63\n      jumpi\n        /* \"#utility.yul\":552:631   */\n      tag_64\n      tag_65\n      jump\t// in\n    tag_64:\n        /* \"#utility.yul\":511:633   */\n    tag_63:\n        /* \"#utility.yul\":669:675   */\n      dup2\n        /* \"#utility.yul\":656:676   */\n      calldataload\n        /* \"#utility.yul\":694:773   */\n      tag_66\n        /* \"#utility.yul\":769:772   */\n      dup5\n        /* \"#utility.yul\":761:767   */\n      dup3\n        /* \"#utility.yul\":754:758   */\n      0x20\n        /* \"#utility.yul\":746:752   */\n      dup7\n        /* \"#utility.yul\":742:759   */\n      add\n        /* \"#utility.yul\":694:773   */\n      tag_50\n      jump\t// in\n    tag_66:\n        /* \"#utility.yul\":685:773   */\n      swap2\n      pop\n        /* \"#utility.yul\":501:779   */\n      pop\n        /* \"#utility.yul\":439:779   */\n      swap3\n      swap2\n      pop\n      pop\n      jump\t// out\n        /* \"#utility.yul\":785:924   */\n    tag_67:\n        /* \"#utility.yul\":831:836   */\n      0x00\n        /* \"#utility.yul\":869:875   */\n      dup2\n        /* \"#utility.yul\":856:876   */\n      calldataload\n        /* \"#utility.yul\":847:876   */\n      swap1\n      pop\n        /* \"#utility.yul\":885:918   */\n      tag_69\n        /* \"#utility.yul\":912:917   */\n      dup2\n        /* \"#utility.yul\":885:918   */\n      tag_70\n      jump\t// in\n    tag_69:\n        /* \"#utility.yul\":785:924   */\n      swap3\n      swap2\n      pop\n      pop\n      jump\t// out\n        /* \"#utility.yul\":930:1584   */\n    tag_18:\n        /* \"#utility.yul\":1008:1014   */\n      0x00\n        /* \"#utility.yul\":1016:1022   */\n      dup1\n        /* \"#utility.yul\":1065:1067   */\n      0x40\n        /* \"#utility.yul\":1053:1062   */\n      dup4\n        /* \"#utility.yul\":1044:1051   */\n      dup6\n        /* \"#utility.yul\":1040:1063   */\n      sub\n        /* \"#utility.yul\":1036:1068   */\n      slt\n        /* \"#utility.yul\":1033:1152   */\n      iszero\n      tag_72\n      jumpi\n        /* \"#utility.yul\":1071:1150   */\n      tag_73\n      tag_74\n      jump\t// in\n    tag_73:\n        /* \"#utility.yul\":1033:1152   */\n    tag_72:\n        /* \"#utility.yul\":1219:1220   */\n      0x00\n        /* \"#utility.yul\":1208:1217   */\n      dup4\n        /* \"#utility.yul\":1204:1221   */\n      add\n        /* \"#utility.yul\":1191:1222   */\n      calldataload\n        /* \"#utility.yul\":1249:1267   */\n      0xffffffffffffffff\n        /* \"#utility.yul\":1241:1247   */\n      dup2\n        /* \"#utility.yul\":1238:1268   */\n      gt\n        /* \"#utility.yul\":1235:1352   */\n      iszero\n      tag_75\n      jumpi\n        /* \"#utility.yul\":1271:1350   */\n      tag_76\n      tag_77\n      jump\t// in\n    tag_76:\n        /* \"#utility.yul\":1235:1352   */\n    tag_75:\n        /* \"#utility.yul\":1376:1439   */\n      tag_78\n        /* \"#utility.yul\":1431:1438   */\n      dup6\n        /* \"#utility.yul\":1422:1428   */\n      dup3\n        /* \"#utility.yul\":1411:1420   */\n      dup7\n        /* \"#utility.yul\":1407:1429   */\n      add\n        /* \"#utility.yul\":1376:1439   */\n      tag_61\n      jump\t// in\n    tag_78:\n        /* \"#utility.yul\":1366:1439   */\n      swap3\n      pop\n        /* \"#utility.yul\":1162:1449   */\n      pop\n        /* \"#utility.yul\":1488:1490   */\n      0x20\n        /* \"#utility.yul\":1514:1567   */\n      tag_79\n        /* \"#utility.yul\":1559:1566   */\n      dup6\n        /* \"#utility.yul\":1550:1556   */\n      dup3\n        /* \"#utility.yul\":1539:1548   */\n      dup7\n        /* \"#utility.yul\":1535:1557   */\n      add\n        /* \"#utility.yul\":1514:1567   */\n      tag_67\n      jump\t// in\n    tag_79:\n        /* \"#utility.yul\":1504:1567   */\n      swap2\n      pop\n        /* \"#utility.yul\":1459:1577   */\n      pop\n        /* \"#utility.yul\":930:1584   */\n      swap3\n      pop\n      swap3\n      swap1\n      pop\n      jump\t// out\n        /* \"#utility.yul\":1590:1919   */\n    tag_12:\n        /* \"#utility.yul\":1649:1655   */\n      0x00\n        /* \"#utility.yul\":1698:1700   */\n      0x20\n        /* \"#utility.yul\":1686:1695   */\n      dup3\n        /* \"#utility.yul\":1677:1684   */\n      dup5\n        /* \"#utility.yul\":1673:1696   */\n      sub\n        /* \"#utility.yul\":1669:1701   */\n      slt\n        /* \"#utility.yul\":1666:1785   */\n      iszero\n      tag_81\n      jumpi\n        /* \"#utility.yul\":1704:1783   */\n      tag_82\n      tag_74\n      jump\t// in\n    tag_82:\n        /* \"#utility.yul\":1666:1785   */\n    tag_81:\n        /* \"#utility.yul\":1824:1825   */\n      0x00\n        /* \"#utility.yul\":1849:1902   */\n      tag_83\n        /* \"#utility.yul\":1894:1901   */\n      dup5\n        /* \"#utility.yul\":1885:1891   */\n      dup3\n        /* \"#utility.yul\":1874:1883   */\n      dup6\n        /* \"#utility.yul\":1870:1892   */\n      add\n        /* \"#utility.yul\":1849:1902   */\n      tag_67\n      jump\t// in\n    tag_83:\n        /* \"#utility.yul\":1839:1902   */\n      swap2\n      pop\n        /* \"#utility.yul\":1795:1912   */\n      pop\n        /* \"#utility.yul\":1590:1919   */\n      swap3\n      swap2\n      pop\n      pop\n      jump\t// out\n        /* \"#utility.yul\":1925:2043   */\n    tag_84:\n        /* \"#utility.yul\":2012:2036   */\n      tag_86\n        /* \"#utility.yul\":2030:2035   */\n      dup2\n        /* \"#utility.yul\":2012:2036   */\n      tag_87\n      jump\t// in\n    tag_86:\n        /* \"#utility.yul\":2007:2010   */\n      dup3\n        /* \"#utility.yul\":2000:2037   */\n      mstore\n        /* \"#utility.yul\":1925:2043   */\n      pop\n      pop\n      jump\t// out\n        /* \"#utility.yul\":2049:2167   */\n    tag_88:\n        /* \"#utility.yul\":2136:2160   */\n      tag_90\n        /* \"#utility.yul\":2154:2159   */\n      dup2\n        /* \"#utility.yul\":2136:2160   */\n      tag_91\n      jump\t// in\n    tag_90:\n        /* \"#utility.yul\":2131:2134   */\n      dup3\n        /* \"#utility.yul\":2124:2161   */\n      mstore\n        /* \"#utility.yul\":2049:2167   */\n      pop\n      pop\n      jump\t// out\n        /* \"#utility.yul\":2173:2539   */\n    tag_92:\n        /* \"#utility.yul\":2315:2318   */\n      0x00\n        /* \"#utility.yul\":2336:2403   */\n      tag_94\n        /* \"#utility.yul\":2400:2402   */\n      0x2d\n        /* \"#utility.yul\":2395:2398   */\n      dup4\n        /* \"#utility.yul\":2336:2403   */\n      tag_95\n      jump\t// in\n    tag_94:\n        /* \"#utility.yul\":2329:2403   */\n      swap2\n      pop\n        /* \"#utility.yul\":2412:2505   */\n      tag_96\n        /* \"#utility.yul\":2501:2504   */\n      dup3\n        /* \"#utility.yul\":2412:2505   */\n      tag_97\n      jump\t// in\n    tag_96:\n        /* \"#utility.yul\":2530:2532   */\n      0x40\n        /* \"#utility.yul\":2525:2528   */\n      dup3\n        /* \"#utility.yul\":2521:2533   */\n      add\n        /* \"#utility.yul\":2514:2533   */\n      swap1\n      pop\n        /* \"#utility.yul\":2173:2539   */\n      swap2\n      swap1\n      pop\n      jump\t// out\n        /* \"#utility.yul\":2545:2911   */\n    tag_98:\n        /* \"#utility.yul\":2687:2690   */\n      0x00\n        /* \"#utility.yul\":2708:2775   */\n      tag_100\n        /* \"#utility.yul\":2772:2774   */\n      0x25\n        /* \"#utility.yul\":2767:2770   */\n      dup4\n        /* \"#utility.yul\":2708:2775   */\n      tag_95\n      jump\t// in\n    tag_100:\n        /* \"#utility.yul\":2701:2775   */\n      swap2\n      pop\n        /* \"#utility.yul\":2784:2877   */\n      tag_101\n        /* \"#utility.yul\":2873:2876   */\n      dup3\n        /* \"#utility.yul\":2784:2877   */\n      tag_102\n      jump\t// in\n    tag_101:\n        /* \"#utility.yul\":2902:2904   */\n      0x40\n        /* \"#utility.yul\":2897:2900   */\n      dup3\n        /* \"#utility.yul\":2893:2905   */\n      add\n        /* \"#utility.yul\":2886:2905   */\n      swap1\n      pop\n        /* \"#utility.yul\":2545:2911   */\n      swap2\n      swap1\n      pop\n      jump\t// out\n        /* \"#utility.yul\":2917:3074   */\n    tag_103:\n        /* \"#utility.yul\":3022:3067   */\n      tag_105\n        /* \"#utility.yul\":3042:3066   */\n      tag_106\n        /* \"#utility.yul\":3060:3065   */\n      dup3\n        /* \"#utility.yul\":3042:3066   */\n      tag_107\n      jump\t// in\n    tag_106:\n        /* \"#utility.yul\":3022:3067   */\n      tag_108\n      jump\t// in\n    tag_105:\n        /* \"#utility.yul\":3017:3020   */\n      dup3\n        /* \"#utility.yul\":3010:3068   */\n      mstore\n        /* \"#utility.yul\":2917:3074   */\n      pop\n      pop\n      jump\t// out\n        /* \"#utility.yul\":3080:3336   */\n    tag_26:\n        /* \"#utility.yul\":3192:3195   */\n      0x00\n        /* \"#utility.yul\":3207:3282   */\n      tag_110\n        /* \"#utility.yul\":3278:3281   */\n      dup3\n        /* \"#utility.yul\":3269:3275   */\n      dup5\n        /* \"#utility.yul\":3207:3282   */\n      tag_103\n      jump\t// in\n    tag_110:\n        /* \"#utility.yul\":3307:3309   */\n      0x20\n        /* \"#utility.yul\":3302:3305   */\n      dup3\n        /* \"#utility.yul\":3298:3310   */\n      add\n        /* \"#utility.yul\":3291:3310   */\n      swap2\n      pop\n        /* \"#utility.yul\":3327:3330   */\n      dup2\n        /* \"#utility.yul\":3320:3330   */\n      swap1\n      pop\n        /* \"#utility.yul\":3080:3336   */\n      swap3\n      swap2\n      pop\n      pop\n      jump\t// out\n        /* \"#utility.yul\":3342:3564   */\n    tag_9:\n        /* \"#utility.yul\":3435:3439   */\n      0x00\n        /* \"#utility.yul\":3473:3475   */\n      0x20\n        /* \"#utility.yul\":3462:3471   */\n      dup3\n        /* \"#utility.yul\":3458:3476   */\n      add\n        /* \"#utility.yul\":3450:3476   */\n      swap1\n      pop\n        /* \"#utility.yul\":3486:3557   */\n      tag_112\n        /* \"#utility.yul\":3554:3555   */\n      0x00\n        /* \"#utility.yul\":3543:3552   */\n      dup4\n        /* \"#utility.yul\":3539:3556   */\n      add\n        /* \"#utility.yul\":3530:3536   */\n      dup5\n        /* \"#utility.yul\":3486:3557   */\n      tag_84\n      jump\t// in\n    tag_112:\n        /* \"#utility.yul\":3342:3564   */\n      swap3\n      swap2\n      pop\n      pop\n      jump\t// out\n        /* \"#utility.yul\":3570:3792   */\n    tag_15:\n        /* \"#utility.yul\":3663:3667   */\n      0x00\n        /* \"#utility.yul\":3701:3703   */\n      0x20\n        /* \"#utility.yul\":3690:3699   */\n      dup3\n        /* \"#utility.yul\":3686:3704   */\n      add\n        /* \"#utility.yul\":3678:3704   */\n      swap1\n      pop\n        /* \"#utility.yul\":3714:3785   */\n      tag_114\n        /* \"#utility.yul\":3782:3783   */\n      0x00\n        /* \"#utility.yul\":3771:3780   */\n      dup4\n        /* \"#utility.yul\":3767:3784   */\n      add\n        /* \"#utility.yul\":3758:3764   */\n      dup5\n        /* \"#utility.yul\":3714:3785   */\n      tag_88\n      jump\t// in\n    tag_114:\n        /* \"#utility.yul\":3570:3792   */\n      swap3\n      swap2\n      pop\n      pop\n      jump\t// out\n        /* \"#utility.yul\":3798:4217   */\n    tag_23:\n        /* \"#utility.yul\":3964:3968   */\n      0x00\n        /* \"#utility.yul\":4002:4004   */\n      0x20\n        /* \"#utility.yul\":3991:4000   */\n      dup3\n        /* \"#utility.yul\":3987:4005   */\n      add\n        /* \"#utility.yul\":3979:4005   */\n      swap1\n      pop\n        /* \"#utility.yul\":4051:4060   */\n      dup2\n        /* \"#utility.yul\":4045:4049   */\n      dup2\n        /* \"#utility.yul\":4041:4061   */\n      sub\n        /* \"#utility.yul\":4037:4038   */\n      0x00\n        /* \"#utility.yul\":4026:4035   */\n      dup4\n        /* \"#utility.yul\":4022:4039   */\n      add\n        /* \"#utility.yul\":4015:4062   */\n      mstore\n        /* \"#utility.yul\":4079:4210   */\n      tag_116\n        /* \"#utility.yul\":4205:4209   */\n      dup2\n        /* \"#utility.yul\":4079:4210   */\n      tag_92\n      jump\t// in\n    tag_116:\n        /* \"#utility.yul\":4071:4210   */\n      swap1\n      pop\n        /* \"#utility.yul\":3798:4217   */\n      swap2\n      swap1\n      pop\n      jump\t// out\n        /* \"#utility.yul\":4223:4642   */\n    tag_30:\n        /* \"#utility.yul\":4389:4393   */\n      0x00\n        /* \"#utility.yul\":4427:4429   */\n      0x20\n        /* \"#utility.yul\":4416:4425   */\n      dup3\n        /* \"#utility.yul\":4412:4430   */\n      add\n        /* \"#utility.yul\":4404:4430   */\n      swap1\n      pop\n        /* \"#utility.yul\":4476:4485   */\n      dup2\n        /* \"#utility.yul\":4470:4474   */\n      dup2\n        /* \"#utility.yul\":4466:4486   */\n      sub\n        /* \"#utility.yul\":4462:4463   */\n      0x00\n        /* \"#utility.yul\":4451:4460   */\n      dup4\n        /* \"#utility.yul\":4447:4464   */\n      add\n        /* \"#utility.yul\":4440:4487   */\n      mstore\n        /* \"#utility.yul\":4504:4635   */\n      tag_118\n        /* \"#utility.yul\":4630:4634   */\n      dup2\n        /* \"#utility.yul\":4504:4635   */\n      tag_98\n      jump\t// in\n    tag_118:\n        /* \"#utility.yul\":4496:4635   */\n      swap1\n      pop\n        /* \"#utility.yul\":4223:4642   */\n      swap2\n      swap1\n      pop\n      jump\t// out\n        /* \"#utility.yul\":4648:4777   */\n    tag_55:\n        /* \"#utility.yul\":4682:4688   */\n      0x00\n        /* \"#utility.yul\":4709:4729   */\n      tag_120\n      tag_121\n      jump\t// in\n    tag_120:\n        /* \"#utility.yul\":4699:4729   */\n      swap1\n      pop\n        /* \"#utility.yul\":4738:4771   */\n      tag_122\n        /* \"#utility.yul\":4766:4770   */\n      dup3\n        /* \"#utility.yul\":4758:4764   */\n      dup3\n        /* \"#utility.yul\":4738:4771   */\n      tag_123\n      jump\t// in\n    tag_122:\n        /* \"#utility.yul\":4648:4777   */\n      swap2\n      swap1\n      pop\n      jump\t// out\n        /* \"#utility.yul\":4783:4858   */\n    tag_121:\n        /* \"#utility.yul\":4816:4822   */\n      0x00\n        /* \"#utility.yul\":4849:4851   */\n      0x40\n        /* \"#utility.yul\":4843:4852   */\n      mload\n        /* \"#utility.yul\":4833:4852   */\n      swap1\n      pop\n        /* \"#utility.yul\":4783:4858   */\n      swap1\n      jump\t// out\n        /* \"#utility.yul\":4864:5172   */\n    tag_54:\n        /* \"#utility.yul\":4926:4930   */\n      0x00\n        /* \"#utility.yul\":5016:5034   */\n      0xffffffffffffffff\n        /* \"#utility.yul\":5008:5014   */\n      dup3\n        /* \"#utility.yul\":5005:5035   */\n      gt\n        /* \"#utility.yul\":5002:5058   */\n      iszero\n      tag_126\n      jumpi\n        /* \"#utility.yul\":5038:5056   */\n      tag_127\n      tag_128\n      jump\t// in\n    tag_127:\n        /* \"#utility.yul\":5002:5058   */\n    tag_126:\n        /* \"#utility.yul\":5076:5105   */\n      tag_129\n        /* \"#utility.yul\":5098:5104   */\n      dup3\n        /* \"#utility.yul\":5076:5105   */\n      tag_130\n      jump\t// in\n    tag_129:\n        /* \"#utility.yul\":5068:5105   */\n      swap1\n      pop\n        /* \"#utility.yul\":5160:5164   */\n      0x20\n        /* \"#utility.yul\":5154:5158   */\n      dup2\n        /* \"#utility.yul\":5150:5165   */\n      add\n        /* \"#utility.yul\":5142:5165   */\n      swap1\n      pop\n        /* \"#utility.yul\":4864:5172   */\n      swap2\n      swap1\n      pop\n      jump\t// out\n        /* \"#utility.yul\":5178:5347   */\n    tag_95:\n        /* \"#utility.yul\":5262:5273   */\n      0x00\n        /* \"#utility.yul\":5296:5302   */\n      dup3\n        /* \"#utility.yul\":5291:5294   */\n      dup3\n        /* \"#utility.yul\":5284:5303   */\n      mstore\n        /* \"#utility.yul\":5336:5340   */\n      0x20\n        /* \"#utility.yul\":5331:5334   */\n      dup3\n        /* \"#utility.yul\":5327:5341   */\n      add\n        /* \"#utility.yul\":5312:5341   */\n      swap1\n      pop\n        /* \"#utility.yul\":5178:5347   */\n      swap3\n      swap2\n      pop\n      pop\n      jump\t// out\n        /* \"#utility.yul\":5353:5449   */\n    tag_87:\n        /* \"#utility.yul\":5390:5397   */\n      0x00\n        /* \"#utility.yul\":5419:5443   */\n      tag_133\n        /* \"#utility.yul\":5437:5442   */\n      dup3\n        /* \"#utility.yul\":5419:5443   */\n      tag_134\n      jump\t// in\n    tag_133:\n        /* \"#utility.yul\":5408:5443   */\n      swap1\n      pop\n        /* \"#utility.yul\":5353:5449   */\n      swap2\n      swap1\n      pop\n      jump\t// out\n        /* \"#utility.yul\":5455:5532   */\n    tag_91:\n        /* \"#utility.yul\":5492:5499   */\n      0x00\n        /* \"#utility.yul\":5521:5526   */\n      dup2\n        /* \"#utility.yul\":5510:5526   */\n      swap1\n      pop\n        /* \"#utility.yul\":5455:5532   */\n      swap2\n      swap1\n      pop\n      jump\t// out\n        /* \"#utility.yul\":5538:5664   */\n    tag_134:\n        /* \"#utility.yul\":5575:5582   */\n      0x00\n        /* \"#utility.yul\":5615:5657   */\n      0xffffffffffffffffffffffffffffffffffffffff\n        /* \"#utility.yul\":5608:5613   */\n      dup3\n        /* \"#utility.yul\":5604:5658   */\n      and\n        /* \"#utility.yul\":5593:5658   */\n      swap1\n      pop\n        /* \"#utility.yul\":5538:5664   */\n      swap2\n      swap1\n      pop\n      jump\t// out\n        /* \"#utility.yul\":5670:5747   */\n    tag_107:\n        /* \"#utility.yul\":5707:5714   */\n      0x00\n        /* \"#utility.yul\":5736:5741   */\n      dup2\n        /* \"#utility.yul\":5725:5741   */\n      swap1\n      pop\n        /* \"#utility.yul\":5670:5747   */\n      swap2\n      swap1\n      pop\n      jump\t// out\n        /* \"#utility.yul\":5753:5907   */\n    tag_60:\n        /* \"#utility.yul\":5837:5843   */\n      dup3\n        /* \"#utility.yul\":5832:5835   */\n      dup2\n        /* \"#utility.yul\":5827:5830   */\n      dup4\n        /* \"#utility.yul\":5814:5844   */\n      calldatacopy\n        /* \"#utility.yul\":5899:5900   */\n      0x00\n        /* \"#utility.yul\":5890:5896   */\n      dup4\n        /* \"#utility.yul\":5885:5888   */\n      dup4\n        /* \"#utility.yul\":5881:5897   */\n      add\n        /* \"#utility.yul\":5874:5901   */\n      mstore\n        /* \"#utility.yul\":5753:5907   */\n      pop\n      pop\n      pop\n      jump\t// out\n        /* \"#utility.yul\":5913:6233   */\n    tag_39:\n        /* \"#utility.yul\":5957:5963   */\n      0x00\n        /* \"#utility.yul\":5994:5995   */\n      0x02\n        /* \"#utility.yul\":5988:5992   */\n      dup3\n        /* \"#utility.yul\":5984:5996   */\n      div\n        /* \"#utility.yul\":5974:5996   */\n      swap1\n      pop\n        /* \"#utility.yul\":6041:6042   */\n      0x01\n        /* \"#utility.yul\":6035:6039   */\n      dup3\n        /* \"#utility.yul\":6031:6043   */\n      and\n        /* \"#utility.yul\":6062:6080   */\n      dup1\n        /* \"#utility.yul\":6052:6133   */\n      tag_140\n      jumpi\n        /* \"#utility.yul\":6118:6122   */\n      0x7f\n        /* \"#utility.yul\":6110:6116   */\n      dup3\n        /* \"#utility.yul\":6106:6123   */\n      and\n        /* \"#utility.yul\":6096:6123   */\n      swap2\n      pop\n        /* \"#utility.yul\":6052:6133   */\n    tag_140:\n        /* \"#utility.yul\":6180:6182   */\n      0x20\n        /* \"#utility.yul\":6172:6178   */\n      dup3\n        /* \"#utility.yul\":6169:6183   */\n      lt\n        /* \"#utility.yul\":6149:6167   */\n      dup2\n        /* \"#utility.yul\":6146:6184   */\n      eq\n        /* \"#utility.yul\":6143:6227   */\n      iszero\n      tag_141\n      jumpi\n        /* \"#utility.yul\":6199:6217   */\n      tag_142\n      tag_143\n      jump\t// in\n    tag_142:\n        /* \"#utility.yul\":6143:6227   */\n    tag_141:\n        /* \"#utility.yul\":5964:6233   */\n      pop\n        /* \"#utility.yul\":5913:6233   */\n      swap2\n      swap1\n      pop\n      jump\t// out\n        /* \"#utility.yul\":6239:6520   */\n    tag_123:\n        /* \"#utility.yul\":6322:6349   */\n      tag_145\n        /* \"#utility.yul\":6344:6348   */\n      dup3\n        /* \"#utility.yul\":6322:6349   */\n      tag_130\n      jump\t// in\n    tag_145:\n        /* \"#utility.yul\":6314:6320   */\n      dup2\n        /* \"#utility.yul\":6310:6350   */\n      add\n        /* \"#utility.yul\":6452:6458   */\n      dup2\n        /* \"#utility.yul\":6440:6450   */\n      dup2\n        /* \"#utility.yul\":6437:6459   */\n      lt\n        /* \"#utility.yul\":6416:6434   */\n      0xffffffffffffffff\n        /* \"#utility.yul\":6404:6414   */\n      dup3\n        /* \"#utility.yul\":6401:6435   */\n      gt\n        /* \"#utility.yul\":6398:6460   */\n      or\n        /* \"#utility.yul\":6395:6483   */\n      iszero\n      tag_146\n      jumpi\n        /* \"#utility.yul\":6463:6481   */\n      tag_147\n      tag_128\n      jump\t// in\n    tag_147:\n        /* \"#utility.yul\":6395:6483   */\n    tag_146:\n        /* \"#utility.yul\":6503:6513   */\n      dup1\n        /* \"#utility.yul\":6499:6501   */\n      0x40\n        /* \"#utility.yul\":6492:6514   */\n      mstore\n        /* \"#utility.yul\":6282:6520   */\n      pop\n        /* \"#utility.yul\":6239:6520   */\n      pop\n      pop\n      jump\t// out\n        /* \"#utility.yul\":6526:6605   */\n    tag_108:\n        /* \"#utility.yul\":6565:6572   */\n      0x00\n        /* \"#utility.yul\":6594:6599   */\n      dup2\n        /* \"#utility.yul\":6583:6599   */\n      swap1\n      pop\n        /* \"#utility.yul\":6526:6605   */\n      swap2\n      swap1\n      pop\n      jump\t// out\n        /* \"#utility.yul\":6611:6791   */\n    tag_143:\n        /* \"#utility.yul\":6659:6736   */\n      0x4e487b7100000000000000000000000000000000000000000000000000000000\n        /* \"#utility.yul\":6656:6657   */\n      0x00\n        /* \"#utility.yul\":6649:6737   */\n      mstore\n        /* \"#utility.yul\":6756:6760   */\n      0x22\n        /* \"#utility.yul\":6753:6754   */\n      0x04\n        /* \"#utility.yul\":6746:6761   */\n      mstore\n        /* \"#utility.yul\":6780:6784   */\n      0x24\n        /* \"#utility.yul\":6777:6778   */\n      0x00\n        /* \"#utility.yul\":6770:6785   */\n      revert\n        /* \"#utility.yul\":6797:6977   */\n    tag_128:\n        /* \"#utility.yul\":6845:6922   */\n      0x4e487b7100000000000000000000000000000000000000000000000000000000\n        /* \"#utility.yul\":6842:6843   */\n      0x00\n        /* \"#utility.yul\":6835:6923   */\n      mstore\n        /* \"#utility.yul\":6942:6946   */\n      0x41\n        /* \"#utility.yul\":6939:6940   */\n      0x04\n        /* \"#utility.yul\":6932:6947   */\n      mstore\n        /* \"#utility.yul\":6966:6970   */\n      0x24\n        /* \"#utility.yul\":6963:6964   */\n      0x00\n        /* \"#utility.yul\":6956:6971   */\n      revert\n        /* \"#utility.yul\":6983:7100   */\n    tag_65:\n        /* \"#utility.yul\":7092:7093   */\n      0x00\n        /* \"#utility.yul\":7089:7090   */\n      dup1\n        /* \"#utility.yul\":7082:7094   */\n      revert\n        /* \"#utility.yul\":7106:7223   */\n    tag_58:\n        /* \"#utility.yul\":7215:7216   */\n      0x00\n        /* \"#utility.yul\":7212:7213   */\n      dup1\n        /* \"#utility.yul\":7205:7217   */\n      revert\n        /* \"#utility.yul\":7229:7346   */\n    tag_77:\n        /* \"#utility.yul\":7338:7339   */\n      0x00\n        /* \"#utility.yul\":7335:7336   */\n      dup1\n        /* \"#utility.yul\":7328:7340   */\n      revert\n        /* \"#utility.yul\":7352:7469   */\n    tag_74:\n        /* \"#utility.yul\":7461:7462   */\n      0x00\n        /* \"#utility.yul\":7458:7459   */\n      dup1\n        /* \"#utility.yul\":7451:7463   */\n      revert\n        /* \"#utility.yul\":7475:7577   */\n    tag_130:\n        /* \"#utility.yul\":7516:7522   */\n      0x00\n        /* \"#utility.yul\":7567:7569   */\n      0x1f\n        /* \"#utility.yul\":7563:7570   */\n      not\n        /* \"#utility.yul\":7558:7560   */\n      0x1f\n        /* \"#utility.yul\":7551:7556   */\n      dup4\n        /* \"#utility.yul\":7547:7561   */\n      add\n        /* \"#utility.yul\":7543:7571   */\n      and\n        /* \"#utility.yul\":7533:7571   */\n      swap1\n      pop\n        /* \"#utility.yul\":7475:7577   */\n      swap2\n      swap1\n      pop\n      jump\t// out\n        /* \"#utility.yul\":7583:7815   */\n    tag_97:\n        /* \"#utility.yul\":7723:7757   */\n      0x4e6f207469656e656e207065726d69736f73207061726120656a656375746172\n        /* \"#utility.yul\":7719:7720   */\n      0x00\n        /* \"#utility.yul\":7711:7717   */\n      dup3\n        /* \"#utility.yul\":7707:7721   */\n      add\n        /* \"#utility.yul\":7700:7758   */\n      mstore\n        /* \"#utility.yul\":7792:7807   */\n      0x20657374612066756e63696f6e00000000000000000000000000000000000000\n        /* \"#utility.yul\":7787:7789   */\n      0x20\n        /* \"#utility.yul\":7779:7785   */\n      dup3\n        /* \"#utility.yul\":7775:7790   */\n      add\n        /* \"#utility.yul\":7768:7808   */\n      mstore\n        /* \"#utility.yul\":7583:7815   */\n      pop\n      jump\t// out\n        /* \"#utility.yul\":7821:8045   */\n    tag_102:\n        /* \"#utility.yul\":7961:7995   */\n      0x4e6f20707565646573207065646972206d617320646520352068616d62757267\n        /* \"#utility.yul\":7957:7958   */\n      0x00\n        /* \"#utility.yul\":7949:7955   */\n      dup3\n        /* \"#utility.yul\":7945:7959   */\n      add\n        /* \"#utility.yul\":7938:7996   */\n      mstore\n        /* \"#utility.yul\":8030:8037   */\n      0x7565736173000000000000000000000000000000000000000000000000000000\n        /* \"#utility.yul\":8025:8027   */\n      0x20\n        /* \"#utility.yul\":8017:8023   */\n      dup3\n        /* \"#utility.yul\":8013:8028   */\n      add\n        /* \"#utility.yul\":8006:8038   */\n      mstore\n        /* \"#utility.yul\":7821:8045   */\n      pop\n      jump\t// out\n        /* \"#utility.yul\":8051:8173   */\n    tag_70:\n        /* \"#utility.yul\":8124:8148   */\n      tag_159\n        /* \"#utility.yul\":8142:8147   */\n      dup2\n        /* \"#utility.yul\":8124:8148   */\n      tag_107\n      jump\t// in\n    tag_159:\n        /* \"#utility.yul\":8117:8122   */\n      dup2\n        /* \"#utility.yul\":8114:8149   */\n      eq\n        /* \"#utility.yul\":8104:8167   */\n      tag_160\n      jumpi\n        /* \"#utility.yul\":8163:8164   */\n      0x00\n        /* \"#utility.yul\":8160:8161   */\n      dup1\n        /* \"#utility.yul\":8153:8165   */\n      revert\n        /* \"#utility.yul\":8104:8167   */\n    tag_160:\n        /* \"#utility.yul\":8051:8173   */\n      pop\n      jump\t// out\n\n    auxdata: 0xa26469706673582212202cf956c2b4199b5b4712cee77658b7ac9bf5c64939593fb5cd798d5f6253e00b64736f6c63430008070033\n}\n",
				"bytecode": {
					"linkReferences": {},
					"object": "608060405234801561001057600080fd5b5033600160006101000a81548173ffffffffffffffffffffffffffffffffffffffff021916908373ffffffffffffffffffffffffffffffffffffffff1602179055506107f1806100616000396000f3fe608060405234801561001057600080fd5b50600436106100415760003560e01c80638da5cb5b14610046578063bda0284214610064578063dd595ee414610094575b600080fd5b61004e6100b0565b60405161005b91906104e4565b60405180910390f35b61007e60048036038101906100799190610421565b6100d6565b60405161008b91906104ff565b60405180910390f35b6100ae60048036038101906100a991906103c5565b610196565b005b600160009054906101000a900473ffffffffffffffffffffffffffffffffffffffff1681565b60003373ffffffffffffffffffffffffffffffffffffffff16600160009054906101000a900473ffffffffffffffffffffffffffffffffffffffff1673ffffffffffffffffffffffffffffffffffffffff1614610168576040517f08c379a000000000000000000000000000000000000000000000000000000000815260040161015f9061051a565b60405180910390fd5b8160405160200161017991906104c9565b604051602081830303815290604052805190602001209050919050565b60058111156101da576040517f08c379a00000000000000000000000000000000000000000000000000000000081526004016101d19061053a565b60405180910390fd5b6102196040518060400160405280600a81526020017f48616d62757267756572000000000000000000000000000000000000000000008152508361021d565b5050565b60006040518060400160405280848152602001838152509080600181540180825580915050600190039060005260206000209060020201600090919091909150600082015181600001908051906020019061027992919061029d565b50602082015181600101908051906020019061029692919061029d565b5050505050565b8280546102a990610616565b90600052602060002090601f0160209004810192826102cb5760008555610312565b82601f106102e457805160ff1916838001178555610312565b82800160010185558215610312579182015b828111156103115782518255916020019190600101906102f6565b5b50905061031f9190610323565b5090565b5b8082111561033c576000816000905550600101610324565b5090565b600061035361034e8461057f565b61055a565b90508281526020810184848401111561036f5761036e6106e6565b5b61037a848285610607565b509392505050565b600082601f830112610397576103966106e1565b5b81356103a7848260208601610340565b91505092915050565b6000813590506103bf816107a4565b92915050565b600080604083850312156103dc576103db6106f0565b5b600083013567ffffffffffffffff8111156103fa576103f96106eb565b5b61040685828601610382565b9250506020610417858286016103b0565b9150509250929050565b600060208284031215610437576104366106f0565b5b6000610445848285016103b0565b91505092915050565b610457816105c1565b82525050565b610466816105d3565b82525050565b6000610479602d836105b0565b915061048482610706565b604082019050919050565b600061049c6025836105b0565b91506104a782610755565b604082019050919050565b6104c36104be826105fd565b610679565b82525050565b60006104d582846104b2565b60208201915081905092915050565b60006020820190506104f9600083018461044e565b92915050565b6000602082019050610514600083018461045d565b92915050565b600060208201905081810360008301526105338161046c565b9050919050565b600060208201905081810360008301526105538161048f565b9050919050565b6000610564610575565b90506105708282610648565b919050565b6000604051905090565b600067ffffffffffffffff82111561059a576105996106b2565b5b6105a3826106f5565b9050602081019050919050565b600082825260208201905092915050565b60006105cc826105dd565b9050919050565b6000819050919050565b600073ffffffffffffffffffffffffffffffffffffffff82169050919050565b6000819050919050565b82818337600083830152505050565b6000600282049050600182168061062e57607f821691505b6020821081141561064257610641610683565b5b50919050565b610651826106f5565b810181811067ffffffffffffffff821117156106705761066f6106b2565b5b80604052505050565b6000819050919050565b7f4e487b7100000000000000000000000000000000000000000000000000000000600052602260045260246000fd5b7f4e487b7100000000000000000000000000000000000000000000000000000000600052604160045260246000fd5b600080fd5b600080fd5b600080fd5b600080fd5b6000601f19601f8301169050919050565b7f4e6f207469656e656e207065726d69736f73207061726120656a65637574617260008201527f20657374612066756e63696f6e00000000000000000000000000000000000000602082015250565b7f4e6f20707565646573207065646972206d617320646520352068616d6275726760008201527f7565736173000000000000000000000000000000000000000000000000000000602082015250565b6107ad816105fd565b81146107b857600080fd5b5056fea26469706673582212202cf956c2b4199b5b4712cee77658b7ac9bf5c64939593fb5cd798d5f6253e00b64736f6c63430008070033",
					"opcodes": "PUSH1 0x80 PUSH1 0x40 MSTORE CALLVALUE DUP1 ISZERO PUSH2 0x10 JUMPI PUSH1 0x0 DUP1 REVERT JUMPDEST POP CALLER PUSH1 0x1 PUSH1 0x0 PUSH2 0x100 EXP DUP2 SLOAD DUP2 PUSH20 0xFFFFFFFFFFFFFFFFFFFFFFFFFFFFFFFFFFFFFFFF MUL NOT AND SWAP1 DUP4 PUSH20 0xFFFFFFFFFFFFFFFFFFFFFFFFFFFFFFFFFFFFFFFF AND MUL OR SWAP1 SSTORE POP PUSH2 0x7F1 DUP1 PUSH2 0x61 PUSH1 0x0 CODECOPY PUSH1 0x0 RETURN INVALID PUSH1 0x80 PUSH1 0x40 MSTORE CALLVALUE DUP1 ISZERO PUSH2 0x10 JUMPI PUSH1 0x0 DUP1 REVERT JUMPDEST POP PUSH1 0x4 CALLDATASIZE LT PUSH2 0x41 JUMPI PUSH1 0x0 CALLDATALOAD PUSH1 0xE0 SHR DUP1 PUSH4 0x8DA5CB5B EQ PUSH2 0x46 JUMPI DUP1 PUSH4 0xBDA02842 EQ PUSH2 0x64 JUMPI DUP1 PUSH4 0xDD595EE4 EQ PUSH2 0x94 JUMPI JUMPDEST PUSH1 0x0 DUP1 REVERT JUMPDEST PUSH2 0x4E PUSH2 0xB0 JUMP JUMPDEST PUSH1 0x40 MLOAD PUSH2 0x5B SWAP2 SWAP1 PUSH2 0x4E4 JUMP JUMPDEST PUSH1 0x40 MLOAD DUP1 SWAP2 SUB SWAP1 RETURN JUMPDEST PUSH2 0x7E PUSH1 0x4 DUP1 CALLDATASIZE SUB DUP2 ADD SWAP1 PUSH2 0x79 SWAP2 SWAP1 PUSH2 0x421 JUMP JUMPDEST PUSH2 0xD6 JUMP JUMPDEST PUSH1 0x40 MLOAD PUSH2 0x8B SWAP2 SWAP1 PUSH2 0x4FF JUMP JUMPDEST PUSH1 0x40 MLOAD DUP1 SWAP2 SUB SWAP1 RETURN JUMPDEST PUSH2 0xAE PUSH1 0x4 DUP1 CALLDATASIZE SUB DUP2 ADD SWAP1 PUSH2 0xA9 SWAP2 SWAP1 PUSH2 0x3C5 JUMP JUMPDEST PUSH2 0x196 JUMP JUMPDEST STOP JUMPDEST PUSH1 0x1 PUSH1 0x0 SWAP1 SLOAD SWAP1 PUSH2 0x100 EXP SWAP1 DIV PUSH20 0xFFFFFFFFFFFFFFFFFFFFFFFFFFFFFFFFFFFFFFFF AND DUP2 JUMP JUMPDEST PUSH1 0x0 CALLER PUSH20 0xFFFFFFFFFFFFFFFFFFFFFFFFFFFFFFFFFFFFFFFF AND PUSH1 0x1 PUSH1 0x0 SWAP1 SLOAD SWAP1 PUSH2 0x100 EXP SWAP1 DIV PUSH20 0xFFFFFFFFFFFFFFFFFFFFFFFFFFFFFFFFFFFFFFFF AND PUSH20 0xFFFFFFFFFFFFFFFFFFFFFFFFFFFFFFFFFFFFFFFF AND EQ PUSH2 0x168 JUMPI PUSH1 0x40 MLOAD PUSH32 0x8C379A000000000000000000000000000000000000000000000000000000000 DUP2 MSTORE PUSH1 0x4 ADD PUSH2 0x15F SWAP1 PUSH2 0x51A JUMP JUMPDEST PUSH1 0x40 MLOAD DUP1 SWAP2 SUB SWAP1 REVERT JUMPDEST DUP2 PUSH1 0x40 MLOAD PUSH1 0x20 ADD PUSH2 0x179 SWAP2 SWAP1 PUSH2 0x4C9 JUMP JUMPDEST PUSH1 0x40 MLOAD PUSH1 0x20 DUP2 DUP4 SUB SUB DUP2 MSTORE SWAP1 PUSH1 0x40 MSTORE DUP1 MLOAD SWAP1 PUSH1 0x20 ADD KECCAK256 SWAP1 POP SWAP2 SWAP1 POP JUMP JUMPDEST PUSH1 0x5 DUP2 GT ISZERO PUSH2 0x1DA JUMPI PUSH1 0x40 MLOAD PUSH32 0x8C379A000000000000000000000000000000000000000000000000000000000 DUP2 MSTORE PUSH1 0x4 ADD PUSH2 0x1D1 SWAP1 PUSH2 0x53A JUMP JUMPDEST PUSH1 0x40 MLOAD DUP1 SWAP2 SUB SWAP1 REVERT JUMPDEST PUSH2 0x219 PUSH1 0x40 MLOAD DUP1 PUSH1 0x40 ADD PUSH1 0x40 MSTORE DUP1 PUSH1 0xA DUP2 MSTORE PUSH1 0x20 ADD PUSH32 0x48616D6275726775657200000000000000000000000000000000000000000000 DUP2 MSTORE POP DUP4 PUSH2 0x21D JUMP JUMPDEST POP POP JUMP JUMPDEST PUSH1 0x0 PUSH1 0x40 MLOAD DUP1 PUSH1 0x40 ADD PUSH1 0x40 MSTORE DUP1 DUP5 DUP2 MSTORE PUSH1 0x20 ADD DUP4 DUP2 MSTORE POP SWAP1 DUP1 PUSH1 0x1 DUP2 SLOAD ADD DUP1 DUP3 SSTORE DUP1 SWAP2 POP POP PUSH1 0x1 SWAP1 SUB SWAP1 PUSH1 0x0 MSTORE PUSH1 0x20 PUSH1 0x0 KECCAK256 SWAP1 PUSH1 0x2 MUL ADD PUSH1 0x0 SWAP1 SWAP2 SWAP1 SWAP2 SWAP1 SWAP2 POP PUSH1 0x0 DUP3 ADD MLOAD DUP2 PUSH1 0x0 ADD SWAP1 DUP1 MLOAD SWAP1 PUSH1 0x20 ADD SWAP1 PUSH2 0x279 SWAP3 SWAP2 SWAP1 PUSH2 0x29D JUMP JUMPDEST POP PUSH1 0x20 DUP3 ADD MLOAD DUP2 PUSH1 0x1 ADD SWAP1 DUP1 MLOAD SWAP1 PUSH1 0x20 ADD SWAP1 PUSH2 0x296 SWAP3 SWAP2 SWAP1 PUSH2 0x29D JUMP JUMPDEST POP POP POP POP POP JUMP JUMPDEST DUP3 DUP1 SLOAD PUSH2 0x2A9 SWAP1 PUSH2 0x616 JUMP JUMPDEST SWAP1 PUSH1 0x0 MSTORE PUSH1 0x20 PUSH1 0x0 KECCAK256 SWAP1 PUSH1 0x1F ADD PUSH1 0x20 SWAP1 DIV DUP2 ADD SWAP3 DUP3 PUSH2 0x2CB JUMPI PUSH1 0x0 DUP6 SSTORE PUSH2 0x312 JUMP JUMPDEST DUP3 PUSH1 0x1F LT PUSH2 0x2E4 JUMPI DUP1 MLOAD PUSH1 0xFF NOT AND DUP4 DUP1 ADD OR DUP6 SSTORE PUSH2 0x312 JUMP JUMPDEST DUP3 DUP1 ADD PUSH1 0x1 ADD DUP6 SSTORE DUP3 ISZERO PUSH2 0x312 JUMPI SWAP2 DUP3 ADD JUMPDEST DUP3 DUP2 GT ISZERO PUSH2 0x311 JUMPI DUP3 MLOAD DUP3 SSTORE SWAP2 PUSH1 0x20 ADD SWAP2 SWAP1 PUSH1 0x1 ADD SWAP1 PUSH2 0x2F6 JUMP JUMPDEST JUMPDEST POP SWAP1 POP PUSH2 0x31F SWAP2 SWAP1 PUSH2 0x323 JUMP JUMPDEST POP SWAP1 JUMP JUMPDEST JUMPDEST DUP1 DUP3 GT ISZERO PUSH2 0x33C JUMPI PUSH1 0x0 DUP2 PUSH1 0x0 SWAP1 SSTORE POP PUSH1 0x1 ADD PUSH2 0x324 JUMP JUMPDEST POP SWAP1 JUMP JUMPDEST PUSH1 0x0 PUSH2 0x353 PUSH2 0x34E DUP5 PUSH2 0x57F JUMP JUMPDEST PUSH2 0x55A JUMP JUMPDEST SWAP1 POP DUP3 DUP2 MSTORE PUSH1 0x20 DUP2 ADD DUP5 DUP5 DUP5 ADD GT ISZERO PUSH2 0x36F JUMPI PUSH2 0x36E PUSH2 0x6E6 JUMP JUMPDEST JUMPDEST PUSH2 0x37A DUP5 DUP3 DUP6 PUSH2 0x607 JUMP JUMPDEST POP SWAP4 SWAP3 POP POP POP JUMP JUMPDEST PUSH1 0x0 DUP3 PUSH1 0x1F DUP4 ADD SLT PUSH2 0x397 JUMPI PUSH2 0x396 PUSH2 0x6E1 JUMP JUMPDEST JUMPDEST DUP2 CALLDATALOAD PUSH2 0x3A7 DUP5 DUP3 PUSH1 0x20 DUP7 ADD PUSH2 0x340 JUMP JUMPDEST SWAP2 POP POP SWAP3 SWAP2 POP POP JUMP JUMPDEST PUSH1 0x0 DUP2 CALLDATALOAD SWAP1 POP PUSH2 0x3BF DUP2 PUSH2 0x7A4 JUMP JUMPDEST SWAP3 SWAP2 POP POP JUMP JUMPDEST PUSH1 0x0 DUP1 PUSH1 0x40 DUP4 DUP6 SUB SLT ISZERO PUSH2 0x3DC JUMPI PUSH2 0x3DB PUSH2 0x6F0 JUMP JUMPDEST JUMPDEST PUSH1 0x0 DUP4 ADD CALLDATALOAD PUSH8 0xFFFFFFFFFFFFFFFF DUP2 GT ISZERO PUSH2 0x3FA JUMPI PUSH2 0x3F9 PUSH2 0x6EB JUMP JUMPDEST JUMPDEST PUSH2 0x406 DUP6 DUP3 DUP7 ADD PUSH2 0x382 JUMP JUMPDEST SWAP3 POP POP PUSH1 0x20 PUSH2 0x417 DUP6 DUP3 DUP7 ADD PUSH2 0x3B0 JUMP JUMPDEST SWAP2 POP POP SWAP3 POP SWAP3 SWAP1 POP JUMP JUMPDEST PUSH1 0x0 PUSH1 0x20 DUP3 DUP5 SUB SLT ISZERO PUSH2 0x437 JUMPI PUSH2 0x436 PUSH2 0x6F0 JUMP JUMPDEST JUMPDEST PUSH1 0x0 PUSH2 0x445 DUP5 DUP3 DUP6 ADD PUSH2 0x3B0 JUMP JUMPDEST SWAP2 POP POP SWAP3 SWAP2 POP POP JUMP JUMPDEST PUSH2 0x457 DUP2 PUSH2 0x5C1 JUMP JUMPDEST DUP3 MSTORE POP POP JUMP JUMPDEST PUSH2 0x466 DUP2 PUSH2 0x5D3 JUMP JUMPDEST DUP3 MSTORE POP POP JUMP JUMPDEST PUSH1 0x0 PUSH2 0x479 PUSH1 0x2D DUP4 PUSH2 0x5B0 JUMP JUMPDEST SWAP2 POP PUSH2 0x484 DUP3 PUSH2 0x706 JUMP JUMPDEST PUSH1 0x40 DUP3 ADD SWAP1 POP SWAP2 SWAP1 POP JUMP JUMPDEST PUSH1 0x0 PUSH2 0x49C PUSH1 0x25 DUP4 PUSH2 0x5B0 JUMP JUMPDEST SWAP2 POP PUSH2 0x4A7 DUP3 PUSH2 0x755 JUMP JUMPDEST PUSH1 0x40 DUP3 ADD SWAP1 POP SWAP2 SWAP1 POP JUMP JUMPDEST PUSH2 0x4C3 PUSH2 0x4BE DUP3 PUSH2 0x5FD JUMP JUMPDEST PUSH2 0x679 JUMP JUMPDEST DUP3 MSTORE POP POP JUMP JUMPDEST PUSH1 0x0 PUSH2 0x4D5 DUP3 DUP5 PUSH2 0x4B2 JUMP JUMPDEST PUSH1 0x20 DUP3 ADD SWAP2 POP DUP2 SWAP1 POP SWAP3 SWAP2 POP POP JUMP JUMPDEST PUSH1 0x0 PUSH1 0x20 DUP3 ADD SWAP1 POP PUSH2 0x4F9 PUSH1 0x0 DUP4 ADD DUP5 PUSH2 0x44E JUMP JUMPDEST SWAP3 SWAP2 POP POP JUMP JUMPDEST PUSH1 0x0 PUSH1 0x20 DUP3 ADD SWAP1 POP PUSH2 0x514 PUSH1 0x0 DUP4 ADD DUP5 PUSH2 0x45D JUMP JUMPDEST SWAP3 SWAP2 POP POP JUMP JUMPDEST PUSH1 0x0 PUSH1 0x20 DUP3 ADD SWAP1 POP DUP2 DUP2 SUB PUSH1 0x0 DUP4 ADD MSTORE PUSH2 0x533 DUP2 PUSH2 0x46C JUMP JUMPDEST SWAP1 POP SWAP2 SWAP1 POP JUMP JUMPDEST PUSH1 0x0 PUSH1 0x20 DUP3 ADD SWAP1 POP DUP2 DUP2 SUB PUSH1 0x0 DUP4 ADD MSTORE PUSH2 0x553 DUP2 PUSH2 0x48F JUMP JUMPDEST SWAP1 POP SWAP2 SWAP1 POP JUMP JUMPDEST PUSH1 0x0 PUSH2 0x564 PUSH2 0x575 JUMP JUMPDEST SWAP1 POP PUSH2 0x570 DUP3 DUP3 PUSH2 0x648 JUMP JUMPDEST SWAP2 SWAP1 POP JUMP JUMPDEST PUSH1 0x0 PUSH1 0x40 MLOAD SWAP1 POP SWAP1 JUMP JUMPDEST PUSH1 0x0 PUSH8 0xFFFFFFFFFFFFFFFF DUP3 GT ISZERO PUSH2 0x59A JUMPI PUSH2 0x599 PUSH2 0x6B2 JUMP JUMPDEST JUMPDEST PUSH2 0x5A3 DUP3 PUSH2 0x6F5 JUMP JUMPDEST SWAP1 POP PUSH1 0x20 DUP2 ADD SWAP1 POP SWAP2 SWAP1 POP JUMP JUMPDEST PUSH1 0x0 DUP3 DUP3 MSTORE PUSH1 0x20 DUP3 ADD SWAP1 POP SWAP3 SWAP2 POP POP JUMP JUMPDEST PUSH1 0x0 PUSH2 0x5CC DUP3 PUSH2 0x5DD JUMP JUMPDEST SWAP1 POP SWAP2 SWAP1 POP JUMP JUMPDEST PUSH1 0x0 DUP2 SWAP1 POP SWAP2 SWAP1 POP JUMP JUMPDEST PUSH1 0x0 PUSH20 0xFFFFFFFFFFFFFFFFFFFFFFFFFFFFFFFFFFFFFFFF DUP3 AND SWAP1 POP SWAP2 SWAP1 POP JUMP JUMPDEST PUSH1 0x0 DUP2 SWAP1 POP SWAP2 SWAP1 POP JUMP JUMPDEST DUP3 DUP2 DUP4 CALLDATACOPY PUSH1 0x0 DUP4 DUP4 ADD MSTORE POP POP POP JUMP JUMPDEST PUSH1 0x0 PUSH1 0x2 DUP3 DIV SWAP1 POP PUSH1 0x1 DUP3 AND DUP1 PUSH2 0x62E JUMPI PUSH1 0x7F DUP3 AND SWAP2 POP JUMPDEST PUSH1 0x20 DUP3 LT DUP2 EQ ISZERO PUSH2 0x642 JUMPI PUSH2 0x641 PUSH2 0x683 JUMP JUMPDEST JUMPDEST POP SWAP2 SWAP1 POP JUMP JUMPDEST PUSH2 0x651 DUP3 PUSH2 0x6F5 JUMP JUMPDEST DUP2 ADD DUP2 DUP2 LT PUSH8 0xFFFFFFFFFFFFFFFF DUP3 GT OR ISZERO PUSH2 0x670 JUMPI PUSH2 0x66F PUSH2 0x6B2 JUMP JUMPDEST JUMPDEST DUP1 PUSH1 0x40 MSTORE POP POP POP JUMP JUMPDEST PUSH1 0x0 DUP2 SWAP1 POP SWAP2 SWAP1 POP JUMP JUMPDEST PUSH32 0x4E487B7100000000000000000000000000000000000000000000000000000000 PUSH1 0x0 MSTORE PUSH1 0x22 PUSH1 0x4 MSTORE PUSH1 0x24 PUSH1 0x0 REVERT JUMPDEST PUSH32 0x4E487B7100000000000000000000000000000000000000000000000000000000 PUSH1 0x0 MSTORE PUSH1 0x41 PUSH1 0x4 MSTORE PUSH1 0x24 PUSH1 0x0 REVERT JUMPDEST PUSH1 0x0 DUP1 REVERT JUMPDEST PUSH1 0x0 DUP1 REVERT JUMPDEST PUSH1 0x0 DUP1 REVERT JUMPDEST PUSH1 0x0 DUP1 REVERT JUMPDEST PUSH1 0x0 PUSH1 0x1F NOT PUSH1 0x1F DUP4 ADD AND SWAP1 POP SWAP2 SWAP1 POP JUMP JUMPDEST PUSH32 0x4E6F207469656E656E207065726D69736F73207061726120656A656375746172 PUSH1 0x0 DUP3 ADD MSTORE PUSH32 0x20657374612066756E63696F6E00000000000000000000000000000000000000 PUSH1 0x20 DUP3 ADD MSTORE POP JUMP JUMPDEST PUSH32 0x4E6F20707565646573207065646972206D617320646520352068616D62757267 PUSH1 0x0 DUP3 ADD MSTORE PUSH32 0x7565736173000000000000000000000000000000000000000000000000000000 PUSH1 0x20 DUP3 ADD MSTORE POP JUMP JUMPDEST PUSH2 0x7AD DUP2 PUSH2 0x5FD JUMP JUMPDEST DUP2 EQ PUSH2 0x7B8 JUMPI PUSH1 0x0 DUP1 REVERT JUMPDEST POP JUMP INVALID LOG2 PUSH5 0x6970667358 0x22 SLT KECCAK256 0x2C 0xF9 JUMP 0xC2 0xB4 NOT SWAP12 JUMPDEST SELFBALANCE SLT 0xCE 0xE7 PUSH23 0x58B7AC9BF5C64939593FB5CD798D5F6253E00B64736F6C PUSH4 0x43000807 STOP CALLER "
				},
				"gasEstimates": {
					"creation": {
						"codeDepositCost": "406600",
						"executionCost": "24709",
						"totalCost": "431309"
					},
					"external": {
						"doHamburguer(string,uint256)": "infinite",
						"hashPrivateNumber(uint256)": "infinite",
						"owner()": "2492"
					}
				},
				"methodIdentifiers": {
					"doHamburguer(string,uint256)": "dd595ee4",
					"hashPrivateNumber(uint256)": "bda02842",
					"owner()": "8da5cb5b"
				}
			},
			"storageLayout": {
				"storage": [
					{
						"astId": 10,
						"contract": "contracts/funciones_avanzadas/2_funciones avanzadas.sol:Hamburguer",
						"label": "menu",
						"offset": 0,
						"slot": "0",
						"type": "t_array(t_struct(dinnerPlate)6_storage)dyn_storage"
					},
					{
						"astId": 32,
						"contract": "contracts/funciones_avanzadas/2_funciones avanzadas.sol:Hamburguer",
						"label": "owner",
						"offset": 0,
						"slot": "1",
						"type": "t_address"
					}
				],
				"types": {
					"t_address": {
						"encoding": "inplace",
						"label": "address",
						"numberOfBytes": "20"
					},
					"t_array(t_struct(dinnerPlate)6_storage)dyn_storage": {
						"base": "t_struct(dinnerPlate)6_storage",
						"encoding": "dynamic_array",
						"label": "struct Food.dinnerPlate[]",
						"numberOfBytes": "32"
					},
					"t_string_storage": {
						"encoding": "bytes",
						"label": "string",
						"numberOfBytes": "32"
					},
					"t_struct(dinnerPlate)6_storage": {
						"encoding": "inplace",
						"label": "struct Food.dinnerPlate",
						"members": [
							{
								"astId": 3,
								"contract": "contracts/funciones_avanzadas/2_funciones avanzadas.sol:Hamburguer",
								"label": "name",
								"offset": 0,
								"slot": "0",
								"type": "t_string_storage"
							},
							{
								"astId": 5,
								"contract": "contracts/funciones_avanzadas/2_funciones avanzadas.sol:Hamburguer",
								"label": "ingredientes",
								"offset": 0,
								"slot": "1",
								"type": "t_string_storage"
							}
						],
						"numberOfBytes": "64"
					}
				}
			},
			"userdoc": {
				"kind": "user",
				"methods": {},
				"version": 1
			}
		}
	}
}