{
	"contracts/8_bucles_condicionales.sol": {
		"loops_conditionals": {
			"abi": [
				{
					"inputs": [],
					"name": "odd",
					"outputs": [
						{
							"internalType": "uint256",
							"name": "",
							"type": "uint256"
						}
					],
					"stateMutability": "pure",
					"type": "function"
				},
				{
					"inputs": [
						{
							"internalType": "uint256",
							"name": "_number",
							"type": "uint256"
						}
					],
					"name": "sum",
					"outputs": [
						{
							"internalType": "uint256",
							"name": "",
							"type": "uint256"
						}
					],
					"stateMutability": "pure",
					"type": "function"
				}
			],
			"devdoc": {
				"kind": "dev",
				"methods": {},
				"version": 1
			},
			"evm": {
				"assembly": "    /* \"contracts/8_bucles_condicionales.sol\":62:839  contract loops_conditionals {\r... */\n  mstore(0x40, 0x80)\n  callvalue\n  dup1\n  iszero\n  tag_1\n  jumpi\n  0x00\n  dup1\n  revert\ntag_1:\n  pop\n  dataSize(sub_0)\n  dup1\n  dataOffset(sub_0)\n  0x00\n  codecopy\n  0x00\n  return\nstop\n\nsub_0: assembly {\n        /* \"contracts/8_bucles_condicionales.sol\":62:839  contract loops_conditionals {\r... */\n      mstore(0x40, 0x80)\n      callvalue\n      dup1\n      iszero\n      tag_1\n      jumpi\n      0x00\n      dup1\n      revert\n    tag_1:\n      pop\n      jumpi(tag_2, lt(calldatasize, 0x04))\n      shr(0xe0, calldataload(0x00))\n      dup1\n      0x188b85b4\n      eq\n      tag_3\n      jumpi\n      dup1\n      0xc12363a2\n      eq\n      tag_4\n      jumpi\n    tag_2:\n      0x00\n      dup1\n      revert\n        /* \"contracts/8_bucles_condicionales.sol\":173:418  function sum(uint _number) public pure returns (uint){\r... */\n    tag_3:\n      tag_5\n      0x04\n      dup1\n      calldatasize\n      sub\n      dup2\n      add\n      swap1\n      tag_6\n      swap2\n      swap1\n      tag_7\n      jump\t// in\n    tag_6:\n      tag_8\n      jump\t// in\n    tag_5:\n      mload(0x40)\n      tag_9\n      swap2\n      swap1\n      tag_10\n      jump\t// in\n    tag_9:\n      mload(0x40)\n      dup1\n      swap2\n      sub\n      swap1\n      return\n        /* \"contracts/8_bucles_condicionales.sol\":474:834  function odd() public pure returns (uint){\r... */\n    tag_4:\n      tag_11\n      tag_12\n      jump\t// in\n    tag_11:\n      mload(0x40)\n      tag_13\n      swap2\n      swap1\n      tag_10\n      jump\t// in\n    tag_13:\n      mload(0x40)\n      dup1\n      swap2\n      sub\n      swap1\n      return\n        /* \"contracts/8_bucles_condicionales.sol\":173:418  function sum(uint _number) public pure returns (uint){\r... */\n    tag_8:\n        /* \"contracts/8_bucles_condicionales.sol\":221:225  uint */\n      0x00\n        /* \"contracts/8_bucles_condicionales.sol\":237:249  uint aux_sum */\n      dup1\n        /* \"contracts/8_bucles_condicionales.sol\":252:253  0 */\n      0x00\n        /* \"contracts/8_bucles_condicionales.sol\":237:253  uint aux_sum = 0 */\n      swap1\n      pop\n        /* \"contracts/8_bucles_condicionales.sol\":292:298  uint i */\n      0x00\n        /* \"contracts/8_bucles_condicionales.sol\":301:308  _number */\n      dup4\n        /* \"contracts/8_bucles_condicionales.sol\":292:308  uint i = _number */\n      swap1\n      pop\n        /* \"contracts/8_bucles_condicionales.sol\":288:382  for(uint i = _number; i < (10 + _number); i++){\r... */\n    tag_15:\n        /* \"contracts/8_bucles_condicionales.sol\":320:327  _number */\n      dup4\n        /* \"contracts/8_bucles_condicionales.sol\":315:317  10 */\n      0x0a\n        /* \"contracts/8_bucles_condicionales.sol\":315:327  10 + _number */\n      tag_18\n      swap2\n      swap1\n      tag_19\n      jump\t// in\n    tag_18:\n        /* \"contracts/8_bucles_condicionales.sol\":310:311  i */\n      dup2\n        /* \"contracts/8_bucles_condicionales.sol\":310:328  i < (10 + _number) */\n      lt\n        /* \"contracts/8_bucles_condicionales.sol\":288:382  for(uint i = _number; i < (10 + _number); i++){\r... */\n      iszero\n      tag_16\n      jumpi\n        /* \"contracts/8_bucles_condicionales.sol\":369:370  i */\n      dup1\n        /* \"contracts/8_bucles_condicionales.sol\":359:366  aux_sum */\n      dup3\n        /* \"contracts/8_bucles_condicionales.sol\":359:370  aux_sum + i */\n      tag_20\n      swap2\n      swap1\n      tag_19\n      jump\t// in\n    tag_20:\n        /* \"contracts/8_bucles_condicionales.sol\":349:370  aux_sum = aux_sum + i */\n      swap2\n      pop\n        /* \"contracts/8_bucles_condicionales.sol\":330:333  i++ */\n      dup1\n      dup1\n      tag_21\n      swap1\n      tag_22\n      jump\t// in\n    tag_21:\n      swap2\n      pop\n      pop\n        /* \"contracts/8_bucles_condicionales.sol\":288:382  for(uint i = _number; i < (10 + _number); i++){\r... */\n      jump(tag_15)\n    tag_16:\n      pop\n        /* \"contracts/8_bucles_condicionales.sol\":401:408  aux_sum */\n      dup1\n        /* \"contracts/8_bucles_condicionales.sol\":394:408  return aux_sum */\n      swap2\n      pop\n      pop\n        /* \"contracts/8_bucles_condicionales.sol\":173:418  function sum(uint _number) public pure returns (uint){\r... */\n      swap2\n      swap1\n      pop\n      jump\t// out\n        /* \"contracts/8_bucles_condicionales.sol\":474:834  function odd() public pure returns (uint){\r... */\n    tag_12:\n        /* \"contracts/8_bucles_condicionales.sol\":510:514  uint */\n      0x00\n        /* \"contracts/8_bucles_condicionales.sol\":526:538  uint aux_sum */\n      dup1\n        /* \"contracts/8_bucles_condicionales.sol\":541:542  0 */\n      0x00\n        /* \"contracts/8_bucles_condicionales.sol\":526:542  uint aux_sum = 0 */\n      swap1\n      pop\n        /* \"contracts/8_bucles_condicionales.sol\":553:565  uint counter */\n      0x00\n        /* \"contracts/8_bucles_condicionales.sol\":580:596  uint counter_odd */\n      dup1\n        /* \"contracts/8_bucles_condicionales.sol\":613:800  while(counter_odd < 10){\r... */\n    tag_24:\n        /* \"contracts/8_bucles_condicionales.sol\":633:635  10 */\n      0x0a\n        /* \"contracts/8_bucles_condicionales.sol\":619:630  counter_odd */\n      dup2\n        /* \"contracts/8_bucles_condicionales.sol\":619:635  counter_odd < 10 */\n      lt\n        /* \"contracts/8_bucles_condicionales.sol\":613:800  while(counter_odd < 10){\r... */\n      iszero\n      tag_25\n      jumpi\n        /* \"contracts/8_bucles_condicionales.sol\":669:670  0 */\n      0x00\n        /* \"contracts/8_bucles_condicionales.sol\":664:665  2 */\n      0x02\n        /* \"contracts/8_bucles_condicionales.sol\":654:661  counter */\n      dup4\n        /* \"contracts/8_bucles_condicionales.sol\":654:665  counter % 2 */\n      tag_26\n      swap2\n      swap1\n      tag_27\n      jump\t// in\n    tag_26:\n        /* \"contracts/8_bucles_condicionales.sol\":654:670  counter % 2 != 0 */\n      eq\n        /* \"contracts/8_bucles_condicionales.sol\":651:765  if(counter % 2 != 0){\r... */\n      tag_28\n      jumpi\n        /* \"contracts/8_bucles_condicionales.sol\":710:717  counter */\n      dup2\n        /* \"contracts/8_bucles_condicionales.sol\":700:707  aux_sum */\n      dup4\n        /* \"contracts/8_bucles_condicionales.sol\":700:717  aux_sum + counter */\n      tag_29\n      swap2\n      swap1\n      tag_19\n      jump\t// in\n    tag_29:\n        /* \"contracts/8_bucles_condicionales.sol\":690:717  aux_sum = aux_sum + counter */\n      swap3\n      pop\n        /* \"contracts/8_bucles_condicionales.sol\":736:749  counter_odd++ */\n      dup1\n      dup1\n      tag_30\n      swap1\n      tag_22\n      jump\t// in\n    tag_30:\n      swap2\n      pop\n      pop\n        /* \"contracts/8_bucles_condicionales.sol\":651:765  if(counter % 2 != 0){\r... */\n    tag_28:\n        /* \"contracts/8_bucles_condicionales.sol\":779:788  counter++ */\n      dup2\n      dup1\n      tag_31\n      swap1\n      tag_22\n      jump\t// in\n    tag_31:\n      swap3\n      pop\n      pop\n        /* \"contracts/8_bucles_condicionales.sol\":613:800  while(counter_odd < 10){\r... */\n      jump(tag_24)\n    tag_25:\n        /* \"contracts/8_bucles_condicionales.sol\":819:826  aux_sum */\n      dup3\n        /* \"contracts/8_bucles_condicionales.sol\":812:826  return aux_sum */\n      swap4\n      pop\n      pop\n      pop\n      pop\n        /* \"contracts/8_bucles_condicionales.sol\":474:834  function odd() public pure returns (uint){\r... */\n      swap1\n      jump\t// out\n        /* \"#utility.yul\":7:146   */\n    tag_33:\n        /* \"#utility.yul\":53:58   */\n      0x00\n        /* \"#utility.yul\":91:97   */\n      dup2\n        /* \"#utility.yul\":78:98   */\n      calldataload\n        /* \"#utility.yul\":69:98   */\n      swap1\n      pop\n        /* \"#utility.yul\":107:140   */\n      tag_35\n        /* \"#utility.yul\":134:139   */\n      dup2\n        /* \"#utility.yul\":107:140   */\n      tag_36\n      jump\t// in\n    tag_35:\n        /* \"#utility.yul\":7:146   */\n      swap3\n      swap2\n      pop\n      pop\n      jump\t// out\n        /* \"#utility.yul\":152:481   */\n    tag_7:\n        /* \"#utility.yul\":211:217   */\n      0x00\n        /* \"#utility.yul\":260:262   */\n      0x20\n        /* \"#utility.yul\":248:257   */\n      dup3\n        /* \"#utility.yul\":239:246   */\n      dup5\n        /* \"#utility.yul\":235:258   */\n      sub\n        /* \"#utility.yul\":231:263   */\n      slt\n        /* \"#utility.yul\":228:347   */\n      iszero\n      tag_38\n      jumpi\n        /* \"#utility.yul\":266:345   */\n      tag_39\n      tag_40\n      jump\t// in\n    tag_39:\n        /* \"#utility.yul\":228:347   */\n    tag_38:\n        /* \"#utility.yul\":386:387   */\n      0x00\n        /* \"#utility.yul\":411:464   */\n      tag_41\n        /* \"#utility.yul\":456:463   */\n      dup5\n        /* \"#utility.yul\":447:453   */\n      dup3\n        /* \"#utility.yul\":436:445   */\n      dup6\n        /* \"#utility.yul\":432:454   */\n      add\n        /* \"#utility.yul\":411:464   */\n      tag_33\n      jump\t// in\n    tag_41:\n        /* \"#utility.yul\":401:464   */\n      swap2\n      pop\n        /* \"#utility.yul\":357:474   */\n      pop\n        /* \"#utility.yul\":152:481   */\n      swap3\n      swap2\n      pop\n      pop\n      jump\t// out\n        /* \"#utility.yul\":487:605   */\n    tag_42:\n        /* \"#utility.yul\":574:598   */\n      tag_44\n        /* \"#utility.yul\":592:597   */\n      dup2\n        /* \"#utility.yul\":574:598   */\n      tag_45\n      jump\t// in\n    tag_44:\n        /* \"#utility.yul\":569:572   */\n      dup3\n        /* \"#utility.yul\":562:599   */\n      mstore\n        /* \"#utility.yul\":487:605   */\n      pop\n      pop\n      jump\t// out\n        /* \"#utility.yul\":611:833   */\n    tag_10:\n        /* \"#utility.yul\":704:708   */\n      0x00\n        /* \"#utility.yul\":742:744   */\n      0x20\n        /* \"#utility.yul\":731:740   */\n      dup3\n        /* \"#utility.yul\":727:745   */\n      add\n        /* \"#utility.yul\":719:745   */\n      swap1\n      pop\n        /* \"#utility.yul\":755:826   */\n      tag_47\n        /* \"#utility.yul\":823:824   */\n      0x00\n        /* \"#utility.yul\":812:821   */\n      dup4\n        /* \"#utility.yul\":808:825   */\n      add\n        /* \"#utility.yul\":799:805   */\n      dup5\n        /* \"#utility.yul\":755:826   */\n      tag_42\n      jump\t// in\n    tag_47:\n        /* \"#utility.yul\":611:833   */\n      swap3\n      swap2\n      pop\n      pop\n      jump\t// out\n        /* \"#utility.yul\":920:1225   */\n    tag_19:\n        /* \"#utility.yul\":960:963   */\n      0x00\n        /* \"#utility.yul\":979:999   */\n      tag_51\n        /* \"#utility.yul\":997:998   */\n      dup3\n        /* \"#utility.yul\":979:999   */\n      tag_45\n      jump\t// in\n    tag_51:\n        /* \"#utility.yul\":974:999   */\n      swap2\n      pop\n        /* \"#utility.yul\":1013:1033   */\n      tag_52\n        /* \"#utility.yul\":1031:1032   */\n      dup4\n        /* \"#utility.yul\":1013:1033   */\n      tag_45\n      jump\t// in\n    tag_52:\n        /* \"#utility.yul\":1008:1033   */\n      swap3\n      pop\n        /* \"#utility.yul\":1167:1168   */\n      dup3\n        /* \"#utility.yul\":1099:1165   */\n      0xffffffffffffffffffffffffffffffffffffffffffffffffffffffffffffffff\n        /* \"#utility.yul\":1095:1169   */\n      sub\n        /* \"#utility.yul\":1092:1093   */\n      dup3\n        /* \"#utility.yul\":1089:1170   */\n      gt\n        /* \"#utility.yul\":1086:1193   */\n      iszero\n      tag_53\n      jumpi\n        /* \"#utility.yul\":1173:1191   */\n      tag_54\n      tag_55\n      jump\t// in\n    tag_54:\n        /* \"#utility.yul\":1086:1193   */\n    tag_53:\n        /* \"#utility.yul\":1217:1218   */\n      dup3\n        /* \"#utility.yul\":1214:1215   */\n      dup3\n        /* \"#utility.yul\":1210:1219   */\n      add\n        /* \"#utility.yul\":1203:1219   */\n      swap1\n      pop\n        /* \"#utility.yul\":920:1225   */\n      swap3\n      swap2\n      pop\n      pop\n      jump\t// out\n        /* \"#utility.yul\":1231:1308   */\n    tag_45:\n        /* \"#utility.yul\":1268:1275   */\n      0x00\n        /* \"#utility.yul\":1297:1302   */\n      dup2\n        /* \"#utility.yul\":1286:1302   */\n      swap1\n      pop\n        /* \"#utility.yul\":1231:1308   */\n      swap2\n      swap1\n      pop\n      jump\t// out\n        /* \"#utility.yul\":1314:1547   */\n    tag_22:\n        /* \"#utility.yul\":1353:1356   */\n      0x00\n        /* \"#utility.yul\":1376:1400   */\n      tag_58\n        /* \"#utility.yul\":1394:1399   */\n      dup3\n        /* \"#utility.yul\":1376:1400   */\n      tag_45\n      jump\t// in\n    tag_58:\n        /* \"#utility.yul\":1367:1400   */\n      swap2\n      pop\n        /* \"#utility.yul\":1422:1488   */\n      0xffffffffffffffffffffffffffffffffffffffffffffffffffffffffffffffff\n        /* \"#utility.yul\":1415:1420   */\n      dup3\n        /* \"#utility.yul\":1412:1489   */\n      eq\n        /* \"#utility.yul\":1409:1512   */\n      iszero\n      tag_59\n      jumpi\n        /* \"#utility.yul\":1492:1510   */\n      tag_60\n      tag_55\n      jump\t// in\n    tag_60:\n        /* \"#utility.yul\":1409:1512   */\n    tag_59:\n        /* \"#utility.yul\":1539:1540   */\n      0x01\n        /* \"#utility.yul\":1532:1537   */\n      dup3\n        /* \"#utility.yul\":1528:1541   */\n      add\n        /* \"#utility.yul\":1521:1541   */\n      swap1\n      pop\n        /* \"#utility.yul\":1314:1547   */\n      swap2\n      swap1\n      pop\n      jump\t// out\n        /* \"#utility.yul\":1553:1729   */\n    tag_27:\n        /* \"#utility.yul\":1585:1586   */\n      0x00\n        /* \"#utility.yul\":1602:1622   */\n      tag_62\n        /* \"#utility.yul\":1620:1621   */\n      dup3\n        /* \"#utility.yul\":1602:1622   */\n      tag_45\n      jump\t// in\n    tag_62:\n        /* \"#utility.yul\":1597:1622   */\n      swap2\n      pop\n        /* \"#utility.yul\":1636:1656   */\n      tag_63\n        /* \"#utility.yul\":1654:1655   */\n      dup4\n        /* \"#utility.yul\":1636:1656   */\n      tag_45\n      jump\t// in\n    tag_63:\n        /* \"#utility.yul\":1631:1656   */\n      swap3\n      pop\n        /* \"#utility.yul\":1675:1676   */\n      dup3\n        /* \"#utility.yul\":1665:1700   */\n      tag_64\n      jumpi\n        /* \"#utility.yul\":1680:1698   */\n      tag_65\n      tag_66\n      jump\t// in\n    tag_65:\n        /* \"#utility.yul\":1665:1700   */\n    tag_64:\n        /* \"#utility.yul\":1721:1722   */\n      dup3\n        /* \"#utility.yul\":1718:1719   */\n      dup3\n        /* \"#utility.yul\":1714:1723   */\n      mod\n        /* \"#utility.yul\":1709:1723   */\n      swap1\n      pop\n        /* \"#utility.yul\":1553:1729   */\n      swap3\n      swap2\n      pop\n      pop\n      jump\t// out\n        /* \"#utility.yul\":1735:1915   */\n    tag_55:\n        /* \"#utility.yul\":1783:1860   */\n      0x4e487b7100000000000000000000000000000000000000000000000000000000\n        /* \"#utility.yul\":1780:1781   */\n      0x00\n        /* \"#utility.yul\":1773:1861   */\n      mstore\n        /* \"#utility.yul\":1880:1884   */\n      0x11\n        /* \"#utility.yul\":1877:1878   */\n      0x04\n        /* \"#utility.yul\":1870:1885   */\n      mstore\n        /* \"#utility.yul\":1904:1908   */\n      0x24\n        /* \"#utility.yul\":1901:1902   */\n      0x00\n        /* \"#utility.yul\":1894:1909   */\n      revert\n        /* \"#utility.yul\":1921:2101   */\n    tag_66:\n        /* \"#utility.yul\":1969:2046   */\n      0x4e487b7100000000000000000000000000000000000000000000000000000000\n        /* \"#utility.yul\":1966:1967   */\n      0x00\n        /* \"#utility.yul\":1959:2047   */\n      mstore\n        /* \"#utility.yul\":2066:2070   */\n      0x12\n        /* \"#utility.yul\":2063:2064   */\n      0x04\n        /* \"#utility.yul\":2056:2071   */\n      mstore\n        /* \"#utility.yul\":2090:2094   */\n      0x24\n        /* \"#utility.yul\":2087:2088   */\n      0x00\n        /* \"#utility.yul\":2080:2095   */\n      revert\n        /* \"#utility.yul\":2230:2347   */\n    tag_40:\n        /* \"#utility.yul\":2339:2340   */\n      0x00\n        /* \"#utility.yul\":2336:2337   */\n      dup1\n        /* \"#utility.yul\":2329:2341   */\n      revert\n        /* \"#utility.yul\":2353:2475   */\n    tag_36:\n        /* \"#utility.yul\":2426:2450   */\n      tag_73\n        /* \"#utility.yul\":2444:2449   */\n      dup2\n        /* \"#utility.yul\":2426:2450   */\n      tag_45\n      jump\t// in\n    tag_73:\n        /* \"#utility.yul\":2419:2424   */\n      dup2\n        /* \"#utility.yul\":2416:2451   */\n      eq\n        /* \"#utility.yul\":2406:2469   */\n      tag_74\n      jumpi\n        /* \"#utility.yul\":2465:2466   */\n      0x00\n        /* \"#utility.yul\":2462:2463   */\n      dup1\n        /* \"#utility.yul\":2455:2467   */\n      revert\n        /* \"#utility.yul\":2406:2469   */\n    tag_74:\n        /* \"#utility.yul\":2353:2475   */\n      pop\n      jump\t// out\n\n    auxdata: 0xa2646970667358221220b3ca75f9d7299d0d9208af6166c4f7f41d560a16ffad22180d80319be72cadcf64736f6c63430008070033\n}\n",
				"bytecode": {
					"linkReferences": {},
					"object": "608060405234801561001057600080fd5b5061032c806100206000396000f3fe608060405234801561001057600080fd5b50600436106100365760003560e01c8063188b85b41461003b578063c12363a21461006b575b600080fd5b6100556004803603810190610050919061014b565b610089565b6040516100629190610187565b60405180910390f35b6100736100d5565b6040516100809190610187565b60405180910390f35b6000806000905060008390505b83600a6100a391906101a2565b8110156100cb5780826100b691906101a2565b915080806100c390610202565b915050610096565b5080915050919050565b600080600090506000805b600a81101561012d5760006002836100f8919061024b565b1461011a57818361010991906101a2565b9250808061011690610202565b9150505b818061012590610202565b9250506100e0565b82935050505090565b600081359050610145816102df565b92915050565b600060208284031215610161576101606102da565b5b600061016f84828501610136565b91505092915050565b610181816101f8565b82525050565b600060208201905061019c6000830184610178565b92915050565b60006101ad826101f8565b91506101b8836101f8565b9250827fffffffffffffffffffffffffffffffffffffffffffffffffffffffffffffffff038211156101ed576101ec61027c565b5b828201905092915050565b6000819050919050565b600061020d826101f8565b91507fffffffffffffffffffffffffffffffffffffffffffffffffffffffffffffffff8214156102405761023f61027c565b5b600182019050919050565b6000610256826101f8565b9150610261836101f8565b925082610271576102706102ab565b5b828206905092915050565b7f4e487b7100000000000000000000000000000000000000000000000000000000600052601160045260246000fd5b7f4e487b7100000000000000000000000000000000000000000000000000000000600052601260045260246000fd5b600080fd5b6102e8816101f8565b81146102f357600080fd5b5056fea2646970667358221220b3ca75f9d7299d0d9208af6166c4f7f41d560a16ffad22180d80319be72cadcf64736f6c63430008070033",
					"opcodes": "PUSH1 0x80 PUSH1 0x40 MSTORE CALLVALUE DUP1 ISZERO PUSH2 0x10 JUMPI PUSH1 0x0 DUP1 REVERT JUMPDEST POP PUSH2 0x32C DUP1 PUSH2 0x20 PUSH1 0x0 CODECOPY PUSH1 0x0 RETURN INVALID PUSH1 0x80 PUSH1 0x40 MSTORE CALLVALUE DUP1 ISZERO PUSH2 0x10 JUMPI PUSH1 0x0 DUP1 REVERT JUMPDEST POP PUSH1 0x4 CALLDATASIZE LT PUSH2 0x36 JUMPI PUSH1 0x0 CALLDATALOAD PUSH1 0xE0 SHR DUP1 PUSH4 0x188B85B4 EQ PUSH2 0x3B JUMPI DUP1 PUSH4 0xC12363A2 EQ PUSH2 0x6B JUMPI JUMPDEST PUSH1 0x0 DUP1 REVERT JUMPDEST PUSH2 0x55 PUSH1 0x4 DUP1 CALLDATASIZE SUB DUP2 ADD SWAP1 PUSH2 0x50 SWAP2 SWAP1 PUSH2 0x14B JUMP JUMPDEST PUSH2 0x89 JUMP JUMPDEST PUSH1 0x40 MLOAD PUSH2 0x62 SWAP2 SWAP1 PUSH2 0x187 JUMP JUMPDEST PUSH1 0x40 MLOAD DUP1 SWAP2 SUB SWAP1 RETURN JUMPDEST PUSH2 0x73 PUSH2 0xD5 JUMP JUMPDEST PUSH1 0x40 MLOAD PUSH2 0x80 SWAP2 SWAP1 PUSH2 0x187 JUMP JUMPDEST PUSH1 0x40 MLOAD DUP1 SWAP2 SUB SWAP1 RETURN JUMPDEST PUSH1 0x0 DUP1 PUSH1 0x0 SWAP1 POP PUSH1 0x0 DUP4 SWAP1 POP JUMPDEST DUP4 PUSH1 0xA PUSH2 0xA3 SWAP2 SWAP1 PUSH2 0x1A2 JUMP JUMPDEST DUP2 LT ISZERO PUSH2 0xCB JUMPI DUP1 DUP3 PUSH2 0xB6 SWAP2 SWAP1 PUSH2 0x1A2 JUMP JUMPDEST SWAP2 POP DUP1 DUP1 PUSH2 0xC3 SWAP1 PUSH2 0x202 JUMP JUMPDEST SWAP2 POP POP PUSH2 0x96 JUMP JUMPDEST POP DUP1 SWAP2 POP POP SWAP2 SWAP1 POP JUMP JUMPDEST PUSH1 0x0 DUP1 PUSH1 0x0 SWAP1 POP PUSH1 0x0 DUP1 JUMPDEST PUSH1 0xA DUP2 LT ISZERO PUSH2 0x12D JUMPI PUSH1 0x0 PUSH1 0x2 DUP4 PUSH2 0xF8 SWAP2 SWAP1 PUSH2 0x24B JUMP JUMPDEST EQ PUSH2 0x11A JUMPI DUP2 DUP4 PUSH2 0x109 SWAP2 SWAP1 PUSH2 0x1A2 JUMP JUMPDEST SWAP3 POP DUP1 DUP1 PUSH2 0x116 SWAP1 PUSH2 0x202 JUMP JUMPDEST SWAP2 POP POP JUMPDEST DUP2 DUP1 PUSH2 0x125 SWAP1 PUSH2 0x202 JUMP JUMPDEST SWAP3 POP POP PUSH2 0xE0 JUMP JUMPDEST DUP3 SWAP4 POP POP POP POP SWAP1 JUMP JUMPDEST PUSH1 0x0 DUP2 CALLDATALOAD SWAP1 POP PUSH2 0x145 DUP2 PUSH2 0x2DF JUMP JUMPDEST SWAP3 SWAP2 POP POP JUMP JUMPDEST PUSH1 0x0 PUSH1 0x20 DUP3 DUP5 SUB SLT ISZERO PUSH2 0x161 JUMPI PUSH2 0x160 PUSH2 0x2DA JUMP JUMPDEST JUMPDEST PUSH1 0x0 PUSH2 0x16F DUP5 DUP3 DUP6 ADD PUSH2 0x136 JUMP JUMPDEST SWAP2 POP POP SWAP3 SWAP2 POP POP JUMP JUMPDEST PUSH2 0x181 DUP2 PUSH2 0x1F8 JUMP JUMPDEST DUP3 MSTORE POP POP JUMP JUMPDEST PUSH1 0x0 PUSH1 0x20 DUP3 ADD SWAP1 POP PUSH2 0x19C PUSH1 0x0 DUP4 ADD DUP5 PUSH2 0x178 JUMP JUMPDEST SWAP3 SWAP2 POP POP JUMP JUMPDEST PUSH1 0x0 PUSH2 0x1AD DUP3 PUSH2 0x1F8 JUMP JUMPDEST SWAP2 POP PUSH2 0x1B8 DUP4 PUSH2 0x1F8 JUMP JUMPDEST SWAP3 POP DUP3 PUSH32 0xFFFFFFFFFFFFFFFFFFFFFFFFFFFFFFFFFFFFFFFFFFFFFFFFFFFFFFFFFFFFFFFF SUB DUP3 GT ISZERO PUSH2 0x1ED JUMPI PUSH2 0x1EC PUSH2 0x27C JUMP JUMPDEST JUMPDEST DUP3 DUP3 ADD SWAP1 POP SWAP3 SWAP2 POP POP JUMP JUMPDEST PUSH1 0x0 DUP2 SWAP1 POP SWAP2 SWAP1 POP JUMP JUMPDEST PUSH1 0x0 PUSH2 0x20D DUP3 PUSH2 0x1F8 JUMP JUMPDEST SWAP2 POP PUSH32 0xFFFFFFFFFFFFFFFFFFFFFFFFFFFFFFFFFFFFFFFFFFFFFFFFFFFFFFFFFFFFFFFF DUP3 EQ ISZERO PUSH2 0x240 JUMPI PUSH2 0x23F PUSH2 0x27C JUMP JUMPDEST JUMPDEST PUSH1 0x1 DUP3 ADD SWAP1 POP SWAP2 SWAP1 POP JUMP JUMPDEST PUSH1 0x0 PUSH2 0x256 DUP3 PUSH2 0x1F8 JUMP JUMPDEST SWAP2 POP PUSH2 0x261 DUP4 PUSH2 0x1F8 JUMP JUMPDEST SWAP3 POP DUP3 PUSH2 0x271 JUMPI PUSH2 0x270 PUSH2 0x2AB JUMP JUMPDEST JUMPDEST DUP3 DUP3 MOD SWAP1 POP SWAP3 SWAP2 POP POP JUMP JUMPDEST PUSH32 0x4E487B7100000000000000000000000000000000000000000000000000000000 PUSH1 0x0 MSTORE PUSH1 0x11 PUSH1 0x4 MSTORE PUSH1 0x24 PUSH1 0x0 REVERT JUMPDEST PUSH32 0x4E487B7100000000000000000000000000000000000000000000000000000000 PUSH1 0x0 MSTORE PUSH1 0x12 PUSH1 0x4 MSTORE PUSH1 0x24 PUSH1 0x0 REVERT JUMPDEST PUSH1 0x0 DUP1 REVERT JUMPDEST PUSH2 0x2E8 DUP2 PUSH2 0x1F8 JUMP JUMPDEST DUP2 EQ PUSH2 0x2F3 JUMPI PUSH1 0x0 DUP1 REVERT JUMPDEST POP JUMP INVALID LOG2 PUSH5 0x6970667358 0x22 SLT KECCAK256 0xB3 0xCA PUSH22 0xF9D7299D0D9208AF6166C4F7F41D560A16FFAD22180D DUP1 BALANCE SWAP12 0xE7 0x2C 0xAD 0xCF PUSH5 0x736F6C6343 STOP ADDMOD SMOD STOP CALLER "
				},
				"gasEstimates": {
					"creation": {
						"codeDepositCost": "162400",
						"executionCost": "208",
						"totalCost": "162608"
					},
					"external": {
						"odd()": "infinite",
						"sum(uint256)": "infinite"
					}
				},
				"methodIdentifiers": {
					"odd()": "c12363a2",
					"sum(uint256)": "188b85b4"
				}
			},
			"storageLayout": {
				"storage": [],
				"types": null
			},
			"userdoc": {
				"kind": "user",
				"methods": {},
				"version": 1
			}
		}
	}
}