{
	"contracts/7_maths.sol": {
		"maths": {
			"abi": [
				{
					"inputs": [
						{
							"internalType": "uint256",
							"name": "a",
							"type": "uint256"
						},
						{
							"internalType": "uint256",
							"name": "b",
							"type": "uint256"
						}
					],
					"name": "div",
					"outputs": [
						{
							"internalType": "uint256",
							"name": "",
							"type": "uint256"
						}
					],
					"stateMutability": "pure",
					"type": "function"
				},
				{
					"inputs": [
						{
							"internalType": "uint256",
							"name": "a",
							"type": "uint256"
						},
						{
							"internalType": "uint256",
							"name": "b",
							"type": "uint256"
						}
					],
					"name": "expon",
					"outputs": [
						{
							"internalType": "uint256",
							"name": "",
							"type": "uint256"
						}
					],
					"stateMutability": "pure",
					"type": "function"
				},
				{
					"inputs": [
						{
							"internalType": "uint256",
							"name": "a",
							"type": "uint256"
						},
						{
							"internalType": "uint256",
							"name": "b",
							"type": "uint256"
						}
					],
					"name": "mod",
					"outputs": [
						{
							"internalType": "uint256",
							"name": "",
							"type": "uint256"
						}
					],
					"stateMutability": "pure",
					"type": "function"
				},
				{
					"inputs": [
						{
							"internalType": "uint256",
							"name": "a",
							"type": "uint256"
						},
						{
							"internalType": "uint256",
							"name": "b",
							"type": "uint256"
						}
					],
					"name": "mult",
					"outputs": [
						{
							"internalType": "uint256",
							"name": "",
							"type": "uint256"
						}
					],
					"stateMutability": "pure",
					"type": "function"
				},
				{
					"inputs": [
						{
							"internalType": "uint256",
							"name": "a",
							"type": "uint256"
						},
						{
							"internalType": "uint256",
							"name": "b",
							"type": "uint256"
						}
					],
					"name": "resta",
					"outputs": [
						{
							"internalType": "uint256",
							"name": "",
							"type": "uint256"
						}
					],
					"stateMutability": "pure",
					"type": "function"
				},
				{
					"inputs": [
						{
							"internalType": "uint256",
							"name": "a",
							"type": "uint256"
						},
						{
							"internalType": "uint256",
							"name": "b",
							"type": "uint256"
						}
					],
					"name": "suma",
					"outputs": [
						{
							"internalType": "uint256",
							"name": "",
							"type": "uint256"
						}
					],
					"stateMutability": "pure",
					"type": "function"
				}
			],
			"devdoc": {
				"kind": "dev",
				"methods": {},
				"version": 1
			},
			"evm": {
				"assembly": "    /* \"contracts/7_maths.sol\":62:637  contract maths{\r... */\n  mstore(0x40, 0x80)\n  callvalue\n  dup1\n  iszero\n  tag_1\n  jumpi\n  0x00\n  dup1\n  revert\ntag_1:\n  pop\n  dataSize(sub_0)\n  dup1\n  dataOffset(sub_0)\n  0x00\n  codecopy\n  0x00\n  return\nstop\n\nsub_0: assembly {\n        /* \"contracts/7_maths.sol\":62:637  contract maths{\r... */\n      mstore(0x40, 0x80)\n      callvalue\n      dup1\n      iszero\n      tag_1\n      jumpi\n      0x00\n      dup1\n      revert\n    tag_1:\n      pop\n      jumpi(tag_2, lt(calldatasize, 0x04))\n      shr(0xe0, calldataload(0x00))\n      dup1\n      0x52f294bc\n      eq\n      tag_3\n      jumpi\n      dup1\n      0x9aa727f6\n      eq\n      tag_4\n      jumpi\n      dup1\n      0xa391c15b\n      eq\n      tag_5\n      jumpi\n      dup1\n      0xb1b45b1b\n      eq\n      tag_6\n      jumpi\n      dup1\n      0xe989d9cc\n      eq\n      tag_7\n      jumpi\n      dup1\n      0xf43f523a\n      eq\n      tag_8\n      jumpi\n    tag_2:\n      0x00\n      dup1\n      revert\n        /* \"contracts/7_maths.sol\":176:262  function resta(uint a, uint b) public pure returns (uint){\r... */\n    tag_3:\n      tag_9\n      0x04\n      dup1\n      calldatasize\n      sub\n      dup2\n      add\n      swap1\n      tag_10\n      swap2\n      swap1\n      tag_11\n      jump\t// in\n    tag_10:\n      tag_12\n      jump\t// in\n    tag_9:\n      mload(0x40)\n      tag_13\n      swap2\n      swap1\n      tag_14\n      jump\t// in\n    tag_13:\n      mload(0x40)\n      dup1\n      swap2\n      sub\n      swap1\n      return\n        /* \"contracts/7_maths.sol\":549:634  function mult(uint a, uint b) public pure returns (uint){\r... */\n    tag_4:\n      tag_15\n      0x04\n      dup1\n      calldatasize\n      sub\n      dup2\n      add\n      swap1\n      tag_16\n      swap2\n      swap1\n      tag_11\n      jump\t// in\n    tag_16:\n      tag_17\n      jump\t// in\n    tag_15:\n      mload(0x40)\n      tag_18\n      swap2\n      swap1\n      tag_14\n      jump\t// in\n    tag_18:\n      mload(0x40)\n      dup1\n      swap2\n      sub\n      swap1\n      return\n        /* \"contracts/7_maths.sol\":270:354  function div(uint a, uint b) public pure returns (uint){\r... */\n    tag_5:\n      tag_19\n      0x04\n      dup1\n      calldatasize\n      sub\n      dup2\n      add\n      swap1\n      tag_20\n      swap2\n      swap1\n      tag_11\n      jump\t// in\n    tag_20:\n      tag_21\n      jump\t// in\n    tag_19:\n      mload(0x40)\n      tag_22\n      swap2\n      swap1\n      tag_14\n      jump\t// in\n    tag_22:\n      mload(0x40)\n      dup1\n      swap2\n      sub\n      swap1\n      return\n        /* \"contracts/7_maths.sol\":83:168  function suma(uint a, uint b) public pure returns (uint){\r... */\n    tag_6:\n      tag_23\n      0x04\n      dup1\n      calldatasize\n      sub\n      dup2\n      add\n      swap1\n      tag_24\n      swap2\n      swap1\n      tag_11\n      jump\t// in\n    tag_24:\n      tag_25\n      jump\t// in\n    tag_23:\n      mload(0x40)\n      tag_26\n      swap2\n      swap1\n      tag_14\n      jump\t// in\n    tag_26:\n      mload(0x40)\n      dup1\n      swap2\n      sub\n      swap1\n      return\n        /* \"contracts/7_maths.sol\":362:449  function expon(uint a, uint b) public pure returns (uint){\r... */\n    tag_7:\n      tag_27\n      0x04\n      dup1\n      calldatasize\n      sub\n      dup2\n      add\n      swap1\n      tag_28\n      swap2\n      swap1\n      tag_11\n      jump\t// in\n    tag_28:\n      tag_29\n      jump\t// in\n    tag_27:\n      mload(0x40)\n      tag_30\n      swap2\n      swap1\n      tag_14\n      jump\t// in\n    tag_30:\n      mload(0x40)\n      dup1\n      swap2\n      sub\n      swap1\n      return\n        /* \"contracts/7_maths.sol\":457:541  function mod(uint a, uint b) public pure returns (uint){\r... */\n    tag_8:\n      tag_31\n      0x04\n      dup1\n      calldatasize\n      sub\n      dup2\n      add\n      swap1\n      tag_32\n      swap2\n      swap1\n      tag_11\n      jump\t// in\n    tag_32:\n      tag_33\n      jump\t// in\n    tag_31:\n      mload(0x40)\n      tag_34\n      swap2\n      swap1\n      tag_14\n      jump\t// in\n    tag_34:\n      mload(0x40)\n      dup1\n      swap2\n      sub\n      swap1\n      return\n        /* \"contracts/7_maths.sol\":176:262  function resta(uint a, uint b) public pure returns (uint){\r... */\n    tag_12:\n        /* \"contracts/7_maths.sol\":228:232  uint */\n      0x00\n        /* \"contracts/7_maths.sol\":253:254  b */\n      dup2\n        /* \"contracts/7_maths.sol\":251:252  a */\n      dup4\n        /* \"contracts/7_maths.sol\":251:254  a-b */\n      tag_36\n      swap2\n      swap1\n      tag_37\n      jump\t// in\n    tag_36:\n        /* \"contracts/7_maths.sol\":244:254  return a-b */\n      swap1\n      pop\n        /* \"contracts/7_maths.sol\":176:262  function resta(uint a, uint b) public pure returns (uint){\r... */\n      swap3\n      swap2\n      pop\n      pop\n      jump\t// out\n        /* \"contracts/7_maths.sol\":549:634  function mult(uint a, uint b) public pure returns (uint){\r... */\n    tag_17:\n        /* \"contracts/7_maths.sol\":600:604  uint */\n      0x00\n        /* \"contracts/7_maths.sol\":625:626  b */\n      dup2\n        /* \"contracts/7_maths.sol\":623:624  a */\n      dup4\n        /* \"contracts/7_maths.sol\":623:626  a*b */\n      tag_39\n      swap2\n      swap1\n      tag_40\n      jump\t// in\n    tag_39:\n        /* \"contracts/7_maths.sol\":616:626  return a*b */\n      swap1\n      pop\n        /* \"contracts/7_maths.sol\":549:634  function mult(uint a, uint b) public pure returns (uint){\r... */\n      swap3\n      swap2\n      pop\n      pop\n      jump\t// out\n        /* \"contracts/7_maths.sol\":270:354  function div(uint a, uint b) public pure returns (uint){\r... */\n    tag_21:\n        /* \"contracts/7_maths.sol\":320:324  uint */\n      0x00\n        /* \"contracts/7_maths.sol\":345:346  b */\n      dup2\n        /* \"contracts/7_maths.sol\":343:344  a */\n      dup4\n        /* \"contracts/7_maths.sol\":343:346  a/b */\n      tag_42\n      swap2\n      swap1\n      tag_43\n      jump\t// in\n    tag_42:\n        /* \"contracts/7_maths.sol\":336:346  return a/b */\n      swap1\n      pop\n        /* \"contracts/7_maths.sol\":270:354  function div(uint a, uint b) public pure returns (uint){\r... */\n      swap3\n      swap2\n      pop\n      pop\n      jump\t// out\n        /* \"contracts/7_maths.sol\":83:168  function suma(uint a, uint b) public pure returns (uint){\r... */\n    tag_25:\n        /* \"contracts/7_maths.sol\":134:138  uint */\n      0x00\n        /* \"contracts/7_maths.sol\":159:160  b */\n      dup2\n        /* \"contracts/7_maths.sol\":157:158  a */\n      dup4\n        /* \"contracts/7_maths.sol\":157:160  a+b */\n      tag_45\n      swap2\n      swap1\n      tag_46\n      jump\t// in\n    tag_45:\n        /* \"contracts/7_maths.sol\":150:160  return a+b */\n      swap1\n      pop\n        /* \"contracts/7_maths.sol\":83:168  function suma(uint a, uint b) public pure returns (uint){\r... */\n      swap3\n      swap2\n      pop\n      pop\n      jump\t// out\n        /* \"contracts/7_maths.sol\":362:449  function expon(uint a, uint b) public pure returns (uint){\r... */\n    tag_29:\n        /* \"contracts/7_maths.sol\":414:418  uint */\n      0x00\n        /* \"contracts/7_maths.sol\":440:441  b */\n      dup2\n        /* \"contracts/7_maths.sol\":437:438  a */\n      dup4\n        /* \"contracts/7_maths.sol\":437:441  a**b */\n      tag_48\n      swap2\n      swap1\n      tag_49\n      jump\t// in\n    tag_48:\n        /* \"contracts/7_maths.sol\":430:441  return a**b */\n      swap1\n      pop\n        /* \"contracts/7_maths.sol\":362:449  function expon(uint a, uint b) public pure returns (uint){\r... */\n      swap3\n      swap2\n      pop\n      pop\n      jump\t// out\n        /* \"contracts/7_maths.sol\":457:541  function mod(uint a, uint b) public pure returns (uint){\r... */\n    tag_33:\n        /* \"contracts/7_maths.sol\":507:511  uint */\n      0x00\n        /* \"contracts/7_maths.sol\":532:533  b */\n      dup2\n        /* \"contracts/7_maths.sol\":530:531  a */\n      dup4\n        /* \"contracts/7_maths.sol\":530:533  a%b */\n      tag_51\n      swap2\n      swap1\n      tag_52\n      jump\t// in\n    tag_51:\n        /* \"contracts/7_maths.sol\":523:533  return a%b */\n      swap1\n      pop\n        /* \"contracts/7_maths.sol\":457:541  function mod(uint a, uint b) public pure returns (uint){\r... */\n      swap3\n      swap2\n      pop\n      pop\n      jump\t// out\n        /* \"#utility.yul\":7:146   */\n    tag_54:\n        /* \"#utility.yul\":53:58   */\n      0x00\n        /* \"#utility.yul\":91:97   */\n      dup2\n        /* \"#utility.yul\":78:98   */\n      calldataload\n        /* \"#utility.yul\":69:98   */\n      swap1\n      pop\n        /* \"#utility.yul\":107:140   */\n      tag_56\n        /* \"#utility.yul\":134:139   */\n      dup2\n        /* \"#utility.yul\":107:140   */\n      tag_57\n      jump\t// in\n    tag_56:\n        /* \"#utility.yul\":7:146   */\n      swap3\n      swap2\n      pop\n      pop\n      jump\t// out\n        /* \"#utility.yul\":152:626   */\n    tag_11:\n        /* \"#utility.yul\":220:226   */\n      0x00\n        /* \"#utility.yul\":228:234   */\n      dup1\n        /* \"#utility.yul\":277:279   */\n      0x40\n        /* \"#utility.yul\":265:274   */\n      dup4\n        /* \"#utility.yul\":256:263   */\n      dup6\n        /* \"#utility.yul\":252:275   */\n      sub\n        /* \"#utility.yul\":248:280   */\n      slt\n        /* \"#utility.yul\":245:364   */\n      iszero\n      tag_59\n      jumpi\n        /* \"#utility.yul\":283:362   */\n      tag_60\n      tag_61\n      jump\t// in\n    tag_60:\n        /* \"#utility.yul\":245:364   */\n    tag_59:\n        /* \"#utility.yul\":403:404   */\n      0x00\n        /* \"#utility.yul\":428:481   */\n      tag_62\n        /* \"#utility.yul\":473:480   */\n      dup6\n        /* \"#utility.yul\":464:470   */\n      dup3\n        /* \"#utility.yul\":453:462   */\n      dup7\n        /* \"#utility.yul\":449:471   */\n      add\n        /* \"#utility.yul\":428:481   */\n      tag_54\n      jump\t// in\n    tag_62:\n        /* \"#utility.yul\":418:481   */\n      swap3\n      pop\n        /* \"#utility.yul\":374:491   */\n      pop\n        /* \"#utility.yul\":530:532   */\n      0x20\n        /* \"#utility.yul\":556:609   */\n      tag_63\n        /* \"#utility.yul\":601:608   */\n      dup6\n        /* \"#utility.yul\":592:598   */\n      dup3\n        /* \"#utility.yul\":581:590   */\n      dup7\n        /* \"#utility.yul\":577:599   */\n      add\n        /* \"#utility.yul\":556:609   */\n      tag_54\n      jump\t// in\n    tag_63:\n        /* \"#utility.yul\":546:609   */\n      swap2\n      pop\n        /* \"#utility.yul\":501:619   */\n      pop\n        /* \"#utility.yul\":152:626   */\n      swap3\n      pop\n      swap3\n      swap1\n      pop\n      jump\t// out\n        /* \"#utility.yul\":632:750   */\n    tag_64:\n        /* \"#utility.yul\":719:743   */\n      tag_66\n        /* \"#utility.yul\":737:742   */\n      dup2\n        /* \"#utility.yul\":719:743   */\n      tag_67\n      jump\t// in\n    tag_66:\n        /* \"#utility.yul\":714:717   */\n      dup3\n        /* \"#utility.yul\":707:744   */\n      mstore\n        /* \"#utility.yul\":632:750   */\n      pop\n      pop\n      jump\t// out\n        /* \"#utility.yul\":756:978   */\n    tag_14:\n        /* \"#utility.yul\":849:853   */\n      0x00\n        /* \"#utility.yul\":887:889   */\n      0x20\n        /* \"#utility.yul\":876:885   */\n      dup3\n        /* \"#utility.yul\":872:890   */\n      add\n        /* \"#utility.yul\":864:890   */\n      swap1\n      pop\n        /* \"#utility.yul\":900:971   */\n      tag_69\n        /* \"#utility.yul\":968:969   */\n      0x00\n        /* \"#utility.yul\":957:966   */\n      dup4\n        /* \"#utility.yul\":953:970   */\n      add\n        /* \"#utility.yul\":944:950   */\n      dup5\n        /* \"#utility.yul\":900:971   */\n      tag_64\n      jump\t// in\n    tag_69:\n        /* \"#utility.yul\":756:978   */\n      swap3\n      swap2\n      pop\n      pop\n      jump\t// out\n        /* \"#utility.yul\":1065:1370   */\n    tag_46:\n        /* \"#utility.yul\":1105:1108   */\n      0x00\n        /* \"#utility.yul\":1124:1144   */\n      tag_73\n        /* \"#utility.yul\":1142:1143   */\n      dup3\n        /* \"#utility.yul\":1124:1144   */\n      tag_67\n      jump\t// in\n    tag_73:\n        /* \"#utility.yul\":1119:1144   */\n      swap2\n      pop\n        /* \"#utility.yul\":1158:1178   */\n      tag_74\n        /* \"#utility.yul\":1176:1177   */\n      dup4\n        /* \"#utility.yul\":1158:1178   */\n      tag_67\n      jump\t// in\n    tag_74:\n        /* \"#utility.yul\":1153:1178   */\n      swap3\n      pop\n        /* \"#utility.yul\":1312:1313   */\n      dup3\n        /* \"#utility.yul\":1244:1310   */\n      0xffffffffffffffffffffffffffffffffffffffffffffffffffffffffffffffff\n        /* \"#utility.yul\":1240:1314   */\n      sub\n        /* \"#utility.yul\":1237:1238   */\n      dup3\n        /* \"#utility.yul\":1234:1315   */\n      gt\n        /* \"#utility.yul\":1231:1338   */\n      iszero\n      tag_75\n      jumpi\n        /* \"#utility.yul\":1318:1336   */\n      tag_76\n      tag_77\n      jump\t// in\n    tag_76:\n        /* \"#utility.yul\":1231:1338   */\n    tag_75:\n        /* \"#utility.yul\":1362:1363   */\n      dup3\n        /* \"#utility.yul\":1359:1360   */\n      dup3\n        /* \"#utility.yul\":1355:1364   */\n      add\n        /* \"#utility.yul\":1348:1364   */\n      swap1\n      pop\n        /* \"#utility.yul\":1065:1370   */\n      swap3\n      swap2\n      pop\n      pop\n      jump\t// out\n        /* \"#utility.yul\":1376:1561   */\n    tag_43:\n        /* \"#utility.yul\":1416:1417   */\n      0x00\n        /* \"#utility.yul\":1433:1453   */\n      tag_79\n        /* \"#utility.yul\":1451:1452   */\n      dup3\n        /* \"#utility.yul\":1433:1453   */\n      tag_67\n      jump\t// in\n    tag_79:\n        /* \"#utility.yul\":1428:1453   */\n      swap2\n      pop\n        /* \"#utility.yul\":1467:1487   */\n      tag_80\n        /* \"#utility.yul\":1485:1486   */\n      dup4\n        /* \"#utility.yul\":1467:1487   */\n      tag_67\n      jump\t// in\n    tag_80:\n        /* \"#utility.yul\":1462:1487   */\n      swap3\n      pop\n        /* \"#utility.yul\":1506:1507   */\n      dup3\n        /* \"#utility.yul\":1496:1531   */\n      tag_81\n      jumpi\n        /* \"#utility.yul\":1511:1529   */\n      tag_82\n      tag_83\n      jump\t// in\n    tag_82:\n        /* \"#utility.yul\":1496:1531   */\n    tag_81:\n        /* \"#utility.yul\":1553:1554   */\n      dup3\n        /* \"#utility.yul\":1550:1551   */\n      dup3\n        /* \"#utility.yul\":1546:1555   */\n      div\n        /* \"#utility.yul\":1541:1555   */\n      swap1\n      pop\n        /* \"#utility.yul\":1376:1561   */\n      swap3\n      swap2\n      pop\n      pop\n      jump\t// out\n        /* \"#utility.yul\":1567:2415   */\n    tag_84:\n        /* \"#utility.yul\":1628:1633   */\n      0x00\n        /* \"#utility.yul\":1635:1639   */\n      dup1\n        /* \"#utility.yul\":1659:1665   */\n      dup3\n        /* \"#utility.yul\":1650:1665   */\n      swap2\n      pop\n        /* \"#utility.yul\":1683:1688   */\n      dup4\n        /* \"#utility.yul\":1674:1688   */\n      swap1\n      pop\n        /* \"#utility.yul\":1697:2409   */\n    tag_86:\n        /* \"#utility.yul\":1718:1719   */\n      0x01\n        /* \"#utility.yul\":1708:1716   */\n      dup6\n        /* \"#utility.yul\":1705:1720   */\n      gt\n        /* \"#utility.yul\":1697:2409   */\n      iszero\n      tag_88\n      jumpi\n        /* \"#utility.yul\":1813:1817   */\n      dup1\n        /* \"#utility.yul\":1808:1811   */\n      dup7\n        /* \"#utility.yul\":1804:1818   */\n      div\n        /* \"#utility.yul\":1798:1802   */\n      dup2\n        /* \"#utility.yul\":1795:1819   */\n      gt\n        /* \"#utility.yul\":1792:1842   */\n      iszero\n      tag_89\n      jumpi\n        /* \"#utility.yul\":1822:1840   */\n      tag_90\n      tag_77\n      jump\t// in\n    tag_90:\n        /* \"#utility.yul\":1792:1842   */\n    tag_89:\n        /* \"#utility.yul\":1872:1873   */\n      0x01\n        /* \"#utility.yul\":1862:1870   */\n      dup6\n        /* \"#utility.yul\":1858:1874   */\n      and\n        /* \"#utility.yul\":1855:2306   */\n      iszero\n      tag_91\n      jumpi\n        /* \"#utility.yul\":2287:2291   */\n      dup1\n        /* \"#utility.yul\":2280:2285   */\n      dup3\n        /* \"#utility.yul\":2276:2292   */\n      mul\n        /* \"#utility.yul\":2267:2292   */\n      swap2\n      pop\n        /* \"#utility.yul\":1855:2306   */\n    tag_91:\n        /* \"#utility.yul\":2337:2341   */\n      dup1\n        /* \"#utility.yul\":2331:2335   */\n      dup2\n        /* \"#utility.yul\":2327:2342   */\n      mul\n        /* \"#utility.yul\":2319:2342   */\n      swap1\n      pop\n        /* \"#utility.yul\":2367:2399   */\n      tag_92\n        /* \"#utility.yul\":2390:2398   */\n      dup6\n        /* \"#utility.yul\":2367:2399   */\n      tag_93\n      jump\t// in\n    tag_92:\n        /* \"#utility.yul\":2355:2399   */\n      swap5\n      pop\n        /* \"#utility.yul\":1697:2409   */\n      jump(tag_86)\n    tag_88:\n        /* \"#utility.yul\":1567:2415   */\n      swap5\n      pop\n      swap5\n      swap3\n      pop\n      pop\n      pop\n      jump\t// out\n        /* \"#utility.yul\":2421:2706   */\n    tag_49:\n        /* \"#utility.yul\":2481:2486   */\n      0x00\n        /* \"#utility.yul\":2505:2528   */\n      tag_95\n        /* \"#utility.yul\":2523:2527   */\n      dup3\n        /* \"#utility.yul\":2505:2528   */\n      tag_67\n      jump\t// in\n    tag_95:\n        /* \"#utility.yul\":2497:2528   */\n      swap2\n      pop\n        /* \"#utility.yul\":2549:2576   */\n      tag_96\n        /* \"#utility.yul\":2567:2575   */\n      dup4\n        /* \"#utility.yul\":2549:2576   */\n      tag_67\n      jump\t// in\n    tag_96:\n        /* \"#utility.yul\":2537:2576   */\n      swap3\n      pop\n        /* \"#utility.yul\":2595:2699   */\n      tag_97\n        /* \"#utility.yul\":2632:2698   */\n      0xffffffffffffffffffffffffffffffffffffffffffffffffffffffffffffffff\n        /* \"#utility.yul\":2622:2630   */\n      dup5\n        /* \"#utility.yul\":2616:2620   */\n      dup5\n        /* \"#utility.yul\":2595:2699   */\n      tag_98\n      jump\t// in\n    tag_97:\n        /* \"#utility.yul\":2586:2699   */\n      swap1\n      pop\n        /* \"#utility.yul\":2421:2706   */\n      swap3\n      swap2\n      pop\n      pop\n      jump\t// out\n        /* \"#utility.yul\":2712:3785   */\n    tag_98:\n        /* \"#utility.yul\":2766:2771   */\n      0x00\n        /* \"#utility.yul\":2957:2965   */\n      dup3\n        /* \"#utility.yul\":2947:2987   */\n      tag_100\n      jumpi\n        /* \"#utility.yul\":2978:2979   */\n      0x01\n        /* \"#utility.yul\":2969:2979   */\n      swap1\n      pop\n        /* \"#utility.yul\":2980:2985   */\n      jump(tag_99)\n        /* \"#utility.yul\":2947:2987   */\n    tag_100:\n        /* \"#utility.yul\":3006:3010   */\n      dup2\n        /* \"#utility.yul\":2996:3032   */\n      tag_101\n      jumpi\n        /* \"#utility.yul\":3023:3024   */\n      0x00\n        /* \"#utility.yul\":3014:3024   */\n      swap1\n      pop\n        /* \"#utility.yul\":3025:3030   */\n      jump(tag_99)\n        /* \"#utility.yul\":2996:3032   */\n    tag_101:\n        /* \"#utility.yul\":3092:3096   */\n      dup2\n        /* \"#utility.yul\":3140:3141   */\n      0x01\n        /* \"#utility.yul\":3135:3162   */\n      dup2\n      eq\n      tag_103\n      jumpi\n        /* \"#utility.yul\":3176:3177   */\n      0x02\n        /* \"#utility.yul\":3171:3362   */\n      dup2\n      eq\n      tag_104\n      jumpi\n        /* \"#utility.yul\":3085:3362   */\n      jump(tag_102)\n        /* \"#utility.yul\":3135:3162   */\n    tag_103:\n        /* \"#utility.yul\":3153:3154   */\n      0x01\n        /* \"#utility.yul\":3144:3154   */\n      swap2\n      pop\n        /* \"#utility.yul\":3155:3160   */\n      pop\n      jump(tag_99)\n        /* \"#utility.yul\":3171:3362   */\n    tag_104:\n        /* \"#utility.yul\":3216:3219   */\n      0xff\n        /* \"#utility.yul\":3206:3214   */\n      dup5\n        /* \"#utility.yul\":3203:3220   */\n      gt\n        /* \"#utility.yul\":3200:3243   */\n      iszero\n      tag_105\n      jumpi\n        /* \"#utility.yul\":3223:3241   */\n      tag_106\n      tag_77\n      jump\t// in\n    tag_106:\n        /* \"#utility.yul\":3200:3243   */\n    tag_105:\n        /* \"#utility.yul\":3272:3280   */\n      dup4\n        /* \"#utility.yul\":3269:3270   */\n      0x02\n        /* \"#utility.yul\":3265:3281   */\n      exp\n        /* \"#utility.yul\":3256:3281   */\n      swap2\n      pop\n        /* \"#utility.yul\":3307:3310   */\n      dup5\n        /* \"#utility.yul\":3300:3305   */\n      dup3\n        /* \"#utility.yul\":3297:3311   */\n      gt\n        /* \"#utility.yul\":3294:3334   */\n      iszero\n      tag_107\n      jumpi\n        /* \"#utility.yul\":3314:3332   */\n      tag_108\n      tag_77\n      jump\t// in\n    tag_108:\n        /* \"#utility.yul\":3294:3334   */\n    tag_107:\n        /* \"#utility.yul\":3347:3352   */\n      pop\n      jump(tag_99)\n        /* \"#utility.yul\":3085:3362   */\n    tag_102:\n      pop\n        /* \"#utility.yul\":3471:3473   */\n      0x20\n        /* \"#utility.yul\":3461:3469   */\n      dup4\n        /* \"#utility.yul\":3458:3474   */\n      lt\n        /* \"#utility.yul\":3452:3455   */\n      0x0133\n        /* \"#utility.yul\":3446:3450   */\n      dup4\n        /* \"#utility.yul\":3443:3456   */\n      lt\n        /* \"#utility.yul\":3439:3475   */\n      and\n        /* \"#utility.yul\":3421:3423   */\n      0x4e\n        /* \"#utility.yul\":3411:3419   */\n      dup5\n        /* \"#utility.yul\":3408:3424   */\n      lt\n        /* \"#utility.yul\":3403:3405   */\n      0x0b\n        /* \"#utility.yul\":3397:3401   */\n      dup5\n        /* \"#utility.yul\":3394:3406   */\n      lt\n        /* \"#utility.yul\":3390:3425   */\n      and\n        /* \"#utility.yul\":3374:3485   */\n      or\n        /* \"#utility.yul\":3371:3617   */\n      iszero\n      tag_109\n      jumpi\n        /* \"#utility.yul\":3527:3535   */\n      dup3\n        /* \"#utility.yul\":3521:3525   */\n      dup3\n        /* \"#utility.yul\":3517:3536   */\n      exp\n        /* \"#utility.yul\":3508:3536   */\n      swap1\n      pop\n        /* \"#utility.yul\":3562:3565   */\n      dup4\n        /* \"#utility.yul\":3555:3560   */\n      dup2\n        /* \"#utility.yul\":3552:3566   */\n      gt\n        /* \"#utility.yul\":3549:3589   */\n      iszero\n      tag_110\n      jumpi\n        /* \"#utility.yul\":3569:3587   */\n      tag_111\n      tag_77\n      jump\t// in\n    tag_111:\n        /* \"#utility.yul\":3549:3589   */\n    tag_110:\n        /* \"#utility.yul\":3602:3607   */\n      jump(tag_99)\n        /* \"#utility.yul\":3371:3617   */\n    tag_109:\n        /* \"#utility.yul\":3642:3684   */\n      tag_112\n        /* \"#utility.yul\":3680:3683   */\n      dup5\n        /* \"#utility.yul\":3670:3678   */\n      dup5\n        /* \"#utility.yul\":3664:3668   */\n      dup5\n        /* \"#utility.yul\":3661:3662   */\n      0x01\n        /* \"#utility.yul\":3642:3684   */\n      tag_84\n      jump\t// in\n    tag_112:\n        /* \"#utility.yul\":3627:3684   */\n      swap3\n      pop\n      swap1\n      pop\n        /* \"#utility.yul\":3716:3720   */\n      dup2\n        /* \"#utility.yul\":3711:3714   */\n      dup5\n        /* \"#utility.yul\":3707:3721   */\n      div\n        /* \"#utility.yul\":3700:3705   */\n      dup2\n        /* \"#utility.yul\":3697:3722   */\n      gt\n        /* \"#utility.yul\":3694:3745   */\n      iszero\n      tag_113\n      jumpi\n        /* \"#utility.yul\":3725:3743   */\n      tag_114\n      tag_77\n      jump\t// in\n    tag_114:\n        /* \"#utility.yul\":3694:3745   */\n    tag_113:\n        /* \"#utility.yul\":3774:3778   */\n      dup2\n        /* \"#utility.yul\":3767:3772   */\n      dup2\n        /* \"#utility.yul\":3763:3779   */\n      mul\n        /* \"#utility.yul\":3754:3779   */\n      swap1\n      pop\n        /* \"#utility.yul\":2712:3785   */\n    tag_99:\n      swap4\n      swap3\n      pop\n      pop\n      pop\n      jump\t// out\n        /* \"#utility.yul\":3791:4139   */\n    tag_40:\n        /* \"#utility.yul\":3831:3838   */\n      0x00\n        /* \"#utility.yul\":3854:3874   */\n      tag_116\n        /* \"#utility.yul\":3872:3873   */\n      dup3\n        /* \"#utility.yul\":3854:3874   */\n      tag_67\n      jump\t// in\n    tag_116:\n        /* \"#utility.yul\":3849:3874   */\n      swap2\n      pop\n        /* \"#utility.yul\":3888:3908   */\n      tag_117\n        /* \"#utility.yul\":3906:3907   */\n      dup4\n        /* \"#utility.yul\":3888:3908   */\n      tag_67\n      jump\t// in\n    tag_117:\n        /* \"#utility.yul\":3883:3908   */\n      swap3\n      pop\n        /* \"#utility.yul\":4076:4077   */\n      dup2\n        /* \"#utility.yul\":4008:4074   */\n      0xffffffffffffffffffffffffffffffffffffffffffffffffffffffffffffffff\n        /* \"#utility.yul\":4004:4078   */\n      div\n        /* \"#utility.yul\":4001:4002   */\n      dup4\n        /* \"#utility.yul\":3998:4079   */\n      gt\n        /* \"#utility.yul\":3993:3994   */\n      dup3\n        /* \"#utility.yul\":3986:3995   */\n      iszero\n        /* \"#utility.yul\":3979:3996   */\n      iszero\n        /* \"#utility.yul\":3975:4080   */\n      and\n        /* \"#utility.yul\":3972:4103   */\n      iszero\n      tag_118\n      jumpi\n        /* \"#utility.yul\":4083:4101   */\n      tag_119\n      tag_77\n      jump\t// in\n    tag_119:\n        /* \"#utility.yul\":3972:4103   */\n    tag_118:\n        /* \"#utility.yul\":4131:4132   */\n      dup3\n        /* \"#utility.yul\":4128:4129   */\n      dup3\n        /* \"#utility.yul\":4124:4133   */\n      mul\n        /* \"#utility.yul\":4113:4133   */\n      swap1\n      pop\n        /* \"#utility.yul\":3791:4139   */\n      swap3\n      swap2\n      pop\n      pop\n      jump\t// out\n        /* \"#utility.yul\":4145:4336   */\n    tag_37:\n        /* \"#utility.yul\":4185:4189   */\n      0x00\n        /* \"#utility.yul\":4205:4225   */\n      tag_121\n        /* \"#utility.yul\":4223:4224   */\n      dup3\n        /* \"#utility.yul\":4205:4225   */\n      tag_67\n      jump\t// in\n    tag_121:\n        /* \"#utility.yul\":4200:4225   */\n      swap2\n      pop\n        /* \"#utility.yul\":4239:4259   */\n      tag_122\n        /* \"#utility.yul\":4257:4258   */\n      dup4\n        /* \"#utility.yul\":4239:4259   */\n      tag_67\n      jump\t// in\n    tag_122:\n        /* \"#utility.yul\":4234:4259   */\n      swap3\n      pop\n        /* \"#utility.yul\":4278:4279   */\n      dup3\n        /* \"#utility.yul\":4275:4276   */\n      dup3\n        /* \"#utility.yul\":4272:4280   */\n      lt\n        /* \"#utility.yul\":4269:4303   */\n      iszero\n      tag_123\n      jumpi\n        /* \"#utility.yul\":4283:4301   */\n      tag_124\n      tag_77\n      jump\t// in\n    tag_124:\n        /* \"#utility.yul\":4269:4303   */\n    tag_123:\n        /* \"#utility.yul\":4328:4329   */\n      dup3\n        /* \"#utility.yul\":4325:4326   */\n      dup3\n        /* \"#utility.yul\":4321:4330   */\n      sub\n        /* \"#utility.yul\":4313:4330   */\n      swap1\n      pop\n        /* \"#utility.yul\":4145:4336   */\n      swap3\n      swap2\n      pop\n      pop\n      jump\t// out\n        /* \"#utility.yul\":4342:4419   */\n    tag_67:\n        /* \"#utility.yul\":4379:4386   */\n      0x00\n        /* \"#utility.yul\":4408:4413   */\n      dup2\n        /* \"#utility.yul\":4397:4413   */\n      swap1\n      pop\n        /* \"#utility.yul\":4342:4419   */\n      swap2\n      swap1\n      pop\n      jump\t// out\n        /* \"#utility.yul\":4425:4601   */\n    tag_52:\n        /* \"#utility.yul\":4457:4458   */\n      0x00\n        /* \"#utility.yul\":4474:4494   */\n      tag_127\n        /* \"#utility.yul\":4492:4493   */\n      dup3\n        /* \"#utility.yul\":4474:4494   */\n      tag_67\n      jump\t// in\n    tag_127:\n        /* \"#utility.yul\":4469:4494   */\n      swap2\n      pop\n        /* \"#utility.yul\":4508:4528   */\n      tag_128\n        /* \"#utility.yul\":4526:4527   */\n      dup4\n        /* \"#utility.yul\":4508:4528   */\n      tag_67\n      jump\t// in\n    tag_128:\n        /* \"#utility.yul\":4503:4528   */\n      swap3\n      pop\n        /* \"#utility.yul\":4547:4548   */\n      dup3\n        /* \"#utility.yul\":4537:4572   */\n      tag_129\n      jumpi\n        /* \"#utility.yul\":4552:4570   */\n      tag_130\n      tag_83\n      jump\t// in\n    tag_130:\n        /* \"#utility.yul\":4537:4572   */\n    tag_129:\n        /* \"#utility.yul\":4593:4594   */\n      dup3\n        /* \"#utility.yul\":4590:4591   */\n      dup3\n        /* \"#utility.yul\":4586:4595   */\n      mod\n        /* \"#utility.yul\":4581:4595   */\n      swap1\n      pop\n        /* \"#utility.yul\":4425:4601   */\n      swap3\n      swap2\n      pop\n      pop\n      jump\t// out\n        /* \"#utility.yul\":4607:4787   */\n    tag_77:\n        /* \"#utility.yul\":4655:4732   */\n      0x4e487b7100000000000000000000000000000000000000000000000000000000\n        /* \"#utility.yul\":4652:4653   */\n      0x00\n        /* \"#utility.yul\":4645:4733   */\n      mstore\n        /* \"#utility.yul\":4752:4756   */\n      0x11\n        /* \"#utility.yul\":4749:4750   */\n      0x04\n        /* \"#utility.yul\":4742:4757   */\n      mstore\n        /* \"#utility.yul\":4776:4780   */\n      0x24\n        /* \"#utility.yul\":4773:4774   */\n      0x00\n        /* \"#utility.yul\":4766:4781   */\n      revert\n        /* \"#utility.yul\":4793:4973   */\n    tag_83:\n        /* \"#utility.yul\":4841:4918   */\n      0x4e487b7100000000000000000000000000000000000000000000000000000000\n        /* \"#utility.yul\":4838:4839   */\n      0x00\n        /* \"#utility.yul\":4831:4919   */\n      mstore\n        /* \"#utility.yul\":4938:4942   */\n      0x12\n        /* \"#utility.yul\":4935:4936   */\n      0x04\n        /* \"#utility.yul\":4928:4943   */\n      mstore\n        /* \"#utility.yul\":4962:4966   */\n      0x24\n        /* \"#utility.yul\":4959:4960   */\n      0x00\n        /* \"#utility.yul\":4952:4967   */\n      revert\n        /* \"#utility.yul\":5102:5219   */\n    tag_61:\n        /* \"#utility.yul\":5211:5212   */\n      0x00\n        /* \"#utility.yul\":5208:5209   */\n      dup1\n        /* \"#utility.yul\":5201:5213   */\n      revert\n        /* \"#utility.yul\":5225:5327   */\n    tag_93:\n        /* \"#utility.yul\":5267:5275   */\n      0x00\n        /* \"#utility.yul\":5314:5319   */\n      dup2\n        /* \"#utility.yul\":5311:5312   */\n      0x01\n        /* \"#utility.yul\":5307:5320   */\n      shr\n        /* \"#utility.yul\":5286:5320   */\n      swap1\n      pop\n        /* \"#utility.yul\":5225:5327   */\n      swap2\n      swap1\n      pop\n      jump\t// out\n        /* \"#utility.yul\":5333:5455   */\n    tag_57:\n        /* \"#utility.yul\":5406:5430   */\n      tag_138\n        /* \"#utility.yul\":5424:5429   */\n      dup2\n        /* \"#utility.yul\":5406:5430   */\n      tag_67\n      jump\t// in\n    tag_138:\n        /* \"#utility.yul\":5399:5404   */\n      dup2\n        /* \"#utility.yul\":5396:5431   */\n      eq\n        /* \"#utility.yul\":5386:5449   */\n      tag_139\n      jumpi\n        /* \"#utility.yul\":5445:5446   */\n      0x00\n        /* \"#utility.yul\":5442:5443   */\n      dup1\n        /* \"#utility.yul\":5435:5447   */\n      revert\n        /* \"#utility.yul\":5386:5449   */\n    tag_139:\n        /* \"#utility.yul\":5333:5455   */\n      pop\n      jump\t// out\n\n    auxdata: 0xa2646970667358221220f8ba943a47ac06e69bdfa297439ad286f7f0407cd949a7497b95f710a8a4e00864736f6c63430008070033\n}\n",
				"bytecode": {
					"linkReferences": {},
					"object": "608060405234801561001057600080fd5b50610608806100206000396000f3fe608060405234801561001057600080fd5b50600436106100625760003560e01c806352f294bc146100675780639aa727f614610097578063a391c15b146100c7578063b1b45b1b146100f7578063e989d9cc14610127578063f43f523a14610157575b600080fd5b610081600480360381019061007c9190610220565b610187565b60405161008e919061026f565b60405180910390f35b6100b160048036038101906100ac9190610220565b61019d565b6040516100be919061026f565b60405180910390f35b6100e160048036038101906100dc9190610220565b6101b3565b6040516100ee919061026f565b60405180910390f35b610111600480360381019061010c9190610220565b6101c9565b60405161011e919061026f565b60405180910390f35b610141600480360381019061013c9190610220565b6101df565b60405161014e919061026f565b60405180910390f35b610171600480360381019061016c9190610220565b6101f5565b60405161017e919061026f565b60405180910390f35b6000818361019591906104dc565b905092915050565b600081836101ab9190610482565b905092915050565b600081836101c191906102e0565b905092915050565b600081836101d7919061028a565b905092915050565b600081836101ed9190610364565b905092915050565b60008183610203919061051a565b905092915050565b60008135905061021a816105bb565b92915050565b60008060408385031215610237576102366105a9565b5b60006102458582860161020b565b92505060206102568582860161020b565b9150509250929050565b61026981610510565b82525050565b60006020820190506102846000830184610260565b92915050565b600061029582610510565b91506102a083610510565b9250827fffffffffffffffffffffffffffffffffffffffffffffffffffffffffffffffff038211156102d5576102d461054b565b5b828201905092915050565b60006102eb82610510565b91506102f683610510565b9250826103065761030561057a565b5b828204905092915050565b6000808291508390505b600185111561035b578086048111156103375761033661054b565b5b60018516156103465780820291505b8081029050610354856105ae565b945061031b565b94509492505050565b600061036f82610510565b915061037a83610510565b92506103a77fffffffffffffffffffffffffffffffffffffffffffffffffffffffffffffffff84846103af565b905092915050565b6000826103bf576001905061047b565b816103cd576000905061047b565b81600181146103e357600281146103ed5761041c565b600191505061047b565b60ff8411156103ff576103fe61054b565b5b8360020a9150848211156104165761041561054b565b5b5061047b565b5060208310610133831016604e8410600b84101617156104515782820a90508381111561044c5761044b61054b565b5b61047b565b61045e8484846001610311565b925090508184048111156104755761047461054b565b5b81810290505b9392505050565b600061048d82610510565b915061049883610510565b9250817fffffffffffffffffffffffffffffffffffffffffffffffffffffffffffffffff04831182151516156104d1576104d061054b565b5b828202905092915050565b60006104e782610510565b91506104f283610510565b9250828210156105055761050461054b565b5b828203905092915050565b6000819050919050565b600061052582610510565b915061053083610510565b9250826105405761053f61057a565b5b828206905092915050565b7f4e487b7100000000000000000000000000000000000000000000000000000000600052601160045260246000fd5b7f4e487b7100000000000000000000000000000000000000000000000000000000600052601260045260246000fd5b600080fd5b60008160011c9050919050565b6105c481610510565b81146105cf57600080fd5b5056fea2646970667358221220f8ba943a47ac06e69bdfa297439ad286f7f0407cd949a7497b95f710a8a4e00864736f6c63430008070033",
					"opcodes": "PUSH1 0x80 PUSH1 0x40 MSTORE CALLVALUE DUP1 ISZERO PUSH2 0x10 JUMPI PUSH1 0x0 DUP1 REVERT JUMPDEST POP PUSH2 0x608 DUP1 PUSH2 0x20 PUSH1 0x0 CODECOPY PUSH1 0x0 RETURN INVALID PUSH1 0x80 PUSH1 0x40 MSTORE CALLVALUE DUP1 ISZERO PUSH2 0x10 JUMPI PUSH1 0x0 DUP1 REVERT JUMPDEST POP PUSH1 0x4 CALLDATASIZE LT PUSH2 0x62 JUMPI PUSH1 0x0 CALLDATALOAD PUSH1 0xE0 SHR DUP1 PUSH4 0x52F294BC EQ PUSH2 0x67 JUMPI DUP1 PUSH4 0x9AA727F6 EQ PUSH2 0x97 JUMPI DUP1 PUSH4 0xA391C15B EQ PUSH2 0xC7 JUMPI DUP1 PUSH4 0xB1B45B1B EQ PUSH2 0xF7 JUMPI DUP1 PUSH4 0xE989D9CC EQ PUSH2 0x127 JUMPI DUP1 PUSH4 0xF43F523A EQ PUSH2 0x157 JUMPI JUMPDEST PUSH1 0x0 DUP1 REVERT JUMPDEST PUSH2 0x81 PUSH1 0x4 DUP1 CALLDATASIZE SUB DUP2 ADD SWAP1 PUSH2 0x7C SWAP2 SWAP1 PUSH2 0x220 JUMP JUMPDEST PUSH2 0x187 JUMP JUMPDEST PUSH1 0x40 MLOAD PUSH2 0x8E SWAP2 SWAP1 PUSH2 0x26F JUMP JUMPDEST PUSH1 0x40 MLOAD DUP1 SWAP2 SUB SWAP1 RETURN JUMPDEST PUSH2 0xB1 PUSH1 0x4 DUP1 CALLDATASIZE SUB DUP2 ADD SWAP1 PUSH2 0xAC SWAP2 SWAP1 PUSH2 0x220 JUMP JUMPDEST PUSH2 0x19D JUMP JUMPDEST PUSH1 0x40 MLOAD PUSH2 0xBE SWAP2 SWAP1 PUSH2 0x26F JUMP JUMPDEST PUSH1 0x40 MLOAD DUP1 SWAP2 SUB SWAP1 RETURN JUMPDEST PUSH2 0xE1 PUSH1 0x4 DUP1 CALLDATASIZE SUB DUP2 ADD SWAP1 PUSH2 0xDC SWAP2 SWAP1 PUSH2 0x220 JUMP JUMPDEST PUSH2 0x1B3 JUMP JUMPDEST PUSH1 0x40 MLOAD PUSH2 0xEE SWAP2 SWAP1 PUSH2 0x26F JUMP JUMPDEST PUSH1 0x40 MLOAD DUP1 SWAP2 SUB SWAP1 RETURN JUMPDEST PUSH2 0x111 PUSH1 0x4 DUP1 CALLDATASIZE SUB DUP2 ADD SWAP1 PUSH2 0x10C SWAP2 SWAP1 PUSH2 0x220 JUMP JUMPDEST PUSH2 0x1C9 JUMP JUMPDEST PUSH1 0x40 MLOAD PUSH2 0x11E SWAP2 SWAP1 PUSH2 0x26F JUMP JUMPDEST PUSH1 0x40 MLOAD DUP1 SWAP2 SUB SWAP1 RETURN JUMPDEST PUSH2 0x141 PUSH1 0x4 DUP1 CALLDATASIZE SUB DUP2 ADD SWAP1 PUSH2 0x13C SWAP2 SWAP1 PUSH2 0x220 JUMP JUMPDEST PUSH2 0x1DF JUMP JUMPDEST PUSH1 0x40 MLOAD PUSH2 0x14E SWAP2 SWAP1 PUSH2 0x26F JUMP JUMPDEST PUSH1 0x40 MLOAD DUP1 SWAP2 SUB SWAP1 RETURN JUMPDEST PUSH2 0x171 PUSH1 0x4 DUP1 CALLDATASIZE SUB DUP2 ADD SWAP1 PUSH2 0x16C SWAP2 SWAP1 PUSH2 0x220 JUMP JUMPDEST PUSH2 0x1F5 JUMP JUMPDEST PUSH1 0x40 MLOAD PUSH2 0x17E SWAP2 SWAP1 PUSH2 0x26F JUMP JUMPDEST PUSH1 0x40 MLOAD DUP1 SWAP2 SUB SWAP1 RETURN JUMPDEST PUSH1 0x0 DUP2 DUP4 PUSH2 0x195 SWAP2 SWAP1 PUSH2 0x4DC JUMP JUMPDEST SWAP1 POP SWAP3 SWAP2 POP POP JUMP JUMPDEST PUSH1 0x0 DUP2 DUP4 PUSH2 0x1AB SWAP2 SWAP1 PUSH2 0x482 JUMP JUMPDEST SWAP1 POP SWAP3 SWAP2 POP POP JUMP JUMPDEST PUSH1 0x0 DUP2 DUP4 PUSH2 0x1C1 SWAP2 SWAP1 PUSH2 0x2E0 JUMP JUMPDEST SWAP1 POP SWAP3 SWAP2 POP POP JUMP JUMPDEST PUSH1 0x0 DUP2 DUP4 PUSH2 0x1D7 SWAP2 SWAP1 PUSH2 0x28A JUMP JUMPDEST SWAP1 POP SWAP3 SWAP2 POP POP JUMP JUMPDEST PUSH1 0x0 DUP2 DUP4 PUSH2 0x1ED SWAP2 SWAP1 PUSH2 0x364 JUMP JUMPDEST SWAP1 POP SWAP3 SWAP2 POP POP JUMP JUMPDEST PUSH1 0x0 DUP2 DUP4 PUSH2 0x203 SWAP2 SWAP1 PUSH2 0x51A JUMP JUMPDEST SWAP1 POP SWAP3 SWAP2 POP POP JUMP JUMPDEST PUSH1 0x0 DUP2 CALLDATALOAD SWAP1 POP PUSH2 0x21A DUP2 PUSH2 0x5BB JUMP JUMPDEST SWAP3 SWAP2 POP POP JUMP JUMPDEST PUSH1 0x0 DUP1 PUSH1 0x40 DUP4 DUP6 SUB SLT ISZERO PUSH2 0x237 JUMPI PUSH2 0x236 PUSH2 0x5A9 JUMP JUMPDEST JUMPDEST PUSH1 0x0 PUSH2 0x245 DUP6 DUP3 DUP7 ADD PUSH2 0x20B JUMP JUMPDEST SWAP3 POP POP PUSH1 0x20 PUSH2 0x256 DUP6 DUP3 DUP7 ADD PUSH2 0x20B JUMP JUMPDEST SWAP2 POP POP SWAP3 POP SWAP3 SWAP1 POP JUMP JUMPDEST PUSH2 0x269 DUP2 PUSH2 0x510 JUMP JUMPDEST DUP3 MSTORE POP POP JUMP JUMPDEST PUSH1 0x0 PUSH1 0x20 DUP3 ADD SWAP1 POP PUSH2 0x284 PUSH1 0x0 DUP4 ADD DUP5 PUSH2 0x260 JUMP JUMPDEST SWAP3 SWAP2 POP POP JUMP JUMPDEST PUSH1 0x0 PUSH2 0x295 DUP3 PUSH2 0x510 JUMP JUMPDEST SWAP2 POP PUSH2 0x2A0 DUP4 PUSH2 0x510 JUMP JUMPDEST SWAP3 POP DUP3 PUSH32 0xFFFFFFFFFFFFFFFFFFFFFFFFFFFFFFFFFFFFFFFFFFFFFFFFFFFFFFFFFFFFFFFF SUB DUP3 GT ISZERO PUSH2 0x2D5 JUMPI PUSH2 0x2D4 PUSH2 0x54B JUMP JUMPDEST JUMPDEST DUP3 DUP3 ADD SWAP1 POP SWAP3 SWAP2 POP POP JUMP JUMPDEST PUSH1 0x0 PUSH2 0x2EB DUP3 PUSH2 0x510 JUMP JUMPDEST SWAP2 POP PUSH2 0x2F6 DUP4 PUSH2 0x510 JUMP JUMPDEST SWAP3 POP DUP3 PUSH2 0x306 JUMPI PUSH2 0x305 PUSH2 0x57A JUMP JUMPDEST JUMPDEST DUP3 DUP3 DIV SWAP1 POP SWAP3 SWAP2 POP POP JUMP JUMPDEST PUSH1 0x0 DUP1 DUP3 SWAP2 POP DUP4 SWAP1 POP JUMPDEST PUSH1 0x1 DUP6 GT ISZERO PUSH2 0x35B JUMPI DUP1 DUP7 DIV DUP2 GT ISZERO PUSH2 0x337 JUMPI PUSH2 0x336 PUSH2 0x54B JUMP JUMPDEST JUMPDEST PUSH1 0x1 DUP6 AND ISZERO PUSH2 0x346 JUMPI DUP1 DUP3 MUL SWAP2 POP JUMPDEST DUP1 DUP2 MUL SWAP1 POP PUSH2 0x354 DUP6 PUSH2 0x5AE JUMP JUMPDEST SWAP5 POP PUSH2 0x31B JUMP JUMPDEST SWAP5 POP SWAP5 SWAP3 POP POP POP JUMP JUMPDEST PUSH1 0x0 PUSH2 0x36F DUP3 PUSH2 0x510 JUMP JUMPDEST SWAP2 POP PUSH2 0x37A DUP4 PUSH2 0x510 JUMP JUMPDEST SWAP3 POP PUSH2 0x3A7 PUSH32 0xFFFFFFFFFFFFFFFFFFFFFFFFFFFFFFFFFFFFFFFFFFFFFFFFFFFFFFFFFFFFFFFF DUP5 DUP5 PUSH2 0x3AF JUMP JUMPDEST SWAP1 POP SWAP3 SWAP2 POP POP JUMP JUMPDEST PUSH1 0x0 DUP3 PUSH2 0x3BF JUMPI PUSH1 0x1 SWAP1 POP PUSH2 0x47B JUMP JUMPDEST DUP2 PUSH2 0x3CD JUMPI PUSH1 0x0 SWAP1 POP PUSH2 0x47B JUMP JUMPDEST DUP2 PUSH1 0x1 DUP2 EQ PUSH2 0x3E3 JUMPI PUSH1 0x2 DUP2 EQ PUSH2 0x3ED JUMPI PUSH2 0x41C JUMP JUMPDEST PUSH1 0x1 SWAP2 POP POP PUSH2 0x47B JUMP JUMPDEST PUSH1 0xFF DUP5 GT ISZERO PUSH2 0x3FF JUMPI PUSH2 0x3FE PUSH2 0x54B JUMP JUMPDEST JUMPDEST DUP4 PUSH1 0x2 EXP SWAP2 POP DUP5 DUP3 GT ISZERO PUSH2 0x416 JUMPI PUSH2 0x415 PUSH2 0x54B JUMP JUMPDEST JUMPDEST POP PUSH2 0x47B JUMP JUMPDEST POP PUSH1 0x20 DUP4 LT PUSH2 0x133 DUP4 LT AND PUSH1 0x4E DUP5 LT PUSH1 0xB DUP5 LT AND OR ISZERO PUSH2 0x451 JUMPI DUP3 DUP3 EXP SWAP1 POP DUP4 DUP2 GT ISZERO PUSH2 0x44C JUMPI PUSH2 0x44B PUSH2 0x54B JUMP JUMPDEST JUMPDEST PUSH2 0x47B JUMP JUMPDEST PUSH2 0x45E DUP5 DUP5 DUP5 PUSH1 0x1 PUSH2 0x311 JUMP JUMPDEST SWAP3 POP SWAP1 POP DUP2 DUP5 DIV DUP2 GT ISZERO PUSH2 0x475 JUMPI PUSH2 0x474 PUSH2 0x54B JUMP JUMPDEST JUMPDEST DUP2 DUP2 MUL SWAP1 POP JUMPDEST SWAP4 SWAP3 POP POP POP JUMP JUMPDEST PUSH1 0x0 PUSH2 0x48D DUP3 PUSH2 0x510 JUMP JUMPDEST SWAP2 POP PUSH2 0x498 DUP4 PUSH2 0x510 JUMP JUMPDEST SWAP3 POP DUP2 PUSH32 0xFFFFFFFFFFFFFFFFFFFFFFFFFFFFFFFFFFFFFFFFFFFFFFFFFFFFFFFFFFFFFFFF DIV DUP4 GT DUP3 ISZERO ISZERO AND ISZERO PUSH2 0x4D1 JUMPI PUSH2 0x4D0 PUSH2 0x54B JUMP JUMPDEST JUMPDEST DUP3 DUP3 MUL SWAP1 POP SWAP3 SWAP2 POP POP JUMP JUMPDEST PUSH1 0x0 PUSH2 0x4E7 DUP3 PUSH2 0x510 JUMP JUMPDEST SWAP2 POP PUSH2 0x4F2 DUP4 PUSH2 0x510 JUMP JUMPDEST SWAP3 POP DUP3 DUP3 LT ISZERO PUSH2 0x505 JUMPI PUSH2 0x504 PUSH2 0x54B JUMP JUMPDEST JUMPDEST DUP3 DUP3 SUB SWAP1 POP SWAP3 SWAP2 POP POP JUMP JUMPDEST PUSH1 0x0 DUP2 SWAP1 POP SWAP2 SWAP1 POP JUMP JUMPDEST PUSH1 0x0 PUSH2 0x525 DUP3 PUSH2 0x510 JUMP JUMPDEST SWAP2 POP PUSH2 0x530 DUP4 PUSH2 0x510 JUMP JUMPDEST SWAP3 POP DUP3 PUSH2 0x540 JUMPI PUSH2 0x53F PUSH2 0x57A JUMP JUMPDEST JUMPDEST DUP3 DUP3 MOD SWAP1 POP SWAP3 SWAP2 POP POP JUMP JUMPDEST PUSH32 0x4E487B7100000000000000000000000000000000000000000000000000000000 PUSH1 0x0 MSTORE PUSH1 0x11 PUSH1 0x4 MSTORE PUSH1 0x24 PUSH1 0x0 REVERT JUMPDEST PUSH32 0x4E487B7100000000000000000000000000000000000000000000000000000000 PUSH1 0x0 MSTORE PUSH1 0x12 PUSH1 0x4 MSTORE PUSH1 0x24 PUSH1 0x0 REVERT JUMPDEST PUSH1 0x0 DUP1 REVERT JUMPDEST PUSH1 0x0 DUP2 PUSH1 0x1 SHR SWAP1 POP SWAP2 SWAP1 POP JUMP JUMPDEST PUSH2 0x5C4 DUP2 PUSH2 0x510 JUMP JUMPDEST DUP2 EQ PUSH2 0x5CF JUMPI PUSH1 0x0 DUP1 REVERT JUMPDEST POP JUMP INVALID LOG2 PUSH5 0x6970667358 0x22 SLT KECCAK256 0xF8 0xBA SWAP5 GASPRICE SELFBALANCE 0xAC MOD 0xE6 SWAP12 0xDF LOG2 SWAP8 NUMBER SWAP11 0xD2 DUP7 0xF7 CREATE BLOCKHASH PUSH29 0xD949A7497B95F710A8A4E00864736F6C63430008070033000000000000 "
				},
				"gasEstimates": {
					"creation": {
						"codeDepositCost": "308800",
						"executionCost": "349",
						"totalCost": "309149"
					},
					"external": {
						"div(uint256,uint256)": "infinite",
						"expon(uint256,uint256)": "infinite",
						"mod(uint256,uint256)": "infinite",
						"mult(uint256,uint256)": "infinite",
						"resta(uint256,uint256)": "infinite",
						"suma(uint256,uint256)": "infinite"
					}
				},
				"methodIdentifiers": {
					"div(uint256,uint256)": "a391c15b",
					"expon(uint256,uint256)": "e989d9cc",
					"mod(uint256,uint256)": "f43f523a",
					"mult(uint256,uint256)": "9aa727f6",
					"resta(uint256,uint256)": "52f294bc",
					"suma(uint256,uint256)": "b1b45b1b"
				}
			},
			"storageLayout": {
				"storage": [],
				"types": null
			},
			"userdoc": {
				"kind": "user",
				"methods": {},
				"version": 1
			}
		}
	}
}