{
	"contracts/2_variables_modifiers.sol": {
		"variables_modifiers": {
			"abi": [
				{
					"inputs": [],
					"name": "addres2",
					"outputs": [
						{
							"internalType": "address",
							"name": "",
							"type": "address"
						}
					],
					"stateMutability": "view",
					"type": "function"
				},
				{
					"inputs": [],
					"name": "address1",
					"outputs": [
						{
							"internalType": "address",
							"name": "",
							"type": "address"
						}
					],
					"stateMutability": "view",
					"type": "function"
				},
				{
					"inputs": [],
					"name": "b",
					"outputs": [
						{
							"internalType": "uint8",
							"name": "",
							"type": "uint8"
						}
					],
					"stateMutability": "view",
					"type": "function"
				},
				{
					"inputs": [],
					"name": "boolean_public",
					"outputs": [
						{
							"internalType": "bool",
							"name": "",
							"type": "bool"
						}
					],
					"stateMutability": "view",
					"type": "function"
				},
				{
					"inputs": [],
					"name": "d",
					"outputs": [
						{
							"internalType": "int8",
							"name": "",
							"type": "int8"
						}
					],
					"stateMutability": "view",
					"type": "function"
				},
				{
					"inputs": [],
					"name": "displayState",
					"outputs": [
						{
							"internalType": "enum variables_modifiers.options",
							"name": "",
							"type": "uint8"
						}
					],
					"stateMutability": "view",
					"type": "function"
				},
				{
					"inputs": [],
					"name": "hashing",
					"outputs": [
						{
							"internalType": "bytes32",
							"name": "",
							"type": "bytes32"
						}
					],
					"stateMutability": "view",
					"type": "function"
				},
				{
					"inputs": [],
					"name": "hashing_ripemd160",
					"outputs": [
						{
							"internalType": "bytes20",
							"name": "",
							"type": "bytes20"
						}
					],
					"stateMutability": "view",
					"type": "function"
				},
				{
					"inputs": [],
					"name": "hashing_sha256",
					"outputs": [
						{
							"internalType": "bytes32",
							"name": "",
							"type": "bytes32"
						}
					],
					"stateMutability": "view",
					"type": "function"
				},
				{
					"inputs": [],
					"name": "str_public",
					"outputs": [
						{
							"internalType": "string",
							"name": "",
							"type": "string"
						}
					],
					"stateMutability": "view",
					"type": "function"
				},
				{
					"inputs": [],
					"name": "turnOff",
					"outputs": [],
					"stateMutability": "nonpayable",
					"type": "function"
				},
				{
					"inputs": [],
					"name": "turnOn",
					"outputs": [],
					"stateMutability": "nonpayable",
					"type": "function"
				}
			],
			"devdoc": {
				"kind": "dev",
				"methods": {},
				"version": 1
			},
			"evm": {
				"assembly": "    /* \"contracts/2_variables_modifiers.sol\":62:1614  contract variables_modifiers {\r... */\n  mstore(0x40, 0x80)\n    /* \"contracts/2_variables_modifiers.sol\":169:170  3 */\n  0x03\n    /* \"contracts/2_variables_modifiers.sol\":152:170  uint8 public b = 3 */\n  0x01\n  exp(0x0100, 0x00)\n  dup2\n  sload\n  dup2\n  0xff\n  mul\n  not\n  and\n  swap1\n  dup4\n  0xff\n  and\n  mul\n  or\n  swap1\n  sstore\n  pop\n    /* \"contracts/2_variables_modifiers.sol\":247:250  -32 */\n  0xffffffffffffffffffffffffffffffffffffffffffffffffffffffffffffffe0\n    /* \"contracts/2_variables_modifiers.sol\":231:250  int8 public d = -32 */\n  0x03\n  exp(0x0100, 0x00)\n  dup2\n  sload\n  dup2\n  0xff\n  mul\n  not\n  and\n  swap1\n  dup4\n  0x00\n  signextend\n  0xff\n  and\n  mul\n  or\n  swap1\n  sstore\n  pop\n    /* \"contracts/2_variables_modifiers.sol\":265:267  65 */\n  0x41\n    /* \"contracts/2_variables_modifiers.sol\":257:267  int e = 65 */\n  0x04\n  sstore\n    /* \"contracts/2_variables_modifiers.sol\":319:363  string public str_public = \"Esto es publico\" */\n  mload(0x40)\n  dup1\n  0x40\n  add\n  0x40\n  mstore\n  dup1\n  0x0f\n  dup2\n  mstore\n  0x20\n  add\n  0x4573746f206573207075626c69636f0000000000000000000000000000000000\n  dup2\n  mstore\n  pop\n  0x06\n  swap1\n  dup1\n  mload\n  swap1\n  0x20\n  add\n  swap1\n  tag_1\n  swap3\n  swap2\n  swap1\n  tag_2\n  jump\t// in\ntag_1:\n  pop\n    /* \"contracts/2_variables_modifiers.sol\":370:416  string private str_private = \"Esto es privado\" */\n  mload(0x40)\n  dup1\n  0x40\n  add\n  0x40\n  mstore\n  dup1\n  0x0f\n  dup2\n  mstore\n  0x20\n  add\n  0x4573746f206573207072697661646f0000000000000000000000000000000000\n  dup2\n  mstore\n  pop\n  0x07\n  swap1\n  dup1\n  mload\n  swap1\n  0x20\n  add\n  swap1\n  tag_3\n  swap3\n  swap2\n  swap1\n  tag_2\n  jump\t// in\ntag_3:\n  pop\n    /* \"contracts/2_variables_modifiers.sol\":502:506  true */\n  0x01\n    /* \"contracts/2_variables_modifiers.sol\":474:506  bool public boolean_public= true */\n  0x08\n  exp(0x0100, 0x01)\n  dup2\n  sload\n  dup2\n  0xff\n  mul\n  not\n  and\n  swap1\n  dup4\n  iszero\n  iszero\n  mul\n  or\n  swap1\n  sstore\n  pop\n    /* \"contracts/2_variables_modifiers.sol\":543:548  false */\n  0x00\n    /* \"contracts/2_variables_modifiers.sol\":513:548  bool private boolean_private= false */\n  0x08\n  exp(0x0100, 0x02)\n  dup2\n  sload\n  dup2\n  0xff\n  mul\n  not\n  and\n  swap1\n  dup4\n  iszero\n  iszero\n  mul\n  or\n  swap1\n  sstore\n  pop\n    /* \"contracts/2_variables_modifiers.sol\":753:755  10 */\n  0x0a\n    /* \"contracts/2_variables_modifiers.sol\":758:768  msg.sender */\n  caller\n    /* \"contracts/2_variables_modifiers.sol\":771:813  0x78731D3Ca6b7E34aC0F824c42a7cC18A495cabaB */\n  0x78731d3ca6b7e34ac0f824c42a7cc18a495cabab\n    /* \"contracts/2_variables_modifiers.sol\":717:814  abi.encodePacked(\"Hello Word\", uint(10), msg.sender,  0x78731D3Ca6b7E34aC0F824c42a7cC18A495cabaB) */\n  add(0x20, mload(0x40))\n  tag_4\n  swap4\n  swap3\n  swap2\n  swap1\n  tag_5\n  jump\t// in\ntag_4:\n  mload(0x40)\n  0x20\n  dup2\n  dup4\n  sub\n  sub\n  dup2\n  mstore\n  swap1\n  0x40\n  mstore\n    /* \"contracts/2_variables_modifiers.sol\":707:815  keccak256(abi.encodePacked(\"Hello Word\", uint(10), msg.sender,  0x78731D3Ca6b7E34aC0F824c42a7cC18A495cabaB)) */\n  dup1\n  mload\n  swap1\n  0x20\n  add\n  keccak256\n    /* \"contracts/2_variables_modifiers.sol\":682:815  bytes32 public hashing = keccak256(abi.encodePacked(\"Hello Word\", uint(10), msg.sender,  0x78731D3Ca6b7E34aC0F824c42a7cC18A495cabaB)) */\n  0x0b\n  sstore\n    /* \"contracts/2_variables_modifiers.sol\":949:987  sha256(abi.encodePacked(\"Hello Word\")) */\n  0x02\n    /* \"contracts/2_variables_modifiers.sol\":956:986  abi.encodePacked(\"Hello Word\") */\n  add(0x20, mload(0x40))\n  tag_6\n  swap1\n  tag_7\n  jump\t// in\ntag_6:\n  mload(0x40)\n  0x20\n  dup2\n  dup4\n  sub\n  sub\n  dup2\n  mstore\n  swap1\n  0x40\n  mstore\n    /* \"contracts/2_variables_modifiers.sol\":949:987  sha256(abi.encodePacked(\"Hello Word\")) */\n  mload(0x40)\n  tag_8\n  swap2\n  swap1\n  tag_9\n  jump\t// in\ntag_8:\n  0x20\n  mload(0x40)\n  dup1\n  dup4\n  sub\n  dup2\n  dup6\n  gas\n  staticcall\n  iszero\n  dup1\n  iszero\n  tag_11\n  jumpi\n  returndatasize\n  0x00\n  dup1\n  returndatacopy\n  revert(0x00, returndatasize)\ntag_11:\n  pop\n  pop\n  pop\n  mload(0x40)\n  returndatasize\n  not(0x1f)\n  0x1f\n  dup3\n  add\n  and\n  dup3\n  add\n  dup1\n  0x40\n  mstore\n  pop\n  dup2\n  add\n  swap1\n  tag_12\n  swap2\n  swap1\n  tag_13\n  jump\t// in\ntag_12:\n    /* \"contracts/2_variables_modifiers.sol\":917:987  bytes32 public hashing_sha256 = sha256(abi.encodePacked(\"Hello Word\")) */\n  0x0c\n  sstore\n    /* \"contracts/2_variables_modifiers.sol\":1029:1070  ripemd160(abi.encodePacked(\"Hello Word\")) */\n  0x03\n    /* \"contracts/2_variables_modifiers.sol\":1039:1069  abi.encodePacked(\"Hello Word\") */\n  add(0x20, mload(0x40))\n  tag_14\n  swap1\n  tag_7\n  jump\t// in\ntag_14:\n  mload(0x40)\n  0x20\n  dup2\n  dup4\n  sub\n  sub\n  dup2\n  mstore\n  swap1\n  0x40\n  mstore\n    /* \"contracts/2_variables_modifiers.sol\":1029:1070  ripemd160(abi.encodePacked(\"Hello Word\")) */\n  mload(0x40)\n  tag_15\n  swap2\n  swap1\n  tag_9\n  jump\t// in\ntag_15:\n  0x20\n  mload(0x40)\n  dup1\n  dup4\n  sub\n  dup2\n  dup6\n  gas\n  staticcall\n  iszero\n  dup1\n  iszero\n  tag_17\n  jumpi\n  returndatasize\n  0x00\n  dup1\n  returndatacopy\n  revert(0x00, returndatasize)\ntag_17:\n  pop\n  pop\n  pop\n  shl(0x60, mload(mload(0x40)))\n    /* \"contracts/2_variables_modifiers.sol\":994:1070  bytes20 public hashing_ripemd160 = ripemd160(abi.encodePacked(\"Hello Word\")) */\n  0x0d\n  exp(0x0100, 0x00)\n  dup2\n  sload\n  dup2\n  0xffffffffffffffffffffffffffffffffffffffff\n  mul\n  not\n  and\n  swap1\n  dup4\n  0x60\n  shr\n  mul\n  or\n  swap1\n  sstore\n  pop\n    /* \"contracts/2_variables_modifiers.sol\":1158:1200  0x78731D3Ca6b7E34aC0F824c42a7cC18A495cabaB */\n  0x78731d3ca6b7e34ac0f824c42a7cc18a495cabab\n    /* \"contracts/2_variables_modifiers.sol\":1132:1200  address public address1 = 0x78731D3Ca6b7E34aC0F824c42a7cC18A495cabaB */\n  0x0f\n  exp(0x0100, 0x00)\n  dup2\n  sload\n  dup2\n  0xffffffffffffffffffffffffffffffffffffffff\n  mul\n  not\n  and\n  swap1\n  dup4\n  0xffffffffffffffffffffffffffffffffffffffff\n  and\n  mul\n  or\n  swap1\n  sstore\n  pop\n    /* \"contracts/2_variables_modifiers.sol\":1232:1242  msg.sender */\n  caller\n    /* \"contracts/2_variables_modifiers.sol\":1207:1242  address public addres2 = msg.sender */\n  0x10\n  exp(0x0100, 0x00)\n  dup2\n  sload\n  dup2\n  0xffffffffffffffffffffffffffffffffffffffff\n  mul\n  not\n  and\n  swap1\n  dup4\n  0xffffffffffffffffffffffffffffffffffffffff\n  and\n  mul\n  or\n  swap1\n  sstore\n  pop\n    /* \"contracts/2_variables_modifiers.sol\":62:1614  contract variables_modifiers {\r... */\n  callvalue\n  dup1\n  iszero\n  tag_18\n  jumpi\n  0x00\n  dup1\n  revert\ntag_18:\n  pop\n  jump(tag_19)\ntag_2:\n  dup3\n  dup1\n  sload\n  tag_20\n  swap1\n  tag_21\n  jump\t// in\ntag_20:\n  swap1\n  0x00\n  mstore\n  keccak256(0x00, 0x20)\n  swap1\n  0x1f\n  add\n  0x20\n  swap1\n  div\n  dup2\n  add\n  swap3\n  dup3\n  tag_23\n  jumpi\n  0x00\n  dup6\n  sstore\n  jump(tag_22)\ntag_23:\n  dup3\n  0x1f\n  lt\n  tag_24\n  jumpi\n  dup1\n  mload\n  not(0xff)\n  and\n  dup4\n  dup1\n  add\n  or\n  dup6\n  sstore\n  jump(tag_22)\ntag_24:\n  dup3\n  dup1\n  add\n  0x01\n  add\n  dup6\n  sstore\n  dup3\n  iszero\n  tag_22\n  jumpi\n  swap2\n  dup3\n  add\ntag_25:\n  dup3\n  dup2\n  gt\n  iszero\n  tag_26\n  jumpi\n  dup3\n  mload\n  dup3\n  sstore\n  swap2\n  0x20\n  add\n  swap2\n  swap1\n  0x01\n  add\n  swap1\n  jump(tag_25)\ntag_26:\ntag_22:\n  pop\n  swap1\n  pop\n  tag_27\n  swap2\n  swap1\n  tag_28\n  jump\t// in\ntag_27:\n  pop\n  swap1\n  jump\t// out\ntag_28:\ntag_29:\n  dup1\n  dup3\n  gt\n  iszero\n  tag_30\n  jumpi\n  0x00\n  dup2\n  0x00\n  swap1\n  sstore\n  pop\n  0x01\n  add\n  jump(tag_29)\ntag_30:\n  pop\n  swap1\n  jump\t// out\n    /* \"#utility.yul\":7:150   */\ntag_32:\n    /* \"#utility.yul\":64:69   */\n  0x00\n    /* \"#utility.yul\":95:101   */\n  dup2\n    /* \"#utility.yul\":89:102   */\n  mload\n    /* \"#utility.yul\":80:102   */\n  swap1\n  pop\n    /* \"#utility.yul\":111:144   */\n  tag_34\n    /* \"#utility.yul\":138:143   */\n  dup2\n    /* \"#utility.yul\":111:144   */\n  tag_35\n  jump\t// in\ntag_34:\n    /* \"#utility.yul\":7:150   */\n  swap3\n  swap2\n  pop\n  pop\n  jump\t// out\n    /* \"#utility.yul\":156:507   */\ntag_13:\n    /* \"#utility.yul\":226:232   */\n  0x00\n    /* \"#utility.yul\":275:277   */\n  0x20\n    /* \"#utility.yul\":263:272   */\n  dup3\n    /* \"#utility.yul\":254:261   */\n  dup5\n    /* \"#utility.yul\":250:273   */\n  sub\n    /* \"#utility.yul\":246:278   */\n  slt\n    /* \"#utility.yul\":243:362   */\n  iszero\n  tag_37\n  jumpi\n    /* \"#utility.yul\":281:360   */\n  tag_38\n  tag_39\n  jump\t// in\ntag_38:\n    /* \"#utility.yul\":243:362   */\ntag_37:\n    /* \"#utility.yul\":401:402   */\n  0x00\n    /* \"#utility.yul\":426:490   */\n  tag_40\n    /* \"#utility.yul\":482:489   */\n  dup5\n    /* \"#utility.yul\":473:479   */\n  dup3\n    /* \"#utility.yul\":462:471   */\n  dup6\n    /* \"#utility.yul\":458:480   */\n  add\n    /* \"#utility.yul\":426:490   */\n  tag_32\n  jump\t// in\ntag_40:\n    /* \"#utility.yul\":416:490   */\n  swap2\n  pop\n    /* \"#utility.yul\":372:500   */\n  pop\n    /* \"#utility.yul\":156:507   */\n  swap3\n  swap2\n  pop\n  pop\n  jump\t// out\n    /* \"#utility.yul\":513:670   */\ntag_41:\n    /* \"#utility.yul\":618:663   */\n  tag_43\n    /* \"#utility.yul\":638:662   */\n  tag_44\n    /* \"#utility.yul\":656:661   */\n  dup3\n    /* \"#utility.yul\":638:662   */\n  tag_45\n  jump\t// in\ntag_44:\n    /* \"#utility.yul\":618:663   */\n  tag_46\n  jump\t// in\ntag_43:\n    /* \"#utility.yul\":613:616   */\n  dup3\n    /* \"#utility.yul\":606:664   */\n  mstore\n    /* \"#utility.yul\":513:670   */\n  pop\n  pop\n  jump\t// out\n    /* \"#utility.yul\":676:1049   */\ntag_47:\n    /* \"#utility.yul\":780:783   */\n  0x00\n    /* \"#utility.yul\":808:846   */\n  tag_49\n    /* \"#utility.yul\":840:845   */\n  dup3\n    /* \"#utility.yul\":808:846   */\n  tag_50\n  jump\t// in\ntag_49:\n    /* \"#utility.yul\":862:950   */\n  tag_51\n    /* \"#utility.yul\":943:949   */\n  dup2\n    /* \"#utility.yul\":938:941   */\n  dup6\n    /* \"#utility.yul\":862:950   */\n  tag_52\n  jump\t// in\ntag_51:\n    /* \"#utility.yul\":855:950   */\n  swap4\n  pop\n    /* \"#utility.yul\":959:1011   */\n  tag_53\n    /* \"#utility.yul\":1004:1010   */\n  dup2\n    /* \"#utility.yul\":999:1002   */\n  dup6\n    /* \"#utility.yul\":992:996   */\n  0x20\n    /* \"#utility.yul\":985:990   */\n  dup7\n    /* \"#utility.yul\":981:997   */\n  add\n    /* \"#utility.yul\":959:1011   */\n  tag_54\n  jump\t// in\ntag_53:\n    /* \"#utility.yul\":1036:1042   */\n  dup1\n    /* \"#utility.yul\":1031:1034   */\n  dup5\n    /* \"#utility.yul\":1027:1043   */\n  add\n    /* \"#utility.yul\":1020:1043   */\n  swap2\n  pop\n    /* \"#utility.yul\":784:1049   */\n  pop\n    /* \"#utility.yul\":676:1049   */\n  swap3\n  swap2\n  pop\n  pop\n  jump\t// out\n    /* \"#utility.yul\":1055:1457   */\ntag_55:\n    /* \"#utility.yul\":1215:1218   */\n  0x00\n    /* \"#utility.yul\":1236:1321   */\n  tag_57\n    /* \"#utility.yul\":1318:1320   */\n  0x0a\n    /* \"#utility.yul\":1313:1316   */\n  dup4\n    /* \"#utility.yul\":1236:1321   */\n  tag_58\n  jump\t// in\ntag_57:\n    /* \"#utility.yul\":1229:1321   */\n  swap2\n  pop\n    /* \"#utility.yul\":1330:1423   */\n  tag_59\n    /* \"#utility.yul\":1419:1422   */\n  dup3\n    /* \"#utility.yul\":1330:1423   */\n  tag_60\n  jump\t// in\ntag_59:\n    /* \"#utility.yul\":1448:1450   */\n  0x0a\n    /* \"#utility.yul\":1443:1446   */\n  dup3\n    /* \"#utility.yul\":1439:1451   */\n  add\n    /* \"#utility.yul\":1432:1451   */\n  swap1\n  pop\n    /* \"#utility.yul\":1055:1457   */\n  swap2\n  swap1\n  pop\n  jump\t// out\n    /* \"#utility.yul\":1463:1620   */\ntag_61:\n    /* \"#utility.yul\":1568:1613   */\n  tag_63\n    /* \"#utility.yul\":1588:1612   */\n  tag_64\n    /* \"#utility.yul\":1606:1611   */\n  dup3\n    /* \"#utility.yul\":1588:1612   */\n  tag_65\n  jump\t// in\ntag_64:\n    /* \"#utility.yul\":1568:1613   */\n  tag_66\n  jump\t// in\ntag_63:\n    /* \"#utility.yul\":1563:1566   */\n  dup3\n    /* \"#utility.yul\":1556:1614   */\n  mstore\n    /* \"#utility.yul\":1463:1620   */\n  pop\n  pop\n  jump\t// out\n    /* \"#utility.yul\":1626:1897   */\ntag_9:\n    /* \"#utility.yul\":1756:1759   */\n  0x00\n    /* \"#utility.yul\":1778:1871   */\n  tag_68\n    /* \"#utility.yul\":1867:1870   */\n  dup3\n    /* \"#utility.yul\":1858:1864   */\n  dup5\n    /* \"#utility.yul\":1778:1871   */\n  tag_47\n  jump\t// in\ntag_68:\n    /* \"#utility.yul\":1771:1871   */\n  swap2\n  pop\n    /* \"#utility.yul\":1888:1891   */\n  dup2\n    /* \"#utility.yul\":1881:1891   */\n  swap1\n  pop\n    /* \"#utility.yul\":1626:1897   */\n  swap3\n  swap2\n  pop\n  pop\n  jump\t// out\n    /* \"#utility.yul\":1903:2284   */\ntag_7:\n    /* \"#utility.yul\":2088:2091   */\n  0x00\n    /* \"#utility.yul\":2110:2258   */\n  tag_70\n    /* \"#utility.yul\":2254:2257   */\n  dup3\n    /* \"#utility.yul\":2110:2258   */\n  tag_55\n  jump\t// in\ntag_70:\n    /* \"#utility.yul\":2103:2258   */\n  swap2\n  pop\n    /* \"#utility.yul\":2275:2278   */\n  dup2\n    /* \"#utility.yul\":2268:2278   */\n  swap1\n  pop\n    /* \"#utility.yul\":1903:2284   */\n  swap2\n  swap1\n  pop\n  jump\t// out\n    /* \"#utility.yul\":2290:3094   */\ntag_5:\n    /* \"#utility.yul\":2559:2562   */\n  0x00\n    /* \"#utility.yul\":2581:2729   */\n  tag_72\n    /* \"#utility.yul\":2725:2728   */\n  dup3\n    /* \"#utility.yul\":2581:2729   */\n  tag_55\n  jump\t// in\ntag_72:\n    /* \"#utility.yul\":2574:2729   */\n  swap2\n  pop\n    /* \"#utility.yul\":2739:2814   */\n  tag_73\n    /* \"#utility.yul\":2810:2813   */\n  dup3\n    /* \"#utility.yul\":2801:2807   */\n  dup7\n    /* \"#utility.yul\":2739:2814   */\n  tag_61\n  jump\t// in\ntag_73:\n    /* \"#utility.yul\":2839:2841   */\n  0x20\n    /* \"#utility.yul\":2834:2837   */\n  dup3\n    /* \"#utility.yul\":2830:2842   */\n  add\n    /* \"#utility.yul\":2823:2842   */\n  swap2\n  pop\n    /* \"#utility.yul\":2852:2927   */\n  tag_74\n    /* \"#utility.yul\":2923:2926   */\n  dup3\n    /* \"#utility.yul\":2914:2920   */\n  dup6\n    /* \"#utility.yul\":2852:2927   */\n  tag_41\n  jump\t// in\ntag_74:\n    /* \"#utility.yul\":2952:2954   */\n  0x14\n    /* \"#utility.yul\":2947:2950   */\n  dup3\n    /* \"#utility.yul\":2943:2955   */\n  add\n    /* \"#utility.yul\":2936:2955   */\n  swap2\n  pop\n    /* \"#utility.yul\":2965:3040   */\n  tag_75\n    /* \"#utility.yul\":3036:3039   */\n  dup3\n    /* \"#utility.yul\":3027:3033   */\n  dup5\n    /* \"#utility.yul\":2965:3040   */\n  tag_41\n  jump\t// in\ntag_75:\n    /* \"#utility.yul\":3065:3067   */\n  0x14\n    /* \"#utility.yul\":3060:3063   */\n  dup3\n    /* \"#utility.yul\":3056:3068   */\n  add\n    /* \"#utility.yul\":3049:3068   */\n  swap2\n  pop\n    /* \"#utility.yul\":3085:3088   */\n  dup2\n    /* \"#utility.yul\":3078:3088   */\n  swap1\n  pop\n    /* \"#utility.yul\":2290:3094   */\n  swap5\n  swap4\n  pop\n  pop\n  pop\n  pop\n  jump\t// out\n    /* \"#utility.yul\":3181:3279   */\ntag_50:\n    /* \"#utility.yul\":3232:3238   */\n  0x00\n    /* \"#utility.yul\":3266:3271   */\n  dup2\n    /* \"#utility.yul\":3260:3272   */\n  mload\n    /* \"#utility.yul\":3250:3272   */\n  swap1\n  pop\n    /* \"#utility.yul\":3181:3279   */\n  swap2\n  swap1\n  pop\n  jump\t// out\n    /* \"#utility.yul\":3285:3432   */\ntag_52:\n    /* \"#utility.yul\":3386:3397   */\n  0x00\n    /* \"#utility.yul\":3423:3426   */\n  dup2\n    /* \"#utility.yul\":3408:3426   */\n  swap1\n  pop\n    /* \"#utility.yul\":3285:3432   */\n  swap3\n  swap2\n  pop\n  pop\n  jump\t// out\n    /* \"#utility.yul\":3438:3586   */\ntag_58:\n    /* \"#utility.yul\":3540:3551   */\n  0x00\n    /* \"#utility.yul\":3577:3580   */\n  dup2\n    /* \"#utility.yul\":3562:3580   */\n  swap1\n  pop\n    /* \"#utility.yul\":3438:3586   */\n  swap3\n  swap2\n  pop\n  pop\n  jump\t// out\n    /* \"#utility.yul\":3592:3688   */\ntag_45:\n    /* \"#utility.yul\":3629:3636   */\n  0x00\n    /* \"#utility.yul\":3658:3682   */\n  tag_82\n    /* \"#utility.yul\":3676:3681   */\n  dup3\n    /* \"#utility.yul\":3658:3682   */\n  tag_83\n  jump\t// in\ntag_82:\n    /* \"#utility.yul\":3647:3682   */\n  swap1\n  pop\n    /* \"#utility.yul\":3592:3688   */\n  swap2\n  swap1\n  pop\n  jump\t// out\n    /* \"#utility.yul\":3694:3771   */\ntag_84:\n    /* \"#utility.yul\":3731:3738   */\n  0x00\n    /* \"#utility.yul\":3760:3765   */\n  dup2\n    /* \"#utility.yul\":3749:3765   */\n  swap1\n  pop\n    /* \"#utility.yul\":3694:3771   */\n  swap2\n  swap1\n  pop\n  jump\t// out\n    /* \"#utility.yul\":3777:3903   */\ntag_83:\n    /* \"#utility.yul\":3814:3821   */\n  0x00\n    /* \"#utility.yul\":3854:3896   */\n  0xffffffffffffffffffffffffffffffffffffffff\n    /* \"#utility.yul\":3847:3852   */\n  dup3\n    /* \"#utility.yul\":3843:3897   */\n  and\n    /* \"#utility.yul\":3832:3897   */\n  swap1\n  pop\n    /* \"#utility.yul\":3777:3903   */\n  swap2\n  swap1\n  pop\n  jump\t// out\n    /* \"#utility.yul\":3909:3986   */\ntag_65:\n    /* \"#utility.yul\":3946:3953   */\n  0x00\n    /* \"#utility.yul\":3975:3980   */\n  dup2\n    /* \"#utility.yul\":3964:3980   */\n  swap1\n  pop\n    /* \"#utility.yul\":3909:3986   */\n  swap2\n  swap1\n  pop\n  jump\t// out\n    /* \"#utility.yul\":3992:4299   */\ntag_54:\n    /* \"#utility.yul\":4060:4061   */\n  0x00\n    /* \"#utility.yul\":4070:4183   */\ntag_89:\n    /* \"#utility.yul\":4084:4090   */\n  dup4\n    /* \"#utility.yul\":4081:4082   */\n  dup2\n    /* \"#utility.yul\":4078:4091   */\n  lt\n    /* \"#utility.yul\":4070:4183   */\n  iszero\n  tag_91\n  jumpi\n    /* \"#utility.yul\":4169:4170   */\n  dup1\n    /* \"#utility.yul\":4164:4167   */\n  dup3\n    /* \"#utility.yul\":4160:4171   */\n  add\n    /* \"#utility.yul\":4154:4172   */\n  mload\n    /* \"#utility.yul\":4150:4151   */\n  dup2\n    /* \"#utility.yul\":4145:4148   */\n  dup5\n    /* \"#utility.yul\":4141:4152   */\n  add\n    /* \"#utility.yul\":4134:4173   */\n  mstore\n    /* \"#utility.yul\":4106:4108   */\n  0x20\n    /* \"#utility.yul\":4103:4104   */\n  dup2\n    /* \"#utility.yul\":4099:4109   */\n  add\n    /* \"#utility.yul\":4094:4109   */\n  swap1\n  pop\n    /* \"#utility.yul\":4070:4183   */\n  jump(tag_89)\ntag_91:\n    /* \"#utility.yul\":4201:4207   */\n  dup4\n    /* \"#utility.yul\":4198:4199   */\n  dup2\n    /* \"#utility.yul\":4195:4208   */\n  gt\n    /* \"#utility.yul\":4192:4293   */\n  iszero\n  tag_92\n  jumpi\n    /* \"#utility.yul\":4281:4282   */\n  0x00\n    /* \"#utility.yul\":4272:4278   */\n  dup5\n    /* \"#utility.yul\":4267:4270   */\n  dup5\n    /* \"#utility.yul\":4263:4279   */\n  add\n    /* \"#utility.yul\":4256:4283   */\n  mstore\n    /* \"#utility.yul\":4192:4293   */\ntag_92:\n    /* \"#utility.yul\":4041:4299   */\n  pop\n    /* \"#utility.yul\":3992:4299   */\n  pop\n  pop\n  pop\n  jump\t// out\n    /* \"#utility.yul\":4305:4625   */\ntag_21:\n    /* \"#utility.yul\":4349:4355   */\n  0x00\n    /* \"#utility.yul\":4386:4387   */\n  0x02\n    /* \"#utility.yul\":4380:4384   */\n  dup3\n    /* \"#utility.yul\":4376:4388   */\n  div\n    /* \"#utility.yul\":4366:4388   */\n  swap1\n  pop\n    /* \"#utility.yul\":4433:4434   */\n  0x01\n    /* \"#utility.yul\":4427:4431   */\n  dup3\n    /* \"#utility.yul\":4423:4435   */\n  and\n    /* \"#utility.yul\":4454:4472   */\n  dup1\n    /* \"#utility.yul\":4444:4525   */\n  tag_94\n  jumpi\n    /* \"#utility.yul\":4510:4514   */\n  0x7f\n    /* \"#utility.yul\":4502:4508   */\n  dup3\n    /* \"#utility.yul\":4498:4515   */\n  and\n    /* \"#utility.yul\":4488:4515   */\n  swap2\n  pop\n    /* \"#utility.yul\":4444:4525   */\ntag_94:\n    /* \"#utility.yul\":4572:4574   */\n  0x20\n    /* \"#utility.yul\":4564:4570   */\n  dup3\n    /* \"#utility.yul\":4561:4575   */\n  lt\n    /* \"#utility.yul\":4541:4559   */\n  dup2\n    /* \"#utility.yul\":4538:4576   */\n  eq\n    /* \"#utility.yul\":4535:4619   */\n  iszero\n  tag_95\n  jumpi\n    /* \"#utility.yul\":4591:4609   */\n  tag_96\n  tag_97\n  jump\t// in\ntag_96:\n    /* \"#utility.yul\":4535:4619   */\ntag_95:\n    /* \"#utility.yul\":4356:4625   */\n  pop\n    /* \"#utility.yul\":4305:4625   */\n  swap2\n  swap1\n  pop\n  jump\t// out\n    /* \"#utility.yul\":4631:4731   */\ntag_46:\n    /* \"#utility.yul\":4670:4677   */\n  0x00\n    /* \"#utility.yul\":4699:4725   */\n  tag_99\n    /* \"#utility.yul\":4719:4724   */\n  dup3\n    /* \"#utility.yul\":4699:4725   */\n  tag_100\n  jump\t// in\ntag_99:\n    /* \"#utility.yul\":4688:4725   */\n  swap1\n  pop\n    /* \"#utility.yul\":4631:4731   */\n  swap2\n  swap1\n  pop\n  jump\t// out\n    /* \"#utility.yul\":4737:4831   */\ntag_100:\n    /* \"#utility.yul\":4776:4783   */\n  0x00\n    /* \"#utility.yul\":4805:4825   */\n  tag_102\n    /* \"#utility.yul\":4819:4824   */\n  dup3\n    /* \"#utility.yul\":4805:4825   */\n  tag_103\n  jump\t// in\ntag_102:\n    /* \"#utility.yul\":4794:4825   */\n  swap1\n  pop\n    /* \"#utility.yul\":4737:4831   */\n  swap2\n  swap1\n  pop\n  jump\t// out\n    /* \"#utility.yul\":4837:4916   */\ntag_66:\n    /* \"#utility.yul\":4876:4883   */\n  0x00\n    /* \"#utility.yul\":4905:4910   */\n  dup2\n    /* \"#utility.yul\":4894:4910   */\n  swap1\n  pop\n    /* \"#utility.yul\":4837:4916   */\n  swap2\n  swap1\n  pop\n  jump\t// out\n    /* \"#utility.yul\":4922:5102   */\ntag_97:\n    /* \"#utility.yul\":4970:5047   */\n  0x4e487b7100000000000000000000000000000000000000000000000000000000\n    /* \"#utility.yul\":4967:4968   */\n  0x00\n    /* \"#utility.yul\":4960:5048   */\n  mstore\n    /* \"#utility.yul\":5067:5071   */\n  0x22\n    /* \"#utility.yul\":5064:5065   */\n  0x04\n    /* \"#utility.yul\":5057:5072   */\n  mstore\n    /* \"#utility.yul\":5091:5095   */\n  0x24\n    /* \"#utility.yul\":5088:5089   */\n  0x00\n    /* \"#utility.yul\":5081:5096   */\n  revert\n    /* \"#utility.yul\":5231:5348   */\ntag_39:\n    /* \"#utility.yul\":5340:5341   */\n  0x00\n    /* \"#utility.yul\":5337:5338   */\n  dup1\n    /* \"#utility.yul\":5330:5342   */\n  revert\n    /* \"#utility.yul\":5354:5448   */\ntag_103:\n    /* \"#utility.yul\":5387:5395   */\n  0x00\n    /* \"#utility.yul\":5435:5440   */\n  dup2\n    /* \"#utility.yul\":5431:5433   */\n  0x60\n    /* \"#utility.yul\":5427:5441   */\n  shl\n    /* \"#utility.yul\":5406:5441   */\n  swap1\n  pop\n    /* \"#utility.yul\":5354:5448   */\n  swap2\n  swap1\n  pop\n  jump\t// out\n    /* \"#utility.yul\":5454:5614   */\ntag_60:\n    /* \"#utility.yul\":5594:5606   */\n  0x48656c6c6f20576f726400000000000000000000000000000000000000000000\n    /* \"#utility.yul\":5590:5591   */\n  0x00\n    /* \"#utility.yul\":5582:5588   */\n  dup3\n    /* \"#utility.yul\":5578:5592   */\n  add\n    /* \"#utility.yul\":5571:5607   */\n  mstore\n    /* \"#utility.yul\":5454:5614   */\n  pop\n  jump\t// out\n    /* \"#utility.yul\":5620:5742   */\ntag_35:\n    /* \"#utility.yul\":5693:5717   */\n  tag_112\n    /* \"#utility.yul\":5711:5716   */\n  dup2\n    /* \"#utility.yul\":5693:5717   */\n  tag_84\n  jump\t// in\ntag_112:\n    /* \"#utility.yul\":5686:5691   */\n  dup2\n    /* \"#utility.yul\":5683:5718   */\n  eq\n    /* \"#utility.yul\":5673:5736   */\n  tag_113\n  jumpi\n    /* \"#utility.yul\":5732:5733   */\n  0x00\n    /* \"#utility.yul\":5729:5730   */\n  dup1\n    /* \"#utility.yul\":5722:5734   */\n  revert\n    /* \"#utility.yul\":5673:5736   */\ntag_113:\n    /* \"#utility.yul\":5620:5742   */\n  pop\n  jump\t// out\n    /* \"contracts/2_variables_modifiers.sol\":62:1614  contract variables_modifiers {\r... */\ntag_19:\n  dataSize(sub_0)\n  dup1\n  dataOffset(sub_0)\n  0x00\n  codecopy\n  0x00\n  return\nstop\n\nsub_0: assembly {\n        /* \"contracts/2_variables_modifiers.sol\":62:1614  contract variables_modifiers {\r... */\n      mstore(0x40, 0x80)\n      callvalue\n      dup1\n      iszero\n      tag_1\n      jumpi\n      0x00\n      dup1\n      revert\n    tag_1:\n      pop\n      jumpi(tag_2, lt(calldatasize, 0x04))\n      shr(0xe0, calldataload(0x00))\n      dup1\n      0xaf10c810\n      gt\n      tag_15\n      jumpi\n      dup1\n      0xaf10c810\n      eq\n      tag_9\n      jumpi\n      dup1\n      0xb83d07b7\n      eq\n      tag_10\n      jumpi\n      dup1\n      0xba33ed7d\n      eq\n      tag_11\n      jumpi\n      dup1\n      0xc7109d04\n      eq\n      tag_12\n      jumpi\n      dup1\n      0xc81d6270\n      eq\n      tag_13\n      jumpi\n      dup1\n      0xcd97d84e\n      eq\n      tag_14\n      jumpi\n      jump(tag_2)\n    tag_15:\n      dup1\n      0x16bdcf12\n      eq\n      tag_3\n      jumpi\n      dup1\n      0x3a36399e\n      eq\n      tag_4\n      jumpi\n      dup1\n      0x4df7e3d0\n      eq\n      tag_5\n      jumpi\n      dup1\n      0x7272eea1\n      eq\n      tag_6\n      jumpi\n      dup1\n      0x7a68ef7f\n      eq\n      tag_7\n      jumpi\n      dup1\n      0x8a054ac2\n      eq\n      tag_8\n      jumpi\n    tag_2:\n      0x00\n      dup1\n      revert\n        /* \"contracts/2_variables_modifiers.sol\":1207:1242  address public addres2 = msg.sender */\n    tag_3:\n      tag_16\n      tag_17\n      jump\t// in\n    tag_16:\n      mload(0x40)\n      tag_18\n      swap2\n      swap1\n      tag_19\n      jump\t// in\n    tag_18:\n      mload(0x40)\n      dup1\n      swap2\n      sub\n      swap1\n      return\n        /* \"contracts/2_variables_modifiers.sol\":1132:1200  address public address1 = 0x78731D3Ca6b7E34aC0F824c42a7cC18A495cabaB */\n    tag_4:\n      tag_20\n      tag_21\n      jump\t// in\n    tag_20:\n      mload(0x40)\n      tag_22\n      swap2\n      swap1\n      tag_19\n      jump\t// in\n    tag_22:\n      mload(0x40)\n      dup1\n      swap2\n      sub\n      swap1\n      return\n        /* \"contracts/2_variables_modifiers.sol\":152:170  uint8 public b = 3 */\n    tag_5:\n      tag_23\n      tag_24\n      jump\t// in\n    tag_23:\n      mload(0x40)\n      tag_25\n      swap2\n      swap1\n      tag_26\n      jump\t// in\n    tag_25:\n      mload(0x40)\n      dup1\n      swap2\n      sub\n      swap1\n      return\n        /* \"contracts/2_variables_modifiers.sol\":1526:1609  function displayState() public view returns(options){\r... */\n    tag_6:\n      tag_27\n      tag_28\n      jump\t// in\n    tag_27:\n      mload(0x40)\n      tag_29\n      swap2\n      swap1\n      tag_30\n      jump\t// in\n    tag_29:\n      mload(0x40)\n      dup1\n      swap2\n      sub\n      swap1\n      return\n        /* \"contracts/2_variables_modifiers.sol\":994:1070  bytes20 public hashing_ripemd160 = ripemd160(abi.encodePacked(\"Hello Word\")) */\n    tag_7:\n      tag_31\n      tag_32\n      jump\t// in\n    tag_31:\n      mload(0x40)\n      tag_33\n      swap2\n      swap1\n      tag_34\n      jump\t// in\n    tag_33:\n      mload(0x40)\n      dup1\n      swap2\n      sub\n      swap1\n      return\n        /* \"contracts/2_variables_modifiers.sol\":231:250  int8 public d = -32 */\n    tag_8:\n      tag_35\n      tag_36\n      jump\t// in\n    tag_35:\n      mload(0x40)\n      tag_37\n      swap2\n      swap1\n      tag_38\n      jump\t// in\n    tag_37:\n      mload(0x40)\n      dup1\n      swap2\n      sub\n      swap1\n      return\n        /* \"contracts/2_variables_modifiers.sol\":1455:1518  function turnOff() public{\r... */\n    tag_9:\n      tag_39\n      tag_40\n      jump\t// in\n    tag_39:\n      stop\n        /* \"contracts/2_variables_modifiers.sol\":319:363  string public str_public = \"Esto es publico\" */\n    tag_10:\n      tag_41\n      tag_42\n      jump\t// in\n    tag_41:\n      mload(0x40)\n      tag_43\n      swap2\n      swap1\n      tag_44\n      jump\t// in\n    tag_43:\n      mload(0x40)\n      dup1\n      swap2\n      sub\n      swap1\n      return\n        /* \"contracts/2_variables_modifiers.sol\":1386:1447  function turnOn() public{\r... */\n    tag_11:\n      tag_45\n      tag_46\n      jump\t// in\n    tag_45:\n      stop\n        /* \"contracts/2_variables_modifiers.sol\":917:987  bytes32 public hashing_sha256 = sha256(abi.encodePacked(\"Hello Word\")) */\n    tag_12:\n      tag_47\n      tag_48\n      jump\t// in\n    tag_47:\n      mload(0x40)\n      tag_49\n      swap2\n      swap1\n      tag_50\n      jump\t// in\n    tag_49:\n      mload(0x40)\n      dup1\n      swap2\n      sub\n      swap1\n      return\n        /* \"contracts/2_variables_modifiers.sol\":474:506  bool public boolean_public= true */\n    tag_13:\n      tag_51\n      tag_52\n      jump\t// in\n    tag_51:\n      mload(0x40)\n      tag_53\n      swap2\n      swap1\n      tag_54\n      jump\t// in\n    tag_53:\n      mload(0x40)\n      dup1\n      swap2\n      sub\n      swap1\n      return\n        /* \"contracts/2_variables_modifiers.sol\":682:815  bytes32 public hashing = keccak256(abi.encodePacked(\"Hello Word\", uint(10), msg.sender,  0x78731D3Ca6b7E34aC0F824c42a7cC18A495cabaB)) */\n    tag_14:\n      tag_55\n      tag_56\n      jump\t// in\n    tag_55:\n      mload(0x40)\n      tag_57\n      swap2\n      swap1\n      tag_50\n      jump\t// in\n    tag_57:\n      mload(0x40)\n      dup1\n      swap2\n      sub\n      swap1\n      return\n        /* \"contracts/2_variables_modifiers.sol\":1207:1242  address public addres2 = msg.sender */\n    tag_17:\n      0x10\n      0x00\n      swap1\n      sload\n      swap1\n      0x0100\n      exp\n      swap1\n      div\n      0xffffffffffffffffffffffffffffffffffffffff\n      and\n      dup2\n      jump\t// out\n        /* \"contracts/2_variables_modifiers.sol\":1132:1200  address public address1 = 0x78731D3Ca6b7E34aC0F824c42a7cC18A495cabaB */\n    tag_21:\n      0x0f\n      0x00\n      swap1\n      sload\n      swap1\n      0x0100\n      exp\n      swap1\n      div\n      0xffffffffffffffffffffffffffffffffffffffff\n      and\n      dup2\n      jump\t// out\n        /* \"contracts/2_variables_modifiers.sol\":152:170  uint8 public b = 3 */\n    tag_24:\n      0x01\n      0x00\n      swap1\n      sload\n      swap1\n      0x0100\n      exp\n      swap1\n      div\n      0xff\n      and\n      dup2\n      jump\t// out\n        /* \"contracts/2_variables_modifiers.sol\":1526:1609  function displayState() public view returns(options){\r... */\n    tag_28:\n        /* \"contracts/2_variables_modifiers.sol\":1570:1577  options */\n      0x00\n        /* \"contracts/2_variables_modifiers.sol\":1596:1601  state */\n      0x10\n      0x14\n      swap1\n      sload\n      swap1\n      0x0100\n      exp\n      swap1\n      div\n      0xff\n      and\n        /* \"contracts/2_variables_modifiers.sol\":1589:1601  return state */\n      swap1\n      pop\n        /* \"contracts/2_variables_modifiers.sol\":1526:1609  function displayState() public view returns(options){\r... */\n      swap1\n      jump\t// out\n        /* \"contracts/2_variables_modifiers.sol\":994:1070  bytes20 public hashing_ripemd160 = ripemd160(abi.encodePacked(\"Hello Word\")) */\n    tag_32:\n      0x0d\n      0x00\n      swap1\n      sload\n      swap1\n      0x0100\n      exp\n      swap1\n      div\n      0x60\n      shl\n      dup2\n      jump\t// out\n        /* \"contracts/2_variables_modifiers.sol\":231:250  int8 public d = -32 */\n    tag_36:\n      0x03\n      0x00\n      swap1\n      sload\n      swap1\n      0x0100\n      exp\n      swap1\n      div\n      0x00\n      signextend\n      dup2\n      jump\t// out\n        /* \"contracts/2_variables_modifiers.sol\":1455:1518  function turnOff() public{\r... */\n    tag_40:\n        /* \"contracts/2_variables_modifiers.sol\":1499:1510  options.OFF */\n      0x01\n        /* \"contracts/2_variables_modifiers.sol\":1491:1496  state */\n      0x10\n      0x14\n        /* \"contracts/2_variables_modifiers.sol\":1491:1510  state = options.OFF */\n      0x0100\n      exp\n      dup2\n      sload\n      dup2\n      0xff\n      mul\n      not\n      and\n      swap1\n      dup4\n      0x01\n      dup2\n      gt\n      iszero\n      tag_60\n      jumpi\n      tag_61\n      tag_62\n      jump\t// in\n    tag_61:\n    tag_60:\n      mul\n      or\n      swap1\n      sstore\n      pop\n        /* \"contracts/2_variables_modifiers.sol\":1455:1518  function turnOff() public{\r... */\n      jump\t// out\n        /* \"contracts/2_variables_modifiers.sol\":319:363  string public str_public = \"Esto es publico\" */\n    tag_42:\n      0x06\n      dup1\n      sload\n      tag_63\n      swap1\n      tag_64\n      jump\t// in\n    tag_63:\n      dup1\n      0x1f\n      add\n      0x20\n      dup1\n      swap2\n      div\n      mul\n      0x20\n      add\n      mload(0x40)\n      swap1\n      dup2\n      add\n      0x40\n      mstore\n      dup1\n      swap3\n      swap2\n      swap1\n      dup2\n      dup2\n      mstore\n      0x20\n      add\n      dup3\n      dup1\n      sload\n      tag_65\n      swap1\n      tag_64\n      jump\t// in\n    tag_65:\n      dup1\n      iszero\n      tag_66\n      jumpi\n      dup1\n      0x1f\n      lt\n      tag_67\n      jumpi\n      0x0100\n      dup1\n      dup4\n      sload\n      div\n      mul\n      dup4\n      mstore\n      swap2\n      0x20\n      add\n      swap2\n      jump(tag_66)\n    tag_67:\n      dup3\n      add\n      swap2\n      swap1\n      0x00\n      mstore\n      keccak256(0x00, 0x20)\n      swap1\n    tag_68:\n      dup2\n      sload\n      dup2\n      mstore\n      swap1\n      0x01\n      add\n      swap1\n      0x20\n      add\n      dup1\n      dup4\n      gt\n      tag_68\n      jumpi\n      dup3\n      swap1\n      sub\n      0x1f\n      and\n      dup3\n      add\n      swap2\n    tag_66:\n      pop\n      pop\n      pop\n      pop\n      pop\n      dup2\n      jump\t// out\n        /* \"contracts/2_variables_modifiers.sol\":1386:1447  function turnOn() public{\r... */\n    tag_46:\n        /* \"contracts/2_variables_modifiers.sol\":1429:1439  options.ON */\n      0x00\n        /* \"contracts/2_variables_modifiers.sol\":1421:1426  state */\n      0x10\n      0x14\n        /* \"contracts/2_variables_modifiers.sol\":1421:1439  state = options.ON */\n      0x0100\n      exp\n      dup2\n      sload\n      dup2\n      0xff\n      mul\n      not\n      and\n      swap1\n      dup4\n      0x01\n      dup2\n      gt\n      iszero\n      tag_70\n      jumpi\n      tag_71\n      tag_62\n      jump\t// in\n    tag_71:\n    tag_70:\n      mul\n      or\n      swap1\n      sstore\n      pop\n        /* \"contracts/2_variables_modifiers.sol\":1386:1447  function turnOn() public{\r... */\n      jump\t// out\n        /* \"contracts/2_variables_modifiers.sol\":917:987  bytes32 public hashing_sha256 = sha256(abi.encodePacked(\"Hello Word\")) */\n    tag_48:\n      sload(0x0c)\n      dup2\n      jump\t// out\n        /* \"contracts/2_variables_modifiers.sol\":474:506  bool public boolean_public= true */\n    tag_52:\n      0x08\n      0x01\n      swap1\n      sload\n      swap1\n      0x0100\n      exp\n      swap1\n      div\n      0xff\n      and\n      dup2\n      jump\t// out\n        /* \"contracts/2_variables_modifiers.sol\":682:815  bytes32 public hashing = keccak256(abi.encodePacked(\"Hello Word\", uint(10), msg.sender,  0x78731D3Ca6b7E34aC0F824c42a7cC18A495cabaB)) */\n    tag_56:\n      sload(0x0b)\n      dup2\n      jump\t// out\n        /* \"#utility.yul\":7:125   */\n    tag_73:\n        /* \"#utility.yul\":94:118   */\n      tag_75\n        /* \"#utility.yul\":112:117   */\n      dup2\n        /* \"#utility.yul\":94:118   */\n      tag_76\n      jump\t// in\n    tag_75:\n        /* \"#utility.yul\":89:92   */\n      dup3\n        /* \"#utility.yul\":82:119   */\n      mstore\n        /* \"#utility.yul\":7:125   */\n      pop\n      pop\n      jump\t// out\n        /* \"#utility.yul\":131:240   */\n    tag_77:\n        /* \"#utility.yul\":212:233   */\n      tag_79\n        /* \"#utility.yul\":227:232   */\n      dup2\n        /* \"#utility.yul\":212:233   */\n      tag_80\n      jump\t// in\n    tag_79:\n        /* \"#utility.yul\":207:210   */\n      dup3\n        /* \"#utility.yul\":200:234   */\n      mstore\n        /* \"#utility.yul\":131:240   */\n      pop\n      pop\n      jump\t// out\n        /* \"#utility.yul\":246:364   */\n    tag_81:\n        /* \"#utility.yul\":333:357   */\n      tag_83\n        /* \"#utility.yul\":351:356   */\n      dup2\n        /* \"#utility.yul\":333:357   */\n      tag_84\n      jump\t// in\n    tag_83:\n        /* \"#utility.yul\":328:331   */\n      dup3\n        /* \"#utility.yul\":321:358   */\n      mstore\n        /* \"#utility.yul\":246:364   */\n      pop\n      pop\n      jump\t// out\n        /* \"#utility.yul\":370:488   */\n    tag_85:\n        /* \"#utility.yul\":457:481   */\n      tag_87\n        /* \"#utility.yul\":475:480   */\n      dup2\n        /* \"#utility.yul\":457:481   */\n      tag_88\n      jump\t// in\n    tag_87:\n        /* \"#utility.yul\":452:455   */\n      dup3\n        /* \"#utility.yul\":445:482   */\n      mstore\n        /* \"#utility.yul\":370:488   */\n      pop\n      pop\n      jump\t// out\n        /* \"#utility.yul\":494:641   */\n    tag_89:\n        /* \"#utility.yul\":589:634   */\n      tag_91\n        /* \"#utility.yul\":628:633   */\n      dup2\n        /* \"#utility.yul\":589:634   */\n      tag_92\n      jump\t// in\n    tag_91:\n        /* \"#utility.yul\":584:587   */\n      dup3\n        /* \"#utility.yul\":577:635   */\n      mstore\n        /* \"#utility.yul\":494:641   */\n      pop\n      pop\n      jump\t// out\n        /* \"#utility.yul\":647:756   */\n    tag_93:\n        /* \"#utility.yul\":728:749   */\n      tag_95\n        /* \"#utility.yul\":743:748   */\n      dup2\n        /* \"#utility.yul\":728:749   */\n      tag_96\n      jump\t// in\n    tag_95:\n        /* \"#utility.yul\":723:726   */\n      dup3\n        /* \"#utility.yul\":716:750   */\n      mstore\n        /* \"#utility.yul\":647:756   */\n      pop\n      pop\n      jump\t// out\n        /* \"#utility.yul\":762:1126   */\n    tag_97:\n        /* \"#utility.yul\":850:853   */\n      0x00\n        /* \"#utility.yul\":878:917   */\n      tag_99\n        /* \"#utility.yul\":911:916   */\n      dup3\n        /* \"#utility.yul\":878:917   */\n      tag_100\n      jump\t// in\n    tag_99:\n        /* \"#utility.yul\":933:1004   */\n      tag_101\n        /* \"#utility.yul\":997:1003   */\n      dup2\n        /* \"#utility.yul\":992:995   */\n      dup6\n        /* \"#utility.yul\":933:1004   */\n      tag_102\n      jump\t// in\n    tag_101:\n        /* \"#utility.yul\":926:1004   */\n      swap4\n      pop\n        /* \"#utility.yul\":1013:1065   */\n      tag_103\n        /* \"#utility.yul\":1058:1064   */\n      dup2\n        /* \"#utility.yul\":1053:1056   */\n      dup6\n        /* \"#utility.yul\":1046:1050   */\n      0x20\n        /* \"#utility.yul\":1039:1044   */\n      dup7\n        /* \"#utility.yul\":1035:1051   */\n      add\n        /* \"#utility.yul\":1013:1065   */\n      tag_104\n      jump\t// in\n    tag_103:\n        /* \"#utility.yul\":1090:1119   */\n      tag_105\n        /* \"#utility.yul\":1112:1118   */\n      dup2\n        /* \"#utility.yul\":1090:1119   */\n      tag_106\n      jump\t// in\n    tag_105:\n        /* \"#utility.yul\":1085:1088   */\n      dup5\n        /* \"#utility.yul\":1081:1120   */\n      add\n        /* \"#utility.yul\":1074:1120   */\n      swap2\n      pop\n        /* \"#utility.yul\":854:1126   */\n      pop\n        /* \"#utility.yul\":762:1126   */\n      swap3\n      swap2\n      pop\n      pop\n      jump\t// out\n        /* \"#utility.yul\":1132:1244   */\n    tag_107:\n        /* \"#utility.yul\":1215:1237   */\n      tag_109\n        /* \"#utility.yul\":1231:1236   */\n      dup2\n        /* \"#utility.yul\":1215:1237   */\n      tag_110\n      jump\t// in\n    tag_109:\n        /* \"#utility.yul\":1210:1213   */\n      dup3\n        /* \"#utility.yul\":1203:1238   */\n      mstore\n        /* \"#utility.yul\":1132:1244   */\n      pop\n      pop\n      jump\t// out\n        /* \"#utility.yul\":1250:1472   */\n    tag_19:\n        /* \"#utility.yul\":1343:1347   */\n      0x00\n        /* \"#utility.yul\":1381:1383   */\n      0x20\n        /* \"#utility.yul\":1370:1379   */\n      dup3\n        /* \"#utility.yul\":1366:1384   */\n      add\n        /* \"#utility.yul\":1358:1384   */\n      swap1\n      pop\n        /* \"#utility.yul\":1394:1465   */\n      tag_112\n        /* \"#utility.yul\":1462:1463   */\n      0x00\n        /* \"#utility.yul\":1451:1460   */\n      dup4\n        /* \"#utility.yul\":1447:1464   */\n      add\n        /* \"#utility.yul\":1438:1444   */\n      dup5\n        /* \"#utility.yul\":1394:1465   */\n      tag_73\n      jump\t// in\n    tag_112:\n        /* \"#utility.yul\":1250:1472   */\n      swap3\n      swap2\n      pop\n      pop\n      jump\t// out\n        /* \"#utility.yul\":1478:1688   */\n    tag_54:\n        /* \"#utility.yul\":1565:1569   */\n      0x00\n        /* \"#utility.yul\":1603:1605   */\n      0x20\n        /* \"#utility.yul\":1592:1601   */\n      dup3\n        /* \"#utility.yul\":1588:1606   */\n      add\n        /* \"#utility.yul\":1580:1606   */\n      swap1\n      pop\n        /* \"#utility.yul\":1616:1681   */\n      tag_114\n        /* \"#utility.yul\":1678:1679   */\n      0x00\n        /* \"#utility.yul\":1667:1676   */\n      dup4\n        /* \"#utility.yul\":1663:1680   */\n      add\n        /* \"#utility.yul\":1654:1660   */\n      dup5\n        /* \"#utility.yul\":1616:1681   */\n      tag_77\n      jump\t// in\n    tag_114:\n        /* \"#utility.yul\":1478:1688   */\n      swap3\n      swap2\n      pop\n      pop\n      jump\t// out\n        /* \"#utility.yul\":1694:1916   */\n    tag_34:\n        /* \"#utility.yul\":1787:1791   */\n      0x00\n        /* \"#utility.yul\":1825:1827   */\n      0x20\n        /* \"#utility.yul\":1814:1823   */\n      dup3\n        /* \"#utility.yul\":1810:1828   */\n      add\n        /* \"#utility.yul\":1802:1828   */\n      swap1\n      pop\n        /* \"#utility.yul\":1838:1909   */\n      tag_116\n        /* \"#utility.yul\":1906:1907   */\n      0x00\n        /* \"#utility.yul\":1895:1904   */\n      dup4\n        /* \"#utility.yul\":1891:1908   */\n      add\n        /* \"#utility.yul\":1882:1888   */\n      dup5\n        /* \"#utility.yul\":1838:1909   */\n      tag_81\n      jump\t// in\n    tag_116:\n        /* \"#utility.yul\":1694:1916   */\n      swap3\n      swap2\n      pop\n      pop\n      jump\t// out\n        /* \"#utility.yul\":1922:2144   */\n    tag_50:\n        /* \"#utility.yul\":2015:2019   */\n      0x00\n        /* \"#utility.yul\":2053:2055   */\n      0x20\n        /* \"#utility.yul\":2042:2051   */\n      dup3\n        /* \"#utility.yul\":2038:2056   */\n      add\n        /* \"#utility.yul\":2030:2056   */\n      swap1\n      pop\n        /* \"#utility.yul\":2066:2137   */\n      tag_118\n        /* \"#utility.yul\":2134:2135   */\n      0x00\n        /* \"#utility.yul\":2123:2132   */\n      dup4\n        /* \"#utility.yul\":2119:2136   */\n      add\n        /* \"#utility.yul\":2110:2116   */\n      dup5\n        /* \"#utility.yul\":2066:2137   */\n      tag_85\n      jump\t// in\n    tag_118:\n        /* \"#utility.yul\":1922:2144   */\n      swap3\n      swap2\n      pop\n      pop\n      jump\t// out\n        /* \"#utility.yul\":2150:2388   */\n    tag_30:\n        /* \"#utility.yul\":2251:2255   */\n      0x00\n        /* \"#utility.yul\":2289:2291   */\n      0x20\n        /* \"#utility.yul\":2278:2287   */\n      dup3\n        /* \"#utility.yul\":2274:2292   */\n      add\n        /* \"#utility.yul\":2266:2292   */\n      swap1\n      pop\n        /* \"#utility.yul\":2302:2381   */\n      tag_120\n        /* \"#utility.yul\":2378:2379   */\n      0x00\n        /* \"#utility.yul\":2367:2376   */\n      dup4\n        /* \"#utility.yul\":2363:2380   */\n      add\n        /* \"#utility.yul\":2354:2360   */\n      dup5\n        /* \"#utility.yul\":2302:2381   */\n      tag_89\n      jump\t// in\n    tag_120:\n        /* \"#utility.yul\":2150:2388   */\n      swap3\n      swap2\n      pop\n      pop\n      jump\t// out\n        /* \"#utility.yul\":2394:2604   */\n    tag_38:\n        /* \"#utility.yul\":2481:2485   */\n      0x00\n        /* \"#utility.yul\":2519:2521   */\n      0x20\n        /* \"#utility.yul\":2508:2517   */\n      dup3\n        /* \"#utility.yul\":2504:2522   */\n      add\n        /* \"#utility.yul\":2496:2522   */\n      swap1\n      pop\n        /* \"#utility.yul\":2532:2597   */\n      tag_122\n        /* \"#utility.yul\":2594:2595   */\n      0x00\n        /* \"#utility.yul\":2583:2592   */\n      dup4\n        /* \"#utility.yul\":2579:2596   */\n      add\n        /* \"#utility.yul\":2570:2576   */\n      dup5\n        /* \"#utility.yul\":2532:2597   */\n      tag_93\n      jump\t// in\n    tag_122:\n        /* \"#utility.yul\":2394:2604   */\n      swap3\n      swap2\n      pop\n      pop\n      jump\t// out\n        /* \"#utility.yul\":2610:2923   */\n    tag_44:\n        /* \"#utility.yul\":2723:2727   */\n      0x00\n        /* \"#utility.yul\":2761:2763   */\n      0x20\n        /* \"#utility.yul\":2750:2759   */\n      dup3\n        /* \"#utility.yul\":2746:2764   */\n      add\n        /* \"#utility.yul\":2738:2764   */\n      swap1\n      pop\n        /* \"#utility.yul\":2810:2819   */\n      dup2\n        /* \"#utility.yul\":2804:2808   */\n      dup2\n        /* \"#utility.yul\":2800:2820   */\n      sub\n        /* \"#utility.yul\":2796:2797   */\n      0x00\n        /* \"#utility.yul\":2785:2794   */\n      dup4\n        /* \"#utility.yul\":2781:2798   */\n      add\n        /* \"#utility.yul\":2774:2821   */\n      mstore\n        /* \"#utility.yul\":2838:2916   */\n      tag_124\n        /* \"#utility.yul\":2911:2915   */\n      dup2\n        /* \"#utility.yul\":2902:2908   */\n      dup5\n        /* \"#utility.yul\":2838:2916   */\n      tag_97\n      jump\t// in\n    tag_124:\n        /* \"#utility.yul\":2830:2916   */\n      swap1\n      pop\n        /* \"#utility.yul\":2610:2923   */\n      swap3\n      swap2\n      pop\n      pop\n      jump\t// out\n        /* \"#utility.yul\":2929:3143   */\n    tag_26:\n        /* \"#utility.yul\":3018:3022   */\n      0x00\n        /* \"#utility.yul\":3056:3058   */\n      0x20\n        /* \"#utility.yul\":3045:3054   */\n      dup3\n        /* \"#utility.yul\":3041:3059   */\n      add\n        /* \"#utility.yul\":3033:3059   */\n      swap1\n      pop\n        /* \"#utility.yul\":3069:3136   */\n      tag_126\n        /* \"#utility.yul\":3133:3134   */\n      0x00\n        /* \"#utility.yul\":3122:3131   */\n      dup4\n        /* \"#utility.yul\":3118:3135   */\n      add\n        /* \"#utility.yul\":3109:3115   */\n      dup5\n        /* \"#utility.yul\":3069:3136   */\n      tag_107\n      jump\t// in\n    tag_126:\n        /* \"#utility.yul\":2929:3143   */\n      swap3\n      swap2\n      pop\n      pop\n      jump\t// out\n        /* \"#utility.yul\":3149:3248   */\n    tag_100:\n        /* \"#utility.yul\":3201:3207   */\n      0x00\n        /* \"#utility.yul\":3235:3240   */\n      dup2\n        /* \"#utility.yul\":3229:3241   */\n      mload\n        /* \"#utility.yul\":3219:3241   */\n      swap1\n      pop\n        /* \"#utility.yul\":3149:3248   */\n      swap2\n      swap1\n      pop\n      jump\t// out\n        /* \"#utility.yul\":3254:3423   */\n    tag_102:\n        /* \"#utility.yul\":3338:3349   */\n      0x00\n        /* \"#utility.yul\":3372:3378   */\n      dup3\n        /* \"#utility.yul\":3367:3370   */\n      dup3\n        /* \"#utility.yul\":3360:3379   */\n      mstore\n        /* \"#utility.yul\":3412:3416   */\n      0x20\n        /* \"#utility.yul\":3407:3410   */\n      dup3\n        /* \"#utility.yul\":3403:3417   */\n      add\n        /* \"#utility.yul\":3388:3417   */\n      swap1\n      pop\n        /* \"#utility.yul\":3254:3423   */\n      swap3\n      swap2\n      pop\n      pop\n      jump\t// out\n        /* \"#utility.yul\":3429:3525   */\n    tag_76:\n        /* \"#utility.yul\":3466:3473   */\n      0x00\n        /* \"#utility.yul\":3495:3519   */\n      tag_130\n        /* \"#utility.yul\":3513:3518   */\n      dup3\n        /* \"#utility.yul\":3495:3519   */\n      tag_131\n      jump\t// in\n    tag_130:\n        /* \"#utility.yul\":3484:3519   */\n      swap1\n      pop\n        /* \"#utility.yul\":3429:3525   */\n      swap2\n      swap1\n      pop\n      jump\t// out\n        /* \"#utility.yul\":3531:3621   */\n    tag_80:\n        /* \"#utility.yul\":3565:3572   */\n      0x00\n        /* \"#utility.yul\":3608:3613   */\n      dup2\n        /* \"#utility.yul\":3601:3614   */\n      iszero\n        /* \"#utility.yul\":3594:3615   */\n      iszero\n        /* \"#utility.yul\":3583:3615   */\n      swap1\n      pop\n        /* \"#utility.yul\":3531:3621   */\n      swap2\n      swap1\n      pop\n      jump\t// out\n        /* \"#utility.yul\":3627:3777   */\n    tag_84:\n        /* \"#utility.yul\":3664:3671   */\n      0x00\n        /* \"#utility.yul\":3704:3770   */\n      0xffffffffffffffffffffffffffffffffffffffff000000000000000000000000\n        /* \"#utility.yul\":3697:3702   */\n      dup3\n        /* \"#utility.yul\":3693:3771   */\n      and\n        /* \"#utility.yul\":3682:3771   */\n      swap1\n      pop\n        /* \"#utility.yul\":3627:3777   */\n      swap2\n      swap1\n      pop\n      jump\t// out\n        /* \"#utility.yul\":3783:3860   */\n    tag_88:\n        /* \"#utility.yul\":3820:3827   */\n      0x00\n        /* \"#utility.yul\":3849:3854   */\n      dup2\n        /* \"#utility.yul\":3838:3854   */\n      swap1\n      pop\n        /* \"#utility.yul\":3783:3860   */\n      swap2\n      swap1\n      pop\n      jump\t// out\n        /* \"#utility.yul\":3866:3997   */\n    tag_135:\n        /* \"#utility.yul\":3913:3920   */\n      0x00\n        /* \"#utility.yul\":3942:3947   */\n      dup2\n        /* \"#utility.yul\":3931:3947   */\n      swap1\n      pop\n        /* \"#utility.yul\":3948:3991   */\n      tag_137\n        /* \"#utility.yul\":3985:3990   */\n      dup3\n        /* \"#utility.yul\":3948:3991   */\n      tag_138\n      jump\t// in\n    tag_137:\n        /* \"#utility.yul\":3866:3997   */\n      swap2\n      swap1\n      pop\n      jump\t// out\n        /* \"#utility.yul\":4003:4092   */\n    tag_96:\n        /* \"#utility.yul\":4037:4044   */\n      0x00\n        /* \"#utility.yul\":4080:4085   */\n      dup2\n        /* \"#utility.yul\":4077:4078   */\n      0x00\n        /* \"#utility.yul\":4066:4086   */\n      signextend\n        /* \"#utility.yul\":4055:4086   */\n      swap1\n      pop\n        /* \"#utility.yul\":4003:4092   */\n      swap2\n      swap1\n      pop\n      jump\t// out\n        /* \"#utility.yul\":4098:4224   */\n    tag_131:\n        /* \"#utility.yul\":4135:4142   */\n      0x00\n        /* \"#utility.yul\":4175:4217   */\n      0xffffffffffffffffffffffffffffffffffffffff\n        /* \"#utility.yul\":4168:4173   */\n      dup3\n        /* \"#utility.yul\":4164:4218   */\n      and\n        /* \"#utility.yul\":4153:4218   */\n      swap1\n      pop\n        /* \"#utility.yul\":4098:4224   */\n      swap2\n      swap1\n      pop\n      jump\t// out\n        /* \"#utility.yul\":4230:4316   */\n    tag_110:\n        /* \"#utility.yul\":4265:4272   */\n      0x00\n        /* \"#utility.yul\":4305:4309   */\n      0xff\n        /* \"#utility.yul\":4298:4303   */\n      dup3\n        /* \"#utility.yul\":4294:4310   */\n      and\n        /* \"#utility.yul\":4283:4310   */\n      swap1\n      pop\n        /* \"#utility.yul\":4230:4316   */\n      swap2\n      swap1\n      pop\n      jump\t// out\n        /* \"#utility.yul\":4322:4453   */\n    tag_92:\n        /* \"#utility.yul\":4380:4389   */\n      0x00\n        /* \"#utility.yul\":4413:4447   */\n      tag_143\n        /* \"#utility.yul\":4441:4446   */\n      dup3\n        /* \"#utility.yul\":4413:4447   */\n      tag_135\n      jump\t// in\n    tag_143:\n        /* \"#utility.yul\":4400:4447   */\n      swap1\n      pop\n        /* \"#utility.yul\":4322:4453   */\n      swap2\n      swap1\n      pop\n      jump\t// out\n        /* \"#utility.yul\":4459:4766   */\n    tag_104:\n        /* \"#utility.yul\":4527:4528   */\n      0x00\n        /* \"#utility.yul\":4537:4650   */\n    tag_145:\n        /* \"#utility.yul\":4551:4557   */\n      dup4\n        /* \"#utility.yul\":4548:4549   */\n      dup2\n        /* \"#utility.yul\":4545:4558   */\n      lt\n        /* \"#utility.yul\":4537:4650   */\n      iszero\n      tag_147\n      jumpi\n        /* \"#utility.yul\":4636:4637   */\n      dup1\n        /* \"#utility.yul\":4631:4634   */\n      dup3\n        /* \"#utility.yul\":4627:4638   */\n      add\n        /* \"#utility.yul\":4621:4639   */\n      mload\n        /* \"#utility.yul\":4617:4618   */\n      dup2\n        /* \"#utility.yul\":4612:4615   */\n      dup5\n        /* \"#utility.yul\":4608:4619   */\n      add\n        /* \"#utility.yul\":4601:4640   */\n      mstore\n        /* \"#utility.yul\":4573:4575   */\n      0x20\n        /* \"#utility.yul\":4570:4571   */\n      dup2\n        /* \"#utility.yul\":4566:4576   */\n      add\n        /* \"#utility.yul\":4561:4576   */\n      swap1\n      pop\n        /* \"#utility.yul\":4537:4650   */\n      jump(tag_145)\n    tag_147:\n        /* \"#utility.yul\":4668:4674   */\n      dup4\n        /* \"#utility.yul\":4665:4666   */\n      dup2\n        /* \"#utility.yul\":4662:4675   */\n      gt\n        /* \"#utility.yul\":4659:4760   */\n      iszero\n      tag_148\n      jumpi\n        /* \"#utility.yul\":4748:4749   */\n      0x00\n        /* \"#utility.yul\":4739:4745   */\n      dup5\n        /* \"#utility.yul\":4734:4737   */\n      dup5\n        /* \"#utility.yul\":4730:4746   */\n      add\n        /* \"#utility.yul\":4723:4750   */\n      mstore\n        /* \"#utility.yul\":4659:4760   */\n    tag_148:\n        /* \"#utility.yul\":4508:4766   */\n      pop\n        /* \"#utility.yul\":4459:4766   */\n      pop\n      pop\n      pop\n      jump\t// out\n        /* \"#utility.yul\":4772:5092   */\n    tag_64:\n        /* \"#utility.yul\":4816:4822   */\n      0x00\n        /* \"#utility.yul\":4853:4854   */\n      0x02\n        /* \"#utility.yul\":4847:4851   */\n      dup3\n        /* \"#utility.yul\":4843:4855   */\n      div\n        /* \"#utility.yul\":4833:4855   */\n      swap1\n      pop\n        /* \"#utility.yul\":4900:4901   */\n      0x01\n        /* \"#utility.yul\":4894:4898   */\n      dup3\n        /* \"#utility.yul\":4890:4902   */\n      and\n        /* \"#utility.yul\":4921:4939   */\n      dup1\n        /* \"#utility.yul\":4911:4992   */\n      tag_150\n      jumpi\n        /* \"#utility.yul\":4977:4981   */\n      0x7f\n        /* \"#utility.yul\":4969:4975   */\n      dup3\n        /* \"#utility.yul\":4965:4982   */\n      and\n        /* \"#utility.yul\":4955:4982   */\n      swap2\n      pop\n        /* \"#utility.yul\":4911:4992   */\n    tag_150:\n        /* \"#utility.yul\":5039:5041   */\n      0x20\n        /* \"#utility.yul\":5031:5037   */\n      dup3\n        /* \"#utility.yul\":5028:5042   */\n      lt\n        /* \"#utility.yul\":5008:5026   */\n      dup2\n        /* \"#utility.yul\":5005:5043   */\n      eq\n        /* \"#utility.yul\":5002:5086   */\n      iszero\n      tag_151\n      jumpi\n        /* \"#utility.yul\":5058:5076   */\n      tag_152\n      tag_153\n      jump\t// in\n    tag_152:\n        /* \"#utility.yul\":5002:5086   */\n    tag_151:\n        /* \"#utility.yul\":4823:5092   */\n      pop\n        /* \"#utility.yul\":4772:5092   */\n      swap2\n      swap1\n      pop\n      jump\t// out\n        /* \"#utility.yul\":5098:5278   */\n    tag_62:\n        /* \"#utility.yul\":5146:5223   */\n      0x4e487b7100000000000000000000000000000000000000000000000000000000\n        /* \"#utility.yul\":5143:5144   */\n      0x00\n        /* \"#utility.yul\":5136:5224   */\n      mstore\n        /* \"#utility.yul\":5243:5247   */\n      0x21\n        /* \"#utility.yul\":5240:5241   */\n      0x04\n        /* \"#utility.yul\":5233:5248   */\n      mstore\n        /* \"#utility.yul\":5267:5271   */\n      0x24\n        /* \"#utility.yul\":5264:5265   */\n      0x00\n        /* \"#utility.yul\":5257:5272   */\n      revert\n        /* \"#utility.yul\":5284:5464   */\n    tag_153:\n        /* \"#utility.yul\":5332:5409   */\n      0x4e487b7100000000000000000000000000000000000000000000000000000000\n        /* \"#utility.yul\":5329:5330   */\n      0x00\n        /* \"#utility.yul\":5322:5410   */\n      mstore\n        /* \"#utility.yul\":5429:5433   */\n      0x22\n        /* \"#utility.yul\":5426:5427   */\n      0x04\n        /* \"#utility.yul\":5419:5434   */\n      mstore\n        /* \"#utility.yul\":5453:5457   */\n      0x24\n        /* \"#utility.yul\":5450:5451   */\n      0x00\n        /* \"#utility.yul\":5443:5458   */\n      revert\n        /* \"#utility.yul\":5470:5572   */\n    tag_106:\n        /* \"#utility.yul\":5511:5517   */\n      0x00\n        /* \"#utility.yul\":5562:5564   */\n      0x1f\n        /* \"#utility.yul\":5558:5565   */\n      not\n        /* \"#utility.yul\":5553:5555   */\n      0x1f\n        /* \"#utility.yul\":5546:5551   */\n      dup4\n        /* \"#utility.yul\":5542:5556   */\n      add\n        /* \"#utility.yul\":5538:5566   */\n      and\n        /* \"#utility.yul\":5528:5566   */\n      swap1\n      pop\n        /* \"#utility.yul\":5470:5572   */\n      swap2\n      swap1\n      pop\n      jump\t// out\n        /* \"#utility.yul\":5578:5693   */\n    tag_138:\n        /* \"#utility.yul\":5661:5662   */\n      0x02\n        /* \"#utility.yul\":5654:5659   */\n      dup2\n        /* \"#utility.yul\":5651:5663   */\n      lt\n        /* \"#utility.yul\":5641:5687   */\n      tag_158\n      jumpi\n        /* \"#utility.yul\":5667:5685   */\n      tag_159\n      tag_62\n      jump\t// in\n    tag_159:\n        /* \"#utility.yul\":5641:5687   */\n    tag_158:\n        /* \"#utility.yul\":5578:5693   */\n      pop\n      jump\t// out\n\n    auxdata: 0xa2646970667358221220dbee68ce4c71b931c7104201e81d9e0d12bc8eb5bd31f3fd271948ba0ac452cf64736f6c63430008070033\n}\n",
				"bytecode": {
					"linkReferences": {},
					"object": "60806040526003600160006101000a81548160ff021916908360ff1602179055507fffffffffffffffffffffffffffffffffffffffffffffffffffffffffffffffe0600360006101000a81548160ff021916908360000b60ff16021790555060416004556040518060400160405280600f81526020017f4573746f206573207075626c69636f000000000000000000000000000000000081525060069080519060200190620000b092919062000321565b506040518060400160405280600f81526020017f4573746f206573207072697661646f000000000000000000000000000000000081525060079080519060200190620000fe92919062000321565b506001600860016101000a81548160ff0219169083151502179055506000600860026101000a81548160ff021916908315150217905550600a337378731d3ca6b7e34ac0f824c42a7cc18a495cabab6040516020016200016193929190620004de565b60405160208183030381529060405280519060200120600b5560026040516020016200018d90620004c7565b604051602081830303815290604052604051620001ab9190620004ae565b602060405180830381855afa158015620001c9573d6000803e3d6000fd5b5050506040513d601f19601f82011682018060405250810190620001ee9190620003e8565b600c5560036040516020016200020490620004c7565b604051602081830303815290604052604051620002229190620004ae565b602060405180830381855afa15801562000240573d6000803e3d6000fd5b5050506040515160601b600d60006101000a81548173ffffffffffffffffffffffffffffffffffffffff021916908360601c02179055507378731d3ca6b7e34ac0f824c42a7cc18a495cabab600f60006101000a81548173ffffffffffffffffffffffffffffffffffffffff021916908373ffffffffffffffffffffffffffffffffffffffff16021790555033601060006101000a81548173ffffffffffffffffffffffffffffffffffffffff021916908373ffffffffffffffffffffffffffffffffffffffff1602179055503480156200031a57600080fd5b50620006b9565b8280546200032f90620005cd565b90600052602060002090601f0160209004810192826200035357600085556200039f565b82601f106200036e57805160ff19168380011785556200039f565b828001600101855582156200039f579182015b828111156200039e57825182559160200191906001019062000381565b5b509050620003ae9190620003b2565b5090565b5b80821115620003cd576000816000905550600101620003b3565b5090565b600081519050620003e2816200069f565b92915050565b60006020828403121562000401576200040062000664565b5b60006200041184828501620003d1565b91505092915050565b6200042f62000429826200054f565b62000603565b82525050565b600062000442826200052e565b6200044e818562000539565b93506200046081856020860162000597565b80840191505092915050565b60006200047b600a8362000544565b9150620004888262000676565b600a82019050919050565b620004a8620004a2826200058d565b6200062b565b82525050565b6000620004bc828462000435565b915081905092915050565b6000620004d4826200046c565b9150819050919050565b6000620004eb826200046c565b9150620004f9828662000493565b6020820191506200050b82856200041a565b6014820191506200051d82846200041a565b601482019150819050949350505050565b600081519050919050565b600081905092915050565b600081905092915050565b60006200055c826200056d565b9050919050565b6000819050919050565b600073ffffffffffffffffffffffffffffffffffffffff82169050919050565b6000819050919050565b60005b83811015620005b75780820151818401526020810190506200059a565b83811115620005c7576000848401525b50505050565b60006002820490506001821680620005e657607f821691505b60208210811415620005fd57620005fc62000635565b5b50919050565b6000620006108262000617565b9050919050565b6000620006248262000669565b9050919050565b6000819050919050565b7f4e487b7100000000000000000000000000000000000000000000000000000000600052602260045260246000fd5b600080fd5b60008160601b9050919050565b7f48656c6c6f20576f726400000000000000000000000000000000000000000000600082015250565b620006aa8162000563565b8114620006b657600080fd5b50565b61070a80620006c96000396000f3fe608060405234801561001057600080fd5b50600436106100b45760003560e01c8063af10c81011610071578063af10c8101461016d578063b83d07b714610177578063ba33ed7d14610195578063c7109d041461019f578063c81d6270146101bd578063cd97d84e146101db576100b4565b806316bdcf12146100b95780633a36399e146100d75780634df7e3d0146100f55780637272eea1146101135780637a68ef7f146101315780638a054ac21461014f575b600080fd5b6100c16101f9565b6040516100ce919061043e565b60405180910390f35b6100df61021f565b6040516100ec919061043e565b60405180910390f35b6100fd610245565b60405161010a9190610502565b60405180910390f35b61011b610258565b60405161012891906104aa565b60405180910390f35b61013961026f565b6040516101469190610474565b60405180910390f35b610157610282565b60405161016491906104c5565b60405180910390f35b610175610295565b005b61017f6102c2565b60405161018c91906104e0565b60405180910390f35b61019d610350565b005b6101a761037d565b6040516101b4919061048f565b60405180910390f35b6101c5610383565b6040516101d29190610459565b60405180910390f35b6101e3610396565b6040516101f0919061048f565b60405180910390f35b601060009054906101000a900473ffffffffffffffffffffffffffffffffffffffff1681565b600f60009054906101000a900473ffffffffffffffffffffffffffffffffffffffff1681565b600160009054906101000a900460ff1681565b6000601060149054906101000a900460ff16905090565b600d60009054906101000a900460601b81565b600360009054906101000a900460000b81565b6001601060146101000a81548160ff021916908360018111156102bb576102ba610651565b5b0217905550565b600680546102cf9061061f565b80601f01602080910402602001604051908101604052809291908181526020018280546102fb9061061f565b80156103485780601f1061031d57610100808354040283529160200191610348565b820191906000526020600020905b81548152906001019060200180831161032b57829003601f168201915b505050505081565b6000601060146101000a81548160ff0219169083600181111561037657610375610651565b5b0217905550565b600c5481565b600860019054906101000a900460ff1681565b600b5481565b6103a581610539565b82525050565b6103b48161054b565b82525050565b6103c381610557565b82525050565b6103d281610583565b82525050565b6103e1816105da565b82525050565b6103f0816105a0565b82525050565b60006104018261051d565b61040b8185610528565b935061041b8185602086016105ec565b610424816106af565b840191505092915050565b610438816105cd565b82525050565b6000602082019050610453600083018461039c565b92915050565b600060208201905061046e60008301846103ab565b92915050565b600060208201905061048960008301846103ba565b92915050565b60006020820190506104a460008301846103c9565b92915050565b60006020820190506104bf60008301846103d8565b92915050565b60006020820190506104da60008301846103e7565b92915050565b600060208201905081810360008301526104fa81846103f6565b905092915050565b6000602082019050610517600083018461042f565b92915050565b600081519050919050565b600082825260208201905092915050565b6000610544826105ad565b9050919050565b60008115159050919050565b60007fffffffffffffffffffffffffffffffffffffffff00000000000000000000000082169050919050565b6000819050919050565b600081905061059b826106c0565b919050565b60008160000b9050919050565b600073ffffffffffffffffffffffffffffffffffffffff82169050919050565b600060ff82169050919050565b60006105e58261058d565b9050919050565b60005b8381101561060a5780820151818401526020810190506105ef565b83811115610619576000848401525b50505050565b6000600282049050600182168061063757607f821691505b6020821081141561064b5761064a610680565b5b50919050565b7f4e487b7100000000000000000000000000000000000000000000000000000000600052602160045260246000fd5b7f4e487b7100000000000000000000000000000000000000000000000000000000600052602260045260246000fd5b6000601f19601f8301169050919050565b600281106106d1576106d0610651565b5b5056fea2646970667358221220dbee68ce4c71b931c7104201e81d9e0d12bc8eb5bd31f3fd271948ba0ac452cf64736f6c63430008070033",
					"opcodes": "PUSH1 0x80 PUSH1 0x40 MSTORE PUSH1 0x3 PUSH1 0x1 PUSH1 0x0 PUSH2 0x100 EXP DUP2 SLOAD DUP2 PUSH1 0xFF MUL NOT AND SWAP1 DUP4 PUSH1 0xFF AND MUL OR SWAP1 SSTORE POP PUSH32 0xFFFFFFFFFFFFFFFFFFFFFFFFFFFFFFFFFFFFFFFFFFFFFFFFFFFFFFFFFFFFFFE0 PUSH1 0x3 PUSH1 0x0 PUSH2 0x100 EXP DUP2 SLOAD DUP2 PUSH1 0xFF MUL NOT AND SWAP1 DUP4 PUSH1 0x0 SIGNEXTEND PUSH1 0xFF AND MUL OR SWAP1 SSTORE POP PUSH1 0x41 PUSH1 0x4 SSTORE PUSH1 0x40 MLOAD DUP1 PUSH1 0x40 ADD PUSH1 0x40 MSTORE DUP1 PUSH1 0xF DUP2 MSTORE PUSH1 0x20 ADD PUSH32 0x4573746F206573207075626C69636F0000000000000000000000000000000000 DUP2 MSTORE POP PUSH1 0x6 SWAP1 DUP1 MLOAD SWAP1 PUSH1 0x20 ADD SWAP1 PUSH3 0xB0 SWAP3 SWAP2 SWAP1 PUSH3 0x321 JUMP JUMPDEST POP PUSH1 0x40 MLOAD DUP1 PUSH1 0x40 ADD PUSH1 0x40 MSTORE DUP1 PUSH1 0xF DUP2 MSTORE PUSH1 0x20 ADD PUSH32 0x4573746F206573207072697661646F0000000000000000000000000000000000 DUP2 MSTORE POP PUSH1 0x7 SWAP1 DUP1 MLOAD SWAP1 PUSH1 0x20 ADD SWAP1 PUSH3 0xFE SWAP3 SWAP2 SWAP1 PUSH3 0x321 JUMP JUMPDEST POP PUSH1 0x1 PUSH1 0x8 PUSH1 0x1 PUSH2 0x100 EXP DUP2 SLOAD DUP2 PUSH1 0xFF MUL NOT AND SWAP1 DUP4 ISZERO ISZERO MUL OR SWAP1 SSTORE POP PUSH1 0x0 PUSH1 0x8 PUSH1 0x2 PUSH2 0x100 EXP DUP2 SLOAD DUP2 PUSH1 0xFF MUL NOT AND SWAP1 DUP4 ISZERO ISZERO MUL OR SWAP1 SSTORE POP PUSH1 0xA CALLER PUSH20 0x78731D3CA6B7E34AC0F824C42A7CC18A495CABAB PUSH1 0x40 MLOAD PUSH1 0x20 ADD PUSH3 0x161 SWAP4 SWAP3 SWAP2 SWAP1 PUSH3 0x4DE JUMP JUMPDEST PUSH1 0x40 MLOAD PUSH1 0x20 DUP2 DUP4 SUB SUB DUP2 MSTORE SWAP1 PUSH1 0x40 MSTORE DUP1 MLOAD SWAP1 PUSH1 0x20 ADD KECCAK256 PUSH1 0xB SSTORE PUSH1 0x2 PUSH1 0x40 MLOAD PUSH1 0x20 ADD PUSH3 0x18D SWAP1 PUSH3 0x4C7 JUMP JUMPDEST PUSH1 0x40 MLOAD PUSH1 0x20 DUP2 DUP4 SUB SUB DUP2 MSTORE SWAP1 PUSH1 0x40 MSTORE PUSH1 0x40 MLOAD PUSH3 0x1AB SWAP2 SWAP1 PUSH3 0x4AE JUMP JUMPDEST PUSH1 0x20 PUSH1 0x40 MLOAD DUP1 DUP4 SUB DUP2 DUP6 GAS STATICCALL ISZERO DUP1 ISZERO PUSH3 0x1C9 JUMPI RETURNDATASIZE PUSH1 0x0 DUP1 RETURNDATACOPY RETURNDATASIZE PUSH1 0x0 REVERT JUMPDEST POP POP POP PUSH1 0x40 MLOAD RETURNDATASIZE PUSH1 0x1F NOT PUSH1 0x1F DUP3 ADD AND DUP3 ADD DUP1 PUSH1 0x40 MSTORE POP DUP2 ADD SWAP1 PUSH3 0x1EE SWAP2 SWAP1 PUSH3 0x3E8 JUMP JUMPDEST PUSH1 0xC SSTORE PUSH1 0x3 PUSH1 0x40 MLOAD PUSH1 0x20 ADD PUSH3 0x204 SWAP1 PUSH3 0x4C7 JUMP JUMPDEST PUSH1 0x40 MLOAD PUSH1 0x20 DUP2 DUP4 SUB SUB DUP2 MSTORE SWAP1 PUSH1 0x40 MSTORE PUSH1 0x40 MLOAD PUSH3 0x222 SWAP2 SWAP1 PUSH3 0x4AE JUMP JUMPDEST PUSH1 0x20 PUSH1 0x40 MLOAD DUP1 DUP4 SUB DUP2 DUP6 GAS STATICCALL ISZERO DUP1 ISZERO PUSH3 0x240 JUMPI RETURNDATASIZE PUSH1 0x0 DUP1 RETURNDATACOPY RETURNDATASIZE PUSH1 0x0 REVERT JUMPDEST POP POP POP PUSH1 0x40 MLOAD MLOAD PUSH1 0x60 SHL PUSH1 0xD PUSH1 0x0 PUSH2 0x100 EXP DUP2 SLOAD DUP2 PUSH20 0xFFFFFFFFFFFFFFFFFFFFFFFFFFFFFFFFFFFFFFFF MUL NOT AND SWAP1 DUP4 PUSH1 0x60 SHR MUL OR SWAP1 SSTORE POP PUSH20 0x78731D3CA6B7E34AC0F824C42A7CC18A495CABAB PUSH1 0xF PUSH1 0x0 PUSH2 0x100 EXP DUP2 SLOAD DUP2 PUSH20 0xFFFFFFFFFFFFFFFFFFFFFFFFFFFFFFFFFFFFFFFF MUL NOT AND SWAP1 DUP4 PUSH20 0xFFFFFFFFFFFFFFFFFFFFFFFFFFFFFFFFFFFFFFFF AND MUL OR SWAP1 SSTORE POP CALLER PUSH1 0x10 PUSH1 0x0 PUSH2 0x100 EXP DUP2 SLOAD DUP2 PUSH20 0xFFFFFFFFFFFFFFFFFFFFFFFFFFFFFFFFFFFFFFFF MUL NOT AND SWAP1 DUP4 PUSH20 0xFFFFFFFFFFFFFFFFFFFFFFFFFFFFFFFFFFFFFFFF AND MUL OR SWAP1 SSTORE POP CALLVALUE DUP1 ISZERO PUSH3 0x31A JUMPI PUSH1 0x0 DUP1 REVERT JUMPDEST POP PUSH3 0x6B9 JUMP JUMPDEST DUP3 DUP1 SLOAD PUSH3 0x32F SWAP1 PUSH3 0x5CD JUMP JUMPDEST SWAP1 PUSH1 0x0 MSTORE PUSH1 0x20 PUSH1 0x0 KECCAK256 SWAP1 PUSH1 0x1F ADD PUSH1 0x20 SWAP1 DIV DUP2 ADD SWAP3 DUP3 PUSH3 0x353 JUMPI PUSH1 0x0 DUP6 SSTORE PUSH3 0x39F JUMP JUMPDEST DUP3 PUSH1 0x1F LT PUSH3 0x36E JUMPI DUP1 MLOAD PUSH1 0xFF NOT AND DUP4 DUP1 ADD OR DUP6 SSTORE PUSH3 0x39F JUMP JUMPDEST DUP3 DUP1 ADD PUSH1 0x1 ADD DUP6 SSTORE DUP3 ISZERO PUSH3 0x39F JUMPI SWAP2 DUP3 ADD JUMPDEST DUP3 DUP2 GT ISZERO PUSH3 0x39E JUMPI DUP3 MLOAD DUP3 SSTORE SWAP2 PUSH1 0x20 ADD SWAP2 SWAP1 PUSH1 0x1 ADD SWAP1 PUSH3 0x381 JUMP JUMPDEST JUMPDEST POP SWAP1 POP PUSH3 0x3AE SWAP2 SWAP1 PUSH3 0x3B2 JUMP JUMPDEST POP SWAP1 JUMP JUMPDEST JUMPDEST DUP1 DUP3 GT ISZERO PUSH3 0x3CD JUMPI PUSH1 0x0 DUP2 PUSH1 0x0 SWAP1 SSTORE POP PUSH1 0x1 ADD PUSH3 0x3B3 JUMP JUMPDEST POP SWAP1 JUMP JUMPDEST PUSH1 0x0 DUP2 MLOAD SWAP1 POP PUSH3 0x3E2 DUP2 PUSH3 0x69F JUMP JUMPDEST SWAP3 SWAP2 POP POP JUMP JUMPDEST PUSH1 0x0 PUSH1 0x20 DUP3 DUP5 SUB SLT ISZERO PUSH3 0x401 JUMPI PUSH3 0x400 PUSH3 0x664 JUMP JUMPDEST JUMPDEST PUSH1 0x0 PUSH3 0x411 DUP5 DUP3 DUP6 ADD PUSH3 0x3D1 JUMP JUMPDEST SWAP2 POP POP SWAP3 SWAP2 POP POP JUMP JUMPDEST PUSH3 0x42F PUSH3 0x429 DUP3 PUSH3 0x54F JUMP JUMPDEST PUSH3 0x603 JUMP JUMPDEST DUP3 MSTORE POP POP JUMP JUMPDEST PUSH1 0x0 PUSH3 0x442 DUP3 PUSH3 0x52E JUMP JUMPDEST PUSH3 0x44E DUP2 DUP6 PUSH3 0x539 JUMP JUMPDEST SWAP4 POP PUSH3 0x460 DUP2 DUP6 PUSH1 0x20 DUP7 ADD PUSH3 0x597 JUMP JUMPDEST DUP1 DUP5 ADD SWAP2 POP POP SWAP3 SWAP2 POP POP JUMP JUMPDEST PUSH1 0x0 PUSH3 0x47B PUSH1 0xA DUP4 PUSH3 0x544 JUMP JUMPDEST SWAP2 POP PUSH3 0x488 DUP3 PUSH3 0x676 JUMP JUMPDEST PUSH1 0xA DUP3 ADD SWAP1 POP SWAP2 SWAP1 POP JUMP JUMPDEST PUSH3 0x4A8 PUSH3 0x4A2 DUP3 PUSH3 0x58D JUMP JUMPDEST PUSH3 0x62B JUMP JUMPDEST DUP3 MSTORE POP POP JUMP JUMPDEST PUSH1 0x0 PUSH3 0x4BC DUP3 DUP5 PUSH3 0x435 JUMP JUMPDEST SWAP2 POP DUP2 SWAP1 POP SWAP3 SWAP2 POP POP JUMP JUMPDEST PUSH1 0x0 PUSH3 0x4D4 DUP3 PUSH3 0x46C JUMP JUMPDEST SWAP2 POP DUP2 SWAP1 POP SWAP2 SWAP1 POP JUMP JUMPDEST PUSH1 0x0 PUSH3 0x4EB DUP3 PUSH3 0x46C JUMP JUMPDEST SWAP2 POP PUSH3 0x4F9 DUP3 DUP7 PUSH3 0x493 JUMP JUMPDEST PUSH1 0x20 DUP3 ADD SWAP2 POP PUSH3 0x50B DUP3 DUP6 PUSH3 0x41A JUMP JUMPDEST PUSH1 0x14 DUP3 ADD SWAP2 POP PUSH3 0x51D DUP3 DUP5 PUSH3 0x41A JUMP JUMPDEST PUSH1 0x14 DUP3 ADD SWAP2 POP DUP2 SWAP1 POP SWAP5 SWAP4 POP POP POP POP JUMP JUMPDEST PUSH1 0x0 DUP2 MLOAD SWAP1 POP SWAP2 SWAP1 POP JUMP JUMPDEST PUSH1 0x0 DUP2 SWAP1 POP SWAP3 SWAP2 POP POP JUMP JUMPDEST PUSH1 0x0 DUP2 SWAP1 POP SWAP3 SWAP2 POP POP JUMP JUMPDEST PUSH1 0x0 PUSH3 0x55C DUP3 PUSH3 0x56D JUMP JUMPDEST SWAP1 POP SWAP2 SWAP1 POP JUMP JUMPDEST PUSH1 0x0 DUP2 SWAP1 POP SWAP2 SWAP1 POP JUMP JUMPDEST PUSH1 0x0 PUSH20 0xFFFFFFFFFFFFFFFFFFFFFFFFFFFFFFFFFFFFFFFF DUP3 AND SWAP1 POP SWAP2 SWAP1 POP JUMP JUMPDEST PUSH1 0x0 DUP2 SWAP1 POP SWAP2 SWAP1 POP JUMP JUMPDEST PUSH1 0x0 JUMPDEST DUP4 DUP2 LT ISZERO PUSH3 0x5B7 JUMPI DUP1 DUP3 ADD MLOAD DUP2 DUP5 ADD MSTORE PUSH1 0x20 DUP2 ADD SWAP1 POP PUSH3 0x59A JUMP JUMPDEST DUP4 DUP2 GT ISZERO PUSH3 0x5C7 JUMPI PUSH1 0x0 DUP5 DUP5 ADD MSTORE JUMPDEST POP POP POP POP JUMP JUMPDEST PUSH1 0x0 PUSH1 0x2 DUP3 DIV SWAP1 POP PUSH1 0x1 DUP3 AND DUP1 PUSH3 0x5E6 JUMPI PUSH1 0x7F DUP3 AND SWAP2 POP JUMPDEST PUSH1 0x20 DUP3 LT DUP2 EQ ISZERO PUSH3 0x5FD JUMPI PUSH3 0x5FC PUSH3 0x635 JUMP JUMPDEST JUMPDEST POP SWAP2 SWAP1 POP JUMP JUMPDEST PUSH1 0x0 PUSH3 0x610 DUP3 PUSH3 0x617 JUMP JUMPDEST SWAP1 POP SWAP2 SWAP1 POP JUMP JUMPDEST PUSH1 0x0 PUSH3 0x624 DUP3 PUSH3 0x669 JUMP JUMPDEST SWAP1 POP SWAP2 SWAP1 POP JUMP JUMPDEST PUSH1 0x0 DUP2 SWAP1 POP SWAP2 SWAP1 POP JUMP JUMPDEST PUSH32 0x4E487B7100000000000000000000000000000000000000000000000000000000 PUSH1 0x0 MSTORE PUSH1 0x22 PUSH1 0x4 MSTORE PUSH1 0x24 PUSH1 0x0 REVERT JUMPDEST PUSH1 0x0 DUP1 REVERT JUMPDEST PUSH1 0x0 DUP2 PUSH1 0x60 SHL SWAP1 POP SWAP2 SWAP1 POP JUMP JUMPDEST PUSH32 0x48656C6C6F20576F726400000000000000000000000000000000000000000000 PUSH1 0x0 DUP3 ADD MSTORE POP JUMP JUMPDEST PUSH3 0x6AA DUP2 PUSH3 0x563 JUMP JUMPDEST DUP2 EQ PUSH3 0x6B6 JUMPI PUSH1 0x0 DUP1 REVERT JUMPDEST POP JUMP JUMPDEST PUSH2 0x70A DUP1 PUSH3 0x6C9 PUSH1 0x0 CODECOPY PUSH1 0x0 RETURN INVALID PUSH1 0x80 PUSH1 0x40 MSTORE CALLVALUE DUP1 ISZERO PUSH2 0x10 JUMPI PUSH1 0x0 DUP1 REVERT JUMPDEST POP PUSH1 0x4 CALLDATASIZE LT PUSH2 0xB4 JUMPI PUSH1 0x0 CALLDATALOAD PUSH1 0xE0 SHR DUP1 PUSH4 0xAF10C810 GT PUSH2 0x71 JUMPI DUP1 PUSH4 0xAF10C810 EQ PUSH2 0x16D JUMPI DUP1 PUSH4 0xB83D07B7 EQ PUSH2 0x177 JUMPI DUP1 PUSH4 0xBA33ED7D EQ PUSH2 0x195 JUMPI DUP1 PUSH4 0xC7109D04 EQ PUSH2 0x19F JUMPI DUP1 PUSH4 0xC81D6270 EQ PUSH2 0x1BD JUMPI DUP1 PUSH4 0xCD97D84E EQ PUSH2 0x1DB JUMPI PUSH2 0xB4 JUMP JUMPDEST DUP1 PUSH4 0x16BDCF12 EQ PUSH2 0xB9 JUMPI DUP1 PUSH4 0x3A36399E EQ PUSH2 0xD7 JUMPI DUP1 PUSH4 0x4DF7E3D0 EQ PUSH2 0xF5 JUMPI DUP1 PUSH4 0x7272EEA1 EQ PUSH2 0x113 JUMPI DUP1 PUSH4 0x7A68EF7F EQ PUSH2 0x131 JUMPI DUP1 PUSH4 0x8A054AC2 EQ PUSH2 0x14F JUMPI JUMPDEST PUSH1 0x0 DUP1 REVERT JUMPDEST PUSH2 0xC1 PUSH2 0x1F9 JUMP JUMPDEST PUSH1 0x40 MLOAD PUSH2 0xCE SWAP2 SWAP1 PUSH2 0x43E JUMP JUMPDEST PUSH1 0x40 MLOAD DUP1 SWAP2 SUB SWAP1 RETURN JUMPDEST PUSH2 0xDF PUSH2 0x21F JUMP JUMPDEST PUSH1 0x40 MLOAD PUSH2 0xEC SWAP2 SWAP1 PUSH2 0x43E JUMP JUMPDEST PUSH1 0x40 MLOAD DUP1 SWAP2 SUB SWAP1 RETURN JUMPDEST PUSH2 0xFD PUSH2 0x245 JUMP JUMPDEST PUSH1 0x40 MLOAD PUSH2 0x10A SWAP2 SWAP1 PUSH2 0x502 JUMP JUMPDEST PUSH1 0x40 MLOAD DUP1 SWAP2 SUB SWAP1 RETURN JUMPDEST PUSH2 0x11B PUSH2 0x258 JUMP JUMPDEST PUSH1 0x40 MLOAD PUSH2 0x128 SWAP2 SWAP1 PUSH2 0x4AA JUMP JUMPDEST PUSH1 0x40 MLOAD DUP1 SWAP2 SUB SWAP1 RETURN JUMPDEST PUSH2 0x139 PUSH2 0x26F JUMP JUMPDEST PUSH1 0x40 MLOAD PUSH2 0x146 SWAP2 SWAP1 PUSH2 0x474 JUMP JUMPDEST PUSH1 0x40 MLOAD DUP1 SWAP2 SUB SWAP1 RETURN JUMPDEST PUSH2 0x157 PUSH2 0x282 JUMP JUMPDEST PUSH1 0x40 MLOAD PUSH2 0x164 SWAP2 SWAP1 PUSH2 0x4C5 JUMP JUMPDEST PUSH1 0x40 MLOAD DUP1 SWAP2 SUB SWAP1 RETURN JUMPDEST PUSH2 0x175 PUSH2 0x295 JUMP JUMPDEST STOP JUMPDEST PUSH2 0x17F PUSH2 0x2C2 JUMP JUMPDEST PUSH1 0x40 MLOAD PUSH2 0x18C SWAP2 SWAP1 PUSH2 0x4E0 JUMP JUMPDEST PUSH1 0x40 MLOAD DUP1 SWAP2 SUB SWAP1 RETURN JUMPDEST PUSH2 0x19D PUSH2 0x350 JUMP JUMPDEST STOP JUMPDEST PUSH2 0x1A7 PUSH2 0x37D JUMP JUMPDEST PUSH1 0x40 MLOAD PUSH2 0x1B4 SWAP2 SWAP1 PUSH2 0x48F JUMP JUMPDEST PUSH1 0x40 MLOAD DUP1 SWAP2 SUB SWAP1 RETURN JUMPDEST PUSH2 0x1C5 PUSH2 0x383 JUMP JUMPDEST PUSH1 0x40 MLOAD PUSH2 0x1D2 SWAP2 SWAP1 PUSH2 0x459 JUMP JUMPDEST PUSH1 0x40 MLOAD DUP1 SWAP2 SUB SWAP1 RETURN JUMPDEST PUSH2 0x1E3 PUSH2 0x396 JUMP JUMPDEST PUSH1 0x40 MLOAD PUSH2 0x1F0 SWAP2 SWAP1 PUSH2 0x48F JUMP JUMPDEST PUSH1 0x40 MLOAD DUP1 SWAP2 SUB SWAP1 RETURN JUMPDEST PUSH1 0x10 PUSH1 0x0 SWAP1 SLOAD SWAP1 PUSH2 0x100 EXP SWAP1 DIV PUSH20 0xFFFFFFFFFFFFFFFFFFFFFFFFFFFFFFFFFFFFFFFF AND DUP2 JUMP JUMPDEST PUSH1 0xF PUSH1 0x0 SWAP1 SLOAD SWAP1 PUSH2 0x100 EXP SWAP1 DIV PUSH20 0xFFFFFFFFFFFFFFFFFFFFFFFFFFFFFFFFFFFFFFFF AND DUP2 JUMP JUMPDEST PUSH1 0x1 PUSH1 0x0 SWAP1 SLOAD SWAP1 PUSH2 0x100 EXP SWAP1 DIV PUSH1 0xFF AND DUP2 JUMP JUMPDEST PUSH1 0x0 PUSH1 0x10 PUSH1 0x14 SWAP1 SLOAD SWAP1 PUSH2 0x100 EXP SWAP1 DIV PUSH1 0xFF AND SWAP1 POP SWAP1 JUMP JUMPDEST PUSH1 0xD PUSH1 0x0 SWAP1 SLOAD SWAP1 PUSH2 0x100 EXP SWAP1 DIV PUSH1 0x60 SHL DUP2 JUMP JUMPDEST PUSH1 0x3 PUSH1 0x0 SWAP1 SLOAD SWAP1 PUSH2 0x100 EXP SWAP1 DIV PUSH1 0x0 SIGNEXTEND DUP2 JUMP JUMPDEST PUSH1 0x1 PUSH1 0x10 PUSH1 0x14 PUSH2 0x100 EXP DUP2 SLOAD DUP2 PUSH1 0xFF MUL NOT AND SWAP1 DUP4 PUSH1 0x1 DUP2 GT ISZERO PUSH2 0x2BB JUMPI PUSH2 0x2BA PUSH2 0x651 JUMP JUMPDEST JUMPDEST MUL OR SWAP1 SSTORE POP JUMP JUMPDEST PUSH1 0x6 DUP1 SLOAD PUSH2 0x2CF SWAP1 PUSH2 0x61F JUMP JUMPDEST DUP1 PUSH1 0x1F ADD PUSH1 0x20 DUP1 SWAP2 DIV MUL PUSH1 0x20 ADD PUSH1 0x40 MLOAD SWAP1 DUP2 ADD PUSH1 0x40 MSTORE DUP1 SWAP3 SWAP2 SWAP1 DUP2 DUP2 MSTORE PUSH1 0x20 ADD DUP3 DUP1 SLOAD PUSH2 0x2FB SWAP1 PUSH2 0x61F JUMP JUMPDEST DUP1 ISZERO PUSH2 0x348 JUMPI DUP1 PUSH1 0x1F LT PUSH2 0x31D JUMPI PUSH2 0x100 DUP1 DUP4 SLOAD DIV MUL DUP4 MSTORE SWAP2 PUSH1 0x20 ADD SWAP2 PUSH2 0x348 JUMP JUMPDEST DUP3 ADD SWAP2 SWAP1 PUSH1 0x0 MSTORE PUSH1 0x20 PUSH1 0x0 KECCAK256 SWAP1 JUMPDEST DUP2 SLOAD DUP2 MSTORE SWAP1 PUSH1 0x1 ADD SWAP1 PUSH1 0x20 ADD DUP1 DUP4 GT PUSH2 0x32B JUMPI DUP3 SWAP1 SUB PUSH1 0x1F AND DUP3 ADD SWAP2 JUMPDEST POP POP POP POP POP DUP2 JUMP JUMPDEST PUSH1 0x0 PUSH1 0x10 PUSH1 0x14 PUSH2 0x100 EXP DUP2 SLOAD DUP2 PUSH1 0xFF MUL NOT AND SWAP1 DUP4 PUSH1 0x1 DUP2 GT ISZERO PUSH2 0x376 JUMPI PUSH2 0x375 PUSH2 0x651 JUMP JUMPDEST JUMPDEST MUL OR SWAP1 SSTORE POP JUMP JUMPDEST PUSH1 0xC SLOAD DUP2 JUMP JUMPDEST PUSH1 0x8 PUSH1 0x1 SWAP1 SLOAD SWAP1 PUSH2 0x100 EXP SWAP1 DIV PUSH1 0xFF AND DUP2 JUMP JUMPDEST PUSH1 0xB SLOAD DUP2 JUMP JUMPDEST PUSH2 0x3A5 DUP2 PUSH2 0x539 JUMP JUMPDEST DUP3 MSTORE POP POP JUMP JUMPDEST PUSH2 0x3B4 DUP2 PUSH2 0x54B JUMP JUMPDEST DUP3 MSTORE POP POP JUMP JUMPDEST PUSH2 0x3C3 DUP2 PUSH2 0x557 JUMP JUMPDEST DUP3 MSTORE POP POP JUMP JUMPDEST PUSH2 0x3D2 DUP2 PUSH2 0x583 JUMP JUMPDEST DUP3 MSTORE POP POP JUMP JUMPDEST PUSH2 0x3E1 DUP2 PUSH2 0x5DA JUMP JUMPDEST DUP3 MSTORE POP POP JUMP JUMPDEST PUSH2 0x3F0 DUP2 PUSH2 0x5A0 JUMP JUMPDEST DUP3 MSTORE POP POP JUMP JUMPDEST PUSH1 0x0 PUSH2 0x401 DUP3 PUSH2 0x51D JUMP JUMPDEST PUSH2 0x40B DUP2 DUP6 PUSH2 0x528 JUMP JUMPDEST SWAP4 POP PUSH2 0x41B DUP2 DUP6 PUSH1 0x20 DUP7 ADD PUSH2 0x5EC JUMP JUMPDEST PUSH2 0x424 DUP2 PUSH2 0x6AF JUMP JUMPDEST DUP5 ADD SWAP2 POP POP SWAP3 SWAP2 POP POP JUMP JUMPDEST PUSH2 0x438 DUP2 PUSH2 0x5CD JUMP JUMPDEST DUP3 MSTORE POP POP JUMP JUMPDEST PUSH1 0x0 PUSH1 0x20 DUP3 ADD SWAP1 POP PUSH2 0x453 PUSH1 0x0 DUP4 ADD DUP5 PUSH2 0x39C JUMP JUMPDEST SWAP3 SWAP2 POP POP JUMP JUMPDEST PUSH1 0x0 PUSH1 0x20 DUP3 ADD SWAP1 POP PUSH2 0x46E PUSH1 0x0 DUP4 ADD DUP5 PUSH2 0x3AB JUMP JUMPDEST SWAP3 SWAP2 POP POP JUMP JUMPDEST PUSH1 0x0 PUSH1 0x20 DUP3 ADD SWAP1 POP PUSH2 0x489 PUSH1 0x0 DUP4 ADD DUP5 PUSH2 0x3BA JUMP JUMPDEST SWAP3 SWAP2 POP POP JUMP JUMPDEST PUSH1 0x0 PUSH1 0x20 DUP3 ADD SWAP1 POP PUSH2 0x4A4 PUSH1 0x0 DUP4 ADD DUP5 PUSH2 0x3C9 JUMP JUMPDEST SWAP3 SWAP2 POP POP JUMP JUMPDEST PUSH1 0x0 PUSH1 0x20 DUP3 ADD SWAP1 POP PUSH2 0x4BF PUSH1 0x0 DUP4 ADD DUP5 PUSH2 0x3D8 JUMP JUMPDEST SWAP3 SWAP2 POP POP JUMP JUMPDEST PUSH1 0x0 PUSH1 0x20 DUP3 ADD SWAP1 POP PUSH2 0x4DA PUSH1 0x0 DUP4 ADD DUP5 PUSH2 0x3E7 JUMP JUMPDEST SWAP3 SWAP2 POP POP JUMP JUMPDEST PUSH1 0x0 PUSH1 0x20 DUP3 ADD SWAP1 POP DUP2 DUP2 SUB PUSH1 0x0 DUP4 ADD MSTORE PUSH2 0x4FA DUP2 DUP5 PUSH2 0x3F6 JUMP JUMPDEST SWAP1 POP SWAP3 SWAP2 POP POP JUMP JUMPDEST PUSH1 0x0 PUSH1 0x20 DUP3 ADD SWAP1 POP PUSH2 0x517 PUSH1 0x0 DUP4 ADD DUP5 PUSH2 0x42F JUMP JUMPDEST SWAP3 SWAP2 POP POP JUMP JUMPDEST PUSH1 0x0 DUP2 MLOAD SWAP1 POP SWAP2 SWAP1 POP JUMP JUMPDEST PUSH1 0x0 DUP3 DUP3 MSTORE PUSH1 0x20 DUP3 ADD SWAP1 POP SWAP3 SWAP2 POP POP JUMP JUMPDEST PUSH1 0x0 PUSH2 0x544 DUP3 PUSH2 0x5AD JUMP JUMPDEST SWAP1 POP SWAP2 SWAP1 POP JUMP JUMPDEST PUSH1 0x0 DUP2 ISZERO ISZERO SWAP1 POP SWAP2 SWAP1 POP JUMP JUMPDEST PUSH1 0x0 PUSH32 0xFFFFFFFFFFFFFFFFFFFFFFFFFFFFFFFFFFFFFFFF000000000000000000000000 DUP3 AND SWAP1 POP SWAP2 SWAP1 POP JUMP JUMPDEST PUSH1 0x0 DUP2 SWAP1 POP SWAP2 SWAP1 POP JUMP JUMPDEST PUSH1 0x0 DUP2 SWAP1 POP PUSH2 0x59B DUP3 PUSH2 0x6C0 JUMP JUMPDEST SWAP2 SWAP1 POP JUMP JUMPDEST PUSH1 0x0 DUP2 PUSH1 0x0 SIGNEXTEND SWAP1 POP SWAP2 SWAP1 POP JUMP JUMPDEST PUSH1 0x0 PUSH20 0xFFFFFFFFFFFFFFFFFFFFFFFFFFFFFFFFFFFFFFFF DUP3 AND SWAP1 POP SWAP2 SWAP1 POP JUMP JUMPDEST PUSH1 0x0 PUSH1 0xFF DUP3 AND SWAP1 POP SWAP2 SWAP1 POP JUMP JUMPDEST PUSH1 0x0 PUSH2 0x5E5 DUP3 PUSH2 0x58D JUMP JUMPDEST SWAP1 POP SWAP2 SWAP1 POP JUMP JUMPDEST PUSH1 0x0 JUMPDEST DUP4 DUP2 LT ISZERO PUSH2 0x60A JUMPI DUP1 DUP3 ADD MLOAD DUP2 DUP5 ADD MSTORE PUSH1 0x20 DUP2 ADD SWAP1 POP PUSH2 0x5EF JUMP JUMPDEST DUP4 DUP2 GT ISZERO PUSH2 0x619 JUMPI PUSH1 0x0 DUP5 DUP5 ADD MSTORE JUMPDEST POP POP POP POP JUMP JUMPDEST PUSH1 0x0 PUSH1 0x2 DUP3 DIV SWAP1 POP PUSH1 0x1 DUP3 AND DUP1 PUSH2 0x637 JUMPI PUSH1 0x7F DUP3 AND SWAP2 POP JUMPDEST PUSH1 0x20 DUP3 LT DUP2 EQ ISZERO PUSH2 0x64B JUMPI PUSH2 0x64A PUSH2 0x680 JUMP JUMPDEST JUMPDEST POP SWAP2 SWAP1 POP JUMP JUMPDEST PUSH32 0x4E487B7100000000000000000000000000000000000000000000000000000000 PUSH1 0x0 MSTORE PUSH1 0x21 PUSH1 0x4 MSTORE PUSH1 0x24 PUSH1 0x0 REVERT JUMPDEST PUSH32 0x4E487B7100000000000000000000000000000000000000000000000000000000 PUSH1 0x0 MSTORE PUSH1 0x22 PUSH1 0x4 MSTORE PUSH1 0x24 PUSH1 0x0 REVERT JUMPDEST PUSH1 0x0 PUSH1 0x1F NOT PUSH1 0x1F DUP4 ADD AND SWAP1 POP SWAP2 SWAP1 POP JUMP JUMPDEST PUSH1 0x2 DUP2 LT PUSH2 0x6D1 JUMPI PUSH2 0x6D0 PUSH2 0x651 JUMP JUMPDEST JUMPDEST POP JUMP INVALID LOG2 PUSH5 0x6970667358 0x22 SLT KECCAK256 0xDB 0xEE PUSH9 0xCE4C71B931C7104201 0xE8 SAR SWAP15 0xD SLT 0xBC DUP15 0xB5 0xBD BALANCE RETURN REVERT 0x27 NOT BASEFEE 0xBA EXP 0xC4 MSTORE 0xCF PUSH5 0x736F6C6343 STOP ADDMOD SMOD STOP CALLER "
				},
				"gasEstimates": {
					"creation": {
						"codeDepositCost": "360400",
						"executionCost": "infinite",
						"totalCost": "infinite"
					},
					"external": {
						"addres2()": "2515",
						"address1()": "2537",
						"b()": "2516",
						"boolean_public()": "2609",
						"d()": "2586",
						"displayState()": "2685",
						"hashing()": "2539",
						"hashing_ripemd160()": "2560",
						"hashing_sha256()": "2495",
						"str_public()": "infinite",
						"turnOff()": "24481",
						"turnOn()": "24525"
					}
				},
				"methodIdentifiers": {
					"addres2()": "16bdcf12",
					"address1()": "3a36399e",
					"b()": "4df7e3d0",
					"boolean_public()": "c81d6270",
					"d()": "8a054ac2",
					"displayState()": "7272eea1",
					"hashing()": "cd97d84e",
					"hashing_ripemd160()": "7a68ef7f",
					"hashing_sha256()": "c7109d04",
					"str_public()": "b83d07b7",
					"turnOff()": "af10c810",
					"turnOn()": "ba33ed7d"
				}
			},
			"storageLayout": {
				"storage": [
					{
						"astId": 3,
						"contract": "contracts/2_variables_modifiers.sol:variables_modifiers",
						"label": "a",
						"offset": 0,
						"slot": "0",
						"type": "t_uint256"
					},
					{
						"astId": 6,
						"contract": "contracts/2_variables_modifiers.sol:variables_modifiers",
						"label": "b",
						"offset": 0,
						"slot": "1",
						"type": "t_uint8"
					},
					{
						"astId": 8,
						"contract": "contracts/2_variables_modifiers.sol:variables_modifiers",
						"label": "c",
						"offset": 0,
						"slot": "2",
						"type": "t_int256"
					},
					{
						"astId": 12,
						"contract": "contracts/2_variables_modifiers.sol:variables_modifiers",
						"label": "d",
						"offset": 0,
						"slot": "3",
						"type": "t_int8"
					},
					{
						"astId": 15,
						"contract": "contracts/2_variables_modifiers.sol:variables_modifiers",
						"label": "e",
						"offset": 0,
						"slot": "4",
						"type": "t_int256"
					},
					{
						"astId": 17,
						"contract": "contracts/2_variables_modifiers.sol:variables_modifiers",
						"label": "str",
						"offset": 0,
						"slot": "5",
						"type": "t_string_storage"
					},
					{
						"astId": 20,
						"contract": "contracts/2_variables_modifiers.sol:variables_modifiers",
						"label": "str_public",
						"offset": 0,
						"slot": "6",
						"type": "t_string_storage"
					},
					{
						"astId": 23,
						"contract": "contracts/2_variables_modifiers.sol:variables_modifiers",
						"label": "str_private",
						"offset": 0,
						"slot": "7",
						"type": "t_string_storage"
					},
					{
						"astId": 25,
						"contract": "contracts/2_variables_modifiers.sol:variables_modifiers",
						"label": "boolean",
						"offset": 0,
						"slot": "8",
						"type": "t_bool"
					},
					{
						"astId": 28,
						"contract": "contracts/2_variables_modifiers.sol:variables_modifiers",
						"label": "boolean_public",
						"offset": 1,
						"slot": "8",
						"type": "t_bool"
					},
					{
						"astId": 31,
						"contract": "contracts/2_variables_modifiers.sol:variables_modifiers",
						"label": "boolean_private",
						"offset": 2,
						"slot": "8",
						"type": "t_bool"
					},
					{
						"astId": 33,
						"contract": "contracts/2_variables_modifiers.sol:variables_modifiers",
						"label": "first_bytes",
						"offset": 0,
						"slot": "9",
						"type": "t_bytes32"
					},
					{
						"astId": 35,
						"contract": "contracts/2_variables_modifiers.sol:variables_modifiers",
						"label": "second_bytes",
						"offset": 0,
						"slot": "10",
						"type": "t_bytes4"
					},
					{
						"astId": 37,
						"contract": "contracts/2_variables_modifiers.sol:variables_modifiers",
						"label": "bytes_1",
						"offset": 4,
						"slot": "10",
						"type": "t_bytes1"
					},
					{
						"astId": 52,
						"contract": "contracts/2_variables_modifiers.sol:variables_modifiers",
						"label": "hashing",
						"offset": 0,
						"slot": "11",
						"type": "t_bytes32"
					},
					{
						"astId": 60,
						"contract": "contracts/2_variables_modifiers.sol:variables_modifiers",
						"label": "hashing_sha256",
						"offset": 0,
						"slot": "12",
						"type": "t_bytes32"
					},
					{
						"astId": 68,
						"contract": "contracts/2_variables_modifiers.sol:variables_modifiers",
						"label": "hashing_ripemd160",
						"offset": 0,
						"slot": "13",
						"type": "t_bytes20"
					},
					{
						"astId": 70,
						"contract": "contracts/2_variables_modifiers.sol:variables_modifiers",
						"label": "my_address",
						"offset": 0,
						"slot": "14",
						"type": "t_address"
					},
					{
						"astId": 73,
						"contract": "contracts/2_variables_modifiers.sol:variables_modifiers",
						"label": "address1",
						"offset": 0,
						"slot": "15",
						"type": "t_address"
					},
					{
						"astId": 77,
						"contract": "contracts/2_variables_modifiers.sol:variables_modifiers",
						"label": "addres2",
						"offset": 0,
						"slot": "16",
						"type": "t_address"
					},
					{
						"astId": 83,
						"contract": "contracts/2_variables_modifiers.sol:variables_modifiers",
						"label": "state",
						"offset": 20,
						"slot": "16",
						"type": "t_enum(options)80"
					}
				],
				"types": {
					"t_address": {
						"encoding": "inplace",
						"label": "address",
						"numberOfBytes": "20"
					},
					"t_bool": {
						"encoding": "inplace",
						"label": "bool",
						"numberOfBytes": "1"
					},
					"t_bytes1": {
						"encoding": "inplace",
						"label": "bytes1",
						"numberOfBytes": "1"
					},
					"t_bytes20": {
						"encoding": "inplace",
						"label": "bytes20",
						"numberOfBytes": "20"
					},
					"t_bytes32": {
						"encoding": "inplace",
						"label": "bytes32",
						"numberOfBytes": "32"
					},
					"t_bytes4": {
						"encoding": "inplace",
						"label": "bytes4",
						"numberOfBytes": "4"
					},
					"t_enum(options)80": {
						"encoding": "inplace",
						"label": "enum variables_modifiers.options",
						"numberOfBytes": "1"
					},
					"t_int256": {
						"encoding": "inplace",
						"label": "int256",
						"numberOfBytes": "32"
					},
					"t_int8": {
						"encoding": "inplace",
						"label": "int8",
						"numberOfBytes": "1"
					},
					"t_string_storage": {
						"encoding": "bytes",
						"label": "string",
						"numberOfBytes": "32"
					},
					"t_uint256": {
						"encoding": "inplace",
						"label": "uint256",
						"numberOfBytes": "32"
					},
					"t_uint8": {
						"encoding": "inplace",
						"label": "uint8",
						"numberOfBytes": "1"
					}
				}
			},
			"userdoc": {
				"kind": "user",
				"methods": {},
				"version": 1
			}
		}
	}
}