{
	"contracts/8_bucles_condicionales.sol": {
		"loops_conditionals": {
			"abi": [
				{
					"inputs": [],
					"name": "odd",
					"outputs": [
						{
							"internalType": "uint256",
							"name": "",
							"type": "uint256"
						}
					],
					"stateMutability": "pure",
					"type": "function"
				},
				{
					"inputs": [
						{
							"internalType": "uint256",
							"name": "_number",
							"type": "uint256"
						}
					],
					"name": "sum",
					"outputs": [
						{
							"internalType": "uint256",
							"name": "",
							"type": "uint256"
						}
					],
					"stateMutability": "pure",
					"type": "function"
				},
				{
					"inputs": [
						{
							"internalType": "string",
							"name": "operation",
							"type": "string"
						},
						{
							"internalType": "uint256",
							"name": "a",
							"type": "uint256"
						},
						{
							"internalType": "uint256",
							"name": "b",
							"type": "uint256"
						}
					],
					"name": "sum_rest",
					"outputs": [
						{
							"internalType": "uint256",
							"name": "",
							"type": "uint256"
						}
					],
					"stateMutability": "pure",
					"type": "function"
				}
			],
			"devdoc": {
				"kind": "dev",
				"methods": {},
				"version": 1
			},
			"evm": {
				"assembly": "    /* \"contracts/8_bucles_condicionales.sol\":62:1220  contract loops_conditionals {\r... */\n  mstore(0x40, 0x80)\n  callvalue\n  dup1\n  iszero\n  tag_1\n  jumpi\n  0x00\n  dup1\n  revert\ntag_1:\n  pop\n  dataSize(sub_0)\n  dup1\n  dataOffset(sub_0)\n  0x00\n  codecopy\n  0x00\n  return\nstop\n\nsub_0: assembly {\n        /* \"contracts/8_bucles_condicionales.sol\":62:1220  contract loops_conditionals {\r... */\n      mstore(0x40, 0x80)\n      callvalue\n      dup1\n      iszero\n      tag_1\n      jumpi\n      0x00\n      dup1\n      revert\n    tag_1:\n      pop\n      jumpi(tag_2, lt(calldatasize, 0x04))\n      shr(0xe0, calldataload(0x00))\n      dup1\n      0x188b85b4\n      eq\n      tag_3\n      jumpi\n      dup1\n      0xafee9911\n      eq\n      tag_4\n      jumpi\n      dup1\n      0xc12363a2\n      eq\n      tag_5\n      jumpi\n    tag_2:\n      0x00\n      dup1\n      revert\n        /* \"contracts/8_bucles_condicionales.sol\":173:418  function sum(uint _number) public pure returns (uint){\r... */\n    tag_3:\n      tag_6\n      0x04\n      dup1\n      calldatasize\n      sub\n      dup2\n      add\n      swap1\n      tag_7\n      swap2\n      swap1\n      tag_8\n      jump\t// in\n    tag_7:\n      tag_9\n      jump\t// in\n    tag_6:\n      mload(0x40)\n      tag_10\n      swap2\n      swap1\n      tag_11\n      jump\t// in\n    tag_10:\n      mload(0x40)\n      dup1\n      swap2\n      sub\n      swap1\n      return\n        /* \"contracts/8_bucles_condicionales.sol\":842:1215  function sum_rest(string memory operation, uint a, uint b) public pure returns (uint){\r... */\n    tag_4:\n      tag_12\n      0x04\n      dup1\n      calldatasize\n      sub\n      dup2\n      add\n      swap1\n      tag_13\n      swap2\n      swap1\n      tag_14\n      jump\t// in\n    tag_13:\n      tag_15\n      jump\t// in\n    tag_12:\n      mload(0x40)\n      tag_16\n      swap2\n      swap1\n      tag_11\n      jump\t// in\n    tag_16:\n      mload(0x40)\n      dup1\n      swap2\n      sub\n      swap1\n      return\n        /* \"contracts/8_bucles_condicionales.sol\":474:834  function odd() public pure returns (uint){\r... */\n    tag_5:\n      tag_17\n      tag_18\n      jump\t// in\n    tag_17:\n      mload(0x40)\n      tag_19\n      swap2\n      swap1\n      tag_11\n      jump\t// in\n    tag_19:\n      mload(0x40)\n      dup1\n      swap2\n      sub\n      swap1\n      return\n        /* \"contracts/8_bucles_condicionales.sol\":173:418  function sum(uint _number) public pure returns (uint){\r... */\n    tag_9:\n        /* \"contracts/8_bucles_condicionales.sol\":221:225  uint */\n      0x00\n        /* \"contracts/8_bucles_condicionales.sol\":237:249  uint aux_sum */\n      dup1\n        /* \"contracts/8_bucles_condicionales.sol\":252:253  0 */\n      0x00\n        /* \"contracts/8_bucles_condicionales.sol\":237:253  uint aux_sum = 0 */\n      swap1\n      pop\n        /* \"contracts/8_bucles_condicionales.sol\":292:298  uint i */\n      0x00\n        /* \"contracts/8_bucles_condicionales.sol\":301:308  _number */\n      dup4\n        /* \"contracts/8_bucles_condicionales.sol\":292:308  uint i = _number */\n      swap1\n      pop\n        /* \"contracts/8_bucles_condicionales.sol\":288:382  for(uint i = _number; i < (10 + _number); i++){\r... */\n    tag_21:\n        /* \"contracts/8_bucles_condicionales.sol\":320:327  _number */\n      dup4\n        /* \"contracts/8_bucles_condicionales.sol\":315:317  10 */\n      0x0a\n        /* \"contracts/8_bucles_condicionales.sol\":315:327  10 + _number */\n      tag_24\n      swap2\n      swap1\n      tag_25\n      jump\t// in\n    tag_24:\n        /* \"contracts/8_bucles_condicionales.sol\":310:311  i */\n      dup2\n        /* \"contracts/8_bucles_condicionales.sol\":310:328  i < (10 + _number) */\n      lt\n        /* \"contracts/8_bucles_condicionales.sol\":288:382  for(uint i = _number; i < (10 + _number); i++){\r... */\n      iszero\n      tag_22\n      jumpi\n        /* \"contracts/8_bucles_condicionales.sol\":369:370  i */\n      dup1\n        /* \"contracts/8_bucles_condicionales.sol\":359:366  aux_sum */\n      dup3\n        /* \"contracts/8_bucles_condicionales.sol\":359:370  aux_sum + i */\n      tag_26\n      swap2\n      swap1\n      tag_25\n      jump\t// in\n    tag_26:\n        /* \"contracts/8_bucles_condicionales.sol\":349:370  aux_sum = aux_sum + i */\n      swap2\n      pop\n        /* \"contracts/8_bucles_condicionales.sol\":330:333  i++ */\n      dup1\n      dup1\n      tag_27\n      swap1\n      tag_28\n      jump\t// in\n    tag_27:\n      swap2\n      pop\n      pop\n        /* \"contracts/8_bucles_condicionales.sol\":288:382  for(uint i = _number; i < (10 + _number); i++){\r... */\n      jump(tag_21)\n    tag_22:\n      pop\n        /* \"contracts/8_bucles_condicionales.sol\":401:408  aux_sum */\n      dup1\n        /* \"contracts/8_bucles_condicionales.sol\":394:408  return aux_sum */\n      swap2\n      pop\n      pop\n        /* \"contracts/8_bucles_condicionales.sol\":173:418  function sum(uint _number) public pure returns (uint){\r... */\n      swap2\n      swap1\n      pop\n      jump\t// out\n        /* \"contracts/8_bucles_condicionales.sol\":842:1215  function sum_rest(string memory operation, uint a, uint b) public pure returns (uint){\r... */\n    tag_15:\n        /* \"contracts/8_bucles_condicionales.sol\":922:926  uint */\n      0x00\n        /* \"contracts/8_bucles_condicionales.sol\":999:1021  bytes32 hash_operation */\n      dup1\n        /* \"contracts/8_bucles_condicionales.sol\":1051:1060  operation */\n      dup5\n        /* \"contracts/8_bucles_condicionales.sol\":1034:1061  abi.encodePacked(operation) */\n      add(0x20, mload(0x40))\n      tag_30\n      swap2\n      swap1\n      tag_31\n      jump\t// in\n    tag_30:\n      mload(0x40)\n      0x20\n      dup2\n      dup4\n      sub\n      sub\n      dup2\n      mstore\n      swap1\n      0x40\n      mstore\n        /* \"contracts/8_bucles_condicionales.sol\":1024:1062  keccak256(abi.encodePacked(operation)) */\n      dup1\n      mload\n      swap1\n      0x20\n      add\n      keccak256\n        /* \"contracts/8_bucles_condicionales.sol\":999:1062  bytes32 hash_operation = keccak256(abi.encodePacked(operation)) */\n      swap1\n      pop\n        /* \"contracts/8_bucles_condicionales.sol\":1104:1128  abi.encodePacked(\"suma\") */\n      add(0x20, mload(0x40))\n      tag_32\n      swap1\n      tag_33\n      jump\t// in\n    tag_32:\n      mload(0x40)\n      0x20\n      dup2\n      dup4\n      sub\n      sub\n      dup2\n      mstore\n      swap1\n      0x40\n      mstore\n        /* \"contracts/8_bucles_condicionales.sol\":1094:1129  keccak256(abi.encodePacked(\"suma\")) */\n      dup1\n      mload\n      swap1\n      0x20\n      add\n      keccak256\n        /* \"contracts/8_bucles_condicionales.sol\":1076:1090  hash_operation */\n      dup2\n        /* \"contracts/8_bucles_condicionales.sol\":1076:1129  hash_operation == keccak256(abi.encodePacked(\"suma\")) */\n      eq\n        /* \"contracts/8_bucles_condicionales.sol\":1073:1208  if(hash_operation == keccak256(abi.encodePacked(\"suma\"))){\r... */\n      iszero\n      tag_34\n      jumpi\n        /* \"contracts/8_bucles_condicionales.sol\":1154:1155  b */\n      dup3\n        /* \"contracts/8_bucles_condicionales.sol\":1152:1153  a */\n      dup5\n        /* \"contracts/8_bucles_condicionales.sol\":1152:1155  a+b */\n      tag_35\n      swap2\n      swap1\n      tag_25\n      jump\t// in\n    tag_35:\n        /* \"contracts/8_bucles_condicionales.sol\":1145:1155  return a+b */\n      swap2\n      pop\n      pop\n      jump(tag_29)\n        /* \"contracts/8_bucles_condicionales.sol\":1073:1208  if(hash_operation == keccak256(abi.encodePacked(\"suma\"))){\r... */\n    tag_34:\n        /* \"contracts/8_bucles_condicionales.sol\":1195:1196  b */\n      dup3\n        /* \"contracts/8_bucles_condicionales.sol\":1193:1194  a */\n      dup5\n        /* \"contracts/8_bucles_condicionales.sol\":1193:1196  a-b */\n      tag_37\n      swap2\n      swap1\n      tag_38\n      jump\t// in\n    tag_37:\n        /* \"contracts/8_bucles_condicionales.sol\":1186:1196  return a-b */\n      swap2\n      pop\n      pop\n        /* \"contracts/8_bucles_condicionales.sol\":842:1215  function sum_rest(string memory operation, uint a, uint b) public pure returns (uint){\r... */\n    tag_29:\n      swap4\n      swap3\n      pop\n      pop\n      pop\n      jump\t// out\n        /* \"contracts/8_bucles_condicionales.sol\":474:834  function odd() public pure returns (uint){\r... */\n    tag_18:\n        /* \"contracts/8_bucles_condicionales.sol\":510:514  uint */\n      0x00\n        /* \"contracts/8_bucles_condicionales.sol\":526:538  uint aux_sum */\n      dup1\n        /* \"contracts/8_bucles_condicionales.sol\":541:542  0 */\n      0x00\n        /* \"contracts/8_bucles_condicionales.sol\":526:542  uint aux_sum = 0 */\n      swap1\n      pop\n        /* \"contracts/8_bucles_condicionales.sol\":553:565  uint counter */\n      0x00\n        /* \"contracts/8_bucles_condicionales.sol\":580:596  uint counter_odd */\n      dup1\n        /* \"contracts/8_bucles_condicionales.sol\":613:800  while(counter_odd < 10){\r... */\n    tag_40:\n        /* \"contracts/8_bucles_condicionales.sol\":633:635  10 */\n      0x0a\n        /* \"contracts/8_bucles_condicionales.sol\":619:630  counter_odd */\n      dup2\n        /* \"contracts/8_bucles_condicionales.sol\":619:635  counter_odd < 10 */\n      lt\n        /* \"contracts/8_bucles_condicionales.sol\":613:800  while(counter_odd < 10){\r... */\n      iszero\n      tag_41\n      jumpi\n        /* \"contracts/8_bucles_condicionales.sol\":669:670  0 */\n      0x00\n        /* \"contracts/8_bucles_condicionales.sol\":664:665  2 */\n      0x02\n        /* \"contracts/8_bucles_condicionales.sol\":654:661  counter */\n      dup4\n        /* \"contracts/8_bucles_condicionales.sol\":654:665  counter % 2 */\n      tag_42\n      swap2\n      swap1\n      tag_43\n      jump\t// in\n    tag_42:\n        /* \"contracts/8_bucles_condicionales.sol\":654:670  counter % 2 != 0 */\n      eq\n        /* \"contracts/8_bucles_condicionales.sol\":651:765  if(counter % 2 != 0){\r... */\n      tag_44\n      jumpi\n        /* \"contracts/8_bucles_condicionales.sol\":710:717  counter */\n      dup2\n        /* \"contracts/8_bucles_condicionales.sol\":700:707  aux_sum */\n      dup4\n        /* \"contracts/8_bucles_condicionales.sol\":700:717  aux_sum + counter */\n      tag_45\n      swap2\n      swap1\n      tag_25\n      jump\t// in\n    tag_45:\n        /* \"contracts/8_bucles_condicionales.sol\":690:717  aux_sum = aux_sum + counter */\n      swap3\n      pop\n        /* \"contracts/8_bucles_condicionales.sol\":736:749  counter_odd++ */\n      dup1\n      dup1\n      tag_46\n      swap1\n      tag_28\n      jump\t// in\n    tag_46:\n      swap2\n      pop\n      pop\n        /* \"contracts/8_bucles_condicionales.sol\":651:765  if(counter % 2 != 0){\r... */\n    tag_44:\n        /* \"contracts/8_bucles_condicionales.sol\":779:788  counter++ */\n      dup2\n      dup1\n      tag_47\n      swap1\n      tag_28\n      jump\t// in\n    tag_47:\n      swap3\n      pop\n      pop\n        /* \"contracts/8_bucles_condicionales.sol\":613:800  while(counter_odd < 10){\r... */\n      jump(tag_40)\n    tag_41:\n        /* \"contracts/8_bucles_condicionales.sol\":819:826  aux_sum */\n      dup3\n        /* \"contracts/8_bucles_condicionales.sol\":812:826  return aux_sum */\n      swap4\n      pop\n      pop\n      pop\n      pop\n        /* \"contracts/8_bucles_condicionales.sol\":474:834  function odd() public pure returns (uint){\r... */\n      swap1\n      jump\t// out\n        /* \"#utility.yul\":7:419   */\n    tag_49:\n        /* \"#utility.yul\":85:90   */\n      0x00\n        /* \"#utility.yul\":110:176   */\n      tag_51\n        /* \"#utility.yul\":126:175   */\n      tag_52\n        /* \"#utility.yul\":168:174   */\n      dup5\n        /* \"#utility.yul\":126:175   */\n      tag_53\n      jump\t// in\n    tag_52:\n        /* \"#utility.yul\":110:176   */\n      tag_54\n      jump\t// in\n    tag_51:\n        /* \"#utility.yul\":101:176   */\n      swap1\n      pop\n        /* \"#utility.yul\":199:205   */\n      dup3\n        /* \"#utility.yul\":192:197   */\n      dup2\n        /* \"#utility.yul\":185:206   */\n      mstore\n        /* \"#utility.yul\":237:241   */\n      0x20\n        /* \"#utility.yul\":230:235   */\n      dup2\n        /* \"#utility.yul\":226:242   */\n      add\n        /* \"#utility.yul\":275:278   */\n      dup5\n        /* \"#utility.yul\":266:272   */\n      dup5\n        /* \"#utility.yul\":261:264   */\n      dup5\n        /* \"#utility.yul\":257:273   */\n      add\n        /* \"#utility.yul\":254:279   */\n      gt\n        /* \"#utility.yul\":251:363   */\n      iszero\n      tag_55\n      jumpi\n        /* \"#utility.yul\":282:361   */\n      tag_56\n      tag_57\n      jump\t// in\n    tag_56:\n        /* \"#utility.yul\":251:363   */\n    tag_55:\n        /* \"#utility.yul\":372:413   */\n      tag_58\n        /* \"#utility.yul\":406:412   */\n      dup5\n        /* \"#utility.yul\":401:404   */\n      dup3\n        /* \"#utility.yul\":396:399   */\n      dup6\n        /* \"#utility.yul\":372:413   */\n      tag_59\n      jump\t// in\n    tag_58:\n        /* \"#utility.yul\":91:419   */\n      pop\n        /* \"#utility.yul\":7:419   */\n      swap4\n      swap3\n      pop\n      pop\n      pop\n      jump\t// out\n        /* \"#utility.yul\":439:779   */\n    tag_60:\n        /* \"#utility.yul\":495:500   */\n      0x00\n        /* \"#utility.yul\":544:547   */\n      dup3\n        /* \"#utility.yul\":537:541   */\n      0x1f\n        /* \"#utility.yul\":529:535   */\n      dup4\n        /* \"#utility.yul\":525:542   */\n      add\n        /* \"#utility.yul\":521:548   */\n      slt\n        /* \"#utility.yul\":511:633   */\n      tag_62\n      jumpi\n        /* \"#utility.yul\":552:631   */\n      tag_63\n      tag_64\n      jump\t// in\n    tag_63:\n        /* \"#utility.yul\":511:633   */\n    tag_62:\n        /* \"#utility.yul\":669:675   */\n      dup2\n        /* \"#utility.yul\":656:676   */\n      calldataload\n        /* \"#utility.yul\":694:773   */\n      tag_65\n        /* \"#utility.yul\":769:772   */\n      dup5\n        /* \"#utility.yul\":761:767   */\n      dup3\n        /* \"#utility.yul\":754:758   */\n      0x20\n        /* \"#utility.yul\":746:752   */\n      dup7\n        /* \"#utility.yul\":742:759   */\n      add\n        /* \"#utility.yul\":694:773   */\n      tag_49\n      jump\t// in\n    tag_65:\n        /* \"#utility.yul\":685:773   */\n      swap2\n      pop\n        /* \"#utility.yul\":501:779   */\n      pop\n        /* \"#utility.yul\":439:779   */\n      swap3\n      swap2\n      pop\n      pop\n      jump\t// out\n        /* \"#utility.yul\":785:924   */\n    tag_66:\n        /* \"#utility.yul\":831:836   */\n      0x00\n        /* \"#utility.yul\":869:875   */\n      dup2\n        /* \"#utility.yul\":856:876   */\n      calldataload\n        /* \"#utility.yul\":847:876   */\n      swap1\n      pop\n        /* \"#utility.yul\":885:918   */\n      tag_68\n        /* \"#utility.yul\":912:917   */\n      dup2\n        /* \"#utility.yul\":885:918   */\n      tag_69\n      jump\t// in\n    tag_68:\n        /* \"#utility.yul\":785:924   */\n      swap3\n      swap2\n      pop\n      pop\n      jump\t// out\n        /* \"#utility.yul\":930:1729   */\n    tag_14:\n        /* \"#utility.yul\":1017:1023   */\n      0x00\n        /* \"#utility.yul\":1025:1031   */\n      dup1\n        /* \"#utility.yul\":1033:1039   */\n      0x00\n        /* \"#utility.yul\":1082:1084   */\n      0x60\n        /* \"#utility.yul\":1070:1079   */\n      dup5\n        /* \"#utility.yul\":1061:1068   */\n      dup7\n        /* \"#utility.yul\":1057:1080   */\n      sub\n        /* \"#utility.yul\":1053:1085   */\n      slt\n        /* \"#utility.yul\":1050:1169   */\n      iszero\n      tag_71\n      jumpi\n        /* \"#utility.yul\":1088:1167   */\n      tag_72\n      tag_73\n      jump\t// in\n    tag_72:\n        /* \"#utility.yul\":1050:1169   */\n    tag_71:\n        /* \"#utility.yul\":1236:1237   */\n      0x00\n        /* \"#utility.yul\":1225:1234   */\n      dup5\n        /* \"#utility.yul\":1221:1238   */\n      add\n        /* \"#utility.yul\":1208:1239   */\n      calldataload\n        /* \"#utility.yul\":1266:1284   */\n      0xffffffffffffffff\n        /* \"#utility.yul\":1258:1264   */\n      dup2\n        /* \"#utility.yul\":1255:1285   */\n      gt\n        /* \"#utility.yul\":1252:1369   */\n      iszero\n      tag_74\n      jumpi\n        /* \"#utility.yul\":1288:1367   */\n      tag_75\n      tag_76\n      jump\t// in\n    tag_75:\n        /* \"#utility.yul\":1252:1369   */\n    tag_74:\n        /* \"#utility.yul\":1393:1456   */\n      tag_77\n        /* \"#utility.yul\":1448:1455   */\n      dup7\n        /* \"#utility.yul\":1439:1445   */\n      dup3\n        /* \"#utility.yul\":1428:1437   */\n      dup8\n        /* \"#utility.yul\":1424:1446   */\n      add\n        /* \"#utility.yul\":1393:1456   */\n      tag_60\n      jump\t// in\n    tag_77:\n        /* \"#utility.yul\":1383:1456   */\n      swap4\n      pop\n        /* \"#utility.yul\":1179:1466   */\n      pop\n        /* \"#utility.yul\":1505:1507   */\n      0x20\n        /* \"#utility.yul\":1531:1584   */\n      tag_78\n        /* \"#utility.yul\":1576:1583   */\n      dup7\n        /* \"#utility.yul\":1567:1573   */\n      dup3\n        /* \"#utility.yul\":1556:1565   */\n      dup8\n        /* \"#utility.yul\":1552:1574   */\n      add\n        /* \"#utility.yul\":1531:1584   */\n      tag_66\n      jump\t// in\n    tag_78:\n        /* \"#utility.yul\":1521:1584   */\n      swap3\n      pop\n        /* \"#utility.yul\":1476:1594   */\n      pop\n        /* \"#utility.yul\":1633:1635   */\n      0x40\n        /* \"#utility.yul\":1659:1712   */\n      tag_79\n        /* \"#utility.yul\":1704:1711   */\n      dup7\n        /* \"#utility.yul\":1695:1701   */\n      dup3\n        /* \"#utility.yul\":1684:1693   */\n      dup8\n        /* \"#utility.yul\":1680:1702   */\n      add\n        /* \"#utility.yul\":1659:1712   */\n      tag_66\n      jump\t// in\n    tag_79:\n        /* \"#utility.yul\":1649:1712   */\n      swap2\n      pop\n        /* \"#utility.yul\":1604:1722   */\n      pop\n        /* \"#utility.yul\":930:1729   */\n      swap3\n      pop\n      swap3\n      pop\n      swap3\n      jump\t// out\n        /* \"#utility.yul\":1735:2064   */\n    tag_8:\n        /* \"#utility.yul\":1794:1800   */\n      0x00\n        /* \"#utility.yul\":1843:1845   */\n      0x20\n        /* \"#utility.yul\":1831:1840   */\n      dup3\n        /* \"#utility.yul\":1822:1829   */\n      dup5\n        /* \"#utility.yul\":1818:1841   */\n      sub\n        /* \"#utility.yul\":1814:1846   */\n      slt\n        /* \"#utility.yul\":1811:1930   */\n      iszero\n      tag_81\n      jumpi\n        /* \"#utility.yul\":1849:1928   */\n      tag_82\n      tag_73\n      jump\t// in\n    tag_82:\n        /* \"#utility.yul\":1811:1930   */\n    tag_81:\n        /* \"#utility.yul\":1969:1970   */\n      0x00\n        /* \"#utility.yul\":1994:2047   */\n      tag_83\n        /* \"#utility.yul\":2039:2046   */\n      dup5\n        /* \"#utility.yul\":2030:2036   */\n      dup3\n        /* \"#utility.yul\":2019:2028   */\n      dup6\n        /* \"#utility.yul\":2015:2037   */\n      add\n        /* \"#utility.yul\":1994:2047   */\n      tag_66\n      jump\t// in\n    tag_83:\n        /* \"#utility.yul\":1984:2047   */\n      swap2\n      pop\n        /* \"#utility.yul\":1940:2057   */\n      pop\n        /* \"#utility.yul\":1735:2064   */\n      swap3\n      swap2\n      pop\n      pop\n      jump\t// out\n        /* \"#utility.yul\":2070:2447   */\n    tag_84:\n        /* \"#utility.yul\":2176:2179   */\n      0x00\n        /* \"#utility.yul\":2204:2243   */\n      tag_86\n        /* \"#utility.yul\":2237:2242   */\n      dup3\n        /* \"#utility.yul\":2204:2243   */\n      tag_87\n      jump\t// in\n    tag_86:\n        /* \"#utility.yul\":2259:2348   */\n      tag_88\n        /* \"#utility.yul\":2341:2347   */\n      dup2\n        /* \"#utility.yul\":2336:2339   */\n      dup6\n        /* \"#utility.yul\":2259:2348   */\n      tag_89\n      jump\t// in\n    tag_88:\n        /* \"#utility.yul\":2252:2348   */\n      swap4\n      pop\n        /* \"#utility.yul\":2357:2409   */\n      tag_90\n        /* \"#utility.yul\":2402:2408   */\n      dup2\n        /* \"#utility.yul\":2397:2400   */\n      dup6\n        /* \"#utility.yul\":2390:2394   */\n      0x20\n        /* \"#utility.yul\":2383:2388   */\n      dup7\n        /* \"#utility.yul\":2379:2395   */\n      add\n        /* \"#utility.yul\":2357:2409   */\n      tag_91\n      jump\t// in\n    tag_90:\n        /* \"#utility.yul\":2434:2440   */\n      dup1\n        /* \"#utility.yul\":2429:2432   */\n      dup5\n        /* \"#utility.yul\":2425:2441   */\n      add\n        /* \"#utility.yul\":2418:2441   */\n      swap2\n      pop\n        /* \"#utility.yul\":2180:2447   */\n      pop\n        /* \"#utility.yul\":2070:2447   */\n      swap3\n      swap2\n      pop\n      pop\n      jump\t// out\n        /* \"#utility.yul\":2453:2853   */\n    tag_92:\n        /* \"#utility.yul\":2613:2616   */\n      0x00\n        /* \"#utility.yul\":2634:2718   */\n      tag_94\n        /* \"#utility.yul\":2716:2717   */\n      0x04\n        /* \"#utility.yul\":2711:2714   */\n      dup4\n        /* \"#utility.yul\":2634:2718   */\n      tag_89\n      jump\t// in\n    tag_94:\n        /* \"#utility.yul\":2627:2718   */\n      swap2\n      pop\n        /* \"#utility.yul\":2727:2820   */\n      tag_95\n        /* \"#utility.yul\":2816:2819   */\n      dup3\n        /* \"#utility.yul\":2727:2820   */\n      tag_96\n      jump\t// in\n    tag_95:\n        /* \"#utility.yul\":2845:2846   */\n      0x04\n        /* \"#utility.yul\":2840:2843   */\n      dup3\n        /* \"#utility.yul\":2836:2847   */\n      add\n        /* \"#utility.yul\":2829:2847   */\n      swap1\n      pop\n        /* \"#utility.yul\":2453:2853   */\n      swap2\n      swap1\n      pop\n      jump\t// out\n        /* \"#utility.yul\":2859:2977   */\n    tag_97:\n        /* \"#utility.yul\":2946:2970   */\n      tag_99\n        /* \"#utility.yul\":2964:2969   */\n      dup2\n        /* \"#utility.yul\":2946:2970   */\n      tag_100\n      jump\t// in\n    tag_99:\n        /* \"#utility.yul\":2941:2944   */\n      dup3\n        /* \"#utility.yul\":2934:2971   */\n      mstore\n        /* \"#utility.yul\":2859:2977   */\n      pop\n      pop\n      jump\t// out\n        /* \"#utility.yul\":2983:3258   */\n    tag_31:\n        /* \"#utility.yul\":3115:3118   */\n      0x00\n        /* \"#utility.yul\":3137:3232   */\n      tag_102\n        /* \"#utility.yul\":3228:3231   */\n      dup3\n        /* \"#utility.yul\":3219:3225   */\n      dup5\n        /* \"#utility.yul\":3137:3232   */\n      tag_84\n      jump\t// in\n    tag_102:\n        /* \"#utility.yul\":3130:3232   */\n      swap2\n      pop\n        /* \"#utility.yul\":3249:3252   */\n      dup2\n        /* \"#utility.yul\":3242:3252   */\n      swap1\n      pop\n        /* \"#utility.yul\":2983:3258   */\n      swap3\n      swap2\n      pop\n      pop\n      jump\t// out\n        /* \"#utility.yul\":3264:3645   */\n    tag_33:\n        /* \"#utility.yul\":3449:3452   */\n      0x00\n        /* \"#utility.yul\":3471:3619   */\n      tag_104\n        /* \"#utility.yul\":3615:3618   */\n      dup3\n        /* \"#utility.yul\":3471:3619   */\n      tag_92\n      jump\t// in\n    tag_104:\n        /* \"#utility.yul\":3464:3619   */\n      swap2\n      pop\n        /* \"#utility.yul\":3636:3639   */\n      dup2\n        /* \"#utility.yul\":3629:3639   */\n      swap1\n      pop\n        /* \"#utility.yul\":3264:3645   */\n      swap2\n      swap1\n      pop\n      jump\t// out\n        /* \"#utility.yul\":3651:3873   */\n    tag_11:\n        /* \"#utility.yul\":3744:3748   */\n      0x00\n        /* \"#utility.yul\":3782:3784   */\n      0x20\n        /* \"#utility.yul\":3771:3780   */\n      dup3\n        /* \"#utility.yul\":3767:3785   */\n      add\n        /* \"#utility.yul\":3759:3785   */\n      swap1\n      pop\n        /* \"#utility.yul\":3795:3866   */\n      tag_106\n        /* \"#utility.yul\":3863:3864   */\n      0x00\n        /* \"#utility.yul\":3852:3861   */\n      dup4\n        /* \"#utility.yul\":3848:3865   */\n      add\n        /* \"#utility.yul\":3839:3845   */\n      dup5\n        /* \"#utility.yul\":3795:3866   */\n      tag_97\n      jump\t// in\n    tag_106:\n        /* \"#utility.yul\":3651:3873   */\n      swap3\n      swap2\n      pop\n      pop\n      jump\t// out\n        /* \"#utility.yul\":3879:4008   */\n    tag_54:\n        /* \"#utility.yul\":3913:3919   */\n      0x00\n        /* \"#utility.yul\":3940:3960   */\n      tag_108\n      tag_109\n      jump\t// in\n    tag_108:\n        /* \"#utility.yul\":3930:3960   */\n      swap1\n      pop\n        /* \"#utility.yul\":3969:4002   */\n      tag_110\n        /* \"#utility.yul\":3997:4001   */\n      dup3\n        /* \"#utility.yul\":3989:3995   */\n      dup3\n        /* \"#utility.yul\":3969:4002   */\n      tag_111\n      jump\t// in\n    tag_110:\n        /* \"#utility.yul\":3879:4008   */\n      swap2\n      swap1\n      pop\n      jump\t// out\n        /* \"#utility.yul\":4014:4089   */\n    tag_109:\n        /* \"#utility.yul\":4047:4053   */\n      0x00\n        /* \"#utility.yul\":4080:4082   */\n      0x40\n        /* \"#utility.yul\":4074:4083   */\n      mload\n        /* \"#utility.yul\":4064:4083   */\n      swap1\n      pop\n        /* \"#utility.yul\":4014:4089   */\n      swap1\n      jump\t// out\n        /* \"#utility.yul\":4095:4403   */\n    tag_53:\n        /* \"#utility.yul\":4157:4161   */\n      0x00\n        /* \"#utility.yul\":4247:4265   */\n      0xffffffffffffffff\n        /* \"#utility.yul\":4239:4245   */\n      dup3\n        /* \"#utility.yul\":4236:4266   */\n      gt\n        /* \"#utility.yul\":4233:4289   */\n      iszero\n      tag_114\n      jumpi\n        /* \"#utility.yul\":4269:4287   */\n      tag_115\n      tag_116\n      jump\t// in\n    tag_115:\n        /* \"#utility.yul\":4233:4289   */\n    tag_114:\n        /* \"#utility.yul\":4307:4336   */\n      tag_117\n        /* \"#utility.yul\":4329:4335   */\n      dup3\n        /* \"#utility.yul\":4307:4336   */\n      tag_118\n      jump\t// in\n    tag_117:\n        /* \"#utility.yul\":4299:4336   */\n      swap1\n      pop\n        /* \"#utility.yul\":4391:4395   */\n      0x20\n        /* \"#utility.yul\":4385:4389   */\n      dup2\n        /* \"#utility.yul\":4381:4396   */\n      add\n        /* \"#utility.yul\":4373:4396   */\n      swap1\n      pop\n        /* \"#utility.yul\":4095:4403   */\n      swap2\n      swap1\n      pop\n      jump\t// out\n        /* \"#utility.yul\":4409:4508   */\n    tag_87:\n        /* \"#utility.yul\":4461:4467   */\n      0x00\n        /* \"#utility.yul\":4495:4500   */\n      dup2\n        /* \"#utility.yul\":4489:4501   */\n      mload\n        /* \"#utility.yul\":4479:4501   */\n      swap1\n      pop\n        /* \"#utility.yul\":4409:4508   */\n      swap2\n      swap1\n      pop\n      jump\t// out\n        /* \"#utility.yul\":4514:4662   */\n    tag_89:\n        /* \"#utility.yul\":4616:4627   */\n      0x00\n        /* \"#utility.yul\":4653:4656   */\n      dup2\n        /* \"#utility.yul\":4638:4656   */\n      swap1\n      pop\n        /* \"#utility.yul\":4514:4662   */\n      swap3\n      swap2\n      pop\n      pop\n      jump\t// out\n        /* \"#utility.yul\":4668:4973   */\n    tag_25:\n        /* \"#utility.yul\":4708:4711   */\n      0x00\n        /* \"#utility.yul\":4727:4747   */\n      tag_122\n        /* \"#utility.yul\":4745:4746   */\n      dup3\n        /* \"#utility.yul\":4727:4747   */\n      tag_100\n      jump\t// in\n    tag_122:\n        /* \"#utility.yul\":4722:4747   */\n      swap2\n      pop\n        /* \"#utility.yul\":4761:4781   */\n      tag_123\n        /* \"#utility.yul\":4779:4780   */\n      dup4\n        /* \"#utility.yul\":4761:4781   */\n      tag_100\n      jump\t// in\n    tag_123:\n        /* \"#utility.yul\":4756:4781   */\n      swap3\n      pop\n        /* \"#utility.yul\":4915:4916   */\n      dup3\n        /* \"#utility.yul\":4847:4913   */\n      0xffffffffffffffffffffffffffffffffffffffffffffffffffffffffffffffff\n        /* \"#utility.yul\":4843:4917   */\n      sub\n        /* \"#utility.yul\":4840:4841   */\n      dup3\n        /* \"#utility.yul\":4837:4918   */\n      gt\n        /* \"#utility.yul\":4834:4941   */\n      iszero\n      tag_124\n      jumpi\n        /* \"#utility.yul\":4921:4939   */\n      tag_125\n      tag_126\n      jump\t// in\n    tag_125:\n        /* \"#utility.yul\":4834:4941   */\n    tag_124:\n        /* \"#utility.yul\":4965:4966   */\n      dup3\n        /* \"#utility.yul\":4962:4963   */\n      dup3\n        /* \"#utility.yul\":4958:4967   */\n      add\n        /* \"#utility.yul\":4951:4967   */\n      swap1\n      pop\n        /* \"#utility.yul\":4668:4973   */\n      swap3\n      swap2\n      pop\n      pop\n      jump\t// out\n        /* \"#utility.yul\":4979:5170   */\n    tag_38:\n        /* \"#utility.yul\":5019:5023   */\n      0x00\n        /* \"#utility.yul\":5039:5059   */\n      tag_128\n        /* \"#utility.yul\":5057:5058   */\n      dup3\n        /* \"#utility.yul\":5039:5059   */\n      tag_100\n      jump\t// in\n    tag_128:\n        /* \"#utility.yul\":5034:5059   */\n      swap2\n      pop\n        /* \"#utility.yul\":5073:5093   */\n      tag_129\n        /* \"#utility.yul\":5091:5092   */\n      dup4\n        /* \"#utility.yul\":5073:5093   */\n      tag_100\n      jump\t// in\n    tag_129:\n        /* \"#utility.yul\":5068:5093   */\n      swap3\n      pop\n        /* \"#utility.yul\":5112:5113   */\n      dup3\n        /* \"#utility.yul\":5109:5110   */\n      dup3\n        /* \"#utility.yul\":5106:5114   */\n      lt\n        /* \"#utility.yul\":5103:5137   */\n      iszero\n      tag_130\n      jumpi\n        /* \"#utility.yul\":5117:5135   */\n      tag_131\n      tag_126\n      jump\t// in\n    tag_131:\n        /* \"#utility.yul\":5103:5137   */\n    tag_130:\n        /* \"#utility.yul\":5162:5163   */\n      dup3\n        /* \"#utility.yul\":5159:5160   */\n      dup3\n        /* \"#utility.yul\":5155:5164   */\n      sub\n        /* \"#utility.yul\":5147:5164   */\n      swap1\n      pop\n        /* \"#utility.yul\":4979:5170   */\n      swap3\n      swap2\n      pop\n      pop\n      jump\t// out\n        /* \"#utility.yul\":5176:5253   */\n    tag_100:\n        /* \"#utility.yul\":5213:5220   */\n      0x00\n        /* \"#utility.yul\":5242:5247   */\n      dup2\n        /* \"#utility.yul\":5231:5247   */\n      swap1\n      pop\n        /* \"#utility.yul\":5176:5253   */\n      swap2\n      swap1\n      pop\n      jump\t// out\n        /* \"#utility.yul\":5259:5413   */\n    tag_59:\n        /* \"#utility.yul\":5343:5349   */\n      dup3\n        /* \"#utility.yul\":5338:5341   */\n      dup2\n        /* \"#utility.yul\":5333:5336   */\n      dup4\n        /* \"#utility.yul\":5320:5350   */\n      calldatacopy\n        /* \"#utility.yul\":5405:5406   */\n      0x00\n        /* \"#utility.yul\":5396:5402   */\n      dup4\n        /* \"#utility.yul\":5391:5394   */\n      dup4\n        /* \"#utility.yul\":5387:5403   */\n      add\n        /* \"#utility.yul\":5380:5407   */\n      mstore\n        /* \"#utility.yul\":5259:5413   */\n      pop\n      pop\n      pop\n      jump\t// out\n        /* \"#utility.yul\":5419:5726   */\n    tag_91:\n        /* \"#utility.yul\":5487:5488   */\n      0x00\n        /* \"#utility.yul\":5497:5610   */\n    tag_135:\n        /* \"#utility.yul\":5511:5517   */\n      dup4\n        /* \"#utility.yul\":5508:5509   */\n      dup2\n        /* \"#utility.yul\":5505:5518   */\n      lt\n        /* \"#utility.yul\":5497:5610   */\n      iszero\n      tag_137\n      jumpi\n        /* \"#utility.yul\":5596:5597   */\n      dup1\n        /* \"#utility.yul\":5591:5594   */\n      dup3\n        /* \"#utility.yul\":5587:5598   */\n      add\n        /* \"#utility.yul\":5581:5599   */\n      mload\n        /* \"#utility.yul\":5577:5578   */\n      dup2\n        /* \"#utility.yul\":5572:5575   */\n      dup5\n        /* \"#utility.yul\":5568:5579   */\n      add\n        /* \"#utility.yul\":5561:5600   */\n      mstore\n        /* \"#utility.yul\":5533:5535   */\n      0x20\n        /* \"#utility.yul\":5530:5531   */\n      dup2\n        /* \"#utility.yul\":5526:5536   */\n      add\n        /* \"#utility.yul\":5521:5536   */\n      swap1\n      pop\n        /* \"#utility.yul\":5497:5610   */\n      jump(tag_135)\n    tag_137:\n        /* \"#utility.yul\":5628:5634   */\n      dup4\n        /* \"#utility.yul\":5625:5626   */\n      dup2\n        /* \"#utility.yul\":5622:5635   */\n      gt\n        /* \"#utility.yul\":5619:5720   */\n      iszero\n      tag_138\n      jumpi\n        /* \"#utility.yul\":5708:5709   */\n      0x00\n        /* \"#utility.yul\":5699:5705   */\n      dup5\n        /* \"#utility.yul\":5694:5697   */\n      dup5\n        /* \"#utility.yul\":5690:5706   */\n      add\n        /* \"#utility.yul\":5683:5710   */\n      mstore\n        /* \"#utility.yul\":5619:5720   */\n    tag_138:\n        /* \"#utility.yul\":5468:5726   */\n      pop\n        /* \"#utility.yul\":5419:5726   */\n      pop\n      pop\n      pop\n      jump\t// out\n        /* \"#utility.yul\":5732:6013   */\n    tag_111:\n        /* \"#utility.yul\":5815:5842   */\n      tag_140\n        /* \"#utility.yul\":5837:5841   */\n      dup3\n        /* \"#utility.yul\":5815:5842   */\n      tag_118\n      jump\t// in\n    tag_140:\n        /* \"#utility.yul\":5807:5813   */\n      dup2\n        /* \"#utility.yul\":5803:5843   */\n      add\n        /* \"#utility.yul\":5945:5951   */\n      dup2\n        /* \"#utility.yul\":5933:5943   */\n      dup2\n        /* \"#utility.yul\":5930:5952   */\n      lt\n        /* \"#utility.yul\":5909:5927   */\n      0xffffffffffffffff\n        /* \"#utility.yul\":5897:5907   */\n      dup3\n        /* \"#utility.yul\":5894:5928   */\n      gt\n        /* \"#utility.yul\":5891:5953   */\n      or\n        /* \"#utility.yul\":5888:5976   */\n      iszero\n      tag_141\n      jumpi\n        /* \"#utility.yul\":5956:5974   */\n      tag_142\n      tag_116\n      jump\t// in\n    tag_142:\n        /* \"#utility.yul\":5888:5976   */\n    tag_141:\n        /* \"#utility.yul\":5996:6006   */\n      dup1\n        /* \"#utility.yul\":5992:5994   */\n      0x40\n        /* \"#utility.yul\":5985:6007   */\n      mstore\n        /* \"#utility.yul\":5775:6013   */\n      pop\n        /* \"#utility.yul\":5732:6013   */\n      pop\n      pop\n      jump\t// out\n        /* \"#utility.yul\":6019:6252   */\n    tag_28:\n        /* \"#utility.yul\":6058:6061   */\n      0x00\n        /* \"#utility.yul\":6081:6105   */\n      tag_144\n        /* \"#utility.yul\":6099:6104   */\n      dup3\n        /* \"#utility.yul\":6081:6105   */\n      tag_100\n      jump\t// in\n    tag_144:\n        /* \"#utility.yul\":6072:6105   */\n      swap2\n      pop\n        /* \"#utility.yul\":6127:6193   */\n      0xffffffffffffffffffffffffffffffffffffffffffffffffffffffffffffffff\n        /* \"#utility.yul\":6120:6125   */\n      dup3\n        /* \"#utility.yul\":6117:6194   */\n      eq\n        /* \"#utility.yul\":6114:6217   */\n      iszero\n      tag_145\n      jumpi\n        /* \"#utility.yul\":6197:6215   */\n      tag_146\n      tag_126\n      jump\t// in\n    tag_146:\n        /* \"#utility.yul\":6114:6217   */\n    tag_145:\n        /* \"#utility.yul\":6244:6245   */\n      0x01\n        /* \"#utility.yul\":6237:6242   */\n      dup3\n        /* \"#utility.yul\":6233:6246   */\n      add\n        /* \"#utility.yul\":6226:6246   */\n      swap1\n      pop\n        /* \"#utility.yul\":6019:6252   */\n      swap2\n      swap1\n      pop\n      jump\t// out\n        /* \"#utility.yul\":6258:6434   */\n    tag_43:\n        /* \"#utility.yul\":6290:6291   */\n      0x00\n        /* \"#utility.yul\":6307:6327   */\n      tag_148\n        /* \"#utility.yul\":6325:6326   */\n      dup3\n        /* \"#utility.yul\":6307:6327   */\n      tag_100\n      jump\t// in\n    tag_148:\n        /* \"#utility.yul\":6302:6327   */\n      swap2\n      pop\n        /* \"#utility.yul\":6341:6361   */\n      tag_149\n        /* \"#utility.yul\":6359:6360   */\n      dup4\n        /* \"#utility.yul\":6341:6361   */\n      tag_100\n      jump\t// in\n    tag_149:\n        /* \"#utility.yul\":6336:6361   */\n      swap3\n      pop\n        /* \"#utility.yul\":6380:6381   */\n      dup3\n        /* \"#utility.yul\":6370:6405   */\n      tag_150\n      jumpi\n        /* \"#utility.yul\":6385:6403   */\n      tag_151\n      tag_152\n      jump\t// in\n    tag_151:\n        /* \"#utility.yul\":6370:6405   */\n    tag_150:\n        /* \"#utility.yul\":6426:6427   */\n      dup3\n        /* \"#utility.yul\":6423:6424   */\n      dup3\n        /* \"#utility.yul\":6419:6428   */\n      mod\n        /* \"#utility.yul\":6414:6428   */\n      swap1\n      pop\n        /* \"#utility.yul\":6258:6434   */\n      swap3\n      swap2\n      pop\n      pop\n      jump\t// out\n        /* \"#utility.yul\":6440:6620   */\n    tag_126:\n        /* \"#utility.yul\":6488:6565   */\n      0x4e487b7100000000000000000000000000000000000000000000000000000000\n        /* \"#utility.yul\":6485:6486   */\n      0x00\n        /* \"#utility.yul\":6478:6566   */\n      mstore\n        /* \"#utility.yul\":6585:6589   */\n      0x11\n        /* \"#utility.yul\":6582:6583   */\n      0x04\n        /* \"#utility.yul\":6575:6590   */\n      mstore\n        /* \"#utility.yul\":6609:6613   */\n      0x24\n        /* \"#utility.yul\":6606:6607   */\n      0x00\n        /* \"#utility.yul\":6599:6614   */\n      revert\n        /* \"#utility.yul\":6626:6806   */\n    tag_152:\n        /* \"#utility.yul\":6674:6751   */\n      0x4e487b7100000000000000000000000000000000000000000000000000000000\n        /* \"#utility.yul\":6671:6672   */\n      0x00\n        /* \"#utility.yul\":6664:6752   */\n      mstore\n        /* \"#utility.yul\":6771:6775   */\n      0x12\n        /* \"#utility.yul\":6768:6769   */\n      0x04\n        /* \"#utility.yul\":6761:6776   */\n      mstore\n        /* \"#utility.yul\":6795:6799   */\n      0x24\n        /* \"#utility.yul\":6792:6793   */\n      0x00\n        /* \"#utility.yul\":6785:6800   */\n      revert\n        /* \"#utility.yul\":6812:6992   */\n    tag_116:\n        /* \"#utility.yul\":6860:6937   */\n      0x4e487b7100000000000000000000000000000000000000000000000000000000\n        /* \"#utility.yul\":6857:6858   */\n      0x00\n        /* \"#utility.yul\":6850:6938   */\n      mstore\n        /* \"#utility.yul\":6957:6961   */\n      0x41\n        /* \"#utility.yul\":6954:6955   */\n      0x04\n        /* \"#utility.yul\":6947:6962   */\n      mstore\n        /* \"#utility.yul\":6981:6985   */\n      0x24\n        /* \"#utility.yul\":6978:6979   */\n      0x00\n        /* \"#utility.yul\":6971:6986   */\n      revert\n        /* \"#utility.yul\":6998:7115   */\n    tag_64:\n        /* \"#utility.yul\":7107:7108   */\n      0x00\n        /* \"#utility.yul\":7104:7105   */\n      dup1\n        /* \"#utility.yul\":7097:7109   */\n      revert\n        /* \"#utility.yul\":7121:7238   */\n    tag_57:\n        /* \"#utility.yul\":7230:7231   */\n      0x00\n        /* \"#utility.yul\":7227:7228   */\n      dup1\n        /* \"#utility.yul\":7220:7232   */\n      revert\n        /* \"#utility.yul\":7244:7361   */\n    tag_76:\n        /* \"#utility.yul\":7353:7354   */\n      0x00\n        /* \"#utility.yul\":7350:7351   */\n      dup1\n        /* \"#utility.yul\":7343:7355   */\n      revert\n        /* \"#utility.yul\":7367:7484   */\n    tag_73:\n        /* \"#utility.yul\":7476:7477   */\n      0x00\n        /* \"#utility.yul\":7473:7474   */\n      dup1\n        /* \"#utility.yul\":7466:7478   */\n      revert\n        /* \"#utility.yul\":7490:7592   */\n    tag_118:\n        /* \"#utility.yul\":7531:7537   */\n      0x00\n        /* \"#utility.yul\":7582:7584   */\n      0x1f\n        /* \"#utility.yul\":7578:7585   */\n      not\n        /* \"#utility.yul\":7573:7575   */\n      0x1f\n        /* \"#utility.yul\":7566:7571   */\n      dup4\n        /* \"#utility.yul\":7562:7576   */\n      add\n        /* \"#utility.yul\":7558:7586   */\n      and\n        /* \"#utility.yul\":7548:7586   */\n      swap1\n      pop\n        /* \"#utility.yul\":7490:7592   */\n      swap2\n      swap1\n      pop\n      jump\t// out\n        /* \"#utility.yul\":7598:7752   */\n    tag_96:\n        /* \"#utility.yul\":7738:7744   */\n      0x73756d6100000000000000000000000000000000000000000000000000000000\n        /* \"#utility.yul\":7734:7735   */\n      0x00\n        /* \"#utility.yul\":7726:7732   */\n      dup3\n        /* \"#utility.yul\":7722:7736   */\n      add\n        /* \"#utility.yul\":7715:7745   */\n      mstore\n        /* \"#utility.yul\":7598:7752   */\n      pop\n      jump\t// out\n        /* \"#utility.yul\":7758:7880   */\n    tag_69:\n        /* \"#utility.yul\":7831:7855   */\n      tag_163\n        /* \"#utility.yul\":7849:7854   */\n      dup2\n        /* \"#utility.yul\":7831:7855   */\n      tag_100\n      jump\t// in\n    tag_163:\n        /* \"#utility.yul\":7824:7829   */\n      dup2\n        /* \"#utility.yul\":7821:7856   */\n      eq\n        /* \"#utility.yul\":7811:7874   */\n      tag_164\n      jumpi\n        /* \"#utility.yul\":7870:7871   */\n      0x00\n        /* \"#utility.yul\":7867:7868   */\n      dup1\n        /* \"#utility.yul\":7860:7872   */\n      revert\n        /* \"#utility.yul\":7811:7874   */\n    tag_164:\n        /* \"#utility.yul\":7758:7880   */\n      pop\n      jump\t// out\n\n    auxdata: 0xa2646970667358221220dc1ab8e8a5f6b3245ba506b0a8a4fc7f1f2f94056bce26400cdf28400a4c878364736f6c63430008070033\n}\n",
				"bytecode": {
					"linkReferences": {},
					"object": "608060405234801561001057600080fd5b506106d4806100206000396000f3fe608060405234801561001057600080fd5b50600436106100415760003560e01c8063188b85b414610046578063afee991114610076578063c12363a2146100a6575b600080fd5b610060600480360381019061005b91906102e8565b6100c4565b60405161006d91906103a4565b60405180910390f35b610090600480360381019061008b9190610279565b610110565b60405161009d91906103a4565b60405180910390f35b6100ae610193565b6040516100bb91906103a4565b60405180910390f35b6000806000905060008390505b83600a6100de919061042b565b8110156101065780826100f1919061042b565b915080806100fe90610532565b9150506100d1565b5080915050919050565b600080846040516020016101249190610378565b60405160208183030381529060405280519060200120905060405160200161014b9061038f565b6040516020818303038152906040528051906020012081141561017c578284610174919061042b565b91505061018c565b82846101889190610481565b9150505b9392505050565b600080600090506000805b600a8110156101eb5760006002836101b6919061057b565b146101d85781836101c7919061042b565b925080806101d490610532565b9150505b81806101e390610532565b92505061019e565b82935050505090565b6000610207610202846103e4565b6103bf565b9050828152602081018484840111156102235761022261063e565b5b61022e8482856104bf565b509392505050565b600082601f83011261024b5761024a610639565b5b813561025b8482602086016101f4565b91505092915050565b60008135905061027381610687565b92915050565b60008060006060848603121561029257610291610648565b5b600084013567ffffffffffffffff8111156102b0576102af610643565b5b6102bc86828701610236565b93505060206102cd86828701610264565b92505060406102de86828701610264565b9150509250925092565b6000602082840312156102fe576102fd610648565b5b600061030c84828501610264565b91505092915050565b600061032082610415565b61032a8185610420565b935061033a8185602086016104ce565b80840191505092915050565b6000610353600483610420565b915061035e8261065e565b600482019050919050565b610372816104b5565b82525050565b60006103848284610315565b915081905092915050565b600061039a82610346565b9150819050919050565b60006020820190506103b96000830184610369565b92915050565b60006103c96103da565b90506103d58282610501565b919050565b6000604051905090565b600067ffffffffffffffff8211156103ff576103fe61060a565b5b6104088261064d565b9050602081019050919050565b600081519050919050565b600081905092915050565b6000610436826104b5565b9150610441836104b5565b9250827fffffffffffffffffffffffffffffffffffffffffffffffffffffffffffffffff03821115610476576104756105ac565b5b828201905092915050565b600061048c826104b5565b9150610497836104b5565b9250828210156104aa576104a96105ac565b5b828203905092915050565b6000819050919050565b82818337600083830152505050565b60005b838110156104ec5780820151818401526020810190506104d1565b838111156104fb576000848401525b50505050565b61050a8261064d565b810181811067ffffffffffffffff821117156105295761052861060a565b5b80604052505050565b600061053d826104b5565b91507fffffffffffffffffffffffffffffffffffffffffffffffffffffffffffffffff8214156105705761056f6105ac565b5b600182019050919050565b6000610586826104b5565b9150610591836104b5565b9250826105a1576105a06105db565b5b828206905092915050565b7f4e487b7100000000000000000000000000000000000000000000000000000000600052601160045260246000fd5b7f4e487b7100000000000000000000000000000000000000000000000000000000600052601260045260246000fd5b7f4e487b7100000000000000000000000000000000000000000000000000000000600052604160045260246000fd5b600080fd5b600080fd5b600080fd5b600080fd5b6000601f19601f8301169050919050565b7f73756d6100000000000000000000000000000000000000000000000000000000600082015250565b610690816104b5565b811461069b57600080fd5b5056fea2646970667358221220dc1ab8e8a5f6b3245ba506b0a8a4fc7f1f2f94056bce26400cdf28400a4c878364736f6c63430008070033",
					"opcodes": "PUSH1 0x80 PUSH1 0x40 MSTORE CALLVALUE DUP1 ISZERO PUSH2 0x10 JUMPI PUSH1 0x0 DUP1 REVERT JUMPDEST POP PUSH2 0x6D4 DUP1 PUSH2 0x20 PUSH1 0x0 CODECOPY PUSH1 0x0 RETURN INVALID PUSH1 0x80 PUSH1 0x40 MSTORE CALLVALUE DUP1 ISZERO PUSH2 0x10 JUMPI PUSH1 0x0 DUP1 REVERT JUMPDEST POP PUSH1 0x4 CALLDATASIZE LT PUSH2 0x41 JUMPI PUSH1 0x0 CALLDATALOAD PUSH1 0xE0 SHR DUP1 PUSH4 0x188B85B4 EQ PUSH2 0x46 JUMPI DUP1 PUSH4 0xAFEE9911 EQ PUSH2 0x76 JUMPI DUP1 PUSH4 0xC12363A2 EQ PUSH2 0xA6 JUMPI JUMPDEST PUSH1 0x0 DUP1 REVERT JUMPDEST PUSH2 0x60 PUSH1 0x4 DUP1 CALLDATASIZE SUB DUP2 ADD SWAP1 PUSH2 0x5B SWAP2 SWAP1 PUSH2 0x2E8 JUMP JUMPDEST PUSH2 0xC4 JUMP JUMPDEST PUSH1 0x40 MLOAD PUSH2 0x6D SWAP2 SWAP1 PUSH2 0x3A4 JUMP JUMPDEST PUSH1 0x40 MLOAD DUP1 SWAP2 SUB SWAP1 RETURN JUMPDEST PUSH2 0x90 PUSH1 0x4 DUP1 CALLDATASIZE SUB DUP2 ADD SWAP1 PUSH2 0x8B SWAP2 SWAP1 PUSH2 0x279 JUMP JUMPDEST PUSH2 0x110 JUMP JUMPDEST PUSH1 0x40 MLOAD PUSH2 0x9D SWAP2 SWAP1 PUSH2 0x3A4 JUMP JUMPDEST PUSH1 0x40 MLOAD DUP1 SWAP2 SUB SWAP1 RETURN JUMPDEST PUSH2 0xAE PUSH2 0x193 JUMP JUMPDEST PUSH1 0x40 MLOAD PUSH2 0xBB SWAP2 SWAP1 PUSH2 0x3A4 JUMP JUMPDEST PUSH1 0x40 MLOAD DUP1 SWAP2 SUB SWAP1 RETURN JUMPDEST PUSH1 0x0 DUP1 PUSH1 0x0 SWAP1 POP PUSH1 0x0 DUP4 SWAP1 POP JUMPDEST DUP4 PUSH1 0xA PUSH2 0xDE SWAP2 SWAP1 PUSH2 0x42B JUMP JUMPDEST DUP2 LT ISZERO PUSH2 0x106 JUMPI DUP1 DUP3 PUSH2 0xF1 SWAP2 SWAP1 PUSH2 0x42B JUMP JUMPDEST SWAP2 POP DUP1 DUP1 PUSH2 0xFE SWAP1 PUSH2 0x532 JUMP JUMPDEST SWAP2 POP POP PUSH2 0xD1 JUMP JUMPDEST POP DUP1 SWAP2 POP POP SWAP2 SWAP1 POP JUMP JUMPDEST PUSH1 0x0 DUP1 DUP5 PUSH1 0x40 MLOAD PUSH1 0x20 ADD PUSH2 0x124 SWAP2 SWAP1 PUSH2 0x378 JUMP JUMPDEST PUSH1 0x40 MLOAD PUSH1 0x20 DUP2 DUP4 SUB SUB DUP2 MSTORE SWAP1 PUSH1 0x40 MSTORE DUP1 MLOAD SWAP1 PUSH1 0x20 ADD KECCAK256 SWAP1 POP PUSH1 0x40 MLOAD PUSH1 0x20 ADD PUSH2 0x14B SWAP1 PUSH2 0x38F JUMP JUMPDEST PUSH1 0x40 MLOAD PUSH1 0x20 DUP2 DUP4 SUB SUB DUP2 MSTORE SWAP1 PUSH1 0x40 MSTORE DUP1 MLOAD SWAP1 PUSH1 0x20 ADD KECCAK256 DUP2 EQ ISZERO PUSH2 0x17C JUMPI DUP3 DUP5 PUSH2 0x174 SWAP2 SWAP1 PUSH2 0x42B JUMP JUMPDEST SWAP2 POP POP PUSH2 0x18C JUMP JUMPDEST DUP3 DUP5 PUSH2 0x188 SWAP2 SWAP1 PUSH2 0x481 JUMP JUMPDEST SWAP2 POP POP JUMPDEST SWAP4 SWAP3 POP POP POP JUMP JUMPDEST PUSH1 0x0 DUP1 PUSH1 0x0 SWAP1 POP PUSH1 0x0 DUP1 JUMPDEST PUSH1 0xA DUP2 LT ISZERO PUSH2 0x1EB JUMPI PUSH1 0x0 PUSH1 0x2 DUP4 PUSH2 0x1B6 SWAP2 SWAP1 PUSH2 0x57B JUMP JUMPDEST EQ PUSH2 0x1D8 JUMPI DUP2 DUP4 PUSH2 0x1C7 SWAP2 SWAP1 PUSH2 0x42B JUMP JUMPDEST SWAP3 POP DUP1 DUP1 PUSH2 0x1D4 SWAP1 PUSH2 0x532 JUMP JUMPDEST SWAP2 POP POP JUMPDEST DUP2 DUP1 PUSH2 0x1E3 SWAP1 PUSH2 0x532 JUMP JUMPDEST SWAP3 POP POP PUSH2 0x19E JUMP JUMPDEST DUP3 SWAP4 POP POP POP POP SWAP1 JUMP JUMPDEST PUSH1 0x0 PUSH2 0x207 PUSH2 0x202 DUP5 PUSH2 0x3E4 JUMP JUMPDEST PUSH2 0x3BF JUMP JUMPDEST SWAP1 POP DUP3 DUP2 MSTORE PUSH1 0x20 DUP2 ADD DUP5 DUP5 DUP5 ADD GT ISZERO PUSH2 0x223 JUMPI PUSH2 0x222 PUSH2 0x63E JUMP JUMPDEST JUMPDEST PUSH2 0x22E DUP5 DUP3 DUP6 PUSH2 0x4BF JUMP JUMPDEST POP SWAP4 SWAP3 POP POP POP JUMP JUMPDEST PUSH1 0x0 DUP3 PUSH1 0x1F DUP4 ADD SLT PUSH2 0x24B JUMPI PUSH2 0x24A PUSH2 0x639 JUMP JUMPDEST JUMPDEST DUP2 CALLDATALOAD PUSH2 0x25B DUP5 DUP3 PUSH1 0x20 DUP7 ADD PUSH2 0x1F4 JUMP JUMPDEST SWAP2 POP POP SWAP3 SWAP2 POP POP JUMP JUMPDEST PUSH1 0x0 DUP2 CALLDATALOAD SWAP1 POP PUSH2 0x273 DUP2 PUSH2 0x687 JUMP JUMPDEST SWAP3 SWAP2 POP POP JUMP JUMPDEST PUSH1 0x0 DUP1 PUSH1 0x0 PUSH1 0x60 DUP5 DUP7 SUB SLT ISZERO PUSH2 0x292 JUMPI PUSH2 0x291 PUSH2 0x648 JUMP JUMPDEST JUMPDEST PUSH1 0x0 DUP5 ADD CALLDATALOAD PUSH8 0xFFFFFFFFFFFFFFFF DUP2 GT ISZERO PUSH2 0x2B0 JUMPI PUSH2 0x2AF PUSH2 0x643 JUMP JUMPDEST JUMPDEST PUSH2 0x2BC DUP7 DUP3 DUP8 ADD PUSH2 0x236 JUMP JUMPDEST SWAP4 POP POP PUSH1 0x20 PUSH2 0x2CD DUP7 DUP3 DUP8 ADD PUSH2 0x264 JUMP JUMPDEST SWAP3 POP POP PUSH1 0x40 PUSH2 0x2DE DUP7 DUP3 DUP8 ADD PUSH2 0x264 JUMP JUMPDEST SWAP2 POP POP SWAP3 POP SWAP3 POP SWAP3 JUMP JUMPDEST PUSH1 0x0 PUSH1 0x20 DUP3 DUP5 SUB SLT ISZERO PUSH2 0x2FE JUMPI PUSH2 0x2FD PUSH2 0x648 JUMP JUMPDEST JUMPDEST PUSH1 0x0 PUSH2 0x30C DUP5 DUP3 DUP6 ADD PUSH2 0x264 JUMP JUMPDEST SWAP2 POP POP SWAP3 SWAP2 POP POP JUMP JUMPDEST PUSH1 0x0 PUSH2 0x320 DUP3 PUSH2 0x415 JUMP JUMPDEST PUSH2 0x32A DUP2 DUP6 PUSH2 0x420 JUMP JUMPDEST SWAP4 POP PUSH2 0x33A DUP2 DUP6 PUSH1 0x20 DUP7 ADD PUSH2 0x4CE JUMP JUMPDEST DUP1 DUP5 ADD SWAP2 POP POP SWAP3 SWAP2 POP POP JUMP JUMPDEST PUSH1 0x0 PUSH2 0x353 PUSH1 0x4 DUP4 PUSH2 0x420 JUMP JUMPDEST SWAP2 POP PUSH2 0x35E DUP3 PUSH2 0x65E JUMP JUMPDEST PUSH1 0x4 DUP3 ADD SWAP1 POP SWAP2 SWAP1 POP JUMP JUMPDEST PUSH2 0x372 DUP2 PUSH2 0x4B5 JUMP JUMPDEST DUP3 MSTORE POP POP JUMP JUMPDEST PUSH1 0x0 PUSH2 0x384 DUP3 DUP5 PUSH2 0x315 JUMP JUMPDEST SWAP2 POP DUP2 SWAP1 POP SWAP3 SWAP2 POP POP JUMP JUMPDEST PUSH1 0x0 PUSH2 0x39A DUP3 PUSH2 0x346 JUMP JUMPDEST SWAP2 POP DUP2 SWAP1 POP SWAP2 SWAP1 POP JUMP JUMPDEST PUSH1 0x0 PUSH1 0x20 DUP3 ADD SWAP1 POP PUSH2 0x3B9 PUSH1 0x0 DUP4 ADD DUP5 PUSH2 0x369 JUMP JUMPDEST SWAP3 SWAP2 POP POP JUMP JUMPDEST PUSH1 0x0 PUSH2 0x3C9 PUSH2 0x3DA JUMP JUMPDEST SWAP1 POP PUSH2 0x3D5 DUP3 DUP3 PUSH2 0x501 JUMP JUMPDEST SWAP2 SWAP1 POP JUMP JUMPDEST PUSH1 0x0 PUSH1 0x40 MLOAD SWAP1 POP SWAP1 JUMP JUMPDEST PUSH1 0x0 PUSH8 0xFFFFFFFFFFFFFFFF DUP3 GT ISZERO PUSH2 0x3FF JUMPI PUSH2 0x3FE PUSH2 0x60A JUMP JUMPDEST JUMPDEST PUSH2 0x408 DUP3 PUSH2 0x64D JUMP JUMPDEST SWAP1 POP PUSH1 0x20 DUP2 ADD SWAP1 POP SWAP2 SWAP1 POP JUMP JUMPDEST PUSH1 0x0 DUP2 MLOAD SWAP1 POP SWAP2 SWAP1 POP JUMP JUMPDEST PUSH1 0x0 DUP2 SWAP1 POP SWAP3 SWAP2 POP POP JUMP JUMPDEST PUSH1 0x0 PUSH2 0x436 DUP3 PUSH2 0x4B5 JUMP JUMPDEST SWAP2 POP PUSH2 0x441 DUP4 PUSH2 0x4B5 JUMP JUMPDEST SWAP3 POP DUP3 PUSH32 0xFFFFFFFFFFFFFFFFFFFFFFFFFFFFFFFFFFFFFFFFFFFFFFFFFFFFFFFFFFFFFFFF SUB DUP3 GT ISZERO PUSH2 0x476 JUMPI PUSH2 0x475 PUSH2 0x5AC JUMP JUMPDEST JUMPDEST DUP3 DUP3 ADD SWAP1 POP SWAP3 SWAP2 POP POP JUMP JUMPDEST PUSH1 0x0 PUSH2 0x48C DUP3 PUSH2 0x4B5 JUMP JUMPDEST SWAP2 POP PUSH2 0x497 DUP4 PUSH2 0x4B5 JUMP JUMPDEST SWAP3 POP DUP3 DUP3 LT ISZERO PUSH2 0x4AA JUMPI PUSH2 0x4A9 PUSH2 0x5AC JUMP JUMPDEST JUMPDEST DUP3 DUP3 SUB SWAP1 POP SWAP3 SWAP2 POP POP JUMP JUMPDEST PUSH1 0x0 DUP2 SWAP1 POP SWAP2 SWAP1 POP JUMP JUMPDEST DUP3 DUP2 DUP4 CALLDATACOPY PUSH1 0x0 DUP4 DUP4 ADD MSTORE POP POP POP JUMP JUMPDEST PUSH1 0x0 JUMPDEST DUP4 DUP2 LT ISZERO PUSH2 0x4EC JUMPI DUP1 DUP3 ADD MLOAD DUP2 DUP5 ADD MSTORE PUSH1 0x20 DUP2 ADD SWAP1 POP PUSH2 0x4D1 JUMP JUMPDEST DUP4 DUP2 GT ISZERO PUSH2 0x4FB JUMPI PUSH1 0x0 DUP5 DUP5 ADD MSTORE JUMPDEST POP POP POP POP JUMP JUMPDEST PUSH2 0x50A DUP3 PUSH2 0x64D JUMP JUMPDEST DUP2 ADD DUP2 DUP2 LT PUSH8 0xFFFFFFFFFFFFFFFF DUP3 GT OR ISZERO PUSH2 0x529 JUMPI PUSH2 0x528 PUSH2 0x60A JUMP JUMPDEST JUMPDEST DUP1 PUSH1 0x40 MSTORE POP POP POP JUMP JUMPDEST PUSH1 0x0 PUSH2 0x53D DUP3 PUSH2 0x4B5 JUMP JUMPDEST SWAP2 POP PUSH32 0xFFFFFFFFFFFFFFFFFFFFFFFFFFFFFFFFFFFFFFFFFFFFFFFFFFFFFFFFFFFFFFFF DUP3 EQ ISZERO PUSH2 0x570 JUMPI PUSH2 0x56F PUSH2 0x5AC JUMP JUMPDEST JUMPDEST PUSH1 0x1 DUP3 ADD SWAP1 POP SWAP2 SWAP1 POP JUMP JUMPDEST PUSH1 0x0 PUSH2 0x586 DUP3 PUSH2 0x4B5 JUMP JUMPDEST SWAP2 POP PUSH2 0x591 DUP4 PUSH2 0x4B5 JUMP JUMPDEST SWAP3 POP DUP3 PUSH2 0x5A1 JUMPI PUSH2 0x5A0 PUSH2 0x5DB JUMP JUMPDEST JUMPDEST DUP3 DUP3 MOD SWAP1 POP SWAP3 SWAP2 POP POP JUMP JUMPDEST PUSH32 0x4E487B7100000000000000000000000000000000000000000000000000000000 PUSH1 0x0 MSTORE PUSH1 0x11 PUSH1 0x4 MSTORE PUSH1 0x24 PUSH1 0x0 REVERT JUMPDEST PUSH32 0x4E487B7100000000000000000000000000000000000000000000000000000000 PUSH1 0x0 MSTORE PUSH1 0x12 PUSH1 0x4 MSTORE PUSH1 0x24 PUSH1 0x0 REVERT JUMPDEST PUSH32 0x4E487B7100000000000000000000000000000000000000000000000000000000 PUSH1 0x0 MSTORE PUSH1 0x41 PUSH1 0x4 MSTORE PUSH1 0x24 PUSH1 0x0 REVERT JUMPDEST PUSH1 0x0 DUP1 REVERT JUMPDEST PUSH1 0x0 DUP1 REVERT JUMPDEST PUSH1 0x0 DUP1 REVERT JUMPDEST PUSH1 0x0 DUP1 REVERT JUMPDEST PUSH1 0x0 PUSH1 0x1F NOT PUSH1 0x1F DUP4 ADD AND SWAP1 POP SWAP2 SWAP1 POP JUMP JUMPDEST PUSH32 0x73756D6100000000000000000000000000000000000000000000000000000000 PUSH1 0x0 DUP3 ADD MSTORE POP JUMP JUMPDEST PUSH2 0x690 DUP2 PUSH2 0x4B5 JUMP JUMPDEST DUP2 EQ PUSH2 0x69B JUMPI PUSH1 0x0 DUP1 REVERT JUMPDEST POP JUMP INVALID LOG2 PUSH5 0x6970667358 0x22 SLT KECCAK256 0xDC BYTE 0xB8 0xE8 0xA5 0xF6 0xB3 0x24 JUMPDEST 0xA5 MOD 0xB0 0xA8 LOG4 0xFC PUSH32 0x1F2F94056BCE26400CDF28400A4C878364736F6C634300080700330000000000 "
				},
				"gasEstimates": {
					"creation": {
						"codeDepositCost": "349600",
						"executionCost": "386",
						"totalCost": "349986"
					},
					"external": {
						"odd()": "infinite",
						"sum(uint256)": "infinite",
						"sum_rest(string,uint256,uint256)": "infinite"
					}
				},
				"methodIdentifiers": {
					"odd()": "c12363a2",
					"sum(uint256)": "188b85b4",
					"sum_rest(string,uint256,uint256)": "afee9911"
				}
			},
			"storageLayout": {
				"storage": [],
				"types": null
			},
			"userdoc": {
				"kind": "user",
				"methods": {},
				"version": 1
			}
		}
	}
}