{
	"contracts/7_maths.sol": {
		"maths": {
			"abi": [
				{
					"inputs": [
						{
							"internalType": "uint256",
							"name": "x",
							"type": "uint256"
						},
						{
							"internalType": "uint256",
							"name": "y",
							"type": "uint256"
						},
						{
							"internalType": "uint256",
							"name": "k",
							"type": "uint256"
						}
					],
					"name": "_addmod",
					"outputs": [
						{
							"internalType": "uint256",
							"name": "",
							"type": "uint256"
						},
						{
							"internalType": "uint256",
							"name": "",
							"type": "uint256"
						}
					],
					"stateMutability": "pure",
					"type": "function"
				},
				{
					"inputs": [
						{
							"internalType": "uint256",
							"name": "a",
							"type": "uint256"
						},
						{
							"internalType": "uint256",
							"name": "b",
							"type": "uint256"
						}
					],
					"name": "div",
					"outputs": [
						{
							"internalType": "uint256",
							"name": "",
							"type": "uint256"
						}
					],
					"stateMutability": "pure",
					"type": "function"
				},
				{
					"inputs": [
						{
							"internalType": "uint256",
							"name": "a",
							"type": "uint256"
						},
						{
							"internalType": "uint256",
							"name": "b",
							"type": "uint256"
						}
					],
					"name": "expon",
					"outputs": [
						{
							"internalType": "uint256",
							"name": "",
							"type": "uint256"
						}
					],
					"stateMutability": "pure",
					"type": "function"
				},
				{
					"inputs": [
						{
							"internalType": "uint256",
							"name": "a",
							"type": "uint256"
						},
						{
							"internalType": "uint256",
							"name": "b",
							"type": "uint256"
						}
					],
					"name": "mod",
					"outputs": [
						{
							"internalType": "uint256",
							"name": "",
							"type": "uint256"
						}
					],
					"stateMutability": "pure",
					"type": "function"
				},
				{
					"inputs": [
						{
							"internalType": "uint256",
							"name": "a",
							"type": "uint256"
						},
						{
							"internalType": "uint256",
							"name": "b",
							"type": "uint256"
						}
					],
					"name": "mult",
					"outputs": [
						{
							"internalType": "uint256",
							"name": "",
							"type": "uint256"
						}
					],
					"stateMutability": "pure",
					"type": "function"
				},
				{
					"inputs": [
						{
							"internalType": "uint256",
							"name": "a",
							"type": "uint256"
						},
						{
							"internalType": "uint256",
							"name": "b",
							"type": "uint256"
						}
					],
					"name": "resta",
					"outputs": [
						{
							"internalType": "uint256",
							"name": "",
							"type": "uint256"
						}
					],
					"stateMutability": "pure",
					"type": "function"
				},
				{
					"inputs": [
						{
							"internalType": "uint256",
							"name": "a",
							"type": "uint256"
						},
						{
							"internalType": "uint256",
							"name": "b",
							"type": "uint256"
						}
					],
					"name": "suma",
					"outputs": [
						{
							"internalType": "uint256",
							"name": "",
							"type": "uint256"
						}
					],
					"stateMutability": "pure",
					"type": "function"
				}
			],
			"devdoc": {
				"kind": "dev",
				"methods": {},
				"version": 1
			},
			"evm": {
				"assembly": "    /* \"contracts/7_maths.sol\":62:786  contract maths{\r... */\n  mstore(0x40, 0x80)\n  callvalue\n  dup1\n  iszero\n  tag_1\n  jumpi\n  0x00\n  dup1\n  revert\ntag_1:\n  pop\n  dataSize(sub_0)\n  dup1\n  dataOffset(sub_0)\n  0x00\n  codecopy\n  0x00\n  return\nstop\n\nsub_0: assembly {\n        /* \"contracts/7_maths.sol\":62:786  contract maths{\r... */\n      mstore(0x40, 0x80)\n      callvalue\n      dup1\n      iszero\n      tag_1\n      jumpi\n      0x00\n      dup1\n      revert\n    tag_1:\n      pop\n      jumpi(tag_2, lt(calldatasize, 0x04))\n      shr(0xe0, calldataload(0x00))\n      dup1\n      0xb1b45b1b\n      gt\n      tag_10\n      jumpi\n      dup1\n      0xb1b45b1b\n      eq\n      tag_6\n      jumpi\n      dup1\n      0xdd125e37\n      eq\n      tag_7\n      jumpi\n      dup1\n      0xe989d9cc\n      eq\n      tag_8\n      jumpi\n      dup1\n      0xf43f523a\n      eq\n      tag_9\n      jumpi\n      jump(tag_2)\n    tag_10:\n      dup1\n      0x52f294bc\n      eq\n      tag_3\n      jumpi\n      dup1\n      0x9aa727f6\n      eq\n      tag_4\n      jumpi\n      dup1\n      0xa391c15b\n      eq\n      tag_5\n      jumpi\n    tag_2:\n      0x00\n      dup1\n      revert\n        /* \"contracts/7_maths.sol\":176:262  function resta(uint a, uint b) public pure returns (uint){\r... */\n    tag_3:\n      tag_11\n      0x04\n      dup1\n      calldatasize\n      sub\n      dup2\n      add\n      swap1\n      tag_12\n      swap2\n      swap1\n      tag_13\n      jump\t// in\n    tag_12:\n      tag_14\n      jump\t// in\n    tag_11:\n      mload(0x40)\n      tag_15\n      swap2\n      swap1\n      tag_16\n      jump\t// in\n    tag_15:\n      mload(0x40)\n      dup1\n      swap2\n      sub\n      swap1\n      return\n        /* \"contracts/7_maths.sol\":549:634  function mult(uint a, uint b) public pure returns (uint){\r... */\n    tag_4:\n      tag_17\n      0x04\n      dup1\n      calldatasize\n      sub\n      dup2\n      add\n      swap1\n      tag_18\n      swap2\n      swap1\n      tag_13\n      jump\t// in\n    tag_18:\n      tag_19\n      jump\t// in\n    tag_17:\n      mload(0x40)\n      tag_20\n      swap2\n      swap1\n      tag_16\n      jump\t// in\n    tag_20:\n      mload(0x40)\n      dup1\n      swap2\n      sub\n      swap1\n      return\n        /* \"contracts/7_maths.sol\":270:354  function div(uint a, uint b) public pure returns (uint){\r... */\n    tag_5:\n      tag_21\n      0x04\n      dup1\n      calldatasize\n      sub\n      dup2\n      add\n      swap1\n      tag_22\n      swap2\n      swap1\n      tag_13\n      jump\t// in\n    tag_22:\n      tag_23\n      jump\t// in\n    tag_21:\n      mload(0x40)\n      tag_24\n      swap2\n      swap1\n      tag_16\n      jump\t// in\n    tag_24:\n      mload(0x40)\n      dup1\n      swap2\n      sub\n      swap1\n      return\n        /* \"contracts/7_maths.sol\":83:168  function suma(uint a, uint b) public pure returns (uint){\r... */\n    tag_6:\n      tag_25\n      0x04\n      dup1\n      calldatasize\n      sub\n      dup2\n      add\n      swap1\n      tag_26\n      swap2\n      swap1\n      tag_13\n      jump\t// in\n    tag_26:\n      tag_27\n      jump\t// in\n    tag_25:\n      mload(0x40)\n      tag_28\n      swap2\n      swap1\n      tag_16\n      jump\t// in\n    tag_28:\n      mload(0x40)\n      dup1\n      swap2\n      sub\n      swap1\n      return\n        /* \"contracts/7_maths.sol\":658:783  function _addmod(uint x, uint y, uint k) public pure returns (uint, uint){\r... */\n    tag_7:\n      tag_29\n      0x04\n      dup1\n      calldatasize\n      sub\n      dup2\n      add\n      swap1\n      tag_30\n      swap2\n      swap1\n      tag_31\n      jump\t// in\n    tag_30:\n      tag_32\n      jump\t// in\n    tag_29:\n      mload(0x40)\n      tag_33\n      swap3\n      swap2\n      swap1\n      tag_34\n      jump\t// in\n    tag_33:\n      mload(0x40)\n      dup1\n      swap2\n      sub\n      swap1\n      return\n        /* \"contracts/7_maths.sol\":362:449  function expon(uint a, uint b) public pure returns (uint){\r... */\n    tag_8:\n      tag_35\n      0x04\n      dup1\n      calldatasize\n      sub\n      dup2\n      add\n      swap1\n      tag_36\n      swap2\n      swap1\n      tag_13\n      jump\t// in\n    tag_36:\n      tag_37\n      jump\t// in\n    tag_35:\n      mload(0x40)\n      tag_38\n      swap2\n      swap1\n      tag_16\n      jump\t// in\n    tag_38:\n      mload(0x40)\n      dup1\n      swap2\n      sub\n      swap1\n      return\n        /* \"contracts/7_maths.sol\":457:541  function mod(uint a, uint b) public pure returns (uint){\r... */\n    tag_9:\n      tag_39\n      0x04\n      dup1\n      calldatasize\n      sub\n      dup2\n      add\n      swap1\n      tag_40\n      swap2\n      swap1\n      tag_13\n      jump\t// in\n    tag_40:\n      tag_41\n      jump\t// in\n    tag_39:\n      mload(0x40)\n      tag_42\n      swap2\n      swap1\n      tag_16\n      jump\t// in\n    tag_42:\n      mload(0x40)\n      dup1\n      swap2\n      sub\n      swap1\n      return\n        /* \"contracts/7_maths.sol\":176:262  function resta(uint a, uint b) public pure returns (uint){\r... */\n    tag_14:\n        /* \"contracts/7_maths.sol\":228:232  uint */\n      0x00\n        /* \"contracts/7_maths.sol\":253:254  b */\n      dup2\n        /* \"contracts/7_maths.sol\":251:252  a */\n      dup4\n        /* \"contracts/7_maths.sol\":251:254  a-b */\n      tag_44\n      swap2\n      swap1\n      tag_45\n      jump\t// in\n    tag_44:\n        /* \"contracts/7_maths.sol\":244:254  return a-b */\n      swap1\n      pop\n        /* \"contracts/7_maths.sol\":176:262  function resta(uint a, uint b) public pure returns (uint){\r... */\n      swap3\n      swap2\n      pop\n      pop\n      jump\t// out\n        /* \"contracts/7_maths.sol\":549:634  function mult(uint a, uint b) public pure returns (uint){\r... */\n    tag_19:\n        /* \"contracts/7_maths.sol\":600:604  uint */\n      0x00\n        /* \"contracts/7_maths.sol\":625:626  b */\n      dup2\n        /* \"contracts/7_maths.sol\":623:624  a */\n      dup4\n        /* \"contracts/7_maths.sol\":623:626  a*b */\n      tag_47\n      swap2\n      swap1\n      tag_48\n      jump\t// in\n    tag_47:\n        /* \"contracts/7_maths.sol\":616:626  return a*b */\n      swap1\n      pop\n        /* \"contracts/7_maths.sol\":549:634  function mult(uint a, uint b) public pure returns (uint){\r... */\n      swap3\n      swap2\n      pop\n      pop\n      jump\t// out\n        /* \"contracts/7_maths.sol\":270:354  function div(uint a, uint b) public pure returns (uint){\r... */\n    tag_23:\n        /* \"contracts/7_maths.sol\":320:324  uint */\n      0x00\n        /* \"contracts/7_maths.sol\":345:346  b */\n      dup2\n        /* \"contracts/7_maths.sol\":343:344  a */\n      dup4\n        /* \"contracts/7_maths.sol\":343:346  a/b */\n      tag_50\n      swap2\n      swap1\n      tag_51\n      jump\t// in\n    tag_50:\n        /* \"contracts/7_maths.sol\":336:346  return a/b */\n      swap1\n      pop\n        /* \"contracts/7_maths.sol\":270:354  function div(uint a, uint b) public pure returns (uint){\r... */\n      swap3\n      swap2\n      pop\n      pop\n      jump\t// out\n        /* \"contracts/7_maths.sol\":83:168  function suma(uint a, uint b) public pure returns (uint){\r... */\n    tag_27:\n        /* \"contracts/7_maths.sol\":134:138  uint */\n      0x00\n        /* \"contracts/7_maths.sol\":159:160  b */\n      dup2\n        /* \"contracts/7_maths.sol\":157:158  a */\n      dup4\n        /* \"contracts/7_maths.sol\":157:160  a+b */\n      tag_53\n      swap2\n      swap1\n      tag_54\n      jump\t// in\n    tag_53:\n        /* \"contracts/7_maths.sol\":150:160  return a+b */\n      swap1\n      pop\n        /* \"contracts/7_maths.sol\":83:168  function suma(uint a, uint b) public pure returns (uint){\r... */\n      swap3\n      swap2\n      pop\n      pop\n      jump\t// out\n        /* \"contracts/7_maths.sol\":658:783  function _addmod(uint x, uint y, uint k) public pure returns (uint, uint){\r... */\n    tag_32:\n        /* \"contracts/7_maths.sol\":720:724  uint */\n      0x00\n        /* \"contracts/7_maths.sol\":726:730  uint */\n      dup1\n        /* \"contracts/7_maths.sol\":761:762  k */\n      dup3\n        /* \"contracts/7_maths.sol\":750:763  addmod(x,y,k) */\n      dup1\n      tag_56\n      jumpi\n      tag_57\n      tag_58\n      jump\t// in\n    tag_57:\n    tag_56:\n        /* \"contracts/7_maths.sol\":759:760  y */\n      dup5\n        /* \"contracts/7_maths.sol\":757:758  x */\n      dup7\n        /* \"contracts/7_maths.sol\":750:763  addmod(x,y,k) */\n      addmod\n        /* \"contracts/7_maths.sol\":772:773  k */\n      dup4\n        /* \"contracts/7_maths.sol\":769:770  y */\n      dup6\n        /* \"contracts/7_maths.sol\":767:768  x */\n      dup8\n        /* \"contracts/7_maths.sol\":767:770  x+y */\n      tag_59\n      swap2\n      swap1\n      tag_54\n      jump\t// in\n    tag_59:\n        /* \"contracts/7_maths.sol\":766:773  (x+y)%k */\n      tag_60\n      swap2\n      swap1\n      tag_61\n      jump\t// in\n    tag_60:\n        /* \"contracts/7_maths.sol\":742:775  return (addmod(x,y,k), ((x+y)%k)) */\n      swap2\n      pop\n      swap2\n      pop\n        /* \"contracts/7_maths.sol\":658:783  function _addmod(uint x, uint y, uint k) public pure returns (uint, uint){\r... */\n      swap4\n      pop\n      swap4\n      swap2\n      pop\n      pop\n      jump\t// out\n        /* \"contracts/7_maths.sol\":362:449  function expon(uint a, uint b) public pure returns (uint){\r... */\n    tag_37:\n        /* \"contracts/7_maths.sol\":414:418  uint */\n      0x00\n        /* \"contracts/7_maths.sol\":440:441  b */\n      dup2\n        /* \"contracts/7_maths.sol\":437:438  a */\n      dup4\n        /* \"contracts/7_maths.sol\":437:441  a**b */\n      tag_63\n      swap2\n      swap1\n      tag_64\n      jump\t// in\n    tag_63:\n        /* \"contracts/7_maths.sol\":430:441  return a**b */\n      swap1\n      pop\n        /* \"contracts/7_maths.sol\":362:449  function expon(uint a, uint b) public pure returns (uint){\r... */\n      swap3\n      swap2\n      pop\n      pop\n      jump\t// out\n        /* \"contracts/7_maths.sol\":457:541  function mod(uint a, uint b) public pure returns (uint){\r... */\n    tag_41:\n        /* \"contracts/7_maths.sol\":507:511  uint */\n      0x00\n        /* \"contracts/7_maths.sol\":532:533  b */\n      dup2\n        /* \"contracts/7_maths.sol\":530:531  a */\n      dup4\n        /* \"contracts/7_maths.sol\":530:533  a%b */\n      tag_66\n      swap2\n      swap1\n      tag_61\n      jump\t// in\n    tag_66:\n        /* \"contracts/7_maths.sol\":523:533  return a%b */\n      swap1\n      pop\n        /* \"contracts/7_maths.sol\":457:541  function mod(uint a, uint b) public pure returns (uint){\r... */\n      swap3\n      swap2\n      pop\n      pop\n      jump\t// out\n        /* \"#utility.yul\":7:146   */\n    tag_68:\n        /* \"#utility.yul\":53:58   */\n      0x00\n        /* \"#utility.yul\":91:97   */\n      dup2\n        /* \"#utility.yul\":78:98   */\n      calldataload\n        /* \"#utility.yul\":69:98   */\n      swap1\n      pop\n        /* \"#utility.yul\":107:140   */\n      tag_70\n        /* \"#utility.yul\":134:139   */\n      dup2\n        /* \"#utility.yul\":107:140   */\n      tag_71\n      jump\t// in\n    tag_70:\n        /* \"#utility.yul\":7:146   */\n      swap3\n      swap2\n      pop\n      pop\n      jump\t// out\n        /* \"#utility.yul\":152:626   */\n    tag_13:\n        /* \"#utility.yul\":220:226   */\n      0x00\n        /* \"#utility.yul\":228:234   */\n      dup1\n        /* \"#utility.yul\":277:279   */\n      0x40\n        /* \"#utility.yul\":265:274   */\n      dup4\n        /* \"#utility.yul\":256:263   */\n      dup6\n        /* \"#utility.yul\":252:275   */\n      sub\n        /* \"#utility.yul\":248:280   */\n      slt\n        /* \"#utility.yul\":245:364   */\n      iszero\n      tag_73\n      jumpi\n        /* \"#utility.yul\":283:362   */\n      tag_74\n      tag_75\n      jump\t// in\n    tag_74:\n        /* \"#utility.yul\":245:364   */\n    tag_73:\n        /* \"#utility.yul\":403:404   */\n      0x00\n        /* \"#utility.yul\":428:481   */\n      tag_76\n        /* \"#utility.yul\":473:480   */\n      dup6\n        /* \"#utility.yul\":464:470   */\n      dup3\n        /* \"#utility.yul\":453:462   */\n      dup7\n        /* \"#utility.yul\":449:471   */\n      add\n        /* \"#utility.yul\":428:481   */\n      tag_68\n      jump\t// in\n    tag_76:\n        /* \"#utility.yul\":418:481   */\n      swap3\n      pop\n        /* \"#utility.yul\":374:491   */\n      pop\n        /* \"#utility.yul\":530:532   */\n      0x20\n        /* \"#utility.yul\":556:609   */\n      tag_77\n        /* \"#utility.yul\":601:608   */\n      dup6\n        /* \"#utility.yul\":592:598   */\n      dup3\n        /* \"#utility.yul\":581:590   */\n      dup7\n        /* \"#utility.yul\":577:599   */\n      add\n        /* \"#utility.yul\":556:609   */\n      tag_68\n      jump\t// in\n    tag_77:\n        /* \"#utility.yul\":546:609   */\n      swap2\n      pop\n        /* \"#utility.yul\":501:619   */\n      pop\n        /* \"#utility.yul\":152:626   */\n      swap3\n      pop\n      swap3\n      swap1\n      pop\n      jump\t// out\n        /* \"#utility.yul\":632:1251   */\n    tag_31:\n        /* \"#utility.yul\":709:715   */\n      0x00\n        /* \"#utility.yul\":717:723   */\n      dup1\n        /* \"#utility.yul\":725:731   */\n      0x00\n        /* \"#utility.yul\":774:776   */\n      0x60\n        /* \"#utility.yul\":762:771   */\n      dup5\n        /* \"#utility.yul\":753:760   */\n      dup7\n        /* \"#utility.yul\":749:772   */\n      sub\n        /* \"#utility.yul\":745:777   */\n      slt\n        /* \"#utility.yul\":742:861   */\n      iszero\n      tag_79\n      jumpi\n        /* \"#utility.yul\":780:859   */\n      tag_80\n      tag_75\n      jump\t// in\n    tag_80:\n        /* \"#utility.yul\":742:861   */\n    tag_79:\n        /* \"#utility.yul\":900:901   */\n      0x00\n        /* \"#utility.yul\":925:978   */\n      tag_81\n        /* \"#utility.yul\":970:977   */\n      dup7\n        /* \"#utility.yul\":961:967   */\n      dup3\n        /* \"#utility.yul\":950:959   */\n      dup8\n        /* \"#utility.yul\":946:968   */\n      add\n        /* \"#utility.yul\":925:978   */\n      tag_68\n      jump\t// in\n    tag_81:\n        /* \"#utility.yul\":915:978   */\n      swap4\n      pop\n        /* \"#utility.yul\":871:988   */\n      pop\n        /* \"#utility.yul\":1027:1029   */\n      0x20\n        /* \"#utility.yul\":1053:1106   */\n      tag_82\n        /* \"#utility.yul\":1098:1105   */\n      dup7\n        /* \"#utility.yul\":1089:1095   */\n      dup3\n        /* \"#utility.yul\":1078:1087   */\n      dup8\n        /* \"#utility.yul\":1074:1096   */\n      add\n        /* \"#utility.yul\":1053:1106   */\n      tag_68\n      jump\t// in\n    tag_82:\n        /* \"#utility.yul\":1043:1106   */\n      swap3\n      pop\n        /* \"#utility.yul\":998:1116   */\n      pop\n        /* \"#utility.yul\":1155:1157   */\n      0x40\n        /* \"#utility.yul\":1181:1234   */\n      tag_83\n        /* \"#utility.yul\":1226:1233   */\n      dup7\n        /* \"#utility.yul\":1217:1223   */\n      dup3\n        /* \"#utility.yul\":1206:1215   */\n      dup8\n        /* \"#utility.yul\":1202:1224   */\n      add\n        /* \"#utility.yul\":1181:1234   */\n      tag_68\n      jump\t// in\n    tag_83:\n        /* \"#utility.yul\":1171:1234   */\n      swap2\n      pop\n        /* \"#utility.yul\":1126:1244   */\n      pop\n        /* \"#utility.yul\":632:1251   */\n      swap3\n      pop\n      swap3\n      pop\n      swap3\n      jump\t// out\n        /* \"#utility.yul\":1257:1375   */\n    tag_84:\n        /* \"#utility.yul\":1344:1368   */\n      tag_86\n        /* \"#utility.yul\":1362:1367   */\n      dup2\n        /* \"#utility.yul\":1344:1368   */\n      tag_87\n      jump\t// in\n    tag_86:\n        /* \"#utility.yul\":1339:1342   */\n      dup3\n        /* \"#utility.yul\":1332:1369   */\n      mstore\n        /* \"#utility.yul\":1257:1375   */\n      pop\n      pop\n      jump\t// out\n        /* \"#utility.yul\":1381:1603   */\n    tag_16:\n        /* \"#utility.yul\":1474:1478   */\n      0x00\n        /* \"#utility.yul\":1512:1514   */\n      0x20\n        /* \"#utility.yul\":1501:1510   */\n      dup3\n        /* \"#utility.yul\":1497:1515   */\n      add\n        /* \"#utility.yul\":1489:1515   */\n      swap1\n      pop\n        /* \"#utility.yul\":1525:1596   */\n      tag_89\n        /* \"#utility.yul\":1593:1594   */\n      0x00\n        /* \"#utility.yul\":1582:1591   */\n      dup4\n        /* \"#utility.yul\":1578:1595   */\n      add\n        /* \"#utility.yul\":1569:1575   */\n      dup5\n        /* \"#utility.yul\":1525:1596   */\n      tag_84\n      jump\t// in\n    tag_89:\n        /* \"#utility.yul\":1381:1603   */\n      swap3\n      swap2\n      pop\n      pop\n      jump\t// out\n        /* \"#utility.yul\":1609:1941   */\n    tag_34:\n        /* \"#utility.yul\":1730:1734   */\n      0x00\n        /* \"#utility.yul\":1768:1770   */\n      0x40\n        /* \"#utility.yul\":1757:1766   */\n      dup3\n        /* \"#utility.yul\":1753:1771   */\n      add\n        /* \"#utility.yul\":1745:1771   */\n      swap1\n      pop\n        /* \"#utility.yul\":1781:1852   */\n      tag_91\n        /* \"#utility.yul\":1849:1850   */\n      0x00\n        /* \"#utility.yul\":1838:1847   */\n      dup4\n        /* \"#utility.yul\":1834:1851   */\n      add\n        /* \"#utility.yul\":1825:1831   */\n      dup6\n        /* \"#utility.yul\":1781:1852   */\n      tag_84\n      jump\t// in\n    tag_91:\n        /* \"#utility.yul\":1862:1934   */\n      tag_92\n        /* \"#utility.yul\":1930:1932   */\n      0x20\n        /* \"#utility.yul\":1919:1928   */\n      dup4\n        /* \"#utility.yul\":1915:1933   */\n      add\n        /* \"#utility.yul\":1906:1912   */\n      dup5\n        /* \"#utility.yul\":1862:1934   */\n      tag_84\n      jump\t// in\n    tag_92:\n        /* \"#utility.yul\":1609:1941   */\n      swap4\n      swap3\n      pop\n      pop\n      pop\n      jump\t// out\n        /* \"#utility.yul\":2028:2333   */\n    tag_54:\n        /* \"#utility.yul\":2068:2071   */\n      0x00\n        /* \"#utility.yul\":2087:2107   */\n      tag_96\n        /* \"#utility.yul\":2105:2106   */\n      dup3\n        /* \"#utility.yul\":2087:2107   */\n      tag_87\n      jump\t// in\n    tag_96:\n        /* \"#utility.yul\":2082:2107   */\n      swap2\n      pop\n        /* \"#utility.yul\":2121:2141   */\n      tag_97\n        /* \"#utility.yul\":2139:2140   */\n      dup4\n        /* \"#utility.yul\":2121:2141   */\n      tag_87\n      jump\t// in\n    tag_97:\n        /* \"#utility.yul\":2116:2141   */\n      swap3\n      pop\n        /* \"#utility.yul\":2275:2276   */\n      dup3\n        /* \"#utility.yul\":2207:2273   */\n      0xffffffffffffffffffffffffffffffffffffffffffffffffffffffffffffffff\n        /* \"#utility.yul\":2203:2277   */\n      sub\n        /* \"#utility.yul\":2200:2201   */\n      dup3\n        /* \"#utility.yul\":2197:2278   */\n      gt\n        /* \"#utility.yul\":2194:2301   */\n      iszero\n      tag_98\n      jumpi\n        /* \"#utility.yul\":2281:2299   */\n      tag_99\n      tag_100\n      jump\t// in\n    tag_99:\n        /* \"#utility.yul\":2194:2301   */\n    tag_98:\n        /* \"#utility.yul\":2325:2326   */\n      dup3\n        /* \"#utility.yul\":2322:2323   */\n      dup3\n        /* \"#utility.yul\":2318:2327   */\n      add\n        /* \"#utility.yul\":2311:2327   */\n      swap1\n      pop\n        /* \"#utility.yul\":2028:2333   */\n      swap3\n      swap2\n      pop\n      pop\n      jump\t// out\n        /* \"#utility.yul\":2339:2524   */\n    tag_51:\n        /* \"#utility.yul\":2379:2380   */\n      0x00\n        /* \"#utility.yul\":2396:2416   */\n      tag_102\n        /* \"#utility.yul\":2414:2415   */\n      dup3\n        /* \"#utility.yul\":2396:2416   */\n      tag_87\n      jump\t// in\n    tag_102:\n        /* \"#utility.yul\":2391:2416   */\n      swap2\n      pop\n        /* \"#utility.yul\":2430:2450   */\n      tag_103\n        /* \"#utility.yul\":2448:2449   */\n      dup4\n        /* \"#utility.yul\":2430:2450   */\n      tag_87\n      jump\t// in\n    tag_103:\n        /* \"#utility.yul\":2425:2450   */\n      swap3\n      pop\n        /* \"#utility.yul\":2469:2470   */\n      dup3\n        /* \"#utility.yul\":2459:2494   */\n      tag_104\n      jumpi\n        /* \"#utility.yul\":2474:2492   */\n      tag_105\n      tag_58\n      jump\t// in\n    tag_105:\n        /* \"#utility.yul\":2459:2494   */\n    tag_104:\n        /* \"#utility.yul\":2516:2517   */\n      dup3\n        /* \"#utility.yul\":2513:2514   */\n      dup3\n        /* \"#utility.yul\":2509:2518   */\n      div\n        /* \"#utility.yul\":2504:2518   */\n      swap1\n      pop\n        /* \"#utility.yul\":2339:2524   */\n      swap3\n      swap2\n      pop\n      pop\n      jump\t// out\n        /* \"#utility.yul\":2530:3378   */\n    tag_106:\n        /* \"#utility.yul\":2591:2596   */\n      0x00\n        /* \"#utility.yul\":2598:2602   */\n      dup1\n        /* \"#utility.yul\":2622:2628   */\n      dup3\n        /* \"#utility.yul\":2613:2628   */\n      swap2\n      pop\n        /* \"#utility.yul\":2646:2651   */\n      dup4\n        /* \"#utility.yul\":2637:2651   */\n      swap1\n      pop\n        /* \"#utility.yul\":2660:3372   */\n    tag_108:\n        /* \"#utility.yul\":2681:2682   */\n      0x01\n        /* \"#utility.yul\":2671:2679   */\n      dup6\n        /* \"#utility.yul\":2668:2683   */\n      gt\n        /* \"#utility.yul\":2660:3372   */\n      iszero\n      tag_110\n      jumpi\n        /* \"#utility.yul\":2776:2780   */\n      dup1\n        /* \"#utility.yul\":2771:2774   */\n      dup7\n        /* \"#utility.yul\":2767:2781   */\n      div\n        /* \"#utility.yul\":2761:2765   */\n      dup2\n        /* \"#utility.yul\":2758:2782   */\n      gt\n        /* \"#utility.yul\":2755:2805   */\n      iszero\n      tag_111\n      jumpi\n        /* \"#utility.yul\":2785:2803   */\n      tag_112\n      tag_100\n      jump\t// in\n    tag_112:\n        /* \"#utility.yul\":2755:2805   */\n    tag_111:\n        /* \"#utility.yul\":2835:2836   */\n      0x01\n        /* \"#utility.yul\":2825:2833   */\n      dup6\n        /* \"#utility.yul\":2821:2837   */\n      and\n        /* \"#utility.yul\":2818:3269   */\n      iszero\n      tag_113\n      jumpi\n        /* \"#utility.yul\":3250:3254   */\n      dup1\n        /* \"#utility.yul\":3243:3248   */\n      dup3\n        /* \"#utility.yul\":3239:3255   */\n      mul\n        /* \"#utility.yul\":3230:3255   */\n      swap2\n      pop\n        /* \"#utility.yul\":2818:3269   */\n    tag_113:\n        /* \"#utility.yul\":3300:3304   */\n      dup1\n        /* \"#utility.yul\":3294:3298   */\n      dup2\n        /* \"#utility.yul\":3290:3305   */\n      mul\n        /* \"#utility.yul\":3282:3305   */\n      swap1\n      pop\n        /* \"#utility.yul\":3330:3362   */\n      tag_114\n        /* \"#utility.yul\":3353:3361   */\n      dup6\n        /* \"#utility.yul\":3330:3362   */\n      tag_115\n      jump\t// in\n    tag_114:\n        /* \"#utility.yul\":3318:3362   */\n      swap5\n      pop\n        /* \"#utility.yul\":2660:3372   */\n      jump(tag_108)\n    tag_110:\n        /* \"#utility.yul\":2530:3378   */\n      swap5\n      pop\n      swap5\n      swap3\n      pop\n      pop\n      pop\n      jump\t// out\n        /* \"#utility.yul\":3384:3669   */\n    tag_64:\n        /* \"#utility.yul\":3444:3449   */\n      0x00\n        /* \"#utility.yul\":3468:3491   */\n      tag_117\n        /* \"#utility.yul\":3486:3490   */\n      dup3\n        /* \"#utility.yul\":3468:3491   */\n      tag_87\n      jump\t// in\n    tag_117:\n        /* \"#utility.yul\":3460:3491   */\n      swap2\n      pop\n        /* \"#utility.yul\":3512:3539   */\n      tag_118\n        /* \"#utility.yul\":3530:3538   */\n      dup4\n        /* \"#utility.yul\":3512:3539   */\n      tag_87\n      jump\t// in\n    tag_118:\n        /* \"#utility.yul\":3500:3539   */\n      swap3\n      pop\n        /* \"#utility.yul\":3558:3662   */\n      tag_119\n        /* \"#utility.yul\":3595:3661   */\n      0xffffffffffffffffffffffffffffffffffffffffffffffffffffffffffffffff\n        /* \"#utility.yul\":3585:3593   */\n      dup5\n        /* \"#utility.yul\":3579:3583   */\n      dup5\n        /* \"#utility.yul\":3558:3662   */\n      tag_120\n      jump\t// in\n    tag_119:\n        /* \"#utility.yul\":3549:3662   */\n      swap1\n      pop\n        /* \"#utility.yul\":3384:3669   */\n      swap3\n      swap2\n      pop\n      pop\n      jump\t// out\n        /* \"#utility.yul\":3675:4748   */\n    tag_120:\n        /* \"#utility.yul\":3729:3734   */\n      0x00\n        /* \"#utility.yul\":3920:3928   */\n      dup3\n        /* \"#utility.yul\":3910:3950   */\n      tag_122\n      jumpi\n        /* \"#utility.yul\":3941:3942   */\n      0x01\n        /* \"#utility.yul\":3932:3942   */\n      swap1\n      pop\n        /* \"#utility.yul\":3943:3948   */\n      jump(tag_121)\n        /* \"#utility.yul\":3910:3950   */\n    tag_122:\n        /* \"#utility.yul\":3969:3973   */\n      dup2\n        /* \"#utility.yul\":3959:3995   */\n      tag_123\n      jumpi\n        /* \"#utility.yul\":3986:3987   */\n      0x00\n        /* \"#utility.yul\":3977:3987   */\n      swap1\n      pop\n        /* \"#utility.yul\":3988:3993   */\n      jump(tag_121)\n        /* \"#utility.yul\":3959:3995   */\n    tag_123:\n        /* \"#utility.yul\":4055:4059   */\n      dup2\n        /* \"#utility.yul\":4103:4104   */\n      0x01\n        /* \"#utility.yul\":4098:4125   */\n      dup2\n      eq\n      tag_125\n      jumpi\n        /* \"#utility.yul\":4139:4140   */\n      0x02\n        /* \"#utility.yul\":4134:4325   */\n      dup2\n      eq\n      tag_126\n      jumpi\n        /* \"#utility.yul\":4048:4325   */\n      jump(tag_124)\n        /* \"#utility.yul\":4098:4125   */\n    tag_125:\n        /* \"#utility.yul\":4116:4117   */\n      0x01\n        /* \"#utility.yul\":4107:4117   */\n      swap2\n      pop\n        /* \"#utility.yul\":4118:4123   */\n      pop\n      jump(tag_121)\n        /* \"#utility.yul\":4134:4325   */\n    tag_126:\n        /* \"#utility.yul\":4179:4182   */\n      0xff\n        /* \"#utility.yul\":4169:4177   */\n      dup5\n        /* \"#utility.yul\":4166:4183   */\n      gt\n        /* \"#utility.yul\":4163:4206   */\n      iszero\n      tag_127\n      jumpi\n        /* \"#utility.yul\":4186:4204   */\n      tag_128\n      tag_100\n      jump\t// in\n    tag_128:\n        /* \"#utility.yul\":4163:4206   */\n    tag_127:\n        /* \"#utility.yul\":4235:4243   */\n      dup4\n        /* \"#utility.yul\":4232:4233   */\n      0x02\n        /* \"#utility.yul\":4228:4244   */\n      exp\n        /* \"#utility.yul\":4219:4244   */\n      swap2\n      pop\n        /* \"#utility.yul\":4270:4273   */\n      dup5\n        /* \"#utility.yul\":4263:4268   */\n      dup3\n        /* \"#utility.yul\":4260:4274   */\n      gt\n        /* \"#utility.yul\":4257:4297   */\n      iszero\n      tag_129\n      jumpi\n        /* \"#utility.yul\":4277:4295   */\n      tag_130\n      tag_100\n      jump\t// in\n    tag_130:\n        /* \"#utility.yul\":4257:4297   */\n    tag_129:\n        /* \"#utility.yul\":4310:4315   */\n      pop\n      jump(tag_121)\n        /* \"#utility.yul\":4048:4325   */\n    tag_124:\n      pop\n        /* \"#utility.yul\":4434:4436   */\n      0x20\n        /* \"#utility.yul\":4424:4432   */\n      dup4\n        /* \"#utility.yul\":4421:4437   */\n      lt\n        /* \"#utility.yul\":4415:4418   */\n      0x0133\n        /* \"#utility.yul\":4409:4413   */\n      dup4\n        /* \"#utility.yul\":4406:4419   */\n      lt\n        /* \"#utility.yul\":4402:4438   */\n      and\n        /* \"#utility.yul\":4384:4386   */\n      0x4e\n        /* \"#utility.yul\":4374:4382   */\n      dup5\n        /* \"#utility.yul\":4371:4387   */\n      lt\n        /* \"#utility.yul\":4366:4368   */\n      0x0b\n        /* \"#utility.yul\":4360:4364   */\n      dup5\n        /* \"#utility.yul\":4357:4369   */\n      lt\n        /* \"#utility.yul\":4353:4388   */\n      and\n        /* \"#utility.yul\":4337:4448   */\n      or\n        /* \"#utility.yul\":4334:4580   */\n      iszero\n      tag_131\n      jumpi\n        /* \"#utility.yul\":4490:4498   */\n      dup3\n        /* \"#utility.yul\":4484:4488   */\n      dup3\n        /* \"#utility.yul\":4480:4499   */\n      exp\n        /* \"#utility.yul\":4471:4499   */\n      swap1\n      pop\n        /* \"#utility.yul\":4525:4528   */\n      dup4\n        /* \"#utility.yul\":4518:4523   */\n      dup2\n        /* \"#utility.yul\":4515:4529   */\n      gt\n        /* \"#utility.yul\":4512:4552   */\n      iszero\n      tag_132\n      jumpi\n        /* \"#utility.yul\":4532:4550   */\n      tag_133\n      tag_100\n      jump\t// in\n    tag_133:\n        /* \"#utility.yul\":4512:4552   */\n    tag_132:\n        /* \"#utility.yul\":4565:4570   */\n      jump(tag_121)\n        /* \"#utility.yul\":4334:4580   */\n    tag_131:\n        /* \"#utility.yul\":4605:4647   */\n      tag_134\n        /* \"#utility.yul\":4643:4646   */\n      dup5\n        /* \"#utility.yul\":4633:4641   */\n      dup5\n        /* \"#utility.yul\":4627:4631   */\n      dup5\n        /* \"#utility.yul\":4624:4625   */\n      0x01\n        /* \"#utility.yul\":4605:4647   */\n      tag_106\n      jump\t// in\n    tag_134:\n        /* \"#utility.yul\":4590:4647   */\n      swap3\n      pop\n      swap1\n      pop\n        /* \"#utility.yul\":4679:4683   */\n      dup2\n        /* \"#utility.yul\":4674:4677   */\n      dup5\n        /* \"#utility.yul\":4670:4684   */\n      div\n        /* \"#utility.yul\":4663:4668   */\n      dup2\n        /* \"#utility.yul\":4660:4685   */\n      gt\n        /* \"#utility.yul\":4657:4708   */\n      iszero\n      tag_135\n      jumpi\n        /* \"#utility.yul\":4688:4706   */\n      tag_136\n      tag_100\n      jump\t// in\n    tag_136:\n        /* \"#utility.yul\":4657:4708   */\n    tag_135:\n        /* \"#utility.yul\":4737:4741   */\n      dup2\n        /* \"#utility.yul\":4730:4735   */\n      dup2\n        /* \"#utility.yul\":4726:4742   */\n      mul\n        /* \"#utility.yul\":4717:4742   */\n      swap1\n      pop\n        /* \"#utility.yul\":3675:4748   */\n    tag_121:\n      swap4\n      swap3\n      pop\n      pop\n      pop\n      jump\t// out\n        /* \"#utility.yul\":4754:5102   */\n    tag_48:\n        /* \"#utility.yul\":4794:4801   */\n      0x00\n        /* \"#utility.yul\":4817:4837   */\n      tag_138\n        /* \"#utility.yul\":4835:4836   */\n      dup3\n        /* \"#utility.yul\":4817:4837   */\n      tag_87\n      jump\t// in\n    tag_138:\n        /* \"#utility.yul\":4812:4837   */\n      swap2\n      pop\n        /* \"#utility.yul\":4851:4871   */\n      tag_139\n        /* \"#utility.yul\":4869:4870   */\n      dup4\n        /* \"#utility.yul\":4851:4871   */\n      tag_87\n      jump\t// in\n    tag_139:\n        /* \"#utility.yul\":4846:4871   */\n      swap3\n      pop\n        /* \"#utility.yul\":5039:5040   */\n      dup2\n        /* \"#utility.yul\":4971:5037   */\n      0xffffffffffffffffffffffffffffffffffffffffffffffffffffffffffffffff\n        /* \"#utility.yul\":4967:5041   */\n      div\n        /* \"#utility.yul\":4964:4965   */\n      dup4\n        /* \"#utility.yul\":4961:5042   */\n      gt\n        /* \"#utility.yul\":4956:4957   */\n      dup3\n        /* \"#utility.yul\":4949:4958   */\n      iszero\n        /* \"#utility.yul\":4942:4959   */\n      iszero\n        /* \"#utility.yul\":4938:5043   */\n      and\n        /* \"#utility.yul\":4935:5066   */\n      iszero\n      tag_140\n      jumpi\n        /* \"#utility.yul\":5046:5064   */\n      tag_141\n      tag_100\n      jump\t// in\n    tag_141:\n        /* \"#utility.yul\":4935:5066   */\n    tag_140:\n        /* \"#utility.yul\":5094:5095   */\n      dup3\n        /* \"#utility.yul\":5091:5092   */\n      dup3\n        /* \"#utility.yul\":5087:5096   */\n      mul\n        /* \"#utility.yul\":5076:5096   */\n      swap1\n      pop\n        /* \"#utility.yul\":4754:5102   */\n      swap3\n      swap2\n      pop\n      pop\n      jump\t// out\n        /* \"#utility.yul\":5108:5299   */\n    tag_45:\n        /* \"#utility.yul\":5148:5152   */\n      0x00\n        /* \"#utility.yul\":5168:5188   */\n      tag_143\n        /* \"#utility.yul\":5186:5187   */\n      dup3\n        /* \"#utility.yul\":5168:5188   */\n      tag_87\n      jump\t// in\n    tag_143:\n        /* \"#utility.yul\":5163:5188   */\n      swap2\n      pop\n        /* \"#utility.yul\":5202:5222   */\n      tag_144\n        /* \"#utility.yul\":5220:5221   */\n      dup4\n        /* \"#utility.yul\":5202:5222   */\n      tag_87\n      jump\t// in\n    tag_144:\n        /* \"#utility.yul\":5197:5222   */\n      swap3\n      pop\n        /* \"#utility.yul\":5241:5242   */\n      dup3\n        /* \"#utility.yul\":5238:5239   */\n      dup3\n        /* \"#utility.yul\":5235:5243   */\n      lt\n        /* \"#utility.yul\":5232:5266   */\n      iszero\n      tag_145\n      jumpi\n        /* \"#utility.yul\":5246:5264   */\n      tag_146\n      tag_100\n      jump\t// in\n    tag_146:\n        /* \"#utility.yul\":5232:5266   */\n    tag_145:\n        /* \"#utility.yul\":5291:5292   */\n      dup3\n        /* \"#utility.yul\":5288:5289   */\n      dup3\n        /* \"#utility.yul\":5284:5293   */\n      sub\n        /* \"#utility.yul\":5276:5293   */\n      swap1\n      pop\n        /* \"#utility.yul\":5108:5299   */\n      swap3\n      swap2\n      pop\n      pop\n      jump\t// out\n        /* \"#utility.yul\":5305:5382   */\n    tag_87:\n        /* \"#utility.yul\":5342:5349   */\n      0x00\n        /* \"#utility.yul\":5371:5376   */\n      dup2\n        /* \"#utility.yul\":5360:5376   */\n      swap1\n      pop\n        /* \"#utility.yul\":5305:5382   */\n      swap2\n      swap1\n      pop\n      jump\t// out\n        /* \"#utility.yul\":5388:5564   */\n    tag_61:\n        /* \"#utility.yul\":5420:5421   */\n      0x00\n        /* \"#utility.yul\":5437:5457   */\n      tag_149\n        /* \"#utility.yul\":5455:5456   */\n      dup3\n        /* \"#utility.yul\":5437:5457   */\n      tag_87\n      jump\t// in\n    tag_149:\n        /* \"#utility.yul\":5432:5457   */\n      swap2\n      pop\n        /* \"#utility.yul\":5471:5491   */\n      tag_150\n        /* \"#utility.yul\":5489:5490   */\n      dup4\n        /* \"#utility.yul\":5471:5491   */\n      tag_87\n      jump\t// in\n    tag_150:\n        /* \"#utility.yul\":5466:5491   */\n      swap3\n      pop\n        /* \"#utility.yul\":5510:5511   */\n      dup3\n        /* \"#utility.yul\":5500:5535   */\n      tag_151\n      jumpi\n        /* \"#utility.yul\":5515:5533   */\n      tag_152\n      tag_58\n      jump\t// in\n    tag_152:\n        /* \"#utility.yul\":5500:5535   */\n    tag_151:\n        /* \"#utility.yul\":5556:5557   */\n      dup3\n        /* \"#utility.yul\":5553:5554   */\n      dup3\n        /* \"#utility.yul\":5549:5558   */\n      mod\n        /* \"#utility.yul\":5544:5558   */\n      swap1\n      pop\n        /* \"#utility.yul\":5388:5564   */\n      swap3\n      swap2\n      pop\n      pop\n      jump\t// out\n        /* \"#utility.yul\":5570:5750   */\n    tag_100:\n        /* \"#utility.yul\":5618:5695   */\n      0x4e487b7100000000000000000000000000000000000000000000000000000000\n        /* \"#utility.yul\":5615:5616   */\n      0x00\n        /* \"#utility.yul\":5608:5696   */\n      mstore\n        /* \"#utility.yul\":5715:5719   */\n      0x11\n        /* \"#utility.yul\":5712:5713   */\n      0x04\n        /* \"#utility.yul\":5705:5720   */\n      mstore\n        /* \"#utility.yul\":5739:5743   */\n      0x24\n        /* \"#utility.yul\":5736:5737   */\n      0x00\n        /* \"#utility.yul\":5729:5744   */\n      revert\n        /* \"#utility.yul\":5756:5936   */\n    tag_58:\n        /* \"#utility.yul\":5804:5881   */\n      0x4e487b7100000000000000000000000000000000000000000000000000000000\n        /* \"#utility.yul\":5801:5802   */\n      0x00\n        /* \"#utility.yul\":5794:5882   */\n      mstore\n        /* \"#utility.yul\":5901:5905   */\n      0x12\n        /* \"#utility.yul\":5898:5899   */\n      0x04\n        /* \"#utility.yul\":5891:5906   */\n      mstore\n        /* \"#utility.yul\":5925:5929   */\n      0x24\n        /* \"#utility.yul\":5922:5923   */\n      0x00\n        /* \"#utility.yul\":5915:5930   */\n      revert\n        /* \"#utility.yul\":6065:6182   */\n    tag_75:\n        /* \"#utility.yul\":6174:6175   */\n      0x00\n        /* \"#utility.yul\":6171:6172   */\n      dup1\n        /* \"#utility.yul\":6164:6176   */\n      revert\n        /* \"#utility.yul\":6188:6290   */\n    tag_115:\n        /* \"#utility.yul\":6230:6238   */\n      0x00\n        /* \"#utility.yul\":6277:6282   */\n      dup2\n        /* \"#utility.yul\":6274:6275   */\n      0x01\n        /* \"#utility.yul\":6270:6283   */\n      shr\n        /* \"#utility.yul\":6249:6283   */\n      swap1\n      pop\n        /* \"#utility.yul\":6188:6290   */\n      swap2\n      swap1\n      pop\n      jump\t// out\n        /* \"#utility.yul\":6296:6418   */\n    tag_71:\n        /* \"#utility.yul\":6369:6393   */\n      tag_160\n        /* \"#utility.yul\":6387:6392   */\n      dup2\n        /* \"#utility.yul\":6369:6393   */\n      tag_87\n      jump\t// in\n    tag_160:\n        /* \"#utility.yul\":6362:6367   */\n      dup2\n        /* \"#utility.yul\":6359:6394   */\n      eq\n        /* \"#utility.yul\":6349:6412   */\n      tag_161\n      jumpi\n        /* \"#utility.yul\":6408:6409   */\n      0x00\n        /* \"#utility.yul\":6405:6406   */\n      dup1\n        /* \"#utility.yul\":6398:6410   */\n      revert\n        /* \"#utility.yul\":6349:6412   */\n    tag_161:\n        /* \"#utility.yul\":6296:6418   */\n      pop\n      jump\t// out\n\n    auxdata: 0xa26469706673582212203b87373698d758aecfcd6e6444d49660c3ce6baf8ddf264879860cc4bac692c164736f6c63430008070033\n}\n",
				"bytecode": {
					"linkReferences": {},
					"object": "608060405234801561001057600080fd5b50610708806100206000396000f3fe608060405234801561001057600080fd5b506004361061007d5760003560e01c8063b1b45b1b1161005b578063b1b45b1b14610112578063dd125e3714610142578063e989d9cc14610173578063f43f523a146101a35761007d565b806352f294bc146100825780639aa727f6146100b2578063a391c15b146100e2575b600080fd5b61009c600480360381019061009791906102a4565b6101d3565b6040516100a99190610346565b60405180910390f35b6100cc60048036038101906100c791906102a4565b6101e9565b6040516100d99190610346565b60405180910390f35b6100fc60048036038101906100f791906102a4565b6101ff565b6040516101099190610346565b60405180910390f35b61012c600480360381019061012791906102a4565b610215565b6040516101399190610346565b60405180910390f35b61015c600480360381019061015791906102e4565b61022b565b60405161016a929190610361565b60405180910390f35b61018d600480360381019061018891906102a4565b610263565b60405161019a9190610346565b60405180910390f35b6101bd60048036038101906101b891906102a4565b610279565b6040516101ca9190610346565b60405180910390f35b600081836101e191906105dc565b905092915050565b600081836101f79190610582565b905092915050565b6000818361020d91906103e0565b905092915050565b60008183610223919061038a565b905092915050565b600080828061023d5761023c61067a565b5b84860883858761024d919061038a565b610257919061061a565b91509150935093915050565b600081836102719190610464565b905092915050565b60008183610287919061061a565b905092915050565b60008135905061029e816106bb565b92915050565b600080604083850312156102bb576102ba6106a9565b5b60006102c98582860161028f565b92505060206102da8582860161028f565b9150509250929050565b6000806000606084860312156102fd576102fc6106a9565b5b600061030b8682870161028f565b935050602061031c8682870161028f565b925050604061032d8682870161028f565b9150509250925092565b61034081610610565b82525050565b600060208201905061035b6000830184610337565b92915050565b60006040820190506103766000830185610337565b6103836020830184610337565b9392505050565b600061039582610610565b91506103a083610610565b9250827fffffffffffffffffffffffffffffffffffffffffffffffffffffffffffffffff038211156103d5576103d461064b565b5b828201905092915050565b60006103eb82610610565b91506103f683610610565b9250826104065761040561067a565b5b828204905092915050565b6000808291508390505b600185111561045b578086048111156104375761043661064b565b5b60018516156104465780820291505b8081029050610454856106ae565b945061041b565b94509492505050565b600061046f82610610565b915061047a83610610565b92506104a77fffffffffffffffffffffffffffffffffffffffffffffffffffffffffffffffff84846104af565b905092915050565b6000826104bf576001905061057b565b816104cd576000905061057b565b81600181146104e357600281146104ed5761051c565b600191505061057b565b60ff8411156104ff576104fe61064b565b5b8360020a9150848211156105165761051561064b565b5b5061057b565b5060208310610133831016604e8410600b84101617156105515782820a90508381111561054c5761054b61064b565b5b61057b565b61055e8484846001610411565b925090508184048111156105755761057461064b565b5b81810290505b9392505050565b600061058d82610610565b915061059883610610565b9250817fffffffffffffffffffffffffffffffffffffffffffffffffffffffffffffffff04831182151516156105d1576105d061064b565b5b828202905092915050565b60006105e782610610565b91506105f283610610565b9250828210156106055761060461064b565b5b828203905092915050565b6000819050919050565b600061062582610610565b915061063083610610565b9250826106405761063f61067a565b5b828206905092915050565b7f4e487b7100000000000000000000000000000000000000000000000000000000600052601160045260246000fd5b7f4e487b7100000000000000000000000000000000000000000000000000000000600052601260045260246000fd5b600080fd5b60008160011c9050919050565b6106c481610610565b81146106cf57600080fd5b5056fea26469706673582212203b87373698d758aecfcd6e6444d49660c3ce6baf8ddf264879860cc4bac692c164736f6c63430008070033",
					"opcodes": "PUSH1 0x80 PUSH1 0x40 MSTORE CALLVALUE DUP1 ISZERO PUSH2 0x10 JUMPI PUSH1 0x0 DUP1 REVERT JUMPDEST POP PUSH2 0x708 DUP1 PUSH2 0x20 PUSH1 0x0 CODECOPY PUSH1 0x0 RETURN INVALID PUSH1 0x80 PUSH1 0x40 MSTORE CALLVALUE DUP1 ISZERO PUSH2 0x10 JUMPI PUSH1 0x0 DUP1 REVERT JUMPDEST POP PUSH1 0x4 CALLDATASIZE LT PUSH2 0x7D JUMPI PUSH1 0x0 CALLDATALOAD PUSH1 0xE0 SHR DUP1 PUSH4 0xB1B45B1B GT PUSH2 0x5B JUMPI DUP1 PUSH4 0xB1B45B1B EQ PUSH2 0x112 JUMPI DUP1 PUSH4 0xDD125E37 EQ PUSH2 0x142 JUMPI DUP1 PUSH4 0xE989D9CC EQ PUSH2 0x173 JUMPI DUP1 PUSH4 0xF43F523A EQ PUSH2 0x1A3 JUMPI PUSH2 0x7D JUMP JUMPDEST DUP1 PUSH4 0x52F294BC EQ PUSH2 0x82 JUMPI DUP1 PUSH4 0x9AA727F6 EQ PUSH2 0xB2 JUMPI DUP1 PUSH4 0xA391C15B EQ PUSH2 0xE2 JUMPI JUMPDEST PUSH1 0x0 DUP1 REVERT JUMPDEST PUSH2 0x9C PUSH1 0x4 DUP1 CALLDATASIZE SUB DUP2 ADD SWAP1 PUSH2 0x97 SWAP2 SWAP1 PUSH2 0x2A4 JUMP JUMPDEST PUSH2 0x1D3 JUMP JUMPDEST PUSH1 0x40 MLOAD PUSH2 0xA9 SWAP2 SWAP1 PUSH2 0x346 JUMP JUMPDEST PUSH1 0x40 MLOAD DUP1 SWAP2 SUB SWAP1 RETURN JUMPDEST PUSH2 0xCC PUSH1 0x4 DUP1 CALLDATASIZE SUB DUP2 ADD SWAP1 PUSH2 0xC7 SWAP2 SWAP1 PUSH2 0x2A4 JUMP JUMPDEST PUSH2 0x1E9 JUMP JUMPDEST PUSH1 0x40 MLOAD PUSH2 0xD9 SWAP2 SWAP1 PUSH2 0x346 JUMP JUMPDEST PUSH1 0x40 MLOAD DUP1 SWAP2 SUB SWAP1 RETURN JUMPDEST PUSH2 0xFC PUSH1 0x4 DUP1 CALLDATASIZE SUB DUP2 ADD SWAP1 PUSH2 0xF7 SWAP2 SWAP1 PUSH2 0x2A4 JUMP JUMPDEST PUSH2 0x1FF JUMP JUMPDEST PUSH1 0x40 MLOAD PUSH2 0x109 SWAP2 SWAP1 PUSH2 0x346 JUMP JUMPDEST PUSH1 0x40 MLOAD DUP1 SWAP2 SUB SWAP1 RETURN JUMPDEST PUSH2 0x12C PUSH1 0x4 DUP1 CALLDATASIZE SUB DUP2 ADD SWAP1 PUSH2 0x127 SWAP2 SWAP1 PUSH2 0x2A4 JUMP JUMPDEST PUSH2 0x215 JUMP JUMPDEST PUSH1 0x40 MLOAD PUSH2 0x139 SWAP2 SWAP1 PUSH2 0x346 JUMP JUMPDEST PUSH1 0x40 MLOAD DUP1 SWAP2 SUB SWAP1 RETURN JUMPDEST PUSH2 0x15C PUSH1 0x4 DUP1 CALLDATASIZE SUB DUP2 ADD SWAP1 PUSH2 0x157 SWAP2 SWAP1 PUSH2 0x2E4 JUMP JUMPDEST PUSH2 0x22B JUMP JUMPDEST PUSH1 0x40 MLOAD PUSH2 0x16A SWAP3 SWAP2 SWAP1 PUSH2 0x361 JUMP JUMPDEST PUSH1 0x40 MLOAD DUP1 SWAP2 SUB SWAP1 RETURN JUMPDEST PUSH2 0x18D PUSH1 0x4 DUP1 CALLDATASIZE SUB DUP2 ADD SWAP1 PUSH2 0x188 SWAP2 SWAP1 PUSH2 0x2A4 JUMP JUMPDEST PUSH2 0x263 JUMP JUMPDEST PUSH1 0x40 MLOAD PUSH2 0x19A SWAP2 SWAP1 PUSH2 0x346 JUMP JUMPDEST PUSH1 0x40 MLOAD DUP1 SWAP2 SUB SWAP1 RETURN JUMPDEST PUSH2 0x1BD PUSH1 0x4 DUP1 CALLDATASIZE SUB DUP2 ADD SWAP1 PUSH2 0x1B8 SWAP2 SWAP1 PUSH2 0x2A4 JUMP JUMPDEST PUSH2 0x279 JUMP JUMPDEST PUSH1 0x40 MLOAD PUSH2 0x1CA SWAP2 SWAP1 PUSH2 0x346 JUMP JUMPDEST PUSH1 0x40 MLOAD DUP1 SWAP2 SUB SWAP1 RETURN JUMPDEST PUSH1 0x0 DUP2 DUP4 PUSH2 0x1E1 SWAP2 SWAP1 PUSH2 0x5DC JUMP JUMPDEST SWAP1 POP SWAP3 SWAP2 POP POP JUMP JUMPDEST PUSH1 0x0 DUP2 DUP4 PUSH2 0x1F7 SWAP2 SWAP1 PUSH2 0x582 JUMP JUMPDEST SWAP1 POP SWAP3 SWAP2 POP POP JUMP JUMPDEST PUSH1 0x0 DUP2 DUP4 PUSH2 0x20D SWAP2 SWAP1 PUSH2 0x3E0 JUMP JUMPDEST SWAP1 POP SWAP3 SWAP2 POP POP JUMP JUMPDEST PUSH1 0x0 DUP2 DUP4 PUSH2 0x223 SWAP2 SWAP1 PUSH2 0x38A JUMP JUMPDEST SWAP1 POP SWAP3 SWAP2 POP POP JUMP JUMPDEST PUSH1 0x0 DUP1 DUP3 DUP1 PUSH2 0x23D JUMPI PUSH2 0x23C PUSH2 0x67A JUMP JUMPDEST JUMPDEST DUP5 DUP7 ADDMOD DUP4 DUP6 DUP8 PUSH2 0x24D SWAP2 SWAP1 PUSH2 0x38A JUMP JUMPDEST PUSH2 0x257 SWAP2 SWAP1 PUSH2 0x61A JUMP JUMPDEST SWAP2 POP SWAP2 POP SWAP4 POP SWAP4 SWAP2 POP POP JUMP JUMPDEST PUSH1 0x0 DUP2 DUP4 PUSH2 0x271 SWAP2 SWAP1 PUSH2 0x464 JUMP JUMPDEST SWAP1 POP SWAP3 SWAP2 POP POP JUMP JUMPDEST PUSH1 0x0 DUP2 DUP4 PUSH2 0x287 SWAP2 SWAP1 PUSH2 0x61A JUMP JUMPDEST SWAP1 POP SWAP3 SWAP2 POP POP JUMP JUMPDEST PUSH1 0x0 DUP2 CALLDATALOAD SWAP1 POP PUSH2 0x29E DUP2 PUSH2 0x6BB JUMP JUMPDEST SWAP3 SWAP2 POP POP JUMP JUMPDEST PUSH1 0x0 DUP1 PUSH1 0x40 DUP4 DUP6 SUB SLT ISZERO PUSH2 0x2BB JUMPI PUSH2 0x2BA PUSH2 0x6A9 JUMP JUMPDEST JUMPDEST PUSH1 0x0 PUSH2 0x2C9 DUP6 DUP3 DUP7 ADD PUSH2 0x28F JUMP JUMPDEST SWAP3 POP POP PUSH1 0x20 PUSH2 0x2DA DUP6 DUP3 DUP7 ADD PUSH2 0x28F JUMP JUMPDEST SWAP2 POP POP SWAP3 POP SWAP3 SWAP1 POP JUMP JUMPDEST PUSH1 0x0 DUP1 PUSH1 0x0 PUSH1 0x60 DUP5 DUP7 SUB SLT ISZERO PUSH2 0x2FD JUMPI PUSH2 0x2FC PUSH2 0x6A9 JUMP JUMPDEST JUMPDEST PUSH1 0x0 PUSH2 0x30B DUP7 DUP3 DUP8 ADD PUSH2 0x28F JUMP JUMPDEST SWAP4 POP POP PUSH1 0x20 PUSH2 0x31C DUP7 DUP3 DUP8 ADD PUSH2 0x28F JUMP JUMPDEST SWAP3 POP POP PUSH1 0x40 PUSH2 0x32D DUP7 DUP3 DUP8 ADD PUSH2 0x28F JUMP JUMPDEST SWAP2 POP POP SWAP3 POP SWAP3 POP SWAP3 JUMP JUMPDEST PUSH2 0x340 DUP2 PUSH2 0x610 JUMP JUMPDEST DUP3 MSTORE POP POP JUMP JUMPDEST PUSH1 0x0 PUSH1 0x20 DUP3 ADD SWAP1 POP PUSH2 0x35B PUSH1 0x0 DUP4 ADD DUP5 PUSH2 0x337 JUMP JUMPDEST SWAP3 SWAP2 POP POP JUMP JUMPDEST PUSH1 0x0 PUSH1 0x40 DUP3 ADD SWAP1 POP PUSH2 0x376 PUSH1 0x0 DUP4 ADD DUP6 PUSH2 0x337 JUMP JUMPDEST PUSH2 0x383 PUSH1 0x20 DUP4 ADD DUP5 PUSH2 0x337 JUMP JUMPDEST SWAP4 SWAP3 POP POP POP JUMP JUMPDEST PUSH1 0x0 PUSH2 0x395 DUP3 PUSH2 0x610 JUMP JUMPDEST SWAP2 POP PUSH2 0x3A0 DUP4 PUSH2 0x610 JUMP JUMPDEST SWAP3 POP DUP3 PUSH32 0xFFFFFFFFFFFFFFFFFFFFFFFFFFFFFFFFFFFFFFFFFFFFFFFFFFFFFFFFFFFFFFFF SUB DUP3 GT ISZERO PUSH2 0x3D5 JUMPI PUSH2 0x3D4 PUSH2 0x64B JUMP JUMPDEST JUMPDEST DUP3 DUP3 ADD SWAP1 POP SWAP3 SWAP2 POP POP JUMP JUMPDEST PUSH1 0x0 PUSH2 0x3EB DUP3 PUSH2 0x610 JUMP JUMPDEST SWAP2 POP PUSH2 0x3F6 DUP4 PUSH2 0x610 JUMP JUMPDEST SWAP3 POP DUP3 PUSH2 0x406 JUMPI PUSH2 0x405 PUSH2 0x67A JUMP JUMPDEST JUMPDEST DUP3 DUP3 DIV SWAP1 POP SWAP3 SWAP2 POP POP JUMP JUMPDEST PUSH1 0x0 DUP1 DUP3 SWAP2 POP DUP4 SWAP1 POP JUMPDEST PUSH1 0x1 DUP6 GT ISZERO PUSH2 0x45B JUMPI DUP1 DUP7 DIV DUP2 GT ISZERO PUSH2 0x437 JUMPI PUSH2 0x436 PUSH2 0x64B JUMP JUMPDEST JUMPDEST PUSH1 0x1 DUP6 AND ISZERO PUSH2 0x446 JUMPI DUP1 DUP3 MUL SWAP2 POP JUMPDEST DUP1 DUP2 MUL SWAP1 POP PUSH2 0x454 DUP6 PUSH2 0x6AE JUMP JUMPDEST SWAP5 POP PUSH2 0x41B JUMP JUMPDEST SWAP5 POP SWAP5 SWAP3 POP POP POP JUMP JUMPDEST PUSH1 0x0 PUSH2 0x46F DUP3 PUSH2 0x610 JUMP JUMPDEST SWAP2 POP PUSH2 0x47A DUP4 PUSH2 0x610 JUMP JUMPDEST SWAP3 POP PUSH2 0x4A7 PUSH32 0xFFFFFFFFFFFFFFFFFFFFFFFFFFFFFFFFFFFFFFFFFFFFFFFFFFFFFFFFFFFFFFFF DUP5 DUP5 PUSH2 0x4AF JUMP JUMPDEST SWAP1 POP SWAP3 SWAP2 POP POP JUMP JUMPDEST PUSH1 0x0 DUP3 PUSH2 0x4BF JUMPI PUSH1 0x1 SWAP1 POP PUSH2 0x57B JUMP JUMPDEST DUP2 PUSH2 0x4CD JUMPI PUSH1 0x0 SWAP1 POP PUSH2 0x57B JUMP JUMPDEST DUP2 PUSH1 0x1 DUP2 EQ PUSH2 0x4E3 JUMPI PUSH1 0x2 DUP2 EQ PUSH2 0x4ED JUMPI PUSH2 0x51C JUMP JUMPDEST PUSH1 0x1 SWAP2 POP POP PUSH2 0x57B JUMP JUMPDEST PUSH1 0xFF DUP5 GT ISZERO PUSH2 0x4FF JUMPI PUSH2 0x4FE PUSH2 0x64B JUMP JUMPDEST JUMPDEST DUP4 PUSH1 0x2 EXP SWAP2 POP DUP5 DUP3 GT ISZERO PUSH2 0x516 JUMPI PUSH2 0x515 PUSH2 0x64B JUMP JUMPDEST JUMPDEST POP PUSH2 0x57B JUMP JUMPDEST POP PUSH1 0x20 DUP4 LT PUSH2 0x133 DUP4 LT AND PUSH1 0x4E DUP5 LT PUSH1 0xB DUP5 LT AND OR ISZERO PUSH2 0x551 JUMPI DUP3 DUP3 EXP SWAP1 POP DUP4 DUP2 GT ISZERO PUSH2 0x54C JUMPI PUSH2 0x54B PUSH2 0x64B JUMP JUMPDEST JUMPDEST PUSH2 0x57B JUMP JUMPDEST PUSH2 0x55E DUP5 DUP5 DUP5 PUSH1 0x1 PUSH2 0x411 JUMP JUMPDEST SWAP3 POP SWAP1 POP DUP2 DUP5 DIV DUP2 GT ISZERO PUSH2 0x575 JUMPI PUSH2 0x574 PUSH2 0x64B JUMP JUMPDEST JUMPDEST DUP2 DUP2 MUL SWAP1 POP JUMPDEST SWAP4 SWAP3 POP POP POP JUMP JUMPDEST PUSH1 0x0 PUSH2 0x58D DUP3 PUSH2 0x610 JUMP JUMPDEST SWAP2 POP PUSH2 0x598 DUP4 PUSH2 0x610 JUMP JUMPDEST SWAP3 POP DUP2 PUSH32 0xFFFFFFFFFFFFFFFFFFFFFFFFFFFFFFFFFFFFFFFFFFFFFFFFFFFFFFFFFFFFFFFF DIV DUP4 GT DUP3 ISZERO ISZERO AND ISZERO PUSH2 0x5D1 JUMPI PUSH2 0x5D0 PUSH2 0x64B JUMP JUMPDEST JUMPDEST DUP3 DUP3 MUL SWAP1 POP SWAP3 SWAP2 POP POP JUMP JUMPDEST PUSH1 0x0 PUSH2 0x5E7 DUP3 PUSH2 0x610 JUMP JUMPDEST SWAP2 POP PUSH2 0x5F2 DUP4 PUSH2 0x610 JUMP JUMPDEST SWAP3 POP DUP3 DUP3 LT ISZERO PUSH2 0x605 JUMPI PUSH2 0x604 PUSH2 0x64B JUMP JUMPDEST JUMPDEST DUP3 DUP3 SUB SWAP1 POP SWAP3 SWAP2 POP POP JUMP JUMPDEST PUSH1 0x0 DUP2 SWAP1 POP SWAP2 SWAP1 POP JUMP JUMPDEST PUSH1 0x0 PUSH2 0x625 DUP3 PUSH2 0x610 JUMP JUMPDEST SWAP2 POP PUSH2 0x630 DUP4 PUSH2 0x610 JUMP JUMPDEST SWAP3 POP DUP3 PUSH2 0x640 JUMPI PUSH2 0x63F PUSH2 0x67A JUMP JUMPDEST JUMPDEST DUP3 DUP3 MOD SWAP1 POP SWAP3 SWAP2 POP POP JUMP JUMPDEST PUSH32 0x4E487B7100000000000000000000000000000000000000000000000000000000 PUSH1 0x0 MSTORE PUSH1 0x11 PUSH1 0x4 MSTORE PUSH1 0x24 PUSH1 0x0 REVERT JUMPDEST PUSH32 0x4E487B7100000000000000000000000000000000000000000000000000000000 PUSH1 0x0 MSTORE PUSH1 0x12 PUSH1 0x4 MSTORE PUSH1 0x24 PUSH1 0x0 REVERT JUMPDEST PUSH1 0x0 DUP1 REVERT JUMPDEST PUSH1 0x0 DUP2 PUSH1 0x1 SHR SWAP1 POP SWAP2 SWAP1 POP JUMP JUMPDEST PUSH2 0x6C4 DUP2 PUSH2 0x610 JUMP JUMPDEST DUP2 EQ PUSH2 0x6CF JUMPI PUSH1 0x0 DUP1 REVERT JUMPDEST POP JUMP INVALID LOG2 PUSH5 0x6970667358 0x22 SLT KECCAK256 EXTCODESIZE DUP8 CALLDATACOPY CALLDATASIZE SWAP9 0xD7 PC 0xAE 0xCF 0xCD PUSH15 0x6444D49660C3CE6BAF8DDF26487986 0xC 0xC4 0xBA 0xC6 SWAP3 0xC1 PUSH5 0x736F6C6343 STOP ADDMOD SMOD STOP CALLER "
				},
				"gasEstimates": {
					"creation": {
						"codeDepositCost": "360000",
						"executionCost": "399",
						"totalCost": "360399"
					},
					"external": {
						"_addmod(uint256,uint256,uint256)": "infinite",
						"div(uint256,uint256)": "infinite",
						"expon(uint256,uint256)": "infinite",
						"mod(uint256,uint256)": "infinite",
						"mult(uint256,uint256)": "infinite",
						"resta(uint256,uint256)": "infinite",
						"suma(uint256,uint256)": "infinite"
					}
				},
				"methodIdentifiers": {
					"_addmod(uint256,uint256,uint256)": "dd125e37",
					"div(uint256,uint256)": "a391c15b",
					"expon(uint256,uint256)": "e989d9cc",
					"mod(uint256,uint256)": "f43f523a",
					"mult(uint256,uint256)": "9aa727f6",
					"resta(uint256,uint256)": "52f294bc",
					"suma(uint256,uint256)": "b1b45b1b"
				}
			},
			"storageLayout": {
				"storage": [],
				"types": null
			},
			"userdoc": {
				"kind": "user",
				"methods": {},
				"version": 1
			}
		}
	}
}