{
	"data": {
		"bytecode": {
			"linkReferences": {},
			"object": "608060405234801561001057600080fd5b506106d4806100206000396000f3fe608060405234801561001057600080fd5b50600436106100415760003560e01c8063188b85b414610046578063afee991114610076578063c12363a2146100a6575b600080fd5b610060600480360381019061005b91906102e8565b6100c4565b60405161006d91906103a4565b60405180910390f35b610090600480360381019061008b9190610279565b610110565b60405161009d91906103a4565b60405180910390f35b6100ae610193565b6040516100bb91906103a4565b60405180910390f35b6000806000905060008390505b83600a6100de919061042b565b8110156101065780826100f1919061042b565b915080806100fe90610532565b9150506100d1565b5080915050919050565b600080846040516020016101249190610378565b60405160208183030381529060405280519060200120905060405160200161014b9061038f565b6040516020818303038152906040528051906020012081141561017c578284610174919061042b565b91505061018c565b82846101889190610481565b9150505b9392505050565b600080600090506000805b600a8110156101eb5760006002836101b6919061057b565b146101d85781836101c7919061042b565b925080806101d490610532565b9150505b81806101e390610532565b92505061019e565b82935050505090565b6000610207610202846103e4565b6103bf565b9050828152602081018484840111156102235761022261063e565b5b61022e8482856104bf565b509392505050565b600082601f83011261024b5761024a610639565b5b813561025b8482602086016101f4565b91505092915050565b60008135905061027381610687565b92915050565b60008060006060848603121561029257610291610648565b5b600084013567ffffffffffffffff8111156102b0576102af610643565b5b6102bc86828701610236565b93505060206102cd86828701610264565b92505060406102de86828701610264565b9150509250925092565b6000602082840312156102fe576102fd610648565b5b600061030c84828501610264565b91505092915050565b600061032082610415565b61032a8185610420565b935061033a8185602086016104ce565b80840191505092915050565b6000610353600483610420565b915061035e8261065e565b600482019050919050565b610372816104b5565b82525050565b60006103848284610315565b915081905092915050565b600061039a82610346565b9150819050919050565b60006020820190506103b96000830184610369565b92915050565b60006103c96103da565b90506103d58282610501565b919050565b6000604051905090565b600067ffffffffffffffff8211156103ff576103fe61060a565b5b6104088261064d565b9050602081019050919050565b600081519050919050565b600081905092915050565b6000610436826104b5565b9150610441836104b5565b9250827fffffffffffffffffffffffffffffffffffffffffffffffffffffffffffffffff03821115610476576104756105ac565b5b828201905092915050565b600061048c826104b5565b9150610497836104b5565b9250828210156104aa576104a96105ac565b5b828203905092915050565b6000819050919050565b82818337600083830152505050565b60005b838110156104ec5780820151818401526020810190506104d1565b838111156104fb576000848401525b50505050565b61050a8261064d565b810181811067ffffffffffffffff821117156105295761052861060a565b5b80604052505050565b600061053d826104b5565b91507fffffffffffffffffffffffffffffffffffffffffffffffffffffffffffffffff8214156105705761056f6105ac565b5b600182019050919050565b6000610586826104b5565b9150610591836104b5565b9250826105a1576105a06105db565b5b828206905092915050565b7f4e487b7100000000000000000000000000000000000000000000000000000000600052601160045260246000fd5b7f4e487b7100000000000000000000000000000000000000000000000000000000600052601260045260246000fd5b7f4e487b7100000000000000000000000000000000000000000000000000000000600052604160045260246000fd5b600080fd5b600080fd5b600080fd5b600080fd5b6000601f19601f8301169050919050565b7f73756d6100000000000000000000000000000000000000000000000000000000600082015250565b610690816104b5565b811461069b57600080fd5b5056fea26469706673582212200eb6328021e0dcb0a336945cb05eb4cb83c9ee04a613b416687734df3e40882e64736f6c63430008070033",
			"opcodes": "PUSH1 0x80 PUSH1 0x40 MSTORE CALLVALUE DUP1 ISZERO PUSH2 0x10 JUMPI PUSH1 0x0 DUP1 REVERT JUMPDEST POP PUSH2 0x6D4 DUP1 PUSH2 0x20 PUSH1 0x0 CODECOPY PUSH1 0x0 RETURN INVALID PUSH1 0x80 PUSH1 0x40 MSTORE CALLVALUE DUP1 ISZERO PUSH2 0x10 JUMPI PUSH1 0x0 DUP1 REVERT JUMPDEST POP PUSH1 0x4 CALLDATASIZE LT PUSH2 0x41 JUMPI PUSH1 0x0 CALLDATALOAD PUSH1 0xE0 SHR DUP1 PUSH4 0x188B85B4 EQ PUSH2 0x46 JUMPI DUP1 PUSH4 0xAFEE9911 EQ PUSH2 0x76 JUMPI DUP1 PUSH4 0xC12363A2 EQ PUSH2 0xA6 JUMPI JUMPDEST PUSH1 0x0 DUP1 REVERT JUMPDEST PUSH2 0x60 PUSH1 0x4 DUP1 CALLDATASIZE SUB DUP2 ADD SWAP1 PUSH2 0x5B SWAP2 SWAP1 PUSH2 0x2E8 JUMP JUMPDEST PUSH2 0xC4 JUMP JUMPDEST PUSH1 0x40 MLOAD PUSH2 0x6D SWAP2 SWAP1 PUSH2 0x3A4 JUMP JUMPDEST PUSH1 0x40 MLOAD DUP1 SWAP2 SUB SWAP1 RETURN JUMPDEST PUSH2 0x90 PUSH1 0x4 DUP1 CALLDATASIZE SUB DUP2 ADD SWAP1 PUSH2 0x8B SWAP2 SWAP1 PUSH2 0x279 JUMP JUMPDEST PUSH2 0x110 JUMP JUMPDEST PUSH1 0x40 MLOAD PUSH2 0x9D SWAP2 SWAP1 PUSH2 0x3A4 JUMP JUMPDEST PUSH1 0x40 MLOAD DUP1 SWAP2 SUB SWAP1 RETURN JUMPDEST PUSH2 0xAE PUSH2 0x193 JUMP JUMPDEST PUSH1 0x40 MLOAD PUSH2 0xBB SWAP2 SWAP1 PUSH2 0x3A4 JUMP JUMPDEST PUSH1 0x40 MLOAD DUP1 SWAP2 SUB SWAP1 RETURN JUMPDEST PUSH1 0x0 DUP1 PUSH1 0x0 SWAP1 POP PUSH1 0x0 DUP4 SWAP1 POP JUMPDEST DUP4 PUSH1 0xA PUSH2 0xDE SWAP2 SWAP1 PUSH2 0x42B JUMP JUMPDEST DUP2 LT ISZERO PUSH2 0x106 JUMPI DUP1 DUP3 PUSH2 0xF1 SWAP2 SWAP1 PUSH2 0x42B JUMP JUMPDEST SWAP2 POP DUP1 DUP1 PUSH2 0xFE SWAP1 PUSH2 0x532 JUMP JUMPDEST SWAP2 POP POP PUSH2 0xD1 JUMP JUMPDEST POP DUP1 SWAP2 POP POP SWAP2 SWAP1 POP JUMP JUMPDEST PUSH1 0x0 DUP1 DUP5 PUSH1 0x40 MLOAD PUSH1 0x20 ADD PUSH2 0x124 SWAP2 SWAP1 PUSH2 0x378 JUMP JUMPDEST PUSH1 0x40 MLOAD PUSH1 0x20 DUP2 DUP4 SUB SUB DUP2 MSTORE SWAP1 PUSH1 0x40 MSTORE DUP1 MLOAD SWAP1 PUSH1 0x20 ADD KECCAK256 SWAP1 POP PUSH1 0x40 MLOAD PUSH1 0x20 ADD PUSH2 0x14B SWAP1 PUSH2 0x38F JUMP JUMPDEST PUSH1 0x40 MLOAD PUSH1 0x20 DUP2 DUP4 SUB SUB DUP2 MSTORE SWAP1 PUSH1 0x40 MSTORE DUP1 MLOAD SWAP1 PUSH1 0x20 ADD KECCAK256 DUP2 EQ ISZERO PUSH2 0x17C JUMPI DUP3 DUP5 PUSH2 0x174 SWAP2 SWAP1 PUSH2 0x42B JUMP JUMPDEST SWAP2 POP POP PUSH2 0x18C JUMP JUMPDEST DUP3 DUP5 PUSH2 0x188 SWAP2 SWAP1 PUSH2 0x481 JUMP JUMPDEST SWAP2 POP POP JUMPDEST SWAP4 SWAP3 POP POP POP JUMP JUMPDEST PUSH1 0x0 DUP1 PUSH1 0x0 SWAP1 POP PUSH1 0x0 DUP1 JUMPDEST PUSH1 0xA DUP2 LT ISZERO PUSH2 0x1EB JUMPI PUSH1 0x0 PUSH1 0x2 DUP4 PUSH2 0x1B6 SWAP2 SWAP1 PUSH2 0x57B JUMP JUMPDEST EQ PUSH2 0x1D8 JUMPI DUP2 DUP4 PUSH2 0x1C7 SWAP2 SWAP1 PUSH2 0x42B JUMP JUMPDEST SWAP3 POP DUP1 DUP1 PUSH2 0x1D4 SWAP1 PUSH2 0x532 JUMP JUMPDEST SWAP2 POP POP JUMPDEST DUP2 DUP1 PUSH2 0x1E3 SWAP1 PUSH2 0x532 JUMP JUMPDEST SWAP3 POP POP PUSH2 0x19E JUMP JUMPDEST DUP3 SWAP4 POP POP POP POP SWAP1 JUMP JUMPDEST PUSH1 0x0 PUSH2 0x207 PUSH2 0x202 DUP5 PUSH2 0x3E4 JUMP JUMPDEST PUSH2 0x3BF JUMP JUMPDEST SWAP1 POP DUP3 DUP2 MSTORE PUSH1 0x20 DUP2 ADD DUP5 DUP5 DUP5 ADD GT ISZERO PUSH2 0x223 JUMPI PUSH2 0x222 PUSH2 0x63E JUMP JUMPDEST JUMPDEST PUSH2 0x22E DUP5 DUP3 DUP6 PUSH2 0x4BF JUMP JUMPDEST POP SWAP4 SWAP3 POP POP POP JUMP JUMPDEST PUSH1 0x0 DUP3 PUSH1 0x1F DUP4 ADD SLT PUSH2 0x24B JUMPI PUSH2 0x24A PUSH2 0x639 JUMP JUMPDEST JUMPDEST DUP2 CALLDATALOAD PUSH2 0x25B DUP5 DUP3 PUSH1 0x20 DUP7 ADD PUSH2 0x1F4 JUMP JUMPDEST SWAP2 POP POP SWAP3 SWAP2 POP POP JUMP JUMPDEST PUSH1 0x0 DUP2 CALLDATALOAD SWAP1 POP PUSH2 0x273 DUP2 PUSH2 0x687 JUMP JUMPDEST SWAP3 SWAP2 POP POP JUMP JUMPDEST PUSH1 0x0 DUP1 PUSH1 0x0 PUSH1 0x60 DUP5 DUP7 SUB SLT ISZERO PUSH2 0x292 JUMPI PUSH2 0x291 PUSH2 0x648 JUMP JUMPDEST JUMPDEST PUSH1 0x0 DUP5 ADD CALLDATALOAD PUSH8 0xFFFFFFFFFFFFFFFF DUP2 GT ISZERO PUSH2 0x2B0 JUMPI PUSH2 0x2AF PUSH2 0x643 JUMP JUMPDEST JUMPDEST PUSH2 0x2BC DUP7 DUP3 DUP8 ADD PUSH2 0x236 JUMP JUMPDEST SWAP4 POP POP PUSH1 0x20 PUSH2 0x2CD DUP7 DUP3 DUP8 ADD PUSH2 0x264 JUMP JUMPDEST SWAP3 POP POP PUSH1 0x40 PUSH2 0x2DE DUP7 DUP3 DUP8 ADD PUSH2 0x264 JUMP JUMPDEST SWAP2 POP POP SWAP3 POP SWAP3 POP SWAP3 JUMP JUMPDEST PUSH1 0x0 PUSH1 0x20 DUP3 DUP5 SUB SLT ISZERO PUSH2 0x2FE JUMPI PUSH2 0x2FD PUSH2 0x648 JUMP JUMPDEST JUMPDEST PUSH1 0x0 PUSH2 0x30C DUP5 DUP3 DUP6 ADD PUSH2 0x264 JUMP JUMPDEST SWAP2 POP POP SWAP3 SWAP2 POP POP JUMP JUMPDEST PUSH1 0x0 PUSH2 0x320 DUP3 PUSH2 0x415 JUMP JUMPDEST PUSH2 0x32A DUP2 DUP6 PUSH2 0x420 JUMP JUMPDEST SWAP4 POP PUSH2 0x33A DUP2 DUP6 PUSH1 0x20 DUP7 ADD PUSH2 0x4CE JUMP JUMPDEST DUP1 DUP5 ADD SWAP2 POP POP SWAP3 SWAP2 POP POP JUMP JUMPDEST PUSH1 0x0 PUSH2 0x353 PUSH1 0x4 DUP4 PUSH2 0x420 JUMP JUMPDEST SWAP2 POP PUSH2 0x35E DUP3 PUSH2 0x65E JUMP JUMPDEST PUSH1 0x4 DUP3 ADD SWAP1 POP SWAP2 SWAP1 POP JUMP JUMPDEST PUSH2 0x372 DUP2 PUSH2 0x4B5 JUMP JUMPDEST DUP3 MSTORE POP POP JUMP JUMPDEST PUSH1 0x0 PUSH2 0x384 DUP3 DUP5 PUSH2 0x315 JUMP JUMPDEST SWAP2 POP DUP2 SWAP1 POP SWAP3 SWAP2 POP POP JUMP JUMPDEST PUSH1 0x0 PUSH2 0x39A DUP3 PUSH2 0x346 JUMP JUMPDEST SWAP2 POP DUP2 SWAP1 POP SWAP2 SWAP1 POP JUMP JUMPDEST PUSH1 0x0 PUSH1 0x20 DUP3 ADD SWAP1 POP PUSH2 0x3B9 PUSH1 0x0 DUP4 ADD DUP5 PUSH2 0x369 JUMP JUMPDEST SWAP3 SWAP2 POP POP JUMP JUMPDEST PUSH1 0x0 PUSH2 0x3C9 PUSH2 0x3DA JUMP JUMPDEST SWAP1 POP PUSH2 0x3D5 DUP3 DUP3 PUSH2 0x501 JUMP JUMPDEST SWAP2 SWAP1 POP JUMP JUMPDEST PUSH1 0x0 PUSH1 0x40 MLOAD SWAP1 POP SWAP1 JUMP JUMPDEST PUSH1 0x0 PUSH8 0xFFFFFFFFFFFFFFFF DUP3 GT ISZERO PUSH2 0x3FF JUMPI PUSH2 0x3FE PUSH2 0x60A JUMP JUMPDEST JUMPDEST PUSH2 0x408 DUP3 PUSH2 0x64D JUMP JUMPDEST SWAP1 POP PUSH1 0x20 DUP2 ADD SWAP1 POP SWAP2 SWAP1 POP JUMP JUMPDEST PUSH1 0x0 DUP2 MLOAD SWAP1 POP SWAP2 SWAP1 POP JUMP JUMPDEST PUSH1 0x0 DUP2 SWAP1 POP SWAP3 SWAP2 POP POP JUMP JUMPDEST PUSH1 0x0 PUSH2 0x436 DUP3 PUSH2 0x4B5 JUMP JUMPDEST SWAP2 POP PUSH2 0x441 DUP4 PUSH2 0x4B5 JUMP JUMPDEST SWAP3 POP DUP3 PUSH32 0xFFFFFFFFFFFFFFFFFFFFFFFFFFFFFFFFFFFFFFFFFFFFFFFFFFFFFFFFFFFFFFFF SUB DUP3 GT ISZERO PUSH2 0x476 JUMPI PUSH2 0x475 PUSH2 0x5AC JUMP JUMPDEST JUMPDEST DUP3 DUP3 ADD SWAP1 POP SWAP3 SWAP2 POP POP JUMP JUMPDEST PUSH1 0x0 PUSH2 0x48C DUP3 PUSH2 0x4B5 JUMP JUMPDEST SWAP2 POP PUSH2 0x497 DUP4 PUSH2 0x4B5 JUMP JUMPDEST SWAP3 POP DUP3 DUP3 LT ISZERO PUSH2 0x4AA JUMPI PUSH2 0x4A9 PUSH2 0x5AC JUMP JUMPDEST JUMPDEST DUP3 DUP3 SUB SWAP1 POP SWAP3 SWAP2 POP POP JUMP JUMPDEST PUSH1 0x0 DUP2 SWAP1 POP SWAP2 SWAP1 POP JUMP JUMPDEST DUP3 DUP2 DUP4 CALLDATACOPY PUSH1 0x0 DUP4 DUP4 ADD MSTORE POP POP POP JUMP JUMPDEST PUSH1 0x0 JUMPDEST DUP4 DUP2 LT ISZERO PUSH2 0x4EC JUMPI DUP1 DUP3 ADD MLOAD DUP2 DUP5 ADD MSTORE PUSH1 0x20 DUP2 ADD SWAP1 POP PUSH2 0x4D1 JUMP JUMPDEST DUP4 DUP2 GT ISZERO PUSH2 0x4FB JUMPI PUSH1 0x0 DUP5 DUP5 ADD MSTORE JUMPDEST POP POP POP POP JUMP JUMPDEST PUSH2 0x50A DUP3 PUSH2 0x64D JUMP JUMPDEST DUP2 ADD DUP2 DUP2 LT PUSH8 0xFFFFFFFFFFFFFFFF DUP3 GT OR ISZERO PUSH2 0x529 JUMPI PUSH2 0x528 PUSH2 0x60A JUMP JUMPDEST JUMPDEST DUP1 PUSH1 0x40 MSTORE POP POP POP JUMP JUMPDEST PUSH1 0x0 PUSH2 0x53D DUP3 PUSH2 0x4B5 JUMP JUMPDEST SWAP2 POP PUSH32 0xFFFFFFFFFFFFFFFFFFFFFFFFFFFFFFFFFFFFFFFFFFFFFFFFFFFFFFFFFFFFFFFF DUP3 EQ ISZERO PUSH2 0x570 JUMPI PUSH2 0x56F PUSH2 0x5AC JUMP JUMPDEST JUMPDEST PUSH1 0x1 DUP3 ADD SWAP1 POP SWAP2 SWAP1 POP JUMP JUMPDEST PUSH1 0x0 PUSH2 0x586 DUP3 PUSH2 0x4B5 JUMP JUMPDEST SWAP2 POP PUSH2 0x591 DUP4 PUSH2 0x4B5 JUMP JUMPDEST SWAP3 POP DUP3 PUSH2 0x5A1 JUMPI PUSH2 0x5A0 PUSH2 0x5DB JUMP JUMPDEST JUMPDEST DUP3 DUP3 MOD SWAP1 POP SWAP3 SWAP2 POP POP JUMP JUMPDEST PUSH32 0x4E487B7100000000000000000000000000000000000000000000000000000000 PUSH1 0x0 MSTORE PUSH1 0x11 PUSH1 0x4 MSTORE PUSH1 0x24 PUSH1 0x0 REVERT JUMPDEST PUSH32 0x4E487B7100000000000000000000000000000000000000000000000000000000 PUSH1 0x0 MSTORE PUSH1 0x12 PUSH1 0x4 MSTORE PUSH1 0x24 PUSH1 0x0 REVERT JUMPDEST PUSH32 0x4E487B7100000000000000000000000000000000000000000000000000000000 PUSH1 0x0 MSTORE PUSH1 0x41 PUSH1 0x4 MSTORE PUSH1 0x24 PUSH1 0x0 REVERT JUMPDEST PUSH1 0x0 DUP1 REVERT JUMPDEST PUSH1 0x0 DUP1 REVERT JUMPDEST PUSH1 0x0 DUP1 REVERT JUMPDEST PUSH1 0x0 DUP1 REVERT JUMPDEST PUSH1 0x0 PUSH1 0x1F NOT PUSH1 0x1F DUP4 ADD AND SWAP1 POP SWAP2 SWAP1 POP JUMP JUMPDEST PUSH32 0x73756D6100000000000000000000000000000000000000000000000000000000 PUSH1 0x0 DUP3 ADD MSTORE POP JUMP JUMPDEST PUSH2 0x690 DUP2 PUSH2 0x4B5 JUMP JUMPDEST DUP2 EQ PUSH2 0x69B JUMPI PUSH1 0x0 DUP1 REVERT JUMPDEST POP JUMP INVALID LOG2 PUSH5 0x6970667358 0x22 SLT KECCAK256 0xE 0xB6 ORIGIN DUP1 0x21 0xE0 0xDC 0xB0 LOG3 CALLDATASIZE SWAP5 0x5C 0xB0 0x5E 0xB4 0xCB DUP4 0xC9 0xEE DIV 0xA6 SGT 0xB4 AND PUSH9 0x7734DF3E40882E6473 PUSH16 0x6C634300080700330000000000000000 "
		},
		"gasEstimates": {
			"creation": {
				"codeDepositCost": "349600",
				"executionCost": "386",
				"totalCost": "349986"
			},
			"external": {
				"odd()": "infinite",
				"sum(uint256)": "infinite",
				"sum_rest(string,uint256,uint256)": "infinite"
			}
		},
		"methodIdentifiers": {
			"odd()": "c12363a2",
			"sum(uint256)": "188b85b4",
			"sum_rest(string,uint256,uint256)": "afee9911"
		}
	},
	"abi": [
		{
			"inputs": [],
			"name": "odd",
			"outputs": [
				{
					"internalType": "uint256",
					"name": "",
					"type": "uint256"
				}
			],
			"stateMutability": "pure",
			"type": "function"
		},
		{
			"inputs": [
				{
					"internalType": "uint256",
					"name": "_number",
					"type": "uint256"
				}
			],
			"name": "sum",
			"outputs": [
				{
					"internalType": "uint256",
					"name": "",
					"type": "uint256"
				}
			],
			"stateMutability": "pure",
			"type": "function"
		},
		{
			"inputs": [
				{
					"internalType": "string",
					"name": "operation",
					"type": "string"
				},
				{
					"internalType": "uint256",
					"name": "a",
					"type": "uint256"
				},
				{
					"internalType": "uint256",
					"name": "b",
					"type": "uint256"
				}
			],
			"name": "sum_rest",
			"outputs": [
				{
					"internalType": "uint256",
					"name": "",
					"type": "uint256"
				}
			],
			"stateMutability": "pure",
			"type": "function"
		}
	]
}